:100000000C9485010C94B6010C94B6010C94B601C5
:100010000C94B6010C94B6010C94B6010C94B60184
:100020000C94B6010C94F40D0C94F40D0C94F40D96
:100030000C94B6010C94B6010C94B6010C94B60164
:100040000C94B6010C94FA0E0C94B6010C94B60103
:100050000C94B6010C94B6010C94B6010C944A0DA4
:100060000C94B6010C94BE0D0C94940D0C94B60136
:100070000C94B6010C94B6010C94B6010C94B60124
:100080000C94CC0E0C94B6010C94B6010C94B601F1
:100090000C94B6010C94B6010C94B6010C94B60104
:1000A0000C94B6010C94B6010C949E0E0C94B601FF
:1000B0000C94B6010C94B6010C94B6010C94700E1D
:1000C0000C94B6010C94B6010C94B6010C94B601D4
:1000D0000C94B6010C94B6010C94B6010C94B601C4
:1000E0000C94B60107634236B79BD8A71A396856F5
:1000F00018AEBAAB558C1D3CB7CC5763BD6DEDFD4A
:10010000753EF6177231BF000000803F0800000006
:10011000BE922449123EABAAAA2ABECDCCCC4C3EFC
:1001200000000080BEABAAAAAA3E00000000BF00EB
:100130000000803F0000000000084178D3BB4387E7
:10014000D1133D190E3CC3BD4282AD2B3E68EC82FB
:1001500076BED98FE1A93E4C80EFFFBE01C4FF7F80
:100160003F00000000000C9413050C94E6040C946E
:100170002C030C9401020C9460020C9459030C940F
:1001800088050C9466030C9434030C946B030C9454
:1001900038030C945D030C9432020C9445030C94C8
:1001A0003B030C9424180C94C1050C942B050C945F
:1001B000A0050C9467030C94AD020C9453030C94AB
:1001C00061030C9441030C9426030C944B030C9490
:1001D000430F0C942C050C9424020C944F030C94A4
:1001E00030030C94100200002100240027002A0094
:1001F0002D003000330001010000040107010A0155
:1002000000000A0B02090C0D0E0807030401000090
:1002100000000000000000000000000000000000DE
:10022000000000000000000000000000121110009B
:1002300000000000000000000000000000000000BE
:10024000000000000000000020002300260029001C
:100250002C002F00320000010000030106010901FB
:1002600000002200250028002B002E003100340061
:1002700002010000050108010B0105050505070540
:1002800008080808020202020A0A08080404040412
:10029000010101010101010103030303030303033E
:1002A000040707070C0C0C0C0C0C0C0C02020202CD
:1002B00006060606060606060B0B0B0B0B0B0B0BB6
:1002C0000102102020080810204010204080020168
:1002D000020108040201010204081020408080404D
:1002E000201008040201800402018040201008044C
:1002F00002010804020101020408102040800102EA
:10030000040810204080430F241811241FBECFEF93
:10031000D1E2DEBFCDBF00E00CBF12E0A0E0B2E052
:10032000E0EFF8E300E00BBF02C007900D92AE359E
:10033000B107D9F725E0AEE5B2E001C01D92A233C6
:10034000B207E1F711E0C4E8D1E000E006C0219770
:100350000109802FFE010E948218C338D10780E076
:100360000807A9F70E94FF100C94661C0C9400006B
:100370008F929F92AF92BF92CF92DF92EF92FF92B5
:10038000CF93DF93EC01EE8DFF8DC080D180E280B2
:10039000F380CEA2DFA2E8A6F9A6EC8DFD8D8081C8
:1003A0009181A281B3818AA79BA7ACA7BDA7FE01BB
:1003B000FE9680809180A280B380A5019401C70140
:1003C000B6010E946A1A18162CF48EA29FA2A8A643
:1003D000B9A60CC08AAC9BACACACBDACA501940179
:1003E000C701B6010E940B1987FDEFCFDF91CF91B6
:1003F000FF90EF90DF90CF90BF90AF909F908F9045
:100400000895FC01538D448D252F30E0842F90E01A
:10041000821B930B541710F0CF96089501970895FF
:10042000FC01918D828D981761F0A28DAE0FBF2FC8
:10043000B11D5D968C91928D9F5F9F73928F90E01E
:1004400008958FEF9FEF0895FC01918D828D98178D
:1004500031F0828DE80FF11D858D90E008958FEFCA
:100460009FEF0895FC01918D228D892F90E0805C93
:100470009F4F821B91098F7399270895FC01A48DCA
:10048000A80FB92FB11DA35ABF4F2C91848D90E0B6
:1004900001968F739927848FA689B7892C93A08999
:1004A000B1898C91837080648C93938D848D981323
:1004B00006C00288F389E02D80818F7D80830895B6
:1004C000EF92FF920F931F93CF93DF93EC0181E0A4
:1004D000888F9B8D8C8D98131AC0E889F98980814B
:1004E00085FF15C09FB7F894EE89FF896083E8897E
:1004F000F98980818370806480839FBF81E090E070
:10050000DF91CF911F910F91FF90EF900895F62EFC
:100510000B8D10E00F5F1F4F0F731127E02E8C8D96
:100520008E110CC00FB607FCFACFE889F9898081DB
:1005300085FFF5CFCE010E943E02F1CFEB8DEC0F8F
:10054000FD2FF11DE35AFF4FF0829FB7F8940B8FF8
:10055000EA89FB8980818062CFCFCF93DF93EC0162
:10056000888D8823B9F0AA89BB89E889F9898C919B
:1005700085FD03C0808186FD0DC00FB607FCF7CF57
:100580008C9185FFF2CF808185FFEDCFCE010E9457
:100590003E02E9CFDF91CF91089582E993E00E9476
:1005A000320221E0892B09F420E0822F089580E0B7
:1005B00090E0892B29F00E94CD0281110E94000059
:1005C00080E090E0892B49F080E090E0892B29F0D1
:1005D0000E94000081110E94000080E090E0892BC1
:1005E00049F080E090E0892B29F00E940000811101
:1005F0000E94000080E090E0892B49F080E090E0CC
:10060000892B29F00E94000081110C9400000895AC
:100610008150823108F05AC0E82FF0E08827EC5E64
:10062000FC4F8F4F0C9482183403380326032C039D
:10063000300366033B03410345034B034F0353035E
:1006400059035D036603610367036B0380918000B8
:100650008F77809380000895809180008F7DF9CFFF
:1006600080918000877FF5CF84B58F7784BD089512
:1006700084B58F7DFBCF8091B0008F778093B000E1
:1006800008958091B0008F7DF9CF809190008F7791
:10069000809390000895809190008F7DF9CF809194
:1006A0009000877FF5CF8091A0008F778093A00086
:1006B00008958091A0008F7DF9CF8091A000877F61
:1006C000F5CF809120018F7780932001089580914C
:1006D00020018F7DF9CF80912001877FF5CFCF93C7
:1006E000DF93282F30E0F901E050FE4F8491F901AB
:1006F000E054FD4FD491F901E658FD4FC491CC234D
:10070000A1F081110E940803EC2FF0E0EE0FFF1F13
:10071000EA5BFD4FA591B491EC91ED2381E090E06F
:1007200009F480E0DF91CF91089580E090E0FACF66
:100730001F93CF93DF93282F30E0F901E050FE4F55
:100740008491F901E054FD4FD491F901E658FD4F31
:10075000C491CC23A9F0162F81110E940803EC2F1D
:10076000F0E0EE0FFF1FE05AFD4FA591B4918FB757
:10077000F894EC91111108C0D095DE23DC938FBF63
:10078000DF91CF911F910895DE2BF8CFCF93DF93A8
:1007900090E0FC01E054FD4F249186589D4FFC01F0
:1007A00084918823D1F090E0880F991FFC01EA51D1
:1007B000FE4FA591B491FC01E05AFD4FC591D49133
:1007C00061110EC09FB7F8948C91E22FE0958E23B3
:1007D0008C932881E223E8839FBFDF91CF91089516
:1007E0008FB7F894EC91E22BEC938FBFF6CF863362
:1007F00008F0865320917B00982F9870277F922BCA
:1008000090937B008770806480937C0080917A0055
:10081000806480937A0080917A0086FDFCCF80917D
:1008200078009091790008953FB7F89480918603FD
:1008300090918703A0918803B091890326B5A89B66
:1008400005C02F3F19F00196A11DB11D3FBFBA2F62
:10085000A92F982F8827BC01CD01620F711D811D22
:10086000911D42E0660F771F881F991F4A95D1F7A7
:1008700008958F929F92AF92BF92CF92DF92EF92A4
:10088000FF924B015C010E9414046B017C010E94E9
:1008900014046C197D098E099F09683E7340810517
:1008A0009105A8F321E0821A9108A108B10888EE09
:1008B000C80E83E0D81EE11CF11C81149104A10430
:1008C000B10429F7FF90EF90DF90CF90BF90AF90E9
:1008D0009F908F9008952FB7F89460918203709144
:1008E000830380918403909185032FBF08954F92D5
:1008F0005F926F927F928F929F92AF92BF92CF92B0
:10090000DF92EF92FF92CF93DF93EC010E946B0492
:100910006B017C0180918E0390918F03A0919003D5
:10092000B09191030A96A11DB11D8C159D05AE05D0
:10093000BF05ECF588810E94F703BC01990F880B75
:10094000990B0E94BA194B015C0120E030E040E0B5
:100950005FE360918A0370918B0380918C03909187
:100960008D030E946F1A2B013C0120E030E040E033
:100970005FE3C501B4010E946F1A9B01AC01C30182
:10098000B2010E949F1860938A0370938B03809337
:100990008C0390938D038A829B82AC82BD82C0922D
:1009A0008E03D0928F03E0929003F0929103DF9137
:1009B000CF91FF90EF90DF90CF90BF90AF909F903E
:1009C0008F907F906F905F904F900895AF92BF92FD
:1009D000CF92DF92EF92FF920F931F93CF93DF930B
:1009E0006C017B018B01040F151FEB015E01AE183A
:1009F000BF08C017D10759F06991D601ED91FC915C
:100A00000190F081E02DC6011995892B79F7C50178
:100A1000DF91CF911F910F91FF90EF90DF90CF90DA
:100A2000BF90AF9008952091B4023091B50228177D
:100A3000390771F49091B2028091B302981741F096
:100A4000E091B202F0E0E959FD4F808190E0089515
:100A50008FEF9FEF08950895EF92FF920F931F93EA
:100A6000CF93DF93DC015C96ED90FC905D97E114F1
:100A7000F10479F481E090E013969C938E931297A1
:100A800090E080E0DF91CF911F910F91FF90EF9068
:100A900008955196ED91FC91529750968C915097F4
:100AA000982F90950FB75E962C915E97122F12702B
:100AB00021FD6095F8942081112319F1282B2083C2
:100AC000E7012197F1F728E0462F50E0308160FFE1
:100AD0001AC0382B3083E7012197F1F7BA017595D9
:100AE0006795215089F7112381F0808189238083C4
:100AF0000FBF5C968D919C910197F1F781E090E09A
:100B0000C1CF2923DCCF3923E5CF9081892BEFCFCB
:100B10002091B4023091B5022817390771F4809101
:100B2000B3022091B20290E0805C9F4F821B91093A
:100B300060E470E00E946E18089590E080E00895EF
:100B40002091B4023091B50228173907B9F4909179
:100B5000B2028091B302981789F0E091B202F0E0FE
:100B6000E959FD4F80812091B20230E02F5F3F4F65
:100B70002F7333272093B20290E008958FEF9FEFF9
:100B8000089590E080E00895DC01EC91E03390F569
:100B900011968C91119728E830E0281B310987FDC8
:100BA0003395220F331F220F331F6217730784F010
:100BB00012968C9128E532E0281B310987FD339588
:100BC000220F331F220F331F621773070CF49B0190
:100BD00022503109220F331F4FB7F8948E2F90E027
:100BE000FC01EE0FFF1FE80FF91FE951FD4F3283A3
:100BF00021834FBF08951F93CF93DF93EC01162FEE
:100C00008881803308F04EC061E0812F0E94C603C6
:100C10008881282F30E0F901EE0FFF1FE20FF31F4C
:100C2000E951FD4F1F736081607C612B60831982E5
:100C30001A822CE0622F0E946218829FB001112458
:100C400030E020E0AB01420F531FFA01EE0FFF1F0F
:100C5000E40FF51FE951FD4F908196FD16C02F5FFF
:100C60003F4F2C30310571F7813009F5109280002B
:100C700082E0809381001092850010928400B19AE6
:100C800080916F00826080936F00E8818E2F90E0EA
:100C9000FC01EE0FFF1FE80FF91FE951FD4F8081A6
:100CA000806480838881DF91CF911F910895823085
:100CB00061F4109290008093910010929500109230
:100CC000940088BB80937100E0CF833069F4109268
:100CD000A00082E08093A1001092A5001092A400D1
:100CE00089BB80937200D1CF8111CFCF10922001A8
:100CF00082E08093210110922501109224018ABB89
:100D000080937300C2CFAF92BF92CF92DF92EF92E7
:100D1000FF920F931F93CF93DF936B017A01EC0146
:100D2000CE59DD4F28813CE0389F8001399F100D5E
:100D30001124A0906602B12C27FF1FC0FB01118275
:100D4000108288818F5F888388819801280F311DE8
:100D500087FD3A95F6012A153B051CF488818C30F5
:100D6000C4F180819181049680349C4908F473C059
:100D7000F60180819181049670C088819801280FC6
:100D8000311D87FD3A952A153B05DCF68881A801BF
:100D9000480F511D87FD5A95FA01EE0FFF1FE40F12
:100DA000F51FE951FD4F808186FFCBCF8881F80187
:100DB000E80FF11D87FDFA95CF01EE0FFF1FE80F39
:100DC000F91FE951FD4F808160E08F730E94980305
:100DD000B8CF808191812881A801420F511D27FD44
:100DE0005A959A01FA01EE0FFF1FE20FF31FE95126
:100DF000FD4F21813281820F931FF7019183808300
:100E000088819801280F311D87FD3A95F901EE0F71
:100E1000FF1FE20FF31FE951FD4F808186FF22C0C3
:100E20008881080F111D87FD1A95F801EE0FFF1F2D
:100E3000E00FF11FE951FD4F808161E08F73DF9179
:100E4000CF911F910F91FF90EF90DF90CF90BF90C7
:100E5000AF900C94980380E49CE9F7019183808320
:100E60008FEF8883DF91CF911F910F91FF90EF90CB
:100E7000DF90CF90BF90AF900895CF92DF92EF9226
:100E8000FF9261E080E30E94980383E290E0019783
:100E9000F1F760E080E30E9498030E9414046B0164
:100EA0007C0181E30E946F03892BA1F40E9414044A
:100EB0006C197D098E099F0969387E458105910568
:100EC00080F360E070E080E89FEBFF90EF90DF90B0
:100ED000CF9008950E9414046B017C0181E30E946D
:100EE0006F03019761F40E9414046C197D098E0947
:100EF0009F0969387E458105910580F3E2CF0E9404
:100F000014046C197D098E099F090E94B81920E00C
:100F100030E048E652E40E941019D7CF4F925F921A
:100F20006F927F928F929F92AF92BF92CF92DF92F9
:100F3000EF92FF920F931F93CF93DF9300D000D0D7
:100F400000D01F92CDB7DEB79A8789872A013B016F
:100F500009831A832B833C83DC015B96BC92AE929F
:100F60005A97FC01ED5BFF4F81E0AA94AB2809F092
:100F700080E08083E985FA854082518262827382B3
:100F800089819A81AB81BC8184839583A683B78351
:100F9000C086D186E286F38666A977A980AD91AD39
:100FA0000E94B81920E030E04AE754E40E9410198A
:100FB0006D837E838F839887E985FA85448655867D
:100FC000668677869B01AC0169817A818B819C81E1
:100FD0000E946F1A4B015C01A985BA8550968D92CB
:100FE0009D92AD92BC9253972D813E814F81588541
:100FF000C701B6010E9410196B017C01E985FA85D1
:10100000C48AD58AE68AF78A808D918D019759F531
:10101000A301920160E070E0CB010E949E18A985B7
:10102000BA851C966D937D938D939C931F97A50114
:10103000940160E070E0CB010E949E18E985FA857A
:10104000608B718B828B938BA701960160E070E0BF
:10105000CB010E949E18A985BA8554966D937D9305
:101060008D939C9357972A960FB6F894DEBF0FBEC8
:10107000CDBFDF91CF911F910F91FF90EF90DF9047
:10108000CF90BF90AF909F908F907F906F905F9028
:101090004F9008950F931F93CF93DF93EC018B0133
:1010A000FC01EE5BFF4F8081882361F1888D998D73
:1010B0008617970739F12C853D854E855F8560E061
:1010C00070E0CB010E949E186C877D878E879F877A
:1010D000288939894A895B8960E070E0CB010E94E8
:1010E0009E18688B798B8A8B9B8B2C893D894E89C6
:1010F0005F8960E070E0CB010E949E186C8B7D8B55
:101100008E8B9F8B198F088FDF91CF911F910F913D
:1011100008952F923F924F925F926F927F928F929B
:101120009F92AF92BF92CF92DF92EF92FF920F9376
:101130001F93CF93DF931C016A017B014801590182
:10114000A9019801CB01B6010E946A1A87FF3BC032
:10115000F101C2AED3AEE4AEF5AE8101025C1F4F29
:10116000F80180829182A282B382349680818823A2
:1011700051F1F101C68DD78D488059806A807B80FE
:10118000A3019201C501B4010E940B1987FF2EC073
:1011900088829982AA82BB82F10186A097A0A0A42E
:1011A000B1A4F801C080D180E280F380A70196014C
:1011B000C501B4010E946A1AF101181624F5C6A2ED
:1011C000D7A2E0A6F1A6DF91CF911F910F91FF90DA
:1011D000EF90DF90CF90BF90AF909F908F907F90D7
:1011E0006F905F904F903F902F900895A3019201D0
:1011F000C701B6010E946A1A181674F6C882D9820D
:10120000EA82FB82C9CFC2ACD3ACE4ACF5ACA70197
:101210009601C501B4010E940B1987FFD4CFF101DB
:10122000CECF2F923F924F925F926F927F928F928A
:101230009F92AF92BF92CF92DF92EF92FF920F9365
:101240001F93CF93DF93CDB7DEB760970FB6F894B7
:10125000DEBF0FBECDBFFC01EE5BFF4F20812987B3
:1012600021111BC01986898560960FB6F894DEBFE0
:101270000FBECDBFDF91CF911F910F91FF90EF90E7
:10128000DF90CF90BF90AF909F908F907F906F90A6
:101290005F904F903F902F900895988B8F870E947A
:1012A0006B046A877B878C879D87EF85F88982A18D
:1012B00093A1A4A1B5A14A855B856C857D85481B5A
:1012C000590B6A0B7B0B86A997A9A0ADB1AD481746
:1012D00059076A077B0730F2048CF58DE02D808179
:1012E0009181A281B3818D839E83AF83B887AF85BF
:1012F000B8899096ED91FC912D813E814F81588562
:1013000060817181828193810E949E186B017C01B2
:10131000EF85F88922A533A544A555A56D817E8169
:101320008F8198850E949E1869837A838B839C8322
:10133000AF85B88950962D913D914D915C91539711
:10134000C701B6010E946F1AEF85F88926A137A15F
:1013500040A551A50E949F184B015C01AF85B8893B
:1013600096968D929D92AD92BC929997FD01ED5B00
:10137000FF4FB081BE87B1112BC0EF85F88944843F
:10138000558466847784A301920169817A818B8177
:101390009C810E946F1A9B01AC01C501B4010E949F
:1013A0009E18AF85B88996966D937D938D939C9387
:1013B0009997C301B201905829813A814B815C8190
:1013C0000E946F1AEF85F88966A777A780AB91AB6B
:1013D000AF85B88996964D905D906D907C90999769
:1013E000FD01FE961081018132802380212F302F54
:1013F000432D522DC301B2010E946A1A18160CF037
:1014000091C0812F902FA32DB22DEF85F88986A34F
:1014100097A3A0A7B1A7FE85FF2309F49AC0AF85C3
:10142000B8891C962D913D914D915C911F97C701F4
:10143000B6010E946F1A6B017C01EF85F889C6A680
:10144000D7A6E0AAF1AAAF85B88954968D909D9051
:10145000AD90BC905797A501940169817A818B81E9
:101460009C810E946F1A9B01AC01EF85F88966A1EF
:1014700077A180A591A50E949E18A70196010E94C0
:101480009F186B017C01C501B401905829813A81F4
:101490004B815C810E946F1AAF85B889D2966D939B
:1014A0007D938D939C93D5979601A701612F702F03
:1014B000832D922D0E940B1987FD14C0EF85F889AA
:1014C00012AD03AD34AC25AC212F302F432D522D5E
:1014D000B601C7010E940B1987FD04C01C2D0D2DFC
:1014E0003E2C2F2CAF85B8895E96ED91FC91812F13
:1014F000902FA32DB22D80839183A283B3838D81FE
:101500009E81AF81B885EF85F88982A793A7A4A7AC
:10151000B5A78A859B85AC85BD8582A393A3A4A32B
:10152000B5A3A1CEAF85B889DA968D909D90AD9088
:10153000BC90DD97A5019401C301B2010E940B1973
:1015400087FF69CFEF85F88986A297A2A0A6B1A6EA
:1015500062CFC12CD12C760176CF4F925F926F92E1
:101560007F928F929F92AF92BF92CF92DF92EF9233
:10157000FF920F931F93CF93DF9300D000D0CDB78E
:10158000DEB72B013C015E834D83809100028823EE
:10159000D1F11092DC021092DD021092DE02109264
:1015A000DF02DA015A96AD90BC905B978AE0C82EB4
:1015B00087EDD82E83E2E82E8CE3F82E9701860182
:1015C00049E25CE56FE87DE3CD010E948E07ED8185
:1015D000FE81E45BFF4F408251826282738200E0B1
:1015E00010E020E83FE340E050E060E87FEB8D81D1
:1015F0009E810E94890861E070E08D819E810E9439
:101600004A08109200028090DC029090DD02A090C7
:10161000DE02B090DF0280915E0290915F02A091A5
:101620006002B091610289839A83AB83BC83ED81B0
:10163000FE81EC5BFF4F80829182A282B3828D811A
:101640009E810E941109AD81BE81A85BBF4FCD90E4
:10165000DD90ED90FC90C0925E02D0925F02E0922D
:101660006002F0926102A701960169817A818B8103
:101670009C810E940B19882331F120E030E046E183
:1016800053E4C701B6010E946F1A9B01AC0160E0F0
:1016900070E88BEB94E40E949E180E9482196B0103
:1016A00088E394E00E94C405B60185E394E00E94BB
:1016B000C405B60182E394E00E94C405B6018FE23E
:1016C00094E00E94C405A3019201C501B4010E94E7
:1016D0009E186B017C0120E030E0A9010E946A1A8B
:1016E000181634F520E030E040E050E4C701B601C0
:1016F0000E940B1987FF26C081E08093000282E0E0
:1017000090E026960FB6F894DEBF0FBECDBFDF91F6
:10171000CF911F910F91FF90EF90DF90CF90BF90EE
:10172000AF909F908F907F906F905F904F900895B3
:1017300020E030E040E050ECC701B6010E946A1A98
:101740001816D4F287E090E0DCCFFB010190002076
:10175000E9F73197AF01461B570BDC01ED91FC9186
:101760000280F381E02D19948F929F92AF92BF92E5
:10177000EF92FF920F931F93CF93DF93CDB7DEB716
:10178000A1970FB6F894DEBF0FBECDBF7C01FA0162
:10179000CB0119A2223008F42AE08E010F5D1F4F01
:1017A000822E912CB12CA12CBF01A50194010E9485
:1017B0004018F901CA016A300CF5605DD8016E93DA
:1017C0008D01232B242B252B79F790E080E01097B7
:1017D00021F0BD01C7010E94A50BA1960FB6F89498
:1017E000DEBF0FBECDBFDF91CF911F910F91FF9054
:1017F000EF90BF90AF909F908F900895695CDECF7F
:101800004F925F926F927F928F929F92AF92BF9210
:10181000CF92DF92EF92FF920F931F93CF936B01C2
:101820007C01742EAC019B010E942C1B61E372E0D1
:10183000811126C046015701E894B7F82FEF3FEF1A
:101840004FE75FE7C501B4010E942C1B81110CC05A
:101850002FEF3FEF4FE75FE7C501B4010E940B197F
:1018600065E372E0181664F02FEF3FEF4FE75FE497
:10187000C701B6010E946A1A1816ACF469E372E057
:1018800083E195E0CF911F910F91FF90EF90DF9052
:10189000CF90BF90AF909F908F907F906F905F9010
:1018A0004F900C94A50B2FEF3FEF4FE75FECC70174
:1018B000B6010E940B1987FDE1CF20E030E0A901BD
:1018C000C701B6010E940B1910E000E087FF0AC0B3
:1018D0006DE283E195E00E942C058C01F7FAF0940B
:1018E000F7F8F094C0E060E070E080E09FE37C16E1
:1018F00041F020E030E040E251E40E941019CF5F57
:10190000F6CFA70196010E949F182B013C010E946F
:1019100089194B015C012AE0BC01A40183E195E037
:101920000E94B40B7C01E00EF11ECC23D1F1C50165
:10193000B4010E94B8199B01AC01C301B2010E941D
:101940009E184B015C016EE283E195E00E942C053C
:10195000E80EF91EC15028F120E030E040E251E4E9
:10196000C501B4010E946F1A2B013C010E94891924
:101970004B01B12CA12C2AE0B501A40183E195E033
:101980000E94B40BE80EF91EC501B4010E94B819FB
:101990009B01AC01C301B2010E949E184B015C0186
:1019A000D9CFC701CF911F910F91FF90EF90DF909A
:1019B000CF90BF90AF909F908F907F906F905F90EF
:1019C0004F900895CF92DF92EF92FF92CF93DF93E3
:1019D0006C01990FEE08FF08F7FE23C06DE282E963
:1019E00093E00E946002EC0144275527BA014C198C
:1019F0005D096E097F092AE082E993E00E94B40B39
:101A0000C80FD91F6DE372E082E993E00E94A50B35
:101A10008C0F9D1FDF91CF91FF90EF90DF90CF90C3
:101A200008952AE0B701A60182E993E00E94B40B71
:101A3000EC01E8CFCF92DF92EF92FF92CF93DF934A
:101A4000EC012A853B854C855D856A817B818C8193
:101A50009D810E94DC1A2E813F81488559850E9414
:101A60006F1A6B017C0120E030E040EA52E40E94F2
:101A70006A1A181634F4C12CD12C80EAE82E82E4BC
:101A8000F82EC701B601DF91CF91FF90EF90DF9064
:101A9000CF9008951F920F920FB60F9211242F939B
:101AA0003F938F939F93AF93BF93809182039091C5
:101AB0008303A0918403B09185033091810323E0D7
:101AC000230F2D3758F50196A11DB11D20938103D9
:101AD0008093820390938303A0938403B093850340
:101AE0008091860390918703A0918803B091890328
:101AF0000196A11DB11D8093860390938703A09347
:101B00008803B0938903BF91AF919F918F913F91CB
:101B10002F910F900FBE0F901F90189526E8230F5E
:101B20000296A11DB11DD2CF1F920F920FB60F9238
:101B300011240BB60F922F933F934F935F936F93A4
:101B40007F938F939F93AF93BF93EF93FF9382E91C
:101B500093E00E943E02FF91EF91BF91AF919F9160
:101B60008F917F916F915F914F913F912F910F9046
:101B70000BBE0F900FBE0F901F9018951F920F92E3
:101B80000FB60F9211240BB60F922F938F939F9342
:101B9000EF93FF93E091A203F091A3038081E09182
:101BA000A803F091A90382FD1DC090818091AB0331
:101BB0008F5F8F732091AC03821741F0E091AB03EC
:101BC000F0E0EE56FC4F958F8093AB03FF91EF91C1
:101BD0009F918F912F910F900BBE0F900FBE0F9082
:101BE0001F9018958081F2CF1F920F920FB60F921F
:101BF00011240BB60F922F933F934F935F936F93E4
:101C00007F938F939F93AF93BF93EF93FF93E09155
:101C1000B402F091B502309749F0A685B785858565
:101C2000968D91FF16C09C918923B1F4FF91EF919D
:101C3000BF91AF919F918F917F916F915F914F91E4
:101C40003F912F910F900BBE0F900FBE0F901F90E2
:101C500018959C91892351F7A389B4899C91858912
:101C6000809589238C93868997890197F1F7608DF8
:101C7000718DA685B785558538E020E0CB010197A9
:101C8000F1F7822F90E095958795282F4C91452369
:101C900009F02068315091F7868D81FD2095809163
:101CA000B30290E001968F7399273091B2023817F2
:101CB00099F0A091B302B0E0A959BD4F2C93809345
:101CC000B302828D938D0197F1F7A389B4898C912A
:101CD0009589892B8C93AACF868D8160868FF1CFD1
:101CE0001F920F920FB60F9211240BB60F922F93E3
:101CF0003F934F935F936F937F938F939F93AF9394
:101D0000BF93EF93FF9348E251E064E271E090E00B
:101D100080E00E948306FF91EF91BF91AF919F9168
:101D20008F917F916F915F914F913F912F910F9084
:101D30000BBE0F900FBE0F901F9018951F920F9221
:101D40000FB60F9211240BB60F922F933F934F9320
:101D50005F936F937F938F939F93AF93BF93EF9313
:101D6000FF9348EA50E064EA70E083E090E00E946C
:101D70008306FF91EF91BF91AF919F918F917F91DA
:101D80006F915F914F913F912F910F900BBE0F90EC
:101D90000FBE0F901F9018951F920F920FB60F92C3
:101DA00011240BB60F922F933F934F935F936F9332
:101DB0007F938F939F93AF93BF93EF93FF9348E9E4
:101DC00050E064E970E082E090E00E948306FF91B9
:101DD000EF91BF91AF919F918F917F916F915F91A3
:101DE0004F913F912F910F900BBE0F900FBE0F9010
:101DF0001F9018951F920F920FB60F9211240BB6D9
:101E00000F922F933F934F935F936F937F938F9393
:101E10009F93AF93BF93EF93FF9348E850E064E83C
:101E200070E081E090E00E948306FF91EF91BF9106
:101E3000AF919F918F917F916F915F914F913F9162
:101E40002F910F900BBE0F900FBE0F901F90189503
:101E5000FC0190916602903398F481E0890F8093A1
:101E600066029083892F90E0FC01EE0FFF1FE80FC0
:101E7000F91FE951FD4F88EB9BE092838183089520
:101E80008FEF808308954F925F926F927F92AF920F
:101E9000BF92CF92DF92EF92FF920F931F93109217
:101EA00095031092940388EE93E0A0E0B0E0809355
:101EB000960390939703A0939803B093990381E1BD
:101EC00092E0909393038093920385EC90E090933B
:101ED0009F0380939E0384EC90E09093A1038093F2
:101EE000A00380EC90E09093A3038093A20381EC85
:101EF00090E09093A5038093A40382EC90E09093EC
:101F0000A7038093A60386EC90E09093A9038093A7
:101F1000A8031092AB031092AC031092AD03109281
:101F2000AE0388E394E00E94280F85E394E00E94CA
:101F3000280F82E394E00E94280F8FE294E00E9431
:101F4000280F1092B6041092B5041092B7041092A4
:101F5000B8041092B9041092BA041092A804109216
:101F6000A7041092A9041092AA041092AB04109234
:101F7000AC0410929A041092990410929B0410924F
:101F80009C0410929D0410929E0410928C04109256
:101F90008B0410928D0410928E0410928F04109274
:101FA000900483E894E090935A04809359048FE757
:101FB00094E0909358048093570487E894E09093BA
:101FC0005C0480935B0410927D041092750410925F
:101FD0007604109277041092780480E090E0AFE7E6
:101FE000B3E48093790490937A04A0937B04B09334
:101FF0007C0494E6492E512C612C712C4092710482
:1020000050927204609273047092740470E060E005
:102010008BE394E00E944A08AA24A394B12CC12C1B
:10202000D12C76019701860140E050E060E87FE323
:102030008BE394E00E948E070E946B040091710470
:10204000109172042091730430917404601B710B21
:10205000820B930B60935D0470935E0480935F0426
:10206000909360048BE095E09093E2048093E10408
:1020700087E095E09093E0048093DF048FE095E0A3
:102080009093E4048093E30410920505C092FD044C
:10209000D092FE04E092FF04F092000580E090E010
:1020A000AFE7B3E48093010590930205A093030585
:1020B000B09304054092F9045092FA046092FB0434
:1020C0007092FC0461E070E083EC94E00E944A08A6
:1020D00097018601B701A60183EC94E00E948E0768
:1020E0000E946B044090F9045090FA046090FB0445
:1020F0007090FC0464197509860997096093E504DA
:102100007093E6048093E7049093E8041092160518
:102110001092150588EE93E0A0E0B0E080931705DB
:1021200090931805A0931905B0931A0583E292E0E5
:10213000909314058093130510922A051092290597
:1021400010922C0510922B0510922E0510922D0541
:102150001092300510922F05609131056E7F6D7FD2
:10216000609331056695617081E068278BE00E947D
:10217000980361E08BE00E94C603EBECF2E0E4918F
:10218000E0932305E5E8F2E0E491F0E0EE0FFF1FB5
:10219000E05AFD4F859194919093250580932405F5
:1021A00060E08AE00E94C6038091310581FD04C091
:1021B00061E08AE00E9498038AE080931F05EAECC0
:1021C000F2E0E491E0932005E4E8F2E0E491F0E04D
:1021D000EE0FFF1FEA5BFD4F8591949190932205CE
:1021E000809321051F910F91FF90EF90DF90CF908A
:1021F000BF90AF907F906F905F904F9008957894CC
:1022000084B5826084BD84B5816084BD85B58260FB
:1022100085BD85B5816085BD80916E0081608093AC
:102220006E00109281008091810082608093810015
:102230008091810081608093810080918000816025
:10224000809380008091B10084608093B100809180
:10225000B00081608093B000809191008260809393
:102260009100809191008160809391008091900015
:102270008160809390008091A10082608093A10092
:102280008091A10081608093A1008091A000816075
:102290008093A00080912101826080932101809130
:1022A00021018160809321018091200181608093D0
:1022B000200180917A00846080937A0080917A0076
:1022C000826080937A0080917A00816080937A00A6
:1022D00080917A00806880937A001092C10080E03B
:1022E00090E0A8E4B2E480937F0490938004A093EC
:1022F0008104B0938204109283041092840410929B
:102300008504109286048093870490938804A09398
:102310008904B0938A0480917D04811104C08BE309
:1023200094E00E94B80181E080937D0400E010E019
:1023300028EC32E440E050E068EC72EC8BE394E08F
:102340000E94890870E060E08BE394E00E944A08F4
:1023500061E08DE00E94C60361E080E30E94C60355
:1023600060E080E30E9498038BE390E09093B604D2
:102370008093B5048AE999E8A6EEB4E48093BB049F
:102380009093BC04A093BD04B093BE0481EE9AE781
:10239000A4E7BFEB8093BF049093C004A093C10453
:1023A000B093C20460E08BE30E94C6038AE390E02E
:1023B0009093A8048093A70480E090E9AFE1B6E48D
:1023C0008093AD049093AE04A093AF04B093B00497
:1023D00082E193E8A0E9BFEB8093B1049093B2044B
:1023E000A093B304B093B40460E08AE30E94C603F0
:1023F0008DE390E090939A048093990480EC92E9A5
:10240000A6E5B8E480939F049093A004A093A10450
:10241000B093A20481E895E9A3EDBFEB8093A304F8
:102420009093A404A093A504B093A60460E08DE368
:102430000E94C6038CE390E090938C0480938B04FD
:1024400080E09FE7A5EDB7E4809391049093920418
:10245000A0939304B09394048BE39FEDAFEDBFEB97
:102460008093950490939604A0939704B093980456
:1024700060E08CE30E94C6030AE010E0D0E0C0E018
:1024800089E30E94F7037C010E94E20CCE0DDF1D60
:1024900065E070E080E090E00E943904015011098D
:1024A00079F760E472E082E993E00E94A50BCE0127
:1024B0000E94E20CCE016AE070E00E946E187093F8
:1024C000A8026093A70269E472E082E993E00E94A7
:1024D000A50B8091A7029091A8020E94E20C68EEE1
:1024E00073E080E090E00E943904B6E46B2EB5E022
:1024F0007B2E0E946B04AB01BC018091A9029091DC
:10250000AA02A091AB02B091AC020696A11DB11D2A
:1025100084179507A607B7070CF04CC089E30E9403
:10252000F7032091A7023091A802BC01621B730B34
:10253000CB010196039710F470E060E0072E000CC9
:10254000880B990B0E94BA1926EA3BE944EC5BE33D
:102550000E94101928E638EE4FE95BE30E946F1ADB
:1025600020E030E040EC50E40E946F1A20E030E0C0
:102570004AE754E40E9410199B01AC016091DC020F
:102580007091DD028091DE029091DF020E949F181F
:102590006093DC027093DD028093DE029093DF0291
:1025A0000E946B046093A9027093AA028093AB020D
:1025B0009093AC0280907F039090800321E082167C
:1025C000910471F140F092E08916910409F495C4E8
:1025D0000E94D7028ECF68EE73E080E090E00E9408
:1025E00039046EE270E088E394E00E94FB056FE23C
:1025F00070E085E394E00E94FB0562E370E082E313
:1026000094E00E94FB0563E370E08FE294E00E9497
:10261000FB0581E090E09093800380937F03D8CF07
:102620000E946B040091AE021091AF022091B002A3
:102630003091B1020617170728073907E0F4809197
:10264000AD028F5F8093AD02853008F48DC10E948A
:102650006B0464547D4F8F4F9F4F6093AE02709315
:10266000AF028093B0029093B10260E08DE00E94CF
:1026700098031092AD0210922E0510922D05109223
:102680002C0510922B0510922A05109229058FE136
:1026900090E09093300580932F0520911F0536EF31
:1026A000320F343048F08EEC820F843028F082EC08
:1026B000820F883008F062C081E090E090932A0594
:1026C000809329058DE190E090932C0580932B0554
:1026D0008DE090E090932E0580932D05343050F0DE
:1026E0008EEC820F843030F082EC820FF0E0E0E07C
:1026F000883010F4E8E6F0E08081343028F092EC85
:10270000920F983008F449C191E0892B343048F099
:102710009EEC920F943028F02E53F0E0E0E0283049
:1027200010F4E8E6F0E0808380911F0596EF980FA3
:10273000943008F434C12EEC280F243008F42FC153
:1027400022EC280F283008F42DC130E020E030932F
:10275000270520932605943008F027C18650990B51
:1027600091E001C0990F8A95EAF7892F8093280597
:1027700080912F05909130050197F1F780912D05FB
:1027800090912E05892B49F1E091B402F091B502A8
:1027900095E0E331F90709F1309739F0A389B4895D
:1027A0009C918589809589238C93809131058E7FBA
:1027B000809331051092B3021092B20283E195E04A
:1027C0009093B5028093B402E0912605F09127051D
:1027D000808190912805892B808387EA94E00E946C
:1027E000770489E994E00E9477040E946B041B013E
:1027F0002C01809101028823C1F00E943D07609363
:10280000C6027093C7028093C8029093C90287EAF8
:1028100094E00E941A0D6093C2027093C3028093E9
:10282000C4029093C502109201028091BE02909161
:10283000BF02A091C002B091C1028C509E4FAF4F19
:10284000BF4F82159305A405B5050CF077C06091C4
:10285000BA027091BB028091BC029091BD0242E02D
:102860000E94000C6CE572E083E195E00E94A50BEC
:102870006091B6027091B7028091B8029091B9024E
:1028800042E00E94000C6DE372E083E195E00E945B
:10289000A50BC090C602D090C702E090C802F0908D
:1028A000C9020E943D079B01AC01C701B6010E940D
:1028B0009E1820E030E0A9010E949F186093BA02A0
:1028C0007093BB028093BC029093BD0287EA94E0B0
:1028D0000E941A0D9B01AC0160E070E0CB010E94E8
:1028E0009E186093B6027093B7028093B8029093DB
:1028F000B902C090DC02D090DD02E090DE02F090E0
:10290000DF0220E030E0A901C701B6010E946A1A87
:1029100018160CF05FC020E030E04AE253E4C70133
:10292000B6010E946A1A18160CF45EC02092BE020C
:102930003092BF024092C0025092C102C0910B027D
:10294000D0910C02C430D10509F411C108F077C050
:10295000C230D10509F4CDC2239709F482C0909208
:10296000800380927F0334CE0E946B046C597F4FAA
:102970008F4F9F4F6093AE027093AF028093B0026F
:102980009093B1028DE00E946F0361E0892B09F002
:1029900060E08DE00E9498036ECE94E0B6CE2BE608
:1029A00030E0D5CE2DE630E0D2CE823359F08333FD
:1029B00059F0843359F092EC980F983048F48E53C4
:1029C000990BCECE88E0D2CE84E0D0CE82E0CECEBF
:1029D00081E0CCCE20E030E04AE253ECC701B60102
:1029E0000E940B1987FFA2CF0E943D0720E030E034
:1029F000A9010E949F186093BA027093BB02809352
:102A0000BC029093BD0287EA94E00E941A0D2091C7
:102A1000C2023091C3024091C4025091C5020E948B
:102A20009E1820E030E0A9010E949F186093B60232
:102A30007093B7028093B8029093B90277CFC630F3
:102A4000D10509F49AC108F447C1279709F087CF47
:102A50004BE354E060E070E084E393E40E94AD0A4D
:102A600070C08091070281111092070280910602C6
:102A7000882329F110920705109208051092090584
:102A800010920A0510920B0510920C0510920D057C
:102A900010920E0510920F0510921005109211055C
:102AA0001092120580910505811104C083EC94E019
:102AB0000E94B80181E0809305051092060287EA22
:102AC00094E00E94770443EC54E060E070E084EB13
:102AD00093E40E94AD0A079791F587EA94E00E947B
:102AE0001A0D6B017C01209102023091030240918A
:102AF0000402509105020E940B1987FF27C0C09263
:102B00000202D0920302E0920402F0920502809148
:102B1000DC029091DD02A091DE02B091DF02809391
:102B2000CE029093CF02A093D002B093D1028093B3
:102B3000CA029093CB02A093CC02B093CD0283E063
:102B400090E090930C0280930B0209CF8091CA020F
:102B50009091CB02A091CC02B091CD028093CE0295
:102B60009093CF02A093D002B093D102E8CF80918E
:102B700008028823A9F11092DC021092DD02109263
:102B8000DE021092DF02A0905504B0905604C12CD2
:102B9000D12C76019701860140E050E060EA71E4B3
:102BA0008BE394E00E948E07C0928704D092880441
:102BB000E0928904F0928A0400E010E028EC32E40C
:102BC00040E050E068EC72EC8BE394E00E948908EE
:102BD00061E070E08BE394E00E944A0810920802E2
:102BE0002090D4023090D5024090D6025090D70267
:102BF0008091DC029091DD02A091DE02B091DF02B3
:102C000080937F0490938004A0938104B093820406
:102C10008BE394E00E941109C0908304D090840457
:102C2000E0908504F0908604C092D402D092D50240
:102C3000E092D602F092D702A7019601C201B1013B
:102C40000E940B198823E1F1C701B6010E94821985
:102C50001B01A2E7EA2EA6E0FA2EE61AF70AB70150
:102C600088E394E00E94C405B70185E394E00E94E4
:102C7000C4057301E218F308B70182E394E00E94EF
:102C8000C405B7018FE294E00E94C4050E943D078D
:102C900020E030E040E251E40E940B1987FF17C0AA
:102CA0008091D2029091D30201969093D3028093A7
:102CB000D20204972CF081E080930802C5E0D0E0B6
:102CC000D0930C02C0930B021092E60248CE1092F1
:102CD000D3021092D202F4CF80910902882361F0CE
:102CE0000E946B046093D8027093D9028093DA0239
:102CF0009093DB021092090262E776E088E394E0A9
:102D00000E94C40566E475E085E394E00E94C40572
:102D100066E475E082E394E00E94C40562E776E031
:102D20008FE294E00E94C405C090D802D090D902EE
:102D3000E090DA02F090DB0298EEC90E93E0D91E23
:102D4000E11CF11C0E946B04C616D706E806F906C2
:102D500018F085E090E0F5CE81E08093090286E0EE
:102D600090E090930C0280930B028091E6028823FE
:102D700009F4F5CD84E090E0E4CE80910A02882346
:102D8000A9F11092DC021092DD021092DE02109284
:102D9000DF02A0905504B0905604C12CD12C7601CE
:102DA0009701860140E050E060EA71E48BE394E033
:102DB0000E948E07C0928704D0928804E092890412
:102DC000F0928A0400E010E028EC32E440E050E0A9
:102DD00068EC72EC8BE394E00E94890861E070E09B
:102DE0008BE394E00E944A0810920A02C090DC0231
:102DF000D090DD02E090DE02F090DF028BE894E0FC
:102E00000E9477042090E2023090E3024090E402B6
:102E10005090E502C0927F04D0928004E092810439
:102E2000F09282048BE394E00E941109C090830425
:102E3000D0908404E0908504F0908604C092E20271
:102E4000D092E302E092E402F092E502A70196013B
:102E5000C201B1010E940B198823F1F1C701B6012B
:102E60000E9482191B017301E61AF70AB70188E371
:102E700094E00E94C405B70185E394E00E94C40574
:102E8000F2E7EF2EF6E0FF2EE218F308B70182E337
:102E900094E00E94C405B7018FE294E00E94C4054B
:102EA0008BE894E00E941A0D20E030E040E251E40B
:102EB0000E940B1987FF18C08091E0029091E102F7
:102EC00001969093E1028093E00204972CF081E058
:102ED00080930A02C5E0D0E0D0930C02C0930B02AD
:102EE00081E08093E6023BCD1092E1021092E00275
:102EF000F3CFE2E08E2E912C32CD6CED75E088E3BD
:102F000094E00E94C4056CED75E085E394E00E94B6
:102F1000C4056CED75E082E394E00E94C4056CED9D
:102F200075E08FE294E00E94C4052091380430E0FF
:102F3000C901880F991F820F931FFC01E951FD4FB2
:102F400080818F7B80832091350430E0C901880F18
:102F5000991F820F931FFC01E951FD4F80818F7BE8
:102F600080832091320430E0C901880F991F820FBD
:102F7000931FFC01E951FD4F80818F7B808320915D
:102F80002F0430E0C901880F991F820F931FFC01A5
:102F9000E951FD4F80818F7B808360E08EE20E944B
:102FA000C60360E08FE20E94C60360E082E30E94F5
:102FB000C60360E083E30E94C6030E946B04C090D6
:102FC0007703D0907803E0907903F0907A036C193E
:102FD0007D098E099F09613D774081059105A0F02B
:102FE0000E946B0460937703709378038093790356
:102FF00090937A038DE00E946F0361E0892B09F0C2
:1030000060E08DE00E9498030E946B04C0907B03F7
:10301000D0907C03E0907D03F0907E036C197D09D5
:103020008E099F09653F71408105910550F00E940E
:103030006B0460937B0370937C0380937D03909378
:103040007E0382E090E0E7CA83E292E09093140569
:10305000809313058091B4029091B50283519540FD
:1030600071F4E0912605F091270590818091280563
:103070008095892380831092B5021092B40208953E
:10308000A1E21A2EAA1BBB1BFD010DC0AA1FBB1F6C
:10309000EE1FFF1FA217B307E407F50720F0A21BDE
:1030A000B30BE40BF50B661F771F881F991F1A944B
:1030B00069F760957095809590959B01AC01BD0175
:1030C000CF010895991B79E004C0991F961708F065
:1030D000961B881F7A95C9F78095089597FB072E50
:1030E00016F4009407D077FD09D00E948A1807FCD7
:1030F00005D03EF4909581959F4F08957095619508
:103100007F4F0895EE0FFF1F881F8BBF0790F6912A
:10311000E02D1994AA1BBB1B51E107C0AA1FBB1FBE
:10312000A617B70710F0A61BB70B881F991F5A9553
:10313000A9F780959095BC01CD0108955058BB2703
:10314000AA270E94B6180C94301A0E94221A38F04E
:103150000E94291A20F039F49F3F19F426F40C94A8
:103160001F1A0EF4E095E7FB0C94191AE92F0E9440
:10317000411A58F3BA17620773078407950720F0BE
:1031800079F4A6F50C94631A0EF4E0950B2EBA2F81
:10319000A02D0B01B90190010C01CA01A00111245D
:1031A000FF27591B99F0593F50F4503E68F11A1609
:1031B000F040A22F232F342F4427585FF3CF46959A
:1031C00037952795A795F0405395C9F77EF41F16BC
:1031D000BA0B620B730B840BBAF09150A1F0FF0F86
:1031E000BB1F661F771F881FC2F70EC0BA0F621F72
:1031F000731F841F48F4879577956795B795F79562
:103200009E3F08F0B0CF9395880F08F09927EE0FF6
:103210009795879508950E94F51908F481E008951F
:103220000E9424190C94301A0E94291A58F00E9406
:10323000221A40F029F45F3F29F00C94191A511119
:103240000C94641A0C941F1A0E94411A68F3992373
:10325000B1F3552391F3951B550BBB27AA27621792
:103260007307840738F09F5F5F4F220F331F441F9F
:10327000AA1FA9F335D00E2E3AF0E0E832D09150D3
:103280005040E695001CCAF72BD0FE2F29D0660FC0
:10329000771F881FBB1F261737074807AB07B0E803
:1032A00009F0BB0B802DBF01FF2793585F4F3AF009
:1032B0009E3F510578F00C94191A0C94641A5F3FE4
:1032C000E4F3983ED4F3869577956795B795F7958F
:1032D0009F5FC9F7880F911D9695879597F9089577
:1032E000E1E0660F771F881FBB1F62177307840713
:1032F000BA0720F0621B730B840BBA0BEE1F88F722
:10330000E09508950E9489196894B1110C94641A8B
:1033100008950E94491A88F09F5798F0B92F99276D
:10332000B751B0F0E1F0660F771F881F991F1AF0B0
:10333000BA95C9F714C0B13091F00E94631AB1E098
:1033400008950C94631A672F782F8827B85F39F097
:10335000B93FCCF3869577956795B395D9F73EF449
:1033600090958095709561957F4F8F4F9F4F0895F1
:10337000E89409C097FB3EF490958095709561950F
:103380007F4F8F4F9F4F9923A9F0F92F96E9BB27C5
:103390009395F695879577956795B795F111F8CF41
:1033A000FAF4BB0F11F460FF1BC06F5F7F4F8F4FAC
:1033B0009F4F16C0882311F096E911C0772321F0A2
:1033C0009EE8872F762F05C0662371F096E8862F3A
:1033D00070E060E02AF09A95660F771F881FDAF791
:1033E000880F9695879597F90895990F0008550FBE
:1033F000AA0BE0E8FEEF16161706E807F907C0F07B
:1034000012161306E407F50798F0621B730B840B82
:10341000950B39F40A2661F0232B242B252B21F45C
:1034200008950A2609F4A140A6958FEF811D811DFC
:10343000089597F99F6780E870E060E008959FEF36
:1034400080EC089500240A9416161706180609063B
:10345000089500240A94121613061406050608950A
:10346000092E0394000C11F4882352F0BB0F40F492
:10347000BF2B11F460FF04C06F5F7F4F8F4F9F4FD2
:10348000089557FD9058440F551F59F05F3F71F054
:103490004795880F97FB991F61F09F3F79F08795BB
:1034A0000895121613061406551FF2CF4695F1DF44
:1034B00008C0161617061806991FF1CF86957105D4
:1034C000610508940895E894BB2766277727CB0108
:1034D00097F908950E94F51908F48FEF08950E9456
:1034E000821A0C94301A0E94221A38F00E94291A6B
:1034F00020F0952311F00C94191A0C941F1A112422
:103500000C94641A0E94411A70F3959FC1F3950FB1
:1035100050E0551F629FF001729FBB27F00DB11D57
:10352000639FAA27F00DB11DAA1F649F6627B00DE7
:10353000A11D661F829F2227B00DA11D621F739FD0
:10354000B00DA11D621F839FA00D611D221F749FDE
:103550003327A00D611D231F849F600D211D822F25
:10356000762F6A2F11249F5750409AF0F1F088234C
:103570004AF0EE0FFF1FBB1F661F771F881F915079
:103580005040A9F79E3F510580F00C94191A0C94F5
:10359000641A5F3FE4F3983ED4F386957795679578
:1035A000B795F795E7959F5FC1F7FE2B880F911DA3
:1035B0009695879597F90895FA01EE0FFF1F3096BB
:1035C00021053105A1F16115710561F48038BFE372
:1035D0009B0749F168949038810561F08038BFEF0E
:1035E0009B0741F099234AF5FF3FE105310521058D
:1035F00019F1E8940894E795D901AA2329F4AB2F8F
:10360000BE2FF85FD0F310C0FF5F70F4A695E0F70F
:10361000F73950F019F0FF3A38F49F779F930DD0A7
:103620000F9007FC9058089546F00C941F1A60E024
:1036300070E080E89FE308954FE79F775F934F9393
:103640003F932F930E94DC1B2F913F914F915F91ED
:103650000E946F1A0C94391B0E94F519880B990B64
:10366000089529F416F00C94191A0C94631A0C940A
:103670001F1A0E94491AA8F39638A0F707F80F926C
:10368000E8942BE33AEA48EB5FE70E94851A0F9231
:103690000F920F924DB75EB70F920E94241CE4EE7A
:1036A000F0E00E946B1B4F915F91EF91FF91E595C8
:1036B000EE1FFF1F49F0FE57E0684427EE0F441F3E
:1036C000FA95E1F74195550B0E949E1B0F9007FE5E
:1036D0000C94921B0895DF93CF931F930F93FF9247
:1036E000EF92DF927B018C01689406C0DA2EEF0125
:1036F0000E94821AFE01E894A59125913591459189
:103700005591A6F3EF010E94B618FE019701A8019A
:10371000DA9469F7DF90EF90FF900F911F91CF91AE
:10372000DF9108959B01AC0160E070E080E89FE3C9
:103730000C9410190C94191A0C94581C0E94491AD4
:10374000D8F39923C9F3940F511DA3F3915050401E
:1037500094F059F0882332F0660F771F881F91503C
:103760005040C1F79E3F51052CF7880F911D96954B
:10377000879597F908955F3FACF0983E9CF0BB2782
:10378000869577956795B79508F4B1609395C1F7DD
:10379000BB0F58F711F460FFE8CF6F5F7F4F8F4F7B
:1037A0009F4FE3CF0C94641A16F00C94581C0C94A1
:1037B0001F1A68940C94191A0E94491AA8F39923A5
:1037C000C1F3AEF3DF93CF931F930F93FF92C92FF3
:1037D000DD2788232AF02197660F771F881FDAF7E5
:1037E00020E030E040E85FEB9FE3883920F0803E46
:1037F00038F021968F770E949F18ECE0F1E004C02A
:103800000E949F18E9E3F1E00E946B1B8B01BE014F
:10381000EC01FB2E6F5771097595771F880B990B7B
:103820000E94BA1928E132E741E35FE30E94821A5D
:10383000AF2D9801AE01FF900F911F91CF91DF91B5
:103840000E94B6180C94301AFA01DC01AA0FBB1FB3
:103850009B01AC01BF5728F4222733274427507817
:1038600020C0B75190F4AB2F00244695379527958B
:10387000011CA395D2F3002071F0220F331F441FC7
:10388000B395DAF30ED00C949E1861307105A0E860
:103890008A07B94630F49B01AC0166277727882751
:1038A0009078309621F020833183428353830895AA
:1038B0009F3F31F0915020F4879577956795B795A4
:1038C000880F911D9695879597F9089511E0C4E8A2
:1038D000D1E000E006C0802FFE010E9482182196F0
:1038E000011DC538D10780E00807A9F7F894FFCF7C
:1038F000010100007A4401010101010400000000FF
:10390000006002E6040102AD02320210022402004D
:103910000000002C05E604C1052B058805A0051351
:10392000056E616E00696E66006F7666000D0A00B6
:1039300073756D2069733A20007A65726F477972EA
:0E3940006F566F6C746167652069733A2000E2
:00000001FF
