:100000000C9485010C94B6010C94B6010C94B601C5
:100010000C94B6010C94B6010C94B6010C94B60184
:100020000C94B6010C944B0D0C944B0D0C944B0D91
:100030000C94B6010C94B6010C94B6010C94B60164
:100040000C94B6010C94510E0C94B6010C94B601AC
:100050000C94B6010C94B6010C94B6010C94A10C4E
:100060000C94B6010C94150D0C94EB0C0C94B60189
:100070000C94B6010C94B6010C94B6010C94B60124
:100080000C94230E0C94B6010C94B6010C94B6019A
:100090000C94B6010C94B6010C94B6010C94B60104
:1000A0000C94B6010C94B6010C94F50D0C94B601A9
:1000B0000C94B6010C94B6010C94B6010C94C70DC7
:1000C0000C94B6010C94B6010C94B6010C94B601D4
:1000D0000C94B6010C94B6010C94B6010C94B601C4
:1000E0000C94B60107634236B79BD8A71A396856F5
:1000F00018AEBAAB558C1D3CB7CC5763BD6DEDFD4A
:10010000753EF6177231BF000000803F0800000006
:10011000BE922449123EABAAAA2ABECDCCCC4C3EFC
:1001200000000080BEABAAAAAA3E00000000BF00EB
:100130000000803F0000000000084178D3BB4387E7
:10014000D1133D190E3CC3BD4282AD2B3E68EC82FB
:1001500076BED98FE1A93E4C80EFFFBE01C4FF7F80
:100160003F00000000000C94B4040C94FA030C94BB
:100170004F080C948E040C94A6040C9474070C94F1
:100180004E030C947D040C94AA040C949A0E0C94C7
:100190005D030C9492040C9485040C94A0040C94BC
:1001A0007F030C94B8040C949C040C9481040C946C
:1001B00088040C9471030C9479040C942E080C940C
:1001C00098040C94AE040C94BA070C94B3040C94E9
:1001D000EA160C94B9070C94AD030C9473040C94B8
:1001E00016080C94A10700002100240027002A0013
:1001F0002D003000330001010000040107010A0155
:1002000000000A0B02090C0D0E0807030401000090
:1002100000000000000000000000000000000000DE
:10022000000000000000000000000000121110009B
:1002300000000000000000000000000000000000BE
:10024000000000000000000020002300260029001C
:100250002C002F00320000010000030106010901FB
:1002600000002200250028002B002E003100340061
:1002700002010000050108010B0105050505070540
:1002800008080808020202020A0A08080404040412
:10029000010101010101010103030303030303033E
:1002A000040707070C0C0C0C0C0C0C0C02020202CD
:1002B00006060606060606060B0B0B0B0B0B0B0BB6
:1002C0000102102020080810204010204080020168
:1002D000020108040201010204081020408080404D
:1002E000201008040201800402018040201008044C
:1002F00002010804020101020408102040800102EA
:100300000408102040809A0EEA1611241FBECFEF79
:10031000D1E2DEBFCDBF00E00CBF12E0A0E0B2E052
:10032000ECE7F6E300E00BBF02C007900D92AE369B
:10033000B107D9F724E0AEE6B2E001C01D92AD3DB1
:10034000B207E1F711E0C4E8D1E000E006C0219770
:100350000109802FFE010E944817C338D10780E0B1
:100360000807A9F70E94F10F0C942C1B0C940000B5
:100370004F925F926F927F928F929F92AF92BF92B5
:10038000CF92DF92EF92FF920F931F93CF93DF9361
:1003900000D01F92CDB7DEB74B015C0129013A01B5
:1003A000E982FA820B831C83D0927004C0926F049E
:1003B00081E0CA94CD2809F080E08093980480926F
:1003C000550490925604A0925704B092580440925B
:1003D000590450925A0460925B0470925C048981C3
:1003E0009A81AB81BC8180935D0490935E04A0935D
:1003F0005F04B093600460918B0470918C048091D1
:100400008D0490918E040E947E1820E030E04AE72F
:1004100054E40E94D6176B017C0180926104909293
:100420006204A0926304B0926404AC019B01C30116
:10043000B2010E9435192B013C0140926504509293
:1004400066046092670470926804A701960169814E
:100450007A818B819C810E94D6176B017C01C092AE
:100460006904D0926A04E0926B04F0926C0480916B
:100470006D0490916E04019769F5A501940160E007
:1004800070E0CB010E946417609361047093620472
:100490008093630490936404A301920160E070E090
:1004A000CB010E9464176093650470936604809387
:1004B000670490936804A701960160E070E0CB01A7
:1004C0000E9464176093690470936A0480936B04BC
:1004D00090936C040F900F900F900F90DF91CF913D
:1004E0001F910F91FF90EF90DF90CF90BF90AF9052
:1004F0009F908F907F906F905F904F900895109293
:100500004504109244041092430410924204109245
:100510004104109240048FE190E09093470480934F
:1005200046048091360496EF980F943048F02EECF4
:10053000280F243028F022EC280F283008F061C062
:1005400021E030E030934104209340042DE130E07D
:1005500030934304209342042DE030E0309345046F
:1005600020934404943050F02EEC280F243030F0C7
:1005700022EC280FF0E0E0E0283010F4E8E6F0E0AC
:100580002081943028F032EC380F383008F469C0FC
:1005900031E0232B943048F09EEC980F943028F0F3
:1005A0008E53F0E0E0E0883010F4E8E6F0E02083DD
:1005B0002091360436EF320F343008F454C08EECFC
:1005C000820F843008F44FC082EC820F883008F428
:1005D0004DC090E080E090933E0480933D04343021
:1005E00008F047C02650330B81E001C0880F2A95E0
:1005F000EAF780933F048091460490914704019765
:10060000F1F78091440490914504892B49F1E091E0
:100610008B03F0918C0384E0EA32F80709F13097FC
:1006200039F0A389B4899C918589809589238C931D
:10063000809148048E7F8093480410928A03109220
:1006400089038AE294E090938C0380938B03E0917A
:100650003D04F0913E04808190913F04892B80837A
:10066000089534E096CF8BE690E0B5CF8DE690E02C
:10067000B2CF88E0223309F4BCCF84E0233309F4FD
:10068000B8CF82E0243309F4B4CF82EC820F8830F3
:1006900018F42E53330BA8CF81E0ABCFFC01538D60
:1006A000448D252F30E0842F90E0821B930B54174C
:1006B00010F0CF96089501970895FC01918D828DD9
:1006C000981761F0A28DAE0FBF2FB11D5D968C9172
:1006D000928D9F5F9F73928F90E008958FEF9FEFB1
:1006E0000895FC01918D828D981731F0828DE80F6D
:1006F000F11D858D90E008958FEF9FEF0895FC0127
:10070000918D228D892F90E0805C9F4F821B9109F3
:100710008F7399270895FC01A48DA80FB92FB11DDF
:10072000A35ABF4F2C91848D90E001968F73992727
:10073000848FA689B7892C93A089B1898C91837005
:1007400080648C93938D848D981306C00288F389FE
:10075000E02D80818F7D80830895EF92FF920F932B
:100760001F93CF93DF93EC0181E0888F9B8D8C8D5D
:1007700098131AC0E889F989808185FF15C09FB751
:10078000F894EE89FF896083E889F9898081837014
:10079000806480839FBF81E090E0DF91CF911F91C3
:1007A0000F91FF90EF900895F62E0B8D10E00F5FE4
:1007B0001F4F0F731127E02E8C8D8E110CC00FB6BA
:1007C00007FCFACFE889F989808185FFF5CFCE0152
:1007D0000E948B03F1CFEB8DEC0FFD2FF11DE35A3F
:1007E000FF4FF0829FB7F8940B8FEA89FB898081D5
:1007F0008062CFCFCF93DF93EC01888D8823B9F04F
:10080000AA89BB89E889F9898C9185FD03C080811B
:1008100086FD0DC00FB607FCF7CF8C9185FFF2CF98
:10082000808185FFEDCFCE010E948B03E9CFDF9160
:10083000CF9108958DE893E00E947F0321E0892BFA
:1008400009F420E0822F089580E090E0892B29F0C0
:100850000E941A0481110E94000080E090E0892B20
:1008600049F080E090E0892B29F00E94000081117E
:100870000E94000080E090E0892B49F080E090E049
:10088000892B29F00E94000081110E94000080E065
:1008900090E0892B49F080E090E0892B29F00E94BC
:1008A000000081110C94000008958150823108F0FD
:1008B0005AC0E82FF0E08827EF59FB4F8F4F0C9478
:1008C000481781048504730479047D04B304880403
:1008D0008E04920498049C04A004A604AA04B30401
:1008E000AE04B404B804809180008F7780938000B8
:1008F0000895809180008F7DF9CF80918000877F5F
:10090000F5CF84B58F7784BD089584B58F7DFBCFF7
:100910008091B0008F778093B00008958091B000EF
:100920008F7DF9CF809190008F778093900008950C
:10093000809190008F7DF9CF80919000877FF5CFD7
:100940008091A0008F778093A00008958091A000EF
:100950008F7DF9CF8091A000877FF5CF8091200116
:100960008F77809320010895809120018F7DF9CFAA
:1009700080912001877FF5CFCF93DF93282F30E040
:10098000F901E050FE4F8491F901E054FD4FD491FC
:10099000F901E658FD4FC491CC23A1F081110E94CA
:1009A0005504EC2FF0E0EE0FFF1FEA5BFD4FA59121
:1009B000B491EC91ED2381E090E009F480E0DF91C7
:1009C000CF91089580E090E0FACF1F93CF93DF930B
:1009D000282F30E0F901E050FE4F8491F901E054F6
:1009E000FD4FD491F901E658FD4FC491CC23A9F0F5
:1009F000162F81110E945504EC2FF0E0EE0FFF1F1F
:100A0000E05AFD4FA591B4918FB7F894EC91111174
:100A100008C0D095DE23DC938FBFDF91CF911F916B
:100A20000895DE2BF8CFCF93DF9390E0FC01E054E4
:100A3000FD4F249186589D4FFC0184918823D1F06D
:100A400090E0880F991FFC01EA51FE4FA591B491E7
:100A5000FC01E05AFD4FC591D49161110EC09FB7C2
:100A6000F8948C91E22FE0958E238C932881E223D9
:100A7000E8839FBFDF91CF9108958FB7F894EC91F1
:100A8000E22BEC938FBFF6CF863308F0865320918C
:100A90007B00982F9870277F922B90937B00877014
:100AA000806480937C0080917A00806480937A00D7
:100AB00080917A0086FDFCCF80917800909179003A
:100AC00008953FB7F8948091850390918603A09193
:100AD0008703B091880326B5A89B05C02F3F19F066
:100AE0000196A11DB11D3FBFBA2FA92F982F8827AE
:100AF000BC01CD01620F711D811D911D42E0660F89
:100B0000771F881F991F4A95D1F708958F929F925A
:100B1000AF92BF92CF92DF92EF92FF924B015C01B6
:100B20000E9461056B017C010E9461056C197D09C1
:100B30008E099F09683E734081059105A8F321E065
:100B4000821A9108A108B10888EEC80E83E0D81E69
:100B5000E11CF11C81149104A104B10429F7FF9058
:100B6000EF90DF90CF90BF90AF909F908F900895BF
:100B70002FB7F89460918103709182038091830371
:100B8000909184032FBF08952F923F924F925F92CE
:100B90006F927F928F929F92AF92BF92CF92DF928D
:100BA000EF92FF920F931F93CF93DF93CDB7DEB7F2
:100BB0002E970FB6F894DEBF0FBECDBF30909704CE
:100BC00031101BC0312C832D2E960FB6F894DEBF4A
:100BD0000FBECDBFDF91CF911F910F91FF90EF908E
:100BE000DF90CF90BF90AF909F908F907F906F904D
:100BF0005F904F903F902F9008950E94B8056987AD
:100C00007A878B879C878091770490917804A09154
:100C10007904B0917A0449855A856B857C85481B97
:100C2000590B6A0B7B0B80918B0490918C04A091E3
:100C30008D04B0918E04481759076A077B0710F29C
:100C4000E0917104F091720480819181A281B3815D
:100C50008D839E83AF83B887E0917504F09176040D
:100C60009C01AD0160817181828193810E94641732
:100C70004B015C0120917F043091800440918104FC
:100C8000509182046D817E818F8198850E946417C6
:100C90006B017C01209165043091660440916704EA
:100CA00050916804C501B4010E94351920917B045C
:100CB00030917C0440917D0450917E040E94651720
:100CC0002B013C0140927B0450927C0460927D0495
:100CD00070927E0420909804211031C080916104AC
:100CE00090916204A0916304B091640489839A8313
:100CF000AB83BC839C01AD01C701B6010E943519CD
:100D00009B01AC01C301B2010E94641760937B0494
:100D100070937C0480937D0490937E0469817A8132
:100D20008B819C819058A70196010E943519609390
:100D30008304709384048093850490938604409088
:100D40007B0450907C0460907D0470907E04109130
:100D50009304909194049E87A0919504AD8700918F
:100D60009604212F392F4A2F502FC301B2010E9420
:100D7000301918160CF09BC0812F9E85AD85B02FC1
:100D800080937B0490937C04A0937D04B0937E04B5
:100D9000222009F4A5C020916104309162044091A1
:100DA000630450916404C501B4010E9435194B01DC
:100DB0005C018092830490928404A0928504B09296
:100DC00086044090690450906A0460906B047090AF
:100DD0006C04A3019201C701B6010E9435199B0161
:100DE000AC0160917B0470917C0480917D049091B2
:100DF0007E040E946417A50194010E9465174B01AF
:100E00005C01C301B2019058A70196010E943519F7
:100E100060938704709388048093890490938A0474
:100E20009401A501612F7E858D85902F0E94D11799
:100E300087FD18C010918F04909190049E87A09117
:100E40009104AD8700919204212F392F4A2F502F02
:100E5000B401C5010E94D11787FD04C0182D9E86DC
:100E6000AD860B2DE0917304F0917404812F9E8563
:100E7000AD85B02F80839183A283B3838D819E81C2
:100E8000AF81B88580937F0490938004A093810400
:100E9000B093820489859A85AB85BC85809377045D
:100EA00090937804A0937904B0937A048CCE8091C7
:100EB0008F0490919004A0919104B0919204898341
:100EC0009A83AB83BC839C01AD01C301B2010E9434
:100ED000D11787FF5DCF89819A81AB81BC8150CFCB
:100EE000812C912C54016DCFAF92BF92CF92DF92A3
:100EF000EF92FF920F931F93CF93DF936C017B01CF
:100F00008B01040F151FEB015E01AE18BF08C0175F
:100F1000D10759F06991D601ED91FC910190F081D2
:100F2000E02DC6011995892B79F7C501DF91CF9185
:100F30001F910F91FF90EF90DF90CF90BF90AF90F7
:100F4000089520918B0330918C032817390771F491
:100F50009091890380918A03981741F0E091890369
:100F6000F0E0E558FD4F808190E008958FEF9FEF0E
:100F700008950895EF92FF920F931F93CF93DF93FD
:100F8000DC015C96ED90FC905D97E114F10479F43E
:100F900081E090E013969C938E93129790E080E00E
:100FA000DF91CF911F910F91FF90EF90089551968F
:100FB000ED91FC91529750968C915097982F909567
:100FC0000FB75E962C915E97122F127021FD6095DF
:100FD000F8942081112319F1282B2083E701219710
:100FE000F1F728E0462F50E0308160FF1AC0382B1F
:100FF0003083E7012197F1F7BA0175956795215084
:1010000089F7112381F08081892380830FBF5C964B
:101010008D919C910197F1F781E090E0C1CF292358
:10102000DCCF3923E5CF9081892BEFCF20918B0343
:1010300030918C032817390771F480918A0320912D
:10104000890390E0805C9F4F821B910960E470E00F
:101050000E943417089590E080E0089520918B035A
:1010600030918C0328173907B9F490918903809146
:101070008A03981789F0E0918903F0E0E558FD4F65
:1010800080812091890330E02F5F3F4F2F733327FA
:101090002093890390E008958FEF9FEF089590E0EB
:1010A00080E00895DC01EC91E03390F511968C918D
:1010B000119728E830E0281B310987FD3395220F6E
:1010C000331F220F331F6217730784F012968C911F
:1010D00028E532E0281B310987FD3395220F331FA5
:1010E000220F331F621773070CF49B012250310942
:1010F000220F331F4FB7F8948E2F90E0FC01EE0FB4
:10110000FF1FE80FF91FEA51FD4F328321834FBFC4
:1011100008951F93CF93DF93EC01162F88818033BE
:1011200008F04EC061E0812F0E9413058881282FAE
:1011300030E0F901EE0FFF1FE20FF31FEA51FD4F00
:101140001F736081607C612B608319821A822CE09E
:10115000622F0E942817829FB001112430E020E006
:10116000AB01420F531FFA01EE0FFF1FE40FF51FF3
:10117000EA51FD4F908196FD16C02F5F3F4F2C30F6
:10118000310571F7813009F51092800082E080937B
:1011900081001092850010928400B19A80916F00B6
:1011A000826080936F00E8818E2F90E0FC01EE0F4B
:1011B000FF1FE80FF91FEA51FD4F80818064808393
:1011C0008881DF91CF911F910895823061F4109250
:1011D000900080939100109295001092940088BB2B
:1011E00080937100E0CF833069F41092A00082E018
:1011F0008093A1001092A5001092A40089BB809357
:101200007200D1CF8111CFCF1092200182E0809364
:10121000210110922501109224018ABB8093730052
:10122000C2CFAF92BF92CF92DF92EF92FF920F9315
:101230001F93CF93DF936B017A01EC01CA58DD4F06
:1012400028813CE0389F8001399F100D1124A09027
:101250007A02B12C27FF1FC0FB0111821082888106
:101260008F5F888388819801280F311D87FD3A950B
:10127000F6012A153B051CF488818C30C4F180816D
:101280009181049680349C4908F473C0F6018081F2
:101290009181049670C088819801280F311D87FDC7
:1012A0003A952A153B05DCF68881A801480F511DA7
:1012B00087FD5A95FA01EE0FFF1FE40FF51FEA5163
:1012C000FD4F808186FFCBCF8881F801E80FF11DAB
:1012D00087FDFA95CF01EE0FFF1FE80FF91FEA51C6
:1012E000FD4F808160E08F730E94E504B8CF80815C
:1012F00091812881A801420F511D27FD5A959A011D
:10130000FA01EE0FFF1FE20FF31FEA51FD4F21819B
:101310003281820F931FF701918380838881980126
:10132000280F311D87FD3A95F901EE0FFF1FE20FDF
:10133000F31FEA51FD4F808186FF22C08881080F8C
:10134000111D87FD1A95F801EE0FFF1FE00FF11F29
:10135000EA51FD4F808161E08F73DF91CF911F9142
:101360000F91FF90EF90DF90CF90BF90AF900C94D3
:10137000E50480E49CE9F701918380838FEF888303
:10138000DF91CF911F910F91FF90EF90DF90CF9061
:10139000BF90AF9008950F931F93CF93DF93EC010D
:1013A0008B01FC01EE5BFF4F8081882361F1888D0A
:1013B000998D8617970739F12C853D854E855F8578
:1013C00060E070E0CB010E9464176C877D878E8798
:1013D0009F87288939894A895B8960E070E0CB0161
:1013E0000E946417688B798B8A8B9B8B2C893D8933
:1013F0004E895F8960E070E0CB010E9464176C8BBE
:101400007D8B8E8B9F8B198F088FDF91CF911F91D2
:101410000F9108952F923F924F925F926F927F9219
:101420008F929F92AF92BF92CF92DF92EF92FF92F4
:101430000F931F93CF93DF931C016A017B01480137
:101440005901A9019801CB01B6010E94301987FF0B
:101450003BC0F101C2AED3AEE4AEF5AE8101025C99
:101460001F4FF80180829182A282B38234968081DC
:10147000882351F1F101C68DD78D488059806A804B
:101480007B80A3019201C501B4010E94D11787FF9F
:101490002EC088829982AA82BB82F10186A097A081
:1014A000A0A4B1A4F801C080D180E280F380A7019C
:1014B0009601C501B4010E943019F101181624F5F6
:1014C000C6A2D7A2E0A6F1A6DF91CF911F910F91FE
:1014D000FF90EF90DF90CF90BF90AF909F908F9054
:1014E0007F906F905F904F903F902F900895A30151
:1014F0009201C701B6010E943019181674F6C8820D
:10150000D982EA82FB82C9CFC2ACD3ACE4ACF5ACE1
:10151000A7019601C501B4010E94D11787FFD4CF5E
:10152000F101CECFFB0101900020E9F73197AF0127
:10153000461B570BDC01ED91FC910280F381E02DFD
:1015400019948F929F92AF92BF92EF92FF920F9356
:101550001F93CF93DF93CDB7DEB7A1970FB6F89463
:10156000DEBF0FBECDBF7C01FA01CB0119A2223034
:1015700008F42AE08E010F5D1F4F822E912CB12CB2
:10158000A12CBF01A50194010E940617F901CA010F
:101590006A300CF5605DD8016E938D01232B242BEE
:1015A000252B79F790E080E0109721F0BD01C7016D
:1015B0000E94920AA1960FB6F894DEBF0FBECDBF6F
:1015C000DF91CF911F910F91FF90EF90BF90AF905F
:1015D0009F908F900895695CDECFCF92DF92EF925B
:1015E000FF92CF93DF936C01990FEE08FF08F7FE8F
:1015F00023C06DE28DE893E00E94AD03EC01442727
:101600005527BA014C195D096E097F092AE08DE85A
:1016100093E00E94A10AC80FD91F69E272E08DE829
:1016200093E00E94920A8C0F9D1FDF91CF91FF9053
:10163000EF90DF90CF9008952AE0B701A6018DE8E2
:1016400093E00E94A10AEC01E8CF2F923F924F92C3
:101650005F926F927F928F929F92AF92BF92CF9242
:10166000DF92EF92FF921F93CF93DF93EC016A0119
:101670007B01722EAB019601CB01B6010E94F219DB
:101680006CE272E0811126C046015701E894B7F878
:101690002FEF3FEF4FE75FE7C501B4010E94F2195A
:1016A00081110CC02FEF3FEF4FE75FE7C501B40199
:1016B0000E94D11760E372E0181664F02FEF3FEF3D
:1016C0004FE75FE4C701B6010E9430191816B4F461
:1016D00064E372E0CE01DF91CF911F91FF90EF9014
:1016E000DF90CF90BF90AF909F908F907F906F9042
:1016F0005F904F903F902F900C94920A2FEF3FEF06
:101700004FE75FECC701B6010E94D11787FDE0CF1C
:1017100020E030E0A901C701B6010E94D117312CA9
:10172000212C87FF0DC0E881F9810190F081E02D27
:101730006DE2CE0119951C01F7FAF094F7F8F094D8
:1017400010E060E070E080E09FE3711641F020E07F
:1017500030E040E251E40E94D6171F5FF6CFA701A8
:1017600096010E9465172B013C010E944F184B0106
:101770005C012AE0BC01A401CE010E94A10A7C0107
:10178000E20CF31C1123E1F1C501B4010E947E18A3
:101790009B01AC01C301B2010E9464174B015C01C3
:1017A000E881F9810190F081E02D6EE2CE0119957A
:1017B000E80EF91E115020F120E030E040E251E443
:1017C000C501B4010E9435192B013C010E944F183C
:1017D0004B01B12CA12C2AE0B501A401CE010E943D
:1017E000A10AE80EF91EC501B4010E947E189B01F2
:1017F000AC01C301B2010E9464174B015C01DACF56
:10180000C701DF91CF911F91FF90EF90DF90CF90B4
:10181000BF90AF909F908F907F906F905F904F9010
:101820003F902F9008950F931F93CF93DF93EC0178
:1018300022E00E94250B8C0169E272E0CE010E9439
:10184000920A800F911FDF91CF911F910F91089500
:101850004F925F926F927F928F929F92AF92BF92C0
:10186000CF92DF92EF92FF92CF93DF93EC016A0168
:101870007B010E94B8054B015C018091720290913E
:101880007302A0917402B09175028C0D9D1DAE1D66
:10189000BF1D88159905AA05BB050CF043C08881BA
:1018A0000E944405BC01990F880B990B0E94801877
:1018B0006B017C0120E030E040E05FE360916E026C
:1018C00070916F0280917002909171020E9435199F
:1018D0002B013C0120E030E040E05FE3C701B601AE
:1018E0000E9435199B01AC01C301B2010E9465172A
:1018F00060936E0270936F028093700290937102F6
:10190000CA82DB82EC82FD82809272029092730224
:10191000A0927402B0927502B701A6018DE893E01F
:101920000E94130CDF91CF91FF90EF90DF90CF904A
:10193000BF90AF909F908F907F906F905F904F90EF
:1019400008951F920F920FB60F9211242F933F9379
:101950008F939F93AF93BF93809181039091820364
:10196000A0918303B09184033091800323E0230F7F
:101970002D3758F50196A11DB11D2093800380934A
:10198000810390938203A0938303B0938403809197
:10199000850390918603A0918703B09188030196F7
:1019A000A11DB11D8093850390938603A0938703A7
:1019B000B0938803BF91AF919F918F913F912F91E9
:1019C0000F900FBE0F901F90189526E8230F0296D8
:1019D000A11DB11DD2CF1F920F920FB60F921124ED
:1019E0000BB60F922F933F934F935F936F937F9319
:1019F0008F939F93AF93BF93EF93FF938DE893E003
:101A00000E948B03FF91EF91BF91AF919F918F91B6
:101A10007F916F915F914F913F912F910F900BBEEE
:101A20000F900FBE0F901F9018951F920F920FB638
:101A30000F9211240BB60F922F938F939F93EF93D6
:101A4000FF93E0919D03F0919E038081E091A303B9
:101A5000F091A40382FD1DC090818091A6038F5F49
:101A60008F732091A703821741F0E091A603F0E065
:101A7000E357FC4F958F8093A603FF91EF919F91C1
:101A80008F912F910F900BBE0F900FBE0F901F9054
:101A900018958081F2CF1F920F920FB60F921124EA
:101AA0000BB60F922F933F934F935F936F937F9358
:101AB0008F939F93AF93BF93EF93FF93E0918B032B
:101AC000F0918C03309749F0A685B7858585968D72
:101AD00091FF16C09C918923B1F4FF91EF91BF91C2
:101AE000AF919F918F917F916F915F914F913F91B6
:101AF0002F910F900BBE0F900FBE0F901F90189557
:101B00009C91892351F7A389B4899C9185898095FB
:101B100089238C93868997890197F1F7608D718D60
:101B2000A685B785558538E020E0CB010197F1F710
:101B3000822F90E095958795282F4C91452309F0A9
:101B40002068315091F7868D81FD209580918A0320
:101B500090E001968F73992730918903381799F097
:101B6000A0918A03B0E0A558BD4F2C9380938A03BF
:101B7000828D938D0197F1F7A389B4898C91958912
:101B8000892B8C93AACF868D8160868FF1CF1F928F
:101B90000F920FB60F9211240BB60F922F933F9313
:101BA0004F935F936F937F938F939F93AF93BF9365
:101BB000EF93FF9348E251E064E271E090E080E04F
:101BC0000E941109FF91EF91BF91AF919F918F9169
:101BD0007F916F915F914F913F912F910F900BBE2D
:101BE0000F900FBE0F901F9018951F920F920FB677
:101BF0000F9211240BB60F922F933F934F935F9345
:101C00006F937F938F939F93AF93BF93EF93FF93C4
:101C100048EA50E064EA70E083E090E00E94110935
:101C2000FF91EF91BF91AF919F918F917F916F91B4
:101C30005F914F913F912F910F900BBE0F900FBE70
:101C40000F901F9018951F920F920FB60F921124AC
:101C50000BB60F922F933F934F935F936F937F93A6
:101C60008F939F93AF93BF93EF93FF9348E950E017
:101C700064E970E082E090E00E941109FF91EF9129
:101C8000BF91AF919F918F917F916F915F914F9194
:101C90003F912F910F900BBE0F900FBE0F901F9092
:101CA00018951F920F920FB60F9211240BB60F9238
:101CB0002F933F934F935F936F937F938F939F9354
:101CC000AF93BF93EF93FF9348E850E064E870E070
:101CD00081E090E00E941109FF91EF91BF91AF91D7
:101CE0009F918F917F916F915F914F913F912F9134
:101CF0000F900BBE0F900FBE0F901F901895FC0118
:101D000090917A02903398F481E0890F80937A025F
:101D10009083892F90E0FC01EE0FFF1FE80FF91F61
:101D2000EA51FD4F88EB9BE09283818308958FEF0A
:101D300080830895CF92DF92EF92FF920F931F93CB
:101D40001092900310928F0328EEC22E23E0D22E21
:101D5000E12CF12CC0929103D0929203E092930374
:101D6000F092940389E092E090938E0380938D0328
:101D700085EC90E090939A038093990384EC90E033
:101D800090939C0380939B0380EC90E090939E0340
:101D900080939D0381EC90E09093A00380939F0338
:101DA00082EC90E09093A2038093A10386EC90E0F4
:101DB0009093A4038093A3031092A6031092A70309
:101DC0001092A8031092A90382E594E00E947F0E6E
:101DD0008FE494E00E947F0E8CE494E00E947F0EDA
:101DE00089E494E00E947F0E10922D0410922C043E
:101DF000C0922E04D0922F04E0923004F09231046D
:101E00008BE192E090932B0480932A04109241047A
:101E10001092400410924304109242041092450420
:101E200010924404109247041092460460914804B2
:101E30006E7F6D7F609348046695617081E06827CE
:101E40008BE00E94E50461E08BE00E941305EBEC5F
:101E5000F2E0E491E0933A04E5E8F2E0E491F0E0A6
:101E6000EE0FFF1FE05AFD4F8591949190933C0433
:101E700080933B0460E08AE00E941305809148044F
:101E800081FD04C061E08AE00E94E5048AE080935D
:101E90003604EAECF2E0E491E0933704E4E8F2E09F
:101EA000E491F0E0EE0FFF1FEA5BFD4F8591949106
:101EB00090933904809338041092D0041092CF0488
:101EC0001092D1041092D2041092D3041092D40430
:101ED0001092C2041092C1041092C3041092C40460
:101EE0001092C5041092C6041092B4041092B30468
:101EF0001092B5041092B6041092B7041092B80470
:101F00001092A6041092A5041092A7041092A8049F
:101F10001092A9041092AA048DE994E0909374049D
:101F20008093730489E994E0909372048093710420
:101F300081EA94E09093760480937504109297045C
:101F400010928F04109290041092910410929204B7
:101F500080E090E0AFE7B3E480939304909394041F
:101F6000A0939504B093960484E690E0A0E0B0E0DE
:101F700080938B0490938C04A0938D04B0938E0473
:101F800070E060E085E594E00E94CB09CC24C39426
:101F9000D12CE12CF12C8701A801970160E070E0C1
:101FA00080E89FE30E94B8010E94B805C0908B04AE
:101FB000D0908C04E0908D04F0908E046C197D0913
:101FC0008E099F0960937704709378048093790455
:101FD00090937A041F910F91FF90EF90DF90CF9034
:101FE0000895CF93DF9300D01F92CDB7DEB77894DA
:101FF00084B5826084BD84B5816084BD85B582600E
:1020000085BD85B5816085BD80916E0081608093BE
:102010006E00109281008091810082608093810027
:102020008091810081608093810080918000816037
:10203000809380008091B10084608093B100809192
:10204000B00081608093B0008091910082608093A5
:102050009100809191008160809391008091900027
:102060008160809390008091A10082608093A100A4
:102070008091A10081608093A1008091A000816087
:102080008093A00080912101826080932101809142
:1020900021018160809321018091200181608093E2
:1020A000200180917A00846080937A0080917A0088
:1020B000826080937A0080917A00816080937A00B8
:1020C00080917A00806880937A001092C10080E04D
:1020D00090E0A8E4B2E48093990490939A04A093CA
:1020E0009B04B0939C0410929D0410929E04109245
:1020F0009F041092A0048093A1049093A204A09343
:10210000A304B093A40480919704811149C0E09185
:102110007304F0917404C080D180E280F380C09297
:102120007B04D0927C04E0927D04F0927E04E091E6
:102130007104F091720480819181A281B3818093B6
:102140007F0490938004A0938104B09382048090D4
:10215000930490909404A0909504B0909604A501E7
:102160009401C701B6010E94301918164CF48092F0
:102170007B0490927C04A0927D04B0927E0410C0F7
:1021800080908F0490909004A0909104B09092045D
:10219000A5019401C701B6010E94D11787FDE7CFC1
:1021A00081E08093970400E010E028EC32E440E006
:1021B00050E068EC72EC85E594E00E940A0A70E059
:1021C00060E085E594E00E94CB0961E08DE00E942B
:1021D000130561E080E30E94130560E080E30E9444
:1021E000E5048BE390E09093D0048093CF048AE9D8
:1021F00099E8A6EEB4E48093D5049093D604A09316
:10220000D704B093D80481EE9AE7A4E7BFEB80939C
:10221000D9049093DA04A093DB04B093DC0460E06B
:102220008BE30E9413058AE390E09093C2048093AD
:10223000C10480E090E9AFE1B6E48093C7049093D5
:10224000C804A093C904B093CA0482E193E8A0E94A
:10225000BFEB8093CB049093CC04A093CD04B093B8
:10226000CE0460E08AE30E9413058DE390E0909332
:10227000B4048093B30480EC92E9A6E5B8E48093BB
:10228000B9049093BA04A093BB04B093BC0481E852
:1022900095E9A3EDBFEB8093BD049093BE04A0939A
:1022A000BF04B093C00460E08DE30E94130588E38F
:1022B00090E09093A6048093A50480E09FE7A5EDAD
:1022C000B7E48093AB049093AC04A093AD04B093B7
:1022D000AE048BE39FEDAFEDBFEB8093AF04909323
:1022E000B004A093B104B093B20460E088E30E940C
:1022F00013050AE010E01C821B8289E30E9444055A
:102300007C010E94ED0A8B819C818E0D9F1D9C8318
:102310008B8365E070E080E090E00E9486050150CC
:10232000110959F768E372E08DE893E00E94920A80
:102330008B819C810E94ED0A8B819C816AE070E018
:102340000E9434177093BC026093BB0261E472E098
:102350008DE893E00E94920A8091BB029091BC02AA
:102360000E94ED0A68EE73E080E090E00E9486052E
:1023700049E050E060E070E081EC94E00E94280CBD
:102380004AE050E060E070E083EB94E00E94280CAB
:102390004BE050E060E070E085EA94E00E94280C99
:1023A00047E050E060E070E08FEC94E00E94280C81
:1023B0000E94B805AB01BC018091BD029091BE02A4
:1023C000A091BF02B091C0020696A11DB11D841755
:1023D0009507A607B7070CF04CC089E30E94440597
:1023E0002091BB023091BC02BC01621B730BCB017C
:1023F0000196039710F470E060E0072E000C880B44
:10240000990B0E94801826EA3BE944EC5BE30E94AA
:10241000D61728E638EE4FE95BE30E94351920E035
:1024200030E040EC50E40E94351920E030E04AE70B
:1024300054E40E94D6179B01AC016091DE027091BA
:10244000DF028091E0029091E1020E9465176093A3
:10245000DE027093DF028093E0029093E1020E941B
:10246000B8056093BD027093BE028093BF02909343
:10247000C00220907E0330907F0391E02916310442
:1024800071F140F0B2E02B16310409F4FCC30E9454
:1024900024046ECF68EE73E080E090E00E94860531
:1024A0006EE270E082E594E00E9489086FE270E0DD
:1024B0008FE494E00E94890862E370E08CE494E089
:1024C0000E94890863E370E089E494E00E9489082F
:1024D00081E090E090937F0380937E03D8CF0E94A9
:1024E000B8050091C2021091C3022091C40230913C
:1024F000C5020617170728073907D8F48091C102CB
:102500008F5F8093C102853058F10E94B8056454F2
:102510007D4F8F4F9F4F6093C2027093C302809391
:10252000C4029093C50260E08DE00E94E504109221
:10253000C10280910302909104029C838B838430BA
:10254000910509F40DC128F58230910509F497C36E
:10255000039709F4FEC030927F0320927E0397CF49
:102560000E94B8056C597F4F8F4F9F4F6093C202F6
:102570007093C3028093C4029093C5028DE00E94C1
:10258000BC0461E0892B09F060E08DE00E94E50465
:10259000D0CFAB81BC81A630B10509F43DC208F4AF
:1025A000F9C11797C1F6809102028823F1F11092C8
:1025B000DE021092DF021092E0021092E102C0905F
:1025C0006F04D09070041AE0E12E17EDF12E03E2B3
:1025D0001CE32DEC3CEC4CE45EE369E27CE58FE827
:1025E0009DE30E94B80180E090E0A4E3B3E480930F
:1025F000A1049093A204A093A304B093A40400E0C8
:1026000010E020E83FE340E050E060E87FEB85E544
:1026100094E00E940A0A61E070E085E594E00E947F
:10262000CB090E947F0210920202C090DE02D0907D
:10263000DF02E090E002F090E1024090E202509070
:10264000E3026090E4027090E502C0929904D09297
:102650009A04E0929B04F0929C040E94C40580902E
:102660009D0490909E04A0909F04B090A00480923E
:10267000E2029092E302A092E402B092E502A50188
:102680009401C301B2010E94D1178823A1F120E077
:1026900030E046E153E4C501B4010E9435199B01C5
:1026A000AC0160E070E88BEB94E40E9464170E9438
:1026B00048184B0182E594E00E945208B4018FE46F
:1026C00094E00E945208B4018CE494E00E94520805
:1026D000B40189E494E00E945208A701960160E0E9
:1026E00070E084E393E40E946417AB01BC018AE2CA
:1026F00094E00E94130C20E030E044E353E4C7016F
:10270000B6010E9464176B017C0120E030E0A90152
:102710000E94301918160CF0A6C220E030E040E00C
:1027200050E4C701B6010E94D11787FFF4C081E0D1
:102730008093020269E672E08AE294E00E94920AC3
:1027400069E272E08AE294E00E94920A82E090E0FC
:102750001EC184E090E09093040280930302FBCEBC
:10276000809100028823A9F11092DE021092DF020C
:102770001092E0021092E102C0906F04D0907004B9
:10278000E12CF12C8701A801970160E070E080EA5C
:1027900091E40E94B801E092A104F092A204009397
:1027A000A3041093A40400E010E028EC32E440E01D
:1027B00050E068EC72EC85E594E00E940A0A61E062
:1027C00070E085E594E00E94CB090E947F021092A0
:1027D00000028090DE029090DF02A090E002B090B4
:1027E000E1024090C8025090C9026090CA02709005
:1027F000CB028092990490929A04A0929B04B0928A
:102800009C040E94C405C0909D04D0909E04E0905A
:102810009F04F090A004C092C802D092C902E09236
:10282000CA02F092CB02A7019601C301B2010E9435
:10283000D117882309F46FC0C701B6010E94481858
:102840002B0102E7E02E06E0F02EE61AF70AB701A8
:1028500082E594E00E945208B7018FE494E00E9460
:10286000520886E4E82E85E0F82EE418F508B70152
:102870008CE494E00E945208B70189E494E00E943D
:10288000520866E572E08AE294E00E94920A22E031
:10289000B501A4018AE294E00E94250B6EE572E086
:1028A0008AE294E00E94920A4091C8025091C902C3
:1028B0006091CA027091CB028AE294E00E94130CEC
:1028C00061E080E30E94E50483E290E00197F1F784
:1028D00060E080E30E94E5040E9461056B017C01D9
:1028E00081E30E94BC04892BE9F40E9461056C1904
:1028F0007D098E099F0969387E458105910580F320
:102900008091C6029091C70201969093C70280936E
:10291000C6020497BCF5AB81BC81B0930402A093BE
:10292000030219CE0E9461056B017C0181E30E94C4
:10293000BC04019761F40E9461056C197D098E0940
:102940009F0969387E458105910580F3D9CF0E94A2
:1029500061056C197D098E099F090E947E1820E08F
:1029600030E048E652E40E94D61720E030E040E232
:1029700051E40E94D11787FDC3CF1092C702109275
:10298000C602C9CF81E08093000285E090E09C837D
:102990008B83C1CF8091D00281110DC00E94B805F8
:1029A0006093CC027093CD028093CE029093CF02BD
:1029B00081E08093D00262E776E082E594E00E94B5
:1029C000520866E475E08FE494E00E94520866E4E1
:1029D00075E08CE494E00E94520862E776E089E4B6
:1029E00094E00E945208C090CC02D090CD02E090BA
:1029F000CE02F090CF02B8EECB0EB3E0DB1EE11CAE
:102A0000F11C0E94B805C616D706E806F90608F0BC
:102A100082CF86E090E0BBCF0E947F0280910102CE
:102A2000882379F1C0906F04D0907004E12CF12CD0
:102A30008701A801970160E070E080EA90E40E94BD
:102A4000B80180E090E0A0EFB1E48093A1049093FE
:102A5000A204A093A304B093A40400E010E028EC27
:102A600032E440E050E068EC72EC85E594E00E94CE
:102A70000A0A70E060E085E594E00E94CB091092BC
:102A800001022091CB043091CC044091CD045091AF
:102A9000CE046091C3047091C4048091C5049091E8
:102AA000C6040E94A2192091C7043091C804409125
:102AB000C9045091CA040E9435196B017C0120E0C1
:102AC00030E040EA52E40E943019181634F4C12C68
:102AD000D12C10EAE12E12E4F12E4090DA0250904F
:102AE000DB026090DC027090DD02C0929904D0920B
:102AF0009A04E0929B04F0929C040E94C40580908A
:102B00009D0490909E04A0909F04B090A004809299
:102B1000DA029092DB02A092DC02B092DD02A50103
:102B20009401C301B2010E94D117882309F496C011
:102B3000C501B4010E9448182B01A6E4AA2EA5E005
:102B4000BA2EA61AB70AB50182E594E00E9452088F
:102B5000B5018FE494E00E945208B2E7AB2EB6E0D4
:102B6000BB2EA418B508B5018CE494E00E9452086D
:102B7000B50189E494E00E94520866E572E08AE2B9
:102B800094E00E94920A22E0B701A6018AE294E052
:102B90000E94250B6EE572E08AE294E00E94920AA0
:102BA0004091DA025091DB026091DC027091DD020B
:102BB0008AE294E00E94130C2091AF043091B0049B
:102BC0004091B1045091B2046091A7047091A8049F
:102BD0008091A9049091AA040E94A2192091AB04AB
:102BE0003091AC044091AD045091AE040E9435196F
:102BF0006B017C0120E030E040EA52E40E94301991
:102C000018163CF120E030E040E251E4C701B60183
:102C10000E94D11787FF1DC08091D8029091D902E0
:102C200001969093D9028093D80204973CF081E0FA
:102C300080930102A5E0B0E0BC83AB838B819C81D3
:102C400090930402809303029B819983AC81AA83B1
:102C500082CC1092D9021092D802F0CFB981BB83F6
:102C60002A812C83EBCF20E030E040E050ECC7011C
:102C7000B6010E94301918160CF459CD4CCEE2E082
:102C80002E2E312C68CC6CED75E082E594E00E942C
:102C900052086CED75E08FE494E00E9452086CEDF0
:102CA00075E08CE494E00E9452086CED75E089E4D4
:102CB00094E00E9452082091520430E0C901880F2C
:102CC000991F820F931FFC01EA51FD4F80818F7B7A
:102CD000808320914F0430E0C901880F991F820F33
:102CE000931FFC01EA51FD4F80818F7B80832091EF
:102CF0004C0430E0C901880F991F820F931FFC011B
:102D0000EA51FD4F80818F7B80832091490430E020
:102D1000C901880F991F820F931FFC01EA51FD4FD3
:102D200080818F7B808360E08EE20E94130560E0EB
:102D30008FE20E94130560E082E30E94130560E0C9
:102D400083E30E9413050E94B80500917603109159
:102D500077032091780330917903601B710B820B0C
:102D6000930B613D774081059105A0F00E94B80565
:102D7000609376037093770380937803909379033D
:102D80008DE00E94BC0461E0892B09F060E08DE0D9
:102D90000E94E5040E94B80500917A0310917B031C
:102DA00020917C0330917D03601B710B820B930B90
:102DB000653F71408105910550F00E94B805609310
:102DC0007A0370937B0380937C0390937D0382E06E
:102DD00090E080CB8BE192E090932B0480932A04C7
:102DE00080918B0390918C038A52944071F4E0910E
:102DF0003D04F0913E04908180913F0480958923A9
:102E0000808310928C0310928B030895A1E21A2EF6
:102E1000AA1BBB1BFD010DC0AA1FBB1FEE1FFF1F7E
:102E2000A217B307E407F50720F0A21BB30BE40BCE
:102E3000F50B661F771F881F991F1A9469F7609515
:102E40007095809590959B01AC01BD01CF010895CF
:102E5000991B79E004C0991F961708F0961B881FEC
:102E60007A95C9F78095089597FB072E16F400947C
:102E700007D077FD09D00E94501707FC05D03EF41B
:102E8000909581959F4F0895709561957F4F089516
:102E9000EE0FFF1F881F8BBF0790F691E02D19944E
:102EA000AA1BBB1B51E107C0AA1FBB1FA617B70770
:102EB00010F0A61BB70B881F991F5A95A9F780958C
:102EC0009095BC01CD0108955058BB27AA270E94B8
:102ED0007C170C94F6180E94E81838F00E94EF183E
:102EE00020F039F49F3F19F426F40C94E5180EF401
:102EF000E095E7FB0C94DF18E92F0E94071958F3BF
:102F0000BA17620773078407950720F079F4A6F5CE
:102F10000C9429190EF4E0950B2EBA2FA02D0B015D
:102F2000B90190010C01CA01A0011124FF27591B0E
:102F300099F0593F50F4503E68F11A16F040A22F14
:102F4000232F342F4427585FF3CF46953795279585
:102F5000A795F0405395C9F77EF41F16BA0B620B84
:102F6000730B840BBAF09150A1F0FF0FBB1F661FCB
:102F7000771F881FC2F70EC0BA0F621F731F841F0E
:102F800048F4879577956795B795F7959E3F08F034
:102F9000B0CF9395880F08F09927EE0F97958795F6
:102FA00008950E94BB1808F481E008950E94EA1772
:102FB0000C94F6180E94EF1858F00E94E81840F0A0
:102FC00029F45F3F29F00C94DF1851110C942A1951
:102FD0000C94E5180E94071968F39923B1F355235F
:102FE00091F3951B550BBB27AA276217730784071C
:102FF00038F09F5F5F4F220F331F441FAA1FA9F3B2
:1030000035D00E2E3AF0E0E832D091505040E6959F
:10301000001CCAF72BD0FE2F29D0660F771F881F00
:10302000BB1F261737074807AB07B0E809F0BB0BF3
:10303000802DBF01FF2793585F4F3AF09E3F510507
:1030400078F00C94DF180C942A195F3FE4F3983E53
:10305000D4F3869577956795B795F7959F5FC9F7F0
:10306000880F911D9695879597F90895E1E0660F71
:10307000771F881FBB1F621773078407BA0720F0EA
:10308000621B730B840BBA0BEE1F88F7E095089553
:103090000E944F186894B1110C942A1908950E9447
:1030A0000F1988F09F5798F0B92F9927B751B0F0B2
:1030B000E1F0660F771F881F991F1AF0BA95C9F7BC
:1030C00014C0B13091F00E942919B1E008950C9418
:1030D0002919672F782F8827B85F39F0B93FCCF3CB
:1030E000869577956795B395D9F73EF49095809539
:1030F000709561957F4F8F4F9F4F0895E89409C059
:1031000097FB3EF490958095709561957F4F8F4F1A
:103110009F4F9923A9F0F92F96E9BB279395F69530
:10312000879577956795B795F111F8CFFAF4BB0FAE
:1031300011F460FF1BC06F5F7F4F8F4F9F4F16C012
:10314000882311F096E911C0772321F09EE8872F9C
:10315000762F05C0662371F096E8862F70E060E058
:103160002AF09A95660F771F881FDAF7880F9695D1
:10317000879597F90895990F0008550FAA0BE0E875
:10318000FEEF16161706E807F907C0F01216130629
:10319000E407F50798F0621B730B840B950B39F469
:1031A0000A2661F0232B242B252B21F408950A26CF
:1031B00009F4A140A6958FEF811D811D089597F90F
:1031C0009F6780E870E060E008959FEF80EC0895CD
:1031D00000240A94161617061806090608950024F6
:1031E0000A9412161306140605060895092E039470
:1031F000000C11F4882352F0BB0F40F4BF2B11F4E4
:1032000060FF04C06F5F7F4F8F4F9F4F089557FD42
:103210009058440F551F59F05F3F71F04795880F44
:1032200097FB991F61F09F3F79F0879508951216DB
:1032300013061406551FF2CF4695F1DF08C0161687
:1032400017061806991FF1CF869571056105089438
:103250000895E894BB2766277727CB0197F908954F
:103260000E94BB1808F48FEF08950E9448190C942F
:10327000F6180E94E81838F00E94EF1820F0952305
:1032800011F00C94DF180C94E51811240C942A19F1
:103290000E94071970F3959FC1F3950F50E0551FD9
:1032A000629FF001729FBB27F00DB11D639FAA279B
:1032B000F00DB11DAA1F649F6627B00DA11D661FEA
:1032C000829F2227B00DA11D621F739FB00DA11D0B
:1032D000621F839FA00D611D221F749F3327A00DC5
:1032E000611D231F849F600D211D822F762F6A2F61
:1032F00011249F5750409AF0F1F088234AF0EE0FC6
:10330000FF1FBB1F661F771F881F91505040A9F7F2
:103310009E3F510580F00C94DF180C942A195F3FF2
:10332000E4F3983ED4F3869577956795B795F7952E
:10333000E7959F5FC1F7FE2B880F911D96958795A6
:1033400097F90895FA01EE0FFF1F30962105310518
:10335000A1F16115710561F48038BFE39B0749F164
:1033600068949038810561F08038BFEF9B0741F089
:1033700099234AF5FF3FE1053105210519F1E8944C
:103380000894E795D901AA2329F4AB2FBE2FF85F43
:10339000D0F310C0FF5F70F4A695E0F7F73950F056
:1033A00019F0FF3A38F49F779F930DD00F9007FCE8
:1033B0009058089546F00C94E51860E070E080E8BD
:1033C0009FE308954FE79F775F934F933F932F932A
:1033D0000E94A21A2F913F914F915F910E9435193F
:1033E0000C94FF190E94BB18880B990B089529F4BF
:1033F00016F00C94DF180C9429190C94E5180E940F
:103400000F19A8F39638A0F707F80F92E8942BE36A
:103410003AEA48EB5FE70E944B190F920F920F9226
:103420004DB75EB70F920E94EA1AE4EEF0E00E94F8
:10343000311A4F915F91EF91FF91E595EE1FFF1FBC
:1034400049F0FE57E0684427EE0F441FFA95E1F774
:103450004195550B0E94641A0F9007FE0C94581A60
:103460000895DF93CF931F930F93FF92EF92DF9214
:103470007B018C01689406C0DA2EEF010E94481986
:10348000FE01E894A5912591359145915591A6F3BA
:10349000EF010E947C17FE019701A801DA9469F7F9
:1034A000DF90EF90FF900F911F91CF91DF910895E2
:1034B0009B01AC0160E070E080E89FE30C94D617BC
:1034C0000C94DF180C941E1B0E940F19D8F399233B
:1034D000C9F3940F511DA3F39150504094F059F04B
:1034E000882332F0660F771F881F91505040C1F734
:1034F0009E3F51052CF7880F911D9695879597F95A
:1035000008955F3FACF0983E9CF0BB278695779579
:103510006795B79508F4B1609395C1F7BB0F58F75D
:1035200011F460FFE8CF6F5F7F4F8F4F9F4FE3CF66
:103530000C942A1916F00C941E1B0C94E518689430
:103540000C94DF180E940F19A8F39923C1F3AEF36E
:10355000DF93CF931F930F93FF92C92FDD2788230B
:103560002AF02197660F771F881FDAF720E030E0F6
:1035700040E85FEB9FE3883920F0803E38F02196E9
:103580008F770E946517ECE0F1E004C00E94651798
:10359000E9E3F1E00E94311A8B01BE01EC01FB2E40
:1035A0006F5771097595771F880B990B0E948018CA
:1035B00028E132E741E35FE30E944819AF2D98010B
:1035C000AE01FF900F911F91CF91DF910E947C1768
:1035D0000C94F618FA01DC01AA0FBB1F9B01AC0189
:1035E000BF5728F4222733274427507820C0B751EB
:1035F00090F4AB2F0024469537952795011CA39591
:10360000D2F3002071F0220F331F441FB395DAF379
:103610000ED00C94641761307105A0E88A07B94692
:1036200030F49B01AC016627772788279078309685
:1036300021F0208331834283538308959F3F31F0EB
:10364000915020F4879577956795B795880F911DD0
:103650009695879597F9089511E0C4E8D1E000E0C8
:1036600006C0802FFE010E9448172196011DC53813
:0C367000D10780E00807A9F7F894FFCF0D
:10367C00010101070000000000AD0374074E03FABE
:10368C00037F035D03710300000000BA0774074F4A
:10369C0008B90716082E08A1070D0A006E616E0006
:1036AC00696E66006F76660073756D2069733A20DB
:1036BC00007A65726F4779726F566F6C74616765CB
:1036CC002069733A2000696E7075743A20002C20C2
:0E36DC006F75747075743A2000656E6400009E
:00000001FF
