:100000000C9476010C94A7010C94A7010C94A70101
:100010000C94A7010C94A7010C94A7010C94A701C0
:100020000C94A7010C94A7010C94A7010C94A701B0
:100030000C94A7010C94A7010C94A7010C94A701A0
:100040000C94A7010C947B0C0C94A7010C94A701B1
:100050000C94A7010C94A7010C94A7010C94470BD6
:100060000C94A7010C94BB0B0C94910B0C94A7015E
:100070000C94A7010C94A7010C94A7010C94A70160
:100080000C944D0C0C94A7010C94A7010C94A7019F
:100090000C94A7010C94A7010C94A7010C94A70140
:1000A0000C94A7010C94A7010C941F0C0C94A701AD
:1000B0000C94A7010C94A7010C94A7010C94F10BCC
:1000C0000C94A7010C94A7010C94A7010C94A70110
:1000D0000C94A7010C94A7010C94A7010C94A70100
:1000E0000C94A70107634236B79BD8A71A39685604
:1000F00018AEBAAB558C1D3CB7CC5763BD6DEDFD4A
:10010000753EF6177231BF000000803F0800000006
:10011000BE922449123EABAAAA2ABECDCCCC4C3EFC
:1001200000000080BEABAAAAAA3E00000000BF00EB
:100130000000803F0000000000084178D3BB4387E7
:10014000D1133D190E3CC3BD4282AD2B3E68EC82FB
:1001500076BED98FE1A93E4C80EFFFBE01C4FF7F80
:100160003F00000000000C94EC010C94D9010C94A9
:10017000DC010C94CD010C94C7010C9476030C9413
:10018000D1010C94FA010C9418030C94D5010C9431
:10019000C40C0C94F0010C9407020C9454030C94BE
:1001A000FE010C9445030C9402020C94E2010C94A1
:1001B0000C020C9468030C94AE030C94E6010C94AE
:1001C00008020C94F4010C94FB03000021002400AD
:1001D00027002A002D003000330001010000040137
:1001E00007010A0100002200250028002B002E0034
:1001F0003100340002010000050108010B0100007C
:1002000020002300260029002C002F0032000001CE
:100210000000030106010901050505050705080899
:100220000808020202020A0A080804040404010180
:100230000101010101010303030303030303040795
:1002400007070C0C0C0C0C0C0C0C0202020206062C
:100250000606060606060B0B0B0B0B0B0B0B01021F
:1002600010202008081020401020408002010201C8
:100270000804020101020408102040808040201080
:1002800008040201800402018040201008040201D9
:100290000804020101020408102040800102040841
:1002A0001020408000000A0B02090C0D0E08070305
:1002B0000401000000000000000000000000000039
:1002C000000000000000000000000000000000002E
:1002D00012111000000000000000000000000000EB
:1002E00000000000000000000000C40C11241FBE2C
:1002F000CFEFD1E2DEBFCDBF00E00CBF12E0A0E047
:10030000B2E0E0EFF0E300E00BBF02C007900D9217
:10031000A43BB107D9F725E0A4EBB2E001C01D92E0
:10032000AD37B207E1F711E0C6E7D1E000E006C063
:1003300021970109802FFE010E949214C537D10731
:1003400080E00807A9F70E94520D0C9476180C94CF
:1003500000008150823108F05AC0E82FF0E0882771
:10036000EB54FE4F8F4F0C949214D501D901C70165
:10037000CD01D1010702DC01E201E601EC01F0014F
:10038000F401FA01FE010702020208020C02809148
:1003900080008F77809380000895809180008F7D0A
:1003A000F9CF80918000877FF5CF84B58F7784BDAA
:1003B000089584B58F7DFBCF8091B0008F778093B7
:1003C000B00008958091B0008F7DF9CF80919000AA
:1003D0008F77809390000895809190008F7DF9CF62
:1003E00080919000877FF5CF8091A0008F778093D8
:1003F000A00008958091A0008F7DF9CF8091A0008A
:10040000877FF5CF809120018F7780932001089519
:10041000809120018F7DF9CF80912001877FF5CFDA
:10042000CF93DF93282F30E0F901EC55FD4F8491F5
:10043000F901E25AFD4FD491F901E85EFD4FC491F4
:10044000CC23A1F081110E94A901EC2FF0E0EE0F66
:10045000FF1FE250FE4FA591B491EC91ED2381E096
:1004600090E009F480E0DF91CF91089580E090E082
:10047000FACF1F93CF93DF93282F30E0F901EC558B
:10048000FD4F8491F901E25AFD4FD491F901E85EE4
:10049000FD4FC491CC23A9F0162F81110E94A90110
:1004A000EC2FF0E0EE0FFF1FEC51FE4FA591B49141
:1004B0008FB7F894EC91111108C0D095DE23DC932E
:1004C0008FBFDF91CF911F910895DE2BF8CFCF938F
:1004D000DF9390E0FC01E25AFD4F2491885E9D4F2E
:1004E000FC0184918823D1F090E0880F991FFC01D2
:1004F000E653FE4FA591B491FC01EC51FE4FC5911E
:10050000D49161110EC09FB7F8948C91E22FE095C1
:100510008E238C932881E223E8839FBFDF91CF91C4
:1005200008958FB7F894EC91E22BEC938FBFF6CF40
:10053000863308F0865320917B00982F9870277F90
:10054000922B90937B008770806480937C008091D5
:100550007A00806480937A0080917A0086FDFCCFD7
:10056000809178009091790008953FB7F894809138
:10057000450490914604A0914704B091480426B5E3
:10058000A89B05C02F3F19F00196A11DB11D3FBFCB
:10059000BA2FA92F982F8827BC01CD01620F711D9A
:1005A000811D911D42E0660F771F881F991F4A9594
:1005B000D1F708958F929F92AF92BF92CF92DF9220
:1005C000EF92FF924B015C010E94B5026B017C012E
:1005D0000E94B5026C197D098E099F09683E73401F
:1005E00081059105A8F321E0821A9108A108B108BC
:1005F00088EEC80E83E0D81EE11CF11C8114910422
:10060000A104B10429F7FF90EF90DF90CF90BF9045
:10061000AF909F908F9008952FB7F8946091410408
:100620007091420480914304909144042FBF089537
:10063000AF92BF92CF92DF92EF92FF920F931F93F0
:10064000CF93DF936C017B018B01040F151FEB012E
:100650005E01AE18BF08C017D10759F06991D601E5
:10066000ED91FC910190F081E02DC6011995892B47
:1006700079F7C501DF91CF911F910F91FF90EF9016
:10068000DF90CF90BF90AF900895FC01538D448DC3
:10069000252F30E0842F90E0821B930B541710F02D
:1006A000CF96089501970895FC01918D828D98173A
:1006B00061F0A28DAE0FBF2FB11D5D968C91928D12
:1006C0009F5F9F73928F90E008958FEF9FEF089543
:1006D000FC01918D828D981731F0828DE80FF11D0C
:1006E000858D90E008958FEF9FEF0895FC01918D27
:1006F000228D892F90E0805C9F4F821B91098F7320
:100700009927089589E494E00E94760321E0892BDB
:1007100009F420E0822F0895FC01A48DA80FB92FC1
:10072000B11DA35ABF4F2C91848D90E001968F7319
:100730009927848FA689B7892C93A089B1898C9138
:10074000837080648C93938D848D981306C0028887
:10075000F389E02D80818F7D80830895EF92FF9251
:100760000F931F93CF93DF93EC0181E0888F9B8DD4
:100770008C8D98131AC0E889F989808185FF15C08E
:100780009FB7F894EE89FF896083E889F9898081B1
:100790008370806480839FBF81E090E0DF91CF9180
:1007A0001F910F91FF90EF900895F62E0B8D10E0A2
:1007B0000F5F1F4F0F731127E02E8C8D8E110CC011
:1007C0000FB607FCFACFE889F989808185FFF5CF5C
:1007D000CE010E948C03F1CFEB8DEC0FFD2FF11DAC
:1007E000E35AFF4FF0829FB7F8940B8FEA89FB8999
:1007F00080818062CFCFCF93DF93EC01888D8823F7
:10080000B9F0AA89BB89E889F9898C9185FD03C073
:10081000808186FD0DC00FB607FCF7CF8C9185FF58
:10082000F2CF808185FFEDCFCE010E948C03E9CF0E
:10083000DF91CF91089580E090E0892B29F00E940C
:10084000820381110E94000080E090E0892B49F032
:1008500080E090E0892B29F00E94000081110E9425
:10086000000080E090E0892B49F080E090E0892B47
:1008700029F00E94000081110E94000080E090E0B9
:10088000892B49F080E090E0892B29F00E9400003C
:1008900081110C9400000895DC01EC91E03390F597
:1008A00011968C91119728E830E0281B310987FDBB
:1008B0003395220F331F220F331F6217730784F003
:1008C00012968C9128E532E0281B310987FD33957B
:1008D000220F331F220F331F621773070CF49B0183
:1008E00022503109220F331F4FB7F8948E2F90E01A
:1008F000FC01EE0FFF1FE80FF91FEC55FC4F328390
:1009000021834FBF08951F93CF93DF93EC01162FE0
:100910008881803308F04EC061E0812F0E94670219
:100920008881282F30E0F901EE0FFF1FE20FF31F3F
:10093000EC55FC4F1F736081607C612B60831982D2
:100940001A822CE0622F0E947214829FB00111243F
:1009500030E020E0AB01420F531FFA01EE0FFF1F02
:10096000E40FF51FEC55FC4F908196FD16C02F5FEC
:100970003F4F2C30310571F7813009F5109280001E
:1009800082E0809381001092850010928400B19AD9
:1009900080916F00826080936F00E8818E2F90E0DD
:1009A000FC01EE0FFF1FE80FF91FEC55FC4F808193
:1009B000806480838881DF91CF911F910895823078
:1009C00061F4109290008093910010929500109223
:1009D000940088BB80937100E0CF833069F410925B
:1009E000A00082E08093A1001092A5001092A400C4
:1009F00089BB80937200D1CF8111CFCF109220019B
:100A000082E08093210110922501109224018ABB7B
:100A100080937300C2CFAF92BF92CF92DF92EF92DA
:100A2000FF920F931F93CF93DF936B017A01EC0139
:100A3000C454DD4F28813CE0389F8001399F100D60
:100A40001124A090C002B12C27FF1FC0FB0111820E
:100A5000108288818F5F888388819801280F311DDB
:100A600087FD3A95F6012A153B051CF488818C30E8
:100A7000C4F180819181049680349C4908F473C04C
:100A8000F60180819181049670C088819801280FB9
:100A9000311D87FD3A952A153B05DCF68881A801B2
:100AA000480F511D87FD5A95FA01EE0FFF1FE40F05
:100AB000F51FEC55FC4F808186FFCBCF8881F80174
:100AC000E80FF11D87FDFA95CF01EE0FFF1FE80F2C
:100AD000F91FEC55FC4F808160E08F730E94390252
:100AE000B8CF808191812881A801420F511D27FD37
:100AF0005A959A01FA01EE0FFF1FE20FF31FEC5512
:100B0000FC4F21813281820F931FF70191838083F3
:100B100088819801280F311D87FD3A95F901EE0F64
:100B2000FF1FE20FF31FEC55FC4F808186FF22C0B0
:100B30008881080F111D87FD1A95F801EE0FFF1F20
:100B4000E00FF11FEC55FC4F808161E08F73DF9166
:100B5000CF911F910F91FF90EF90DF90CF90BF90BA
:100B6000AF900C94390280E49CE9F7019183808373
:100B70008FEF8883DF91CF911F910F91FF90EF90BE
:100B8000DF90CF90BF90AF900895CF92DF92EF9219
:100B9000FF9261E080E30E94390283E290E00197D6
:100BA000F1F760E080E30E9439020E94B5026B0118
:100BB0007C0181E30E941002892BA1F40E94B502FE
:100BC0006C197D098E099F0969387E45810591055B
:100BD00080F360E070E080E89FEBFF90EF90DF90A3
:100BE000CF9008950E94B5026B017C0181E30E94C1
:100BF0001002019761F40E94B5026C197D098E09FB
:100C00009F0969387E458105910580F3E2CF0E94F6
:100C1000B5026C197D098E099F090E94C81520E054
:100C200030E048E652E40E942015D7CF8F929F9281
:100C3000AF92BF92CF92DF92EF92FF92CF93DF936A
:100C4000EC01EE8DFF8DC080D180E280F380CEA2DA
:100C5000DFA2E8A6F9A6EC8DFD8D80819181A281AD
:100C6000B3818AA79BA7ACA7BDA7FE01FE96808093
:100C70009180A280B380A5019401C701B6010E94B2
:100C80007A1618162CF48EA29FA2A8A6B9A60CC09C
:100C90008AAC9BACACACBDACA5019401C701B6015C
:100CA0000E941B1587FDEFCFDF91CF91FF90EF9052
:100CB000DF90CF90BF90AF909F908F9008952F922C
:100CC0003F924F925F926F927F928F929F92AF92DC
:100CD000BF92CF92DF92EF92FF920F931F93CF9329
:100CE000DF931C016A017B0148015901A9019801A8
:100CF000CB01B6010E947A1687FF3BC0F101C2AE5C
:100D0000D3AEE4AEF5AE8101025C1F4FF8018082E4
:100D10009182A282B38234968081882351F1F101BD
:100D2000C68DD78D488059806A807B80A30192014F
:100D3000C501B4010E941B1587FF2EC088829982CD
:100D4000AA82BB82F10186A097A0A0A4B1A4F80159
:100D5000C080D180E280F380A7019601C501B40173
:100D60000E947A16F101181624F5C6A2D7A2E0A6B1
:100D7000F1A6DF91CF911F910F91FF90EF90DF903F
:100D8000CF90BF90AF909F908F907F906F905F902B
:100D90004F903F902F900895A3019201C701B60193
:100DA0000E947A16181674F6C882D982EA82FB82EB
:100DB000C9CFC2ACD3ACE4ACF5ACA7019601C50178
:100DC000B4010E941B1587FFD4CFF101CECF2F9223
:100DD0003F924F925F926F927F928F929F92AF92CB
:100DE000BF92CF92DF92EF92FF920F931F93CF9318
:100DF000DF93CDB7DEB760970FB6F894DEBF0FBEB6
:100E0000CDBFFC01EE5BFF4F2081298721111BC064
:100E10001986898560960FB6F894DEBF0FBECDBFE8
:100E2000DF91CF911F910F91FF90EF90DF90CF90C6
:100E3000BF90AF909F908F907F906F905F904F90FA
:100E40003F902F900895988B8F870E940C036A879C
:100E50007B878C879D87EF85F88982A193A1A4A1C8
:100E6000B5A14A855B856C857D85481B590B6A0B4E
:100E70007B0B86A997A9A0ADB1AD481759076A07A2
:100E80007B0730F2048CF58DE02D80819181A28169
:100E9000B3818D839E83AF83B887AF85B8899096E1
:100EA000ED91FC912D813E814F815885608171814A
:100EB000828193810E94AE146B017C01EF85F889D9
:100EC00022A533A544A555A56D817E818F81988586
:100ED0000E94AE1469837A838B839C83AF85B88923
:100EE00050962D913D914D915C915397C701B6015C
:100EF0000E947F16EF85F88926A137A140A551A54C
:100F00000E94AF144B015C01AF85B88996968D9213
:100F10009D92AD92BC929997FD01ED5BFF4FB08120
:100F2000BE87B1112BC0EF85F8894484558466844F
:100F30007784A301920169817A818B819C810E94CF
:100F40007F169B01AC01C501B4010E94AE14AF85B0
:100F5000B88996966D937D938D939C939997C301D1
:100F6000B201905829813A814B815C810E947F16A1
:100F7000EF85F88966A777A780AB91ABAF85B88975
:100F800096964D905D906D907C909997FD01FE96A0
:100F90001081018132802380212F302F432D522D4B
:100FA000C301B2010E947A1618160CF091C0812F6D
:100FB000902FA32DB22DEF85F88986A397A3A0A724
:100FC000B1A7FE85FF2309F49AC0AF85B8891C96A6
:100FD0002D913D914D915C911F97C701B6010E94E3
:100FE0007F166B017C01EF85F889C6A6D7A6E0AA1B
:100FF000F1AAAF85B88954968D909D90AD90BC9024
:101000005797A501940169817A818B819C810E9407
:101010007F169B01AC01EF85F88966A177A180A5B9
:1010200091A50E94AE14A70196010E94AF146B0116
:101030007C01C501B401905829813A814B815C81C2
:101040000E947F16AF85B889D2966D937D938D935C
:101050009C93D5979601A701612F702F832D922D18
:101060000E941B1587FD14C0EF85F88912AD03ADF2
:1010700034AC25AC212F302F432D522DB601C701A2
:101080000E941B1587FD04C01C2D0D2D3E2C2F2CFE
:10109000AF85B8895E96ED91FC91812F902FA32D9D
:1010A000B22D80839183A283B3838D819E81AF8192
:1010B000B885EF85F88982A793A7A4A7B5A78A85E5
:1010C0009B85AC85BD8582A393A3A4A3B5A3A1CE24
:1010D000AF85B889DA968D909D90AD90BC90DD97E4
:1010E000A5019401C301B2010E941B1587FF69CFBE
:1010F000EF85F88986A297A2A0A6B1A662CFC12CDF
:10110000D12C760176CF4F925F926F927F928F9221
:101110009F92AF92BF92CF92DF92EF92FF920F9386
:101120001F93CF93DF9300D01F92CDB7DEB74C0152
:10113000270138010C8D1D8DDC015F965C934E9369
:101140005E975D967C936E935C9791963C932E93FD
:101150009097FC01EE5BFF4F1082FC0112AE13AEC4
:1011600014AE15AEFE9680E090E0AFE7B3E4808366
:101170009183A283B38384E690E0A0E0B0E0F40121
:1011800086AB97ABA0AFB1AF118F008F20E030E0FE
:10119000A901C301B7010E941B1587FD85C020E08E
:1011A00030E0A901C601B5010E941B1587FD7CC076
:1011B00020E030E0A901688D798D8A8D9B8D0E9499
:1011C0001B1587FD71C081E090E0D4015B969C9374
:1011D0008E935A97F401ED5BFF4F8083F4014082B8
:1011E0005182628273821496AD92BD92CD92DC924E
:1011F0001797888D998DAA8DBB8D80879187A2873F
:10120000B38744865586668677862DEC3CEC4CEC9D
:101210005DE3C601B5010E947F1669837A838B83E3
:101220009C83F401608B718B828B938B2DEC3CEC57
:101230004CEC5DE3688D798D8A8D9B8D0E94201525
:101240006B017C01D4015496CD92DD92ED92FC921B
:1012500057970130110541F5A301920160E070E05C
:10126000CB010E94AE14F401648775878687978747
:1012700029813A814B815C8160E070E0CB010E9462
:10128000AE14D40150966D937D938D939C93539798
:10129000A701960160E070E0CB010E94AE14F4015A
:1012A000648B758B868B978B0E940C03D401D6962A
:1012B0000D911D912D913C91D997601B710B820B63
:1012C000930BF40162A373A384A395A30F900F90D3
:1012D0000F900F90DF91CF911F910F91FF90EF90A2
:1012E000DF90CF90BF90AF909F908F907F906F9046
:1012F0005F904F900895FB0101900020E9F731972E
:10130000AF01461B570BDC01ED91FC910280F3818C
:10131000E02D19948F929F92AF92BF920F931F93DB
:10132000CF93DF93CDB7DEB7A1970FB6F894DEBFAA
:101330000FBECDBF19A2423008F44AE08E010F5D06
:101340001F4F842E912CB12CA12CA50194010E9439
:101350005014E62FB901CA01EA3004F5E05DD80166
:10136000EE938D01232B242B252B79F790E080E041
:10137000109729F0BD0189E494E00E947B09A196B1
:101380000FB6F894DEBF0FBECDBFDF91CF911F9196
:101390000F91BF90AF909F908F900895E95CDFCF41
:1013A000CF92DF92EF92FF92CF93DF936C01990F70
:1013B000EE08FF08F7FE21C06DE289E494E00E9488
:1013C000AE03EC0166277727CB016C197D098E09E6
:1013D0009F094AE00E948A09C80FD91F67E172E09D
:1013E00089E494E00E947B098C0F9D1FDF91CF91CF
:1013F000FF90EF90DF90CF9008954AE0C701B601CB
:101400000E948A09EC01EACF0F931F93CF93DF93D9
:10141000EC010E947B098C0167E172E0CE010E9421
:101420007B09800F911FDF91CF911F910F9108953C
:101430004F925F926F927F928F929F92AF92BF92E4
:10144000CF92DF92EF92FF92CF93DF9300D000D044
:10145000CDB7DEB79E838D836A017B010E940C03AA
:101460004B015C018091B8029091B902A091BA023F
:10147000B091BB028C0D9D1DAE1DBF1D8815990539
:10148000AA05BB050CF075C0ED81FE8180810E942C
:101490009802BC01990F880B990B0E94CA156B0129
:1014A0007C012B013C012DEC3CEC4CE45EE36091B3
:1014B000B4027091B5028091B6029091B7020E9479
:1014C0007F1669837A838B839C832DEC3CEC4CE400
:1014D0005FE3C701B6010E947F169B01AC016981E1
:1014E0007A818B819C810E94AF146093B4027093C7
:1014F000B5028093B6029093B702ED81FE81C2825D
:10150000D382E482F5828092B8029092B902A092CE
:10151000BA02B092BB02A7019601C701B6010E94B0
:101520003C176AE172E081111AC046015701E89444
:10153000B7F82FEF3FEF4FE75FE7C501B4010E9417
:101540003C1781112BC02FEF3FEF4FE75FE7C5013D
:10155000B4010E941B1518160CF56EE172E089E4C7
:1015600094E00E947B0967E172E089E494E00E94C4
:101570007B0926960FB6F894DEBF0FBECDBFDF9174
:10158000CF91FF90EF90DF90CF90BF90AF909F9062
:101590008F907F906F905F904F9008952FEF3FEF67
:1015A0004FE75FE4C701B6010E947A1618161CF4D3
:1015B00062E272E0D4CF2FEF3FEF4FE75FECC7015D
:1015C000B6010E941B1587FDF3CF20E030E0A90192
:1015D000C701B6010E941B1587FF0BC06DE289E4AD
:1015E00094E00E94AE032601370177FA709477F8F1
:1015F00070942AE037ED43EA5BE3C301B2010E9435
:10160000AF144B015C010E9499156B017C010E9493
:10161000C8159B01AC01C501B4010E94AE144B0179
:101620005C014AE0C701B6010E948A096EE289E4C2
:1016300094E00E94AE0320E030E040E251E4C501B6
:10164000B4010E947F164B015C010E9499156B0149
:10165000F12CE12C4AE0C701B6010E948A09C701BA
:10166000B6010E94C8159B01AC01C501B4010E94DE
:10167000AE1420E030E040E251E40E947F160E9468
:10168000991590E080E04AE00E948A096CCF1F9291
:101690000F920FB60F9211242F933F938F939F9326
:1016A000AF93BF938091410490914204A091430471
:1016B000B09144043091400423E0230F2D3758F5B6
:1016C0000196A11DB11D2093400480934104909385
:1016D0004204A0934304B093440480914504909144
:1016E0004604A0914704B09148040196A11DB11D84
:1016F0008093450490934604A0934704B093480414
:10170000BF91AF919F918F913F912F910F900FBEFD
:101710000F901F90189526E8230F0296A11DB11D6A
:10172000D2CF1F920F920FB60F9211240BB60F92C9
:101730002F933F934F935F936F937F938F939F93D9
:10174000AF93BF93EF93FF9389E494E00E948C03DF
:10175000FF91EF91BF91AF919F918F917F916F9189
:101760005F914F913F912F910F900BBE0F900FBE45
:101770000F901F9018951F920F920FB60F92112481
:101780000BB60F922F938F939F93EF93FF93E0915C
:101790005904F0915A048081E0915F04F091600453
:1017A00082FD1DC09081809162048F5F8F732091B4
:1017B0006304821741F0E0916204F0E0E75BFB4FC5
:1017C000958F80936204FF91EF919F918F912F915C
:1017D0000F900BBE0F900FBE0F901F901895808139
:1017E000F2CF1F920F920FB60F9211240BB60F92E9
:1017F0002F933F934F935F936F937F938F939F9319
:10180000AF93BF93EF93FF9348E251E064E271E03E
:1018100090E080E00E940B05FF91EF91BF91AF91A6
:101820009F918F917F916F915F914F913F912F91F8
:101830000F900BBE0F900FBE0F901F9018951F9228
:101840000F920FB60F9211240BB60F922F933F9366
:101850004F935F936F937F938F939F93AF93BF93B8
:10186000EF93FF9348EA50E064EA70E083E090E091
:101870000E940B05FF91EF91BF91AF919F918F91C6
:101880007F916F915F914F913F912F910F900BBE80
:101890000F900FBE0F901F9018951F920F920FB6CA
:1018A0000F9211240BB60F922F933F934F935F9398
:1018B0006F937F938F939F93AF93BF93EF93FF9318
:1018C00048E950E064E970E082E090E00E940B0596
:1018D000FF91EF91BF91AF919F918F917F916F9108
:1018E0005F914F913F912F910F900BBE0F900FBEC4
:1018F0000F901F9018951F920F920FB60F92112400
:101900000BB60F922F933F934F935F936F937F93F9
:101910008F939F93AF93BF93EF93FF9348E850E06B
:1019200064E870E081E090E00E940B05FF91EF9188
:10193000BF91AF919F918F917F916F915F914F91E7
:101940003F912F910F900BBE0F900FBE0F901F90E5
:101950001895FC019091C002903398F481E0890FB2
:101960008093C0029083892F90E0FC01EE0FFF1F4F
:10197000E80FF91FEC55FC4F88EB9BE092838183C5
:1019800008958FEF80830895AF92BF92CF92DF9238
:10199000EF92FF920F931F93E9E4F4E01382128217
:1019A00088EE93E0A0E0B0E084839583A683B783BC
:1019B00089E092E09183808385EC90E0958784872D
:1019C00084EC90E09787868780EC90E0918B808B09
:1019D00081EC90E0938B828B82EC90E0958B848BF2
:1019E00086EC90E0978B868B118E128E138E148E60
:1019F00082EF94E00E94A90C8FEE94E00E94A90C63
:101A00008CEE94E00E94A90C89EE94E00E94A90C4F
:101A100086EE94E00E94A90CEFE6F5E011821082B8
:101A20001282138214821582E1E6F5E0118210829F
:101A30001282138214821582E3E5F5E0118210828E
:101A40001282138214821582E5E4F5E0118210827D
:101A500012821382148215821F921F921F921F926C
:101A60001F921F92A12CB12C6501E12CF12C00E8F2
:101A70001FE321E435E04DE355E069E375E085EFD0
:101A800094E00E9483080F900F900F900F900F909A
:101A90000F901F910F91FF90EF90DF90CF90BF902C
:101AA000AF900895CF93DF93CDB7DEB7C155D1097D
:101AB0000FB6F894DEBF0FBECDBF789484B58260B8
:101AC00084BD84B5816084BD85B5826085BD85B5E2
:101AD000816085BD80916E00816080936E00109260
:101AE00081008091810082608093810080918100DB
:101AF000816080938100809180008160809380006C
:101B00008091B10084608093B1008091B0008160C9
:101B10008093B000809191008260809391008091C9
:101B2000910081608093910080919000816080930A
:101B300090008091A10082608093A1008091A1001B
:101B400081608093A1008091A00081608093A000BB
:101B50008091210182608093210180912101816027
:101B600080932101809120018160809320018091E8
:101B70007A00846080937A0080917A0082608093FA
:101B80007A0080917A00816080937A0080917A0057
:101B9000806880937A001092C10080E090E0A8E411
:101BA000B2E48093390590933A05A0933B05B09336
:101BB0003C0510923D0510923E0510923F05109293
:101BC00040058093410590934205A0934305B0934F
:101BD000440580913705811104C085EF94E00E948F
:101BE000160681E08093370500E010E028EC32E42F
:101BF00040E050E068EC72EC85EF94E00E945F06F4
:101C000080913705882309F446C080910D05909195
:101C10000E05892B09F43FC0209101053091020582
:101C2000409103055091040560E070E0CB010E94F3
:101C3000AE146093010570930205809303059093A1
:101C40000405209105053091060540910705509146
:101C5000080560E070E0CB010E94AE1460930505BA
:101C60007093060580930705909308052091090558
:101C700030910A0540910B0550910C0560E070E031
:101C8000CB010E94AE146093090570930A058093FE
:101C90000B0590930C0510920E0510920D0561E056
:101CA0008DE00E94670261E080E30E94670260E0CD
:101CB00080E30E9439028BE390E09093700580935B
:101CC0006F058AE999E8A6EEB4E4809375059093D0
:101CD0007605A0937705B093780581EE9AE7A4E79F
:101CE000BFEB8093790590937A05A0937B05B09321
:101CF0007C0560E08BE30E9467028CE390E09093A8
:101D0000620580936105412C512C00E8602E0FE3A1
:101D1000702E409267055092680560926905709236
:101D20006A0540926B0550926C0560926D05709249
:101D30006E0560E00E9467028DE390E09093540589
:101D4000809353054092590550925A0560925B0565
:101D500070925C0540925D0550925E0560925F0551
:101D60007092600560E00E94670288E390E09093C3
:101D700046058093450540924B0550924C05609274
:101D80004D0570924E0540924F055092500560925D
:101D900051057092520560E00E9467020AE010E06F
:101DA000B12CA12C89E30E9498027C010E94D009E9
:101DB000AE0CBF1C65E070E080E090E00E94DA02AB
:101DC0000150110979F766E272E089E494E00E941B
:101DD0007B09C5010E94D009C5016AE070E00E943C
:101DE0007E1470938F0360938E036FE272E089E438
:101DF00094E00E947B0980918E0390918F030E9452
:101E0000D00989E494E09093390480933804E091F8
:101E10005904F0915A0482E08083E0915504F091D6
:101E200056041082E0915704F091580480E18083B9
:101E300010926104E0915D04F0915E0486E080837D
:101E4000E0915B04F0915C04808180618083E0918B
:101E50005B04F0915C04808188608083E0915B0486
:101E6000F0915C04808180688083E0915B04F09154
:101E70005C0480818F7D808364E472E089E494E077
:101E80000E94040A68EE73E080E090E00E94DA02AB
:101E900064E672E080913804909139040E94040A4B
:101EA00068EE73E080E090E00E94DA02412C512C51
:101EB00018E4612E13E4712E80913E0490913F044A
:101EC0008130910509F44AC030F0029709F439C411
:101ED0000E941B04F1CF6EE672E08091380490916D
:101EE00039040E94040A68EE73E080E090E00E94EA
:101EF000DA026FE772E080913804909139040E9411
:101F0000040A6EE270E082EF94E00E9483046FE2C4
:101F100070E08FEE94E00E94830462E370E08CEE48
:101F200094E00E94830463E370E089EE94E00E94F1
:101F300083046BE070E086EE94E00E94830462E923
:101F400072E080913804909139040E94040A81E083
:101F500090E090933F0480933E04BACF0E940C031C
:101F60000091C2021091C3022091C4023091C502B7
:101F70000617170728073907E0F48091C1028F5F21
:101F80008093C102853008F41FC10E940C03645481
:101F90007D4F8F4F9F4F6093C2027093C302809317
:101FA000C4029093C50260E08DE00E943902109255
:101FB000C102809003029090040295E0891691047A
:101FC00009F485C208F019C1B3E08B16910409F435
:101FD00057C224E08216910409F0B9CF80911C0306
:101FE000811121C01F92332433943F921F921F927C
:101FF0001F921F92A12CB12C6501E12CF12C00E85D
:102000001FE328E133E044E153E060E173E08CEC4E
:1020100092E00E94830830921C030F900F900F9063
:102020000F900F900F900E940C0380910002882364
:1020300089F1409210035092110360921203709242
:1020400013031092140310921503109216031092AA
:102050001703409218035092190360921A0370926A
:102060001B0380910E03811104C08CEC92E00E944E
:10207000160681E080930E0300E010E028EC32E4C5
:1020800040E050E068EC72EC8CEC92E00E945F065D
:10209000109200024AE050E060E070E08FE695E0C8
:1020A0000E94180A2091790530917A0540917B05AC
:1020B00050917C0560917105709172058091730556
:1020C000909174050E94EC169B01AC01609175051E
:1020D0007091760580917705909178050E947F1622
:1020E0006093100370931103809312039093130372
:1020F0008CEC92E00E94E706C0901403D090150388
:10210000E0901603F09017030E940C03AB01BC0192
:102110008091C8029091C902A091CA02B091CB02ED
:102120004996A11DB11D84179507A607B7070CF0A6
:10213000C9C14093C8025093C9026093CA02709308
:10214000CB02C701B6010E9492155B01A0ECAA1A4E
:10215000A9EFBA0AB50182EF94E00E944C04B501E0
:102160008FEE94E00E944C046EE675E08CEE94E0F5
:102170000E944C046EE675E089EE94E00E944C04E7
:102180000E94C50520E030E040E251E40E941B15AA
:1021900087FF93C18091C6029091C70201969093E8
:1021A000C7028093C602049734F081E08093000256
:1021B000A5E08A2E912C90920402809203026296EE
:1021C0008FAE6297292CC3CE0E940C036C597F4FAF
:1021D0008F4F9F4F6093C2027093C3028093C402DB
:1021E0009093C5028DE00E94100261E0892B09F0F6
:1021F00060E08DE00E943902DCCE86E08816910412
:1022000009F4A8C197E08916910409F0A0CE1F92A5
:1022100081E08F931F921F921F921F92A12CB12CCD
:1022200065011DECE12E1CECF12E0CEC1DE39E0172
:10223000235B3F4FAE01475B5F4FBE016B5B7F4F40
:10224000CE0101960E9483080F900F900F900F907F
:102250000F900F90809102028823E9F1A0929403DD
:10226000B0929503C0929603D09297032996ACAE94
:10227000BDAECEAEDFAE299780E090E0A0E8BFE330
:102280002D968CAF9DAFAEAFBFAF2D9780E090E0A5
:10229000A0E7B2E461968CAF9DAFAEAFBFAF6197E0
:1022A00024968FAD2497811104C0CE0101960E941F
:1022B000160681E024968FAF249700E010E020E816
:1022C0003FE340E050E060E87FEBCE0101960E94E2
:1022D0005F06109202020E940C0320919C032111C0
:1022E0000BC0609398037093990380939A03909323
:1022F0009B0381E080939C030E940C03AB01BC0113
:102300008091900390919103A0919203B0919303D7
:102310000596A11DB11D84179507A607B7070CF0F8
:102320004DC089E30E94980220918E0330918F0363
:10233000821B930B9C012F5F3F4F2330310510F41C
:1023400090E080E0BC01990F880B990B0E94CA15A0
:1023500024EF3DEF44ED5BE30E94201528E638EEC4
:102360004FE95BE30E947F1620E030E040EA50E452
:102370000E947F1620E030E04AE754E40E942015D6
:102380009B01AC0160919403709195038091960339
:10239000909197030E94AF146093940370939503F8
:1023A00080939603909397030E940C03609390038D
:1023B000709391038093920390939303809194037D
:1023C00090919503A0919603B091970329968CAFB5
:1023D0009DAFAEAFBFAF2997CE0101960E94E70631
:1023E0002D968CAC9DACAEACBFAC2D970E940C036F
:1023F000AB01BC018091980390919903A0919A033D
:10240000B0919B038C599F4FAF4FBF4F84179507D7
:10241000A607B70774F54093980350939903609308
:102420009A0370939B0320E030E048EC52E4C5012E
:10243000B4010E947F169B01AC0160E070E88BEB59
:1024400094E40E94AE140E9492154B0182EF94E036
:102450000E944C04B4018FEE94E00E944C04B4013D
:102460008CEE94E00E944C04B40189EE94E00E944A
:102470004C04A7E0B0E0B0930402A093030267CD40
:1024800049E150E060E070E081E695E00E94180AC2
:1024900049E150E060E070E083E595E00E94180AB1
:1024A00049E150E060E070E085E495E00E94180AA0
:1024B00090920402809203024ACD1092C7021092B9
:1024C000C60279CE62968FAC6297922C74CE8091C0
:1024D000280381110DC00E940C03609324037093A4
:1024E0002503809326039093270381E0809328039C
:1024F00060E476E082EF94E00E944C0468E775E0C7
:102500008FEE94E00E944C0468E775E08CEE94E056
:102510000E944C0460E476E089EE94E00E944C0452
:10252000C0902403D0902503E0902603F090270369
:10253000B0EDCB0EB7E0DB1EE11CF11C0E940C03DA
:10254000C616D706E806F90608F0B2CFF6E08F2ED9
:10255000912CAECF80918603811121C01F9233242C
:1025600033943F921F921F921F921F92A12CB12C65
:102570006501E12CF12C00E81FE322E833E04EE78F
:1025800053E06AE773E086E393E00E9483083092A9
:1025900086030F900F900F900F900F900F900E9456
:1025A0000C03809101028823A9F180E090E0A8EC5F
:1025B000B2E480937A0390937B03A0937C03B0935F
:1025C0007D0310927E0310927F031092800310927D
:1025D00081038093820390938303A0938403B09339
:1025E000850380917803811104C086E393E00E9403
:1025F000160681E08093780300E010E028EC32E4D6
:1026000040E050E068EC72EC86E393E00E945F06E5
:10261000109201024AE050E060E070E081E695E04F
:102620000E94180A20916B0530916C0540916D0550
:1026300050916E0560916305709164058091650508
:10264000909166050E94EC169B01AC0160916705B4
:10265000709168058091690590916A050E947F16C6
:1026600060937A0370937B0380937C0390937D0344
:1026700086E393E00E94E706C0907E03D0907F033C
:10268000E0908003F09081030E940C03AB01BC0139
:102690008091320390913303A0913403B0913503BC
:1026A0004996A11DB11D84179507A607B7070CF021
:1026B000FFCE4093320350933303609334037093FF
:1026C0003503C701B6010E94921507E315E0061B0A
:1026D000170BB80182EF94E00E944C04B8018FEE12
:1026E00094E00E944C0469E576E08CEE94E00E9450
:1026F0004C0469E576E089EE94E00E944C040E9467
:10270000C50520E030E042E053E40E947A16181636
:102710009CF48091300390913103019690933103A2
:102720008093300304970CF4C3CE81E080930102C0
:1027300077E0872E912CBCCE10923103109230039B
:10274000B7CE6CED75E082EF94E00E944C046CED26
:1027500075E08FEE94E00E944C046CED75E08CEE19
:1027600094E00E944C046CED75E089EE94E00E94C8
:102770004C04E091F2048E2F90E0FC01EE0FFF1F5D
:10278000E80FF91FEC55FC4F80818F7B8083E0912F
:10279000EF048E2F90E0FC01EE0FFF1FE80FF91FF2
:1027A000EC55FC4F80818F7B8083E091EC048E2F71
:1027B00090E0FC01EE0FFF1FE80FF91FEC55FC4FF6
:1027C00080818F7B8083E091E9048E2F90E0FC0173
:1027D000EE0FFF1FE80FF91FEC55FC4F80818F7B38
:1027E000808360E08EE20E94670260E08FE20E94D8
:1027F000670260E082E30E94670260E083E30E9478
:1028000067020E940C03009134041091350420915A
:10281000360430913704601B710B820B930B613DC2
:10282000774081059105A0F00E940C036093340469
:102830007093350480933604909337048DE00E94A2
:10284000100261E0892B09F060E08DE00E943902FE
:102850000E940C0300913A0410913B0420913C0427
:1028600030913D04601B710B820B930B653F7140EF
:102870008105910590F00E940C0360933A047093D7
:102880003B0480933C0490933D0463EA72E08091A2
:102890003804909139040E94040A82E090E059CBF8
:1028A000A1E21A2EAA1BBB1BFD010DC0AA1FBB1F54
:1028B000EE1FFF1FA217B307E407F50720F0A21BC6
:1028C000B30BE40BF50B661F771F881F991F1A9433
:1028D00069F760957095809590959B01AC01BD015D
:1028E000CF010895991B79E004C0991F961708F04D
:1028F000961B881F7A95C9F78095089597FB072E38
:1029000016F4009407D077FD09D00E949A1407FCB2
:1029100005D03EF4909581959F4F089570956195EF
:102920007F4F0895EE0FFF1F881F8BBF0790F69112
:10293000E02D1994AA1BBB1B51E107C0AA1FBB1FA6
:10294000A617B70710F0A61BB70B881F991F5A953B
:10295000A9F780959095BC01CD0108955058BB27EB
:10296000AA270E94C6140C9440160E94321638F012
:102970000E94391620F039F49F3F19F426F40C9484
:102980002F160EF4E095E7FB0C942916E92F0E9410
:10299000511658F3BA17620773078407950720F09A
:1029A00079F4A6F50C9473160EF4E0950B2EBA2F5D
:1029B000A02D0B01B90190010C01CA01A001112445
:1029C000FF27591B99F0593F50F4503E68F11A16F1
:1029D000F040A22F232F342F4427585FF3CF469582
:1029E00037952795A795F0405395C9F77EF41F16A4
:1029F000BA0B620B730B840BBAF09150A1F0FF0F6E
:102A0000BB1F661F771F881FC2F70EC0BA0F621F59
:102A1000731F841F48F4879577956795B795F79549
:102A20009E3F08F0B0CF9395880F08F09927EE0FDE
:102A30009795879508950E94051608F481E00895FA
:102A40000E9434150C9440160E94391658F00E94CA
:102A5000321640F029F45F3F29F00C9429165111E9
:102A60000C9474160C942F160E94511668F3992337
:102A7000B1F3552391F3951B550BBB27AA2762177A
:102A80007307840738F09F5F5F4F220F331F441F87
:102A9000AA1FA9F335D00E2E3AF0E0E832D09150BB
:102AA0005040E695001CCAF72BD0FE2F29D0660FA8
:102AB000771F881FBB1F261737074807AB07B0E8EB
:102AC00009F0BB0B802DBF01FF2793585F4F3AF0F1
:102AD0009E3F510578F00C9429160C9474165F3FB4
:102AE000E4F3983ED4F3869577956795B795F79577
:102AF0009F5FC9F7880F911D9695879597F908955F
:102B0000E1E0660F771F881FBB1F621773078407FA
:102B1000BA0720F0621B730B840BBA0BEE1F88F709
:102B2000E09508950E9499156894B1110C9474165B
:102B300008950E94591688F09F5798F0B92F992749
:102B4000B751B0F0E1F0660F771F881F991F1AF098
:102B5000BA95C9F714C0B13091F00E947316B1E074
:102B600008950C947316672F782F8827B85F39F073
:102B7000B93FCCF3869577956795B395D9F73EF431
:102B800090958095709561957F4F8F4F9F4F0895D9
:102B9000E89409C097FB3EF49095809570956195F7
:102BA0007F4F8F4F9F4F9923A9F0F92F96E9BB27AD
:102BB0009395F695879577956795B795F111F8CF29
:102BC000FAF4BB0F11F460FF1BC06F5F7F4F8F4F94
:102BD0009F4F16C0882311F096E911C0772321F08A
:102BE0009EE8872F762F05C0662371F096E8862F22
:102BF00070E060E02AF09A95660F771F881FDAF779
:102C0000880F9695879597F90895990F0008550FA5
:102C1000AA0BE0E8FEEF16161706E807F907C0F062
:102C200012161306E407F50798F0621B730B840B6A
:102C3000950B39F40A2661F0232B242B252B21F444
:102C400008950A2609F4A140A6958FEF811D811DE4
:102C5000089597F99F6780E870E060E008959FEF1E
:102C600080EC089500240A94161617061806090623
:102C7000089500240A9412161306140605060895F2
:102C8000092E0394000C11F4882352F0BB0F40F47A
:102C9000BF2B11F460FF04C06F5F7F4F8F4F9F4FBA
:102CA000089557FD9058440F551F59F05F3F71F03C
:102CB0004795880F97FB991F61F09F3F79F08795A3
:102CC0000895121613061406551FF2CF4695F1DF2C
:102CD00008C0161617061806991FF1CF86957105BC
:102CE000610508940895E894BB2766277727CB01F0
:102CF00097F908950E94051608F48FEF08950E9431
:102D000092160C9440160E94321638F00E94391622
:102D100020F0952311F00C9429160C942F161124F1
:102D20000C9474160E94511670F3959FC1F3950F81
:102D300050E0551F629FF001729FBB27F00DB11D3F
:102D4000639FAA27F00DB11DAA1F649F6627B00DCF
:102D5000A11D661F829F2227B00DA11D621F739FB8
:102D6000B00DA11D621F839FA00D611D221F749FC6
:102D70003327A00D611D231F849F600D211D822F0D
:102D8000762F6A2F11249F5750409AF0F1F0882334
:102D90004AF0EE0FFF1FBB1F661F771F881F915061
:102DA0005040A9F79E3F510580F00C9429160C94D1
:102DB00074165F3FE4F3983ED4F386957795679554
:102DC000B795F795E7959F5FC1F7FE2B880F911D8B
:102DD0009695879597F90895FA01EE0FFF1F3096A3
:102DE00021053105A1F16115710561F48038BFE35A
:102DF0009B0749F168949038810561F08038BFEFF6
:102E00009B0741F099234AF5FF3FE1053105210574
:102E100019F1E8940894E795D901AA2329F4AB2F76
:102E2000BE2FF85FD0F310C0FF5F70F4A695E0F7F7
:102E3000F73950F019F0FF3A38F49F779F930DD08F
:102E40000F9007FC9058089546F00C942F1660E000
:102E500070E080E89FE308954FE79F775F934F937B
:102E60003F932F930E94EC172F913F914F915F91C9
:102E70000E947F160C9449170E940516880B990B27
:102E8000089529F416F00C9429160C9473160C94DA
:102E90002F160E945916A8F39638A0F707F80F923C
:102EA000E8942BE33AEA48EB5FE70E9495160F920D
:102EB0000F920F924DB75EB70F920E943418E4EE56
:102EC000F0E00E947B174F915F91EF91FF91E595A4
:102ED000EE1FFF1F49F0FE57E0684427EE0F441F26
:102EE000FA95E1F74195550B0E94AE170F9007FE3A
:102EF0000C94A2170895DF93CF931F930F93FF9223
:102F0000EF92DF927B018C01689406C0DA2EEF010C
:102F10000E949216FE01E894A59125913591459164
:102F20005591A6F3EF010E94C614FE019701A80176
:102F3000DA9469F7DF90EF90FF900F911F91CF9196
:102F4000DF9108959B01AC0160E070E080E89FE3B1
:102F50000C9420150C9429160C9468180E9459168C
:102F6000D8F39923C9F3940F511DA3F39150504006
:102F700094F059F0882332F0660F771F881F915024
:102F80005040C1F79E3F51052CF7880F911D969533
:102F9000879597F908955F3FACF0983E9CF0BB276A
:102FA000869577956795B79508F4B1609395C1F7C5
:102FB000BB0F58F711F460FFE8CF6F5F7F4F8F4F63
:102FC0009F4FE3CF0C94741616F00C9468180C9471
:102FD0002F1668940C9429160E945916A8F3992369
:102FE000C1F3AEF3DF93CF931F930F93FF92C92FDB
:102FF000DD2788232AF02197660F771F881FDAF7CD
:1030000020E030E040E85FEB9FE3883920F0803E2D
:1030100038F021968F770E94AF14ECE0F1E004C005
:103020000E94AF14E9E3F1E00E947B178B01BE011F
:10303000EC01FB2E6F5771097595771F880B990B63
:103040000E94CA1528E132E741E35FE30E9492162D
:10305000AF2D9801AE01FF900F911F91CF91DF919D
:103060000E94C6140C944016FA01DC01AA0FBB1F83
:103070009B01AC01BF5728F42227332744275078FF
:1030800020C0B75190F4AB2F002446953795279573
:10309000011CA395D2F3002071F0220F331F441FAF
:1030A000B395DAF30ED00C94AE1461307105A0E83C
:1030B0008A07B94630F49B01AC0166277727882739
:1030C0009078309621F02083318342835383089592
:1030D0009F3F31F0915020F4879577956795B7958C
:1030E000880F911D9695879597F90895F894FFCFCD
:1030F000010101030000000000AE0318034503FBBB
:10310000037603540368030D0A006E616E00696E56
:1031100066006F76660073756D2069733A20007AD9
:1031200065726F4779726F566F6C7461676520695D
:10313000733A20004D454348454E473730365F428D
:103140006173655F436F64655F32352F30312F32B5
:103150003031380053657475702E2E2E2E00494E76
:10316000495449414C4953494E472E2E2E2E004575
:103170006E61626C696E67204D6F746F72732E2E74
:103180002E0052554E4E494E472053544154452E21
:103190002E2E0053544F505045442D2D2D2D2D2DA6
:0431A0002D2D2D00A4
:00000001FF
