:100000000C949B010C94CC010C94CC010C94CC016D
:100010000C94CC010C94CC010C94CC010C94CC012C
:100020000C94CC010C94690F0C94690F0C94690F1B
:100030000C94CC010C94CC010C94CC010C94CC010C
:100040000C94CC010C946F100C94CC010C94CC014A
:100050000C94CC010C94CC010C94CC010C94BF0EEC
:100060000C94CC010C94330F0C94090F0C94CC011C
:100070000C94CC010C94CC010C94CC010C94CC01CC
:100080000C9441100C94CC010C94CC010C94CC0138
:100090000C94CC010C94CC010C94CC010C94CC01AC
:1000A0000C94CC010C94CC010C9413100C94CC0146
:1000B0000C94CC010C94CC010C94CC010C94E50F65
:1000C0000C94CC010C94CC010C94CC010C94CC017C
:1000D0000C94CC010C94CC010C94CC010C94CC016C
:1000E0000C94CC0107634236B79BD8A71A396856DF
:1000F00018AEBAAB558C1D3CB7CC5763BD6DEDFD4A
:10010000753EF6177231BF000000803F0800000006
:10011000BE922449123EABAAAA2ABECDCCCC4C3EFC
:1001200000000080BEABAAAAAA3E00000000BF00EB
:100130000000803F0000000000084178D3BB4387E7
:10014000D1133D190E3CC3BD4282AD2B3E68EC82FB
:1001500076BED98FE1A93E4C80EFFFBE01C4FF7F80
:100160003F00000000000C94A9060C942A180C947F
:100170000E180C94FD020C9438030C9450180C9437
:100180001D070C942A030C94B8100C9490060C9440
:10019000F1010C9411180C94921A0C9401030C9414
:1001A000CE010C9405070C9460180C942D020C944D
:1001B00012030C94FF010C9405030C9433030C946C
:1001C000DD010C940E030C9474180C941C030C9415
:1001D000A8060C9445180C9463060C94F9020C9430
:1001E000F3170C9467170C9434030C9434180C9484
:1001F00008030C9468180C9420030C942E030C94A0
:1002000018030C943E070C9426030C94F3020C94F0
:100210007A0200002100240027002A002D0030006F
:10022000330001010000040107010A0100000A0B6C
:1002300002090C0D0E080703040100000000000075
:1002400000000000000000000000000000000000AE
:10025000000000000000000012111000000000006B
:10026000000000000000000000000000000000008E
:100270000000000020002300260029002C002F0091
:100280003200000100000301060109010000220004
:10029000250028002B002E00310034000201000050
:1002A000050108010B0105050505070508080808F3
:1002B000020202020A0A08080404040401010101FE
:1002C00001010101030303030303030304070707F9
:1002D0000C0C0C0C0C0C0C0C02020202060606069E
:1002E000060606060B0B0B0B0B0B0B0B010210206B
:1002F000200808102040102040800201020108045C
:1003000002010102040810204080804020100804EF
:100310000201800402018040201008040201080448
:10032000020101020408102040800102040810208C
:100330004080B810921A11241FBECFEFD1E2DEBF69
:10034000CDBF00E00CBF12E0A0E0B2E0ECECFDE3BA
:1003500000E00BBF02C007900D92AC35B107D9F792
:1003600025E0ACE5B2E001C01D92A534B207E1F78B
:1003700011E0CAE9D1E000E006C021970109802F11
:10038000FE010E94F01AC939D10780E00807A9F7D9
:100390000E9474120C94D41E0C940000FC01538D26
:1003A000448D252F30E0842F90E0821B930B54174F
:1003B00010F0CF96089501970895FC01918D828DDC
:1003C000981761F0A28DAE0FBF2FB11D5D968C9175
:1003D000928D9F5F9F73928F90E008958FEF9FEFB4
:1003E0000895FC01918D828D981731F0828DE80F70
:1003F000F11D858D90E008958FEF9FEF0895FC012A
:10040000918D228D892F90E0805C9F4F821B9109F6
:100410008F7399270895FC01A48DA80FB92FB11DE2
:10042000A35ABF4F2C91848D90E001968F7399272A
:10043000848FA689B7892C93A089B1898C91837008
:1004400080648C93938D848D981306C00288F38901
:10045000E02D80818F7D80830895EF92FF920F932E
:100460001F93CF93DF93EC0181E0888F9B8D8C8D60
:1004700098131AC0E889F989808185FF15C09FB754
:10048000F894EE89FF896083E889F9898081837017
:10049000806480839FBF81E090E0DF91CF911F91C6
:1004A0000F91FF90EF900895F62E0B8D10E00F5FE7
:1004B0001F4F0F731127E02E8C8D8E110CC00FB6BD
:1004C00007FCFACFE889F989808185FFF5CFCE0155
:1004D0000E940B02F1CFEB8DEC0FFD2FF11DE35AC3
:1004E000FF4FF0829FB7F8940B8FEA89FB898081D8
:1004F0008062CFCFCF93DF93EC01888D8823B9F052
:10050000AA89BB89E889F9898C9185FD03C080811E
:1005100086FD0DC00FB607FCF7CF8C9185FFF2CF9B
:10052000808185FFEDCFCE010E940B02E9CFDF91E4
:10053000CF91089585EA93E00E94FF0121E0892B85
:1005400009F420E0822F089580E090E0892B29F0C3
:100550000E949A0281110E94000080E090E0892BA5
:1005600049F080E090E0892B29F00E940000811181
:100570000E94000080E090E0892B49F080E090E04C
:10058000892B29F00E94000081110E94000080E068
:1005900090E0892B49F080E090E0892B29F00E94BF
:1005A000000081110C94000008958150823108F000
:1005B0005AC0E82FF0E08827EF51FD4F8F4F0C9481
:1005C000F01A01030503F302F902FD0233030803E5
:1005D0000E03120318031C03200326032A0333030C
:1005E0002E0334033803809180008F77809380003E
:1005F0000895809180008F7DF9CF80918000877F62
:10060000F5CF84B58F7784BD089584B58F7DFBCFFA
:100610008091B0008F778093B00008958091B000F2
:100620008F7DF9CF809190008F778093900008950F
:10063000809190008F7DF9CF80919000877FF5CFDA
:100640008091A0008F778093A00008958091A000F2
:100650008F7DF9CF8091A000877FF5CF8091200119
:100660008F77809320010895809120018F7DF9CFAD
:1006700080912001877FF5CFCF93DF93282F30E043
:10068000F901E45DFD4F8491F901E451FD4FD491EE
:10069000F901EA55FD4FC491CC23A1F081110E94CC
:1006A000D502EC2FF0E0EE0FFF1FEE58FD4FA591A5
:1006B000B491EC91ED2381E090E009F480E0DF91CA
:1006C000CF91089580E090E0FACF1F93CF93DF930E
:1006D000282F30E0F901E45DFD4F8491F901E451E8
:1006E000FD4FD491F901EA55FD4FC491CC23A9F0F7
:1006F000162F81110E94D502EC2FF0E0EE0FFF1FA4
:10070000E457FD4FA591B4918FB7F894EC91111176
:1007100008C0D095DE23DC938FBFDF91CF911F916E
:100720000895DE2BF8CFCF93DF9390E0FC01E451E6
:10073000FD4F24918A559D4FFC0184918823D1F06F
:1007400090E0880F991FFC01EE5EFD4FA591B491DA
:10075000FC01E457FD4FC591D49161110EC09FB7C4
:10076000F8948C91E22FE0958E238C932881E223DC
:10077000E8839FBFDF91CF9108958FB7F894EC91F4
:10078000E22BEC938FBFF6CF863308F0865320918F
:100790007B00982F9870277F922B90937B00877017
:1007A000806480937C0080917A00806480937A00DA
:1007B00080917A0086FDFCCF80917800909179003D
:1007C00008953FB7F89480917A0390917B03A091AC
:1007D0007C03B0917D0326B5A89B05C02F3F19F07F
:1007E0000196A11DB11D3FBFBA2FA92F982F8827B1
:1007F000BC01CD01620F711D811D911D42E0660F8C
:10080000771F881F991F4A95D1F708958F929F925D
:10081000AF92BF92CF92DF92EF92FF924B015C01B9
:100820000E94E1036B017C010E94E1036C197D09C8
:100830008E099F09683E734081059105A8F321E068
:10084000821A9108A108B10888EEC80E83E0D81E6C
:10085000E11CF11C81149104A104B10429F7FF905B
:10086000EF90DF90CF90BF90AF909F908F900895C2
:100870002FB7F89460917603709177038091780395
:10088000909179032FBF08952F923F924F925F92DC
:100890006F927F928F929F92AF92BF92CF92DF9290
:1008A000EF92FF920F931F93CF93DF93CDB7DEB7F5
:1008B0002E970FB6F894DEBF0FBECDBF30909004D8
:1008C00031101BC0312C832D2E960FB6F894DEBF4D
:1008D0000FBECDBFDF91CF911F910F91FF90EF9091
:1008E000DF90CF90BF90AF909F908F907F906F9050
:1008F0005F904F903F902F9008950E943804698731
:100900007A878B879C878091700490917104A09165
:100910007204B091730449855A856B857C85481BA8
:10092000590B6A0B7B0B8091840490918504A091F4
:100930008604B0918704481759076A077B0710F2AD
:10094000E0916A04F0916B0480819181A281B3816E
:100950008D839E83AF83B887E0916E04F0916F041E
:100960009C01AD0160817181828193810E940C1B89
:100970004B015C01209178043091790440917A0414
:1009800050917B046D817E818F8198850E940C1B24
:100990006B017C0120915E0430915F044091600402
:1009A00050916104C501B4010E94DD1C20917404C2
:1009B0003091750440917604509177040E940D1B8C
:1009C0002B013C01409274045092750460927604AD
:1009D0007092770420909104211031C080915A04C4
:1009E00090915B04A0915C04B0915D0489839A832B
:1009F000AB83BC839C01AD01C701B6010E94DD1C25
:100A00009B01AC01C301B2010E940C1B60937404F2
:100A100070937504809376049093770469817A814A
:100A20008B819C819058A70196010E94DD1C6093E8
:100A30007C0470937D0480937E0490937F044090A7
:100A4000740450907504609076047090770410914F
:100A50008C0490918D049E87A0918E04AD870091A7
:100A60008F04212F392F4A2F502FC301B2010E942A
:100A7000D81C18160CF09BC0812F9E85AD85B02F19
:100A80008093740490937504A0937604B0937704D4
:100A9000222009F4A5C020915A0430915B044091B2
:100AA0005C0450915D04C501B4010E94DD1C4B0142
:100AB0005C0180927C0490927D04A0927E04B092AE
:100AC0007F044090620450906304609064047090CE
:100AD0006504A3019201C701B6010E94DD1C9B01C0
:100AE000AC016091740470917504809176049091CA
:100AF00077040E940C1BA50194010E940D1B4B0161
:100B00005C01C301B2019058A70196010E94DD1C4F
:100B10006093800470938104809382049093830493
:100B20009401A501612F7E858D85902F0E94791BF0
:100B300087FD18C010918804909189049E87A09128
:100B40008A04AD8700918B04212F392F4A2F502F13
:100B5000B401C5010E94791B87FD04C0182D9E8633
:100B6000AD860B2DE0916C04F0916D04812F9E8574
:100B7000AD85B02F80839183A283B3838D819E81C5
:100B8000AF81B8858093780490937904A0937A0418
:100B9000B0937B0489859A85AB85BC85809370046E
:100BA00090937104A0937204B09373048CCE8091DF
:100BB000880490918904A0918A04B0918B04898360
:100BC0009A83AB83BC839C01AD01C301B2010E9437
:100BD000791B87FF5DCF89819A81AB81BC8150CF22
:100BE000812C912C54016DCF4F925F926F927F9226
:100BF0008F929F92AF92BF92CF92DF92EF92FF922D
:100C0000CF93DF93EC010E9438046B017C0180914B
:100C1000A1039091A203A091A303B091A4030A960B
:100C2000A11DB11D8C159D05AE05BF05ECF5888194
:100C30000E94C403BC01990F880B990B0E94281CC9
:100C40004B015C0120E030E040E05FE360919D03F8
:100C500070919E0380919F039091A0030E94DD1CE0
:100C60002B013C0120E030E040E05FE3C501B4012E
:100C70000E94DD1C9B01AC01C301B2010E940D1B4F
:100C800060939D0370939E0380939F039093A003B2
:100C90008A829B82AC82BD82C092A103D092A203C1
:100CA000E092A303F092A403DF91CF91FF90EF9025
:100CB000DF90CF90BF90AF909F908F907F906F907C
:100CC0005F904F900895AF92BF92CF92DF92EF92D4
:100CD000FF920F931F93CF93DF936C017B018B01E6
:100CE000040F151FEB015E01AE18BF08C017D10736
:100CF00059F06991D601ED91FC910190F081E02DC0
:100D0000C6011995892B79F7C501DF91CF911F9104
:100D10000F91FF90EF90DF90CF90BF90AF9008952C
:100D20002091AE023091AF022817390771F49091EB
:100D3000AC028091AD02981741F0E091AC02F0E076
:100D4000EF59FD4F808190E008958FEF9FEF089558
:100D50000895EF92FF920F931F93CF93DF93DC01DF
:100D60005C96ED90FC905D97E114F10479F481E0DC
:100D700090E013969C938E93129790E080E0DF9121
:100D8000CF911F910F91FF90EF9008955196ED91A3
:100D9000FC91529750968C915097982F90950FB741
:100DA0005E962C915E97122F127021FD6095F8943B
:100DB0002081112319F1282B2083E7012197F1F7D6
:100DC00028E0462F50E0308160FF1AC0382B308376
:100DD000E7012197F1F7BA0175956795215089F7D9
:100DE000112381F08081892380830FBF5C968D91D0
:100DF0009C910197F1F781E090E0C1CF2923DCCFEE
:100E00003923E5CF9081892BEFCF2091AE0230912D
:100E1000AF022817390771F48091AD022091AC021E
:100E200090E0805C9F4F821B910960E470E00E941B
:100E3000DC1A089590E080E008952091AE02309190
:100E4000AF0228173907B9F49091AC028091AD0236
:100E5000981789F0E091AC02F0E0EF59FD4F8081E6
:100E60002091AC0230E02F5F3F4F2F733327209348
:100E7000AC0290E008958FEF9FEF089590E080E03E
:100E80000895DC01EC91E03390F511968C91119767
:100E900028E830E0281B310987FD3395220F331FE6
:100EA000220F331F6217730784F012968C9128E586
:100EB00032E0281B310987FD3395220F331F220FA3
:100EC000331F621773070CF49B0122503109220F64
:100ED000331F4FB7F8948E2F90E0FC01EE0FFF1FE9
:100EE000E80FF91FE552FD4F328321834FBF08956C
:100EF000CF92DF92EF92FF926B017C01809108020A
:100F0000882361F00E9438046093910370939203E8
:100F100080939303909394031092080262E776E023
:100F20008BE494E00E94410766E475E088E494E075
:100F30000E94410766E475E085E494E00E94410761
:100F400062E776E082E494E00E9441078091910399
:100F500090919203A0919303B0919403C80ED91E6F
:100F6000EA1EFB1E0E943804C616D706E806F906DC
:100F700050F481E08093080286E090E0FF90EF90CB
:100F8000DF90CF90089585E090E0F8CF1F93CF9346
:100F9000DF93EC01162F8881803308F04EC061E0AA
:100FA000812F0E9493038881282F30E0F901EE0FF2
:100FB000FF1FE20FF31FE552FD4F1F736081607C3E
:100FC000612B608319821A822CE0622F0E94D01A52
:100FD000829FB001112430E020E0AB01420F531F8B
:100FE000FA01EE0FFF1FE40FF51FE552FD4F908150
:100FF00096FD16C02F5F3F4F2C30310571F78130C1
:1010000009F51092800082E08093810010928500A3
:1010100010928400B19A80916F00826080936F007B
:10102000E8818E2F90E0FC01EE0FFF1FE80FF91F03
:10103000E552FD4F8081806480838881DF91CF916C
:101040001F910895823061F4109290008093910076
:10105000109295001092940088BB80937100E0CFAD
:10106000833069F41092A00082E08093A100109276
:10107000A5001092A40089BB80937200D1CF81118A
:10108000CFCF1092200182E08093210110922501A0
:10109000109224018ABB80937300C2CFAF92BF929B
:1010A000CF92DF92EF92FF920F931F93CF93DF9334
:1010B0006B017A01EC01C45ADD4F28813CE0389F76
:1010C0008001399F100D1124A0906002B12C27FFE0
:1010D0001FC0FB011182108288818F5F8883888105
:1010E0009801280F311D87FD3A95F6012A153B0519
:1010F0001CF488818C30C4F1808191810496803405
:101100009C4908F473C0F60180819181049670C0F7
:1011100088819801280F311D87FD3A952A153B05D6
:10112000DCF68881A801480F511D87FD5A95FA0108
:10113000EE0FFF1FE40FF51FE552FD4F808186FF84
:10114000CBCF8881F801E80FF11D87FDFA95CF011B
:10115000EE0FFF1FE80FF91FE552FD4F808160E0A1
:101160008F730E946503B8CF808191812881A80187
:10117000420F511D27FD5A959A01FA01EE0FFF1FEC
:10118000E20FF31FE552FD4F21813281820F931F41
:10119000F7019183808388819801280F311D87FD95
:1011A0003A95F901EE0FFF1FE20FF31FE552FD4FD5
:1011B000808186FF22C08881080F111D87FD1A9546
:1011C000F801EE0FFF1FE00FF11FE552FD4F808188
:1011D00061E08F73DF91CF911F910F91FF90EF909E
:1011E000DF90CF90BF90AF900C94650380E49CE9B2
:1011F000F701918380838FEF8883DF91CF911F91D7
:101200000F91FF90EF90DF90CF90BF90AF90089537
:101210000F931F93CF93DF938C01C6E4D5E0C81BD7
:10122000D90BBE018BE494E00E944107BE0188E423
:1012300094E00E944107C2E7D6E0C01BD10BBE017B
:1012400085E494E00E944107BE0182E494E0DF91CE
:10125000CF911F910F910C944107CF92DF92EF92A3
:10126000FF9261E080E30E94650383E290E00197D2
:10127000F1F760E080E30E9465030E94E1036B01E7
:101280007C0181E30E943C03892BA1F40E94E103CD
:101290006C197D098E099F0969387E458105910584
:1012A00080F360E070E080E89FEBFF90EF90DF90CC
:1012B000CF9008950E94E1036B017C0181E30E94BD
:1012C0003C03019761F40E94E1036C197D098E09CA
:1012D0009F0969387E458105910580F3E2CF0E9420
:1012E000E1036C197D098E099F090E94261C20E0EC
:1012F00030E048E652E40E947E1BD7CF4F925F92C7
:101300006F927F928F929F92AF92BF92CF92DF9215
:10131000EF92FF920F931F93CF93DF9300D000D0F3
:1013200000D01F92CDB7DEB79A8789872A013B018B
:1013300009831A832B833C83DC015B96BC92AE92BB
:101340005A97FC01ED5BFF4F81E0AA94AB2809F0AE
:1013500080E08083E985FA854082518262827382CF
:1013600089819A81AB81BC8184839583A683B7836D
:10137000C086D186E286F38666A977A980AD91AD55
:101380000E94261C20E030E04AE754E40E947E1BC5
:101390006D837E838F839887E985FA854486558699
:1013A000668677869B01AC0169817A818B819C81FD
:1013B0000E94DD1C4B015C01A985BA8550968D9277
:1013C0009D92AD92BC9253972D813E814F8158855D
:1013D000C701B6010E947E1B6B017C01E985FA857D
:1013E000C48AD58AE68AF78A808D918D019759F54E
:1013F000A301920160E070E0CB010E940C1BA98563
:10140000BA851C966D937D938D939C931F97A50130
:10141000940160E070E0CB010E940C1BE985FA8525
:10142000608B718B828B938BA701960160E070E0DB
:10143000CB010E940C1BA985BA8554966D937D93B0
:101440008D939C9357972A960FB6F894DEBF0FBEE4
:10145000CDBFDF91CF911F910F91FF90EF90DF9063
:10146000CF90BF90AF909F908F907F906F905F9044
:101470004F9008950F931F93CF93DF93EC018B014F
:10148000FC01EE5BFF4F8081882361F1888D998D8F
:101490008617970739F12C853D854E855F8560E07D
:1014A00070E0CB010E940C1B6C877D878E879F8725
:1014B000288939894A895B8960E070E0CB010E9404
:1014C0000C1B688B798B8A8B9B8B2C893D894E8971
:1014D0005F8960E070E0CB010E940C1B6C8B7D8B00
:1014E0008E8B9F8B198F088FDF91CF911F910F915A
:1014F00008952F923F924F925F926F927F928F92B8
:101500009F92AF92BF92CF92DF92EF92FF920F9392
:101510001F93CF93DF931C016A017B01480159019E
:10152000A9019801CB01B6010E94D81C87FF3BC0DE
:10153000F101C2AED3AEE4AEF5AE8101025C1F4F45
:10154000F80180829182A282B382349680818823BE
:1015500051F1F101C68DD78D488059806A807B801A
:10156000A3019201C501B4010E94791B87FF2EC01F
:1015700088829982AA82BB82F10186A097A0A0A44A
:10158000B1A4F801C080D180E280F380A701960168
:10159000C501B4010E94D81CF101181624F5C6A299
:1015A000D7A2E0A6F1A6DF91CF911F910F91FF90F6
:1015B000EF90DF90CF90BF90AF909F908F907F90F3
:1015C0006F905F904F903F902F900895A3019201EC
:1015D000C701B6010E94D81C181674F6C882D982B9
:1015E000EA82FB82C9CFC2ACD3ACE4ACF5ACA701B4
:1015F0009601C501B4010E94791B87FFD4CFF10188
:10160000CECF4F925F926F927F928F929F92AF92C6
:10161000BF92CF92DF92EF92FF920F931F93CF93DF
:10162000DF9300D01F92CDB7DEB72B013C01809134
:1016300009028823D1F1109295031092960310921B
:10164000970310929803A0906804B09069048AE010
:10165000C82E87EDD82E83E2E82E8CE3F82E970172
:10166000860149E25CE56FE87DE38EE494E00E9448
:101670007E0940929A0450929B0460929C0470925E
:101680009D0400E010E020E83FE340E050E060E827
:101690007FEB8EE494E00E94790A61E070E08EE4D2
:1016A00094E00E943A0A109209028090950390906B
:1016B0009603A0909703B09098038091990390911E
:1016C0009A03A0919B03B0919C0389839A83AB8377
:1016D000BC838092920490929304A0929404B0925E
:1016E00095040E944404C0909604D0909704E09022
:1016F0009804F0909904C0929903D0929A03E092D2
:101700009B03F0929C03A701960169817A818B81EA
:101710009C810E94791B882331F120E030E046E172
:1017200053E4C701B6010E94DD1C9B01AC0160E0DF
:1017300070E88BEB94E40E940C1B0E94F01B6B0181
:101740008BE494E00E944107B60188E494E00E9493
:101750004107B60185E494E00E944107B60182E4A6
:1017600094E00E944107A3019201C501B4010E94C7
:101770000C1B6B017C0120E030E0A9010E94D81C09
:10178000181624F520E030E040E050E4C701B6012F
:101790000E94791B87FF24C081E08093090282E0C8
:1017A00090E00F900F900F900F90DF91CF911F91CD
:1017B0000F91FF90EF90DF90CF90BF90AF909F90F0
:1017C0008F907F906F905F904F90089520E030E071
:1017D00040E050ECC701B6010E94D81C1816E4F294
:1017E00087E090E0DECFFB0101900020E9F7319720
:1017F000AF01461B570BDC01ED91FC910280F38198
:10180000E02D19948F929F92AF92BF92EF92FF9228
:101810000F931F93CF93DF93CDB7DEB7A1970FB68A
:10182000F894DEBF0FBECDBF7C01FA01CB0119A237
:10183000223008F42AE08E010F5D1F4F822E912C7A
:10184000B12CA12CBF01A50194010E94AE1AF9018F
:10185000CA016A300CF5605DD8016E938D01232BAF
:10186000242B252B79F790E080E0109721F0BD0123
:10187000C7010E94F30BA1960FB6F894DEBF0FBE0E
:10188000CDBFDF91CF911F910F91FF90EF90BF904F
:10189000AF909F908F900895695CDECF4F925F92DA
:1018A0006F927F928F929F92AF92BF92CF92DF9270
:1018B000EF92FF920F931F93CF936B017C01742ED5
:1018C000AC019B010E949A1D6EE272E0811126C05C
:1018D00046015701E894B7F82FEF3FEF4FE75FE776
:1018E000C501B4010E949A1D81110CC02FEF3FEF7A
:1018F0004FE75FE7C501B4010E94791B62E372E024
:10190000181664F02FEF3FEF4FE75FE4C701B60111
:101910000E94D81C1816ACF466E372E086E295E0EB
:10192000CF911F910F91FF90EF90DF90CF90BF90DC
:10193000AF909F908F907F906F905F904F900C949E
:10194000F30B2FEF3FEF4FE75FECC701B6010E94AB
:10195000791B87FDE1CF20E030E0A901C701B60186
:101960000E94791B10E000E087FF0AC06DE286E26A
:1019700095E00E94A9068C01F7FAF094F7F8F0942C
:10198000C0E060E070E080E09FE37C1641F020E082
:1019900030E040E251E40E947E1BCF5FF6CFA7010A
:1019A00096010E940D1B2B013C010E94F71B4B016D
:1019B0005C012AE0BC01A40186E295E00E94020CD1
:1019C0007C01E00EF11ECC23D1F1C501B4010E94CF
:1019D000261C9B01AC01C301B2010E940C1B4B01F0
:1019E0005C016EE286E295E00E94A906E80EF91E0F
:1019F000C15028F120E030E040E251E4C501B401DB
:101A00000E94DD1C2B013C010E94F71B4B01B12CF5
:101A1000A12C2AE0B501A40186E295E00E94020C07
:101A2000E80EF91EC501B4010E94261C9B01AC0101
:101A3000C301B2010E940C1B4B015C01D9CFC7014D
:101A4000CF911F910F91FF90EF90DF90CF90BF90BB
:101A5000AF909F908F907F906F905F904F90089580
:101A6000CF92DF92EF92FF92CF93DF936C01990FA9
:101A7000EE08FF08F7FE23C06DE285EA93E00E94BE
:101A80002D02EC0144275527BA014C195D096E0956
:101A90007F092AE085EA93E00E94020CC80FD91F53
:101AA0006AE372E085EA93E00E94F30B8C0F9D1FBE
:101AB000DF91CF91FF90EF90DF90CF9008952AE0D3
:101AC000B701A60185EA93E00E94020CEC01E8CF81
:101AD000CF92DF92EF92FF92CF93DF93EC012A85B2
:101AE0003B854C855D856A817B818C819D810E94CF
:101AF0004A1D2E813F81488559850E94DD1C6B015E
:101B00007C0120E030E040EA52E40E94D81C181624
:101B100034F4C12CD12C80EAE82E82E4F82EC701DF
:101B2000B601DF91CF91FF90EF90DF90CF900895B5
:101B3000CF93DF93EC0188810E94C403BC01990F0D
:101B4000880B990B0E94281C6A837B838C839D835E
:101B5000CE01DF91CF910C94680D8F929F92AF923E
:101B6000BF92CF92DF92EF92FF920F931F938091DB
:101B70000702882389F1A0906804B0906904C12C01
:101B8000D12C76019701860140E050E060EA70E4D4
:101B90008EE494E00E947E0980E090E0A0E2B1E44F
:101BA00080939A0490939B04A0939C04B0939D040B
:101BB00000E010E028EC32E440E050E068EC72EC29
:101BC0008EE494E00E94790A70E060E08EE494E094
:101BD0000E943A0A109207028AEB94E00E94680D74
:101BE00080908D0390908E03A0908F03B09090030F
:101BF000609392047093930480939404909395045B
:101C00000E944404C0909604D0909704E0909804F9
:101C1000F0909904C0928D03D0928E03E0928F03CE
:101C2000F0929003A7019601C501B4010E94791BAF
:101C30008823A9F1C701B6010E94F01BCB010E94C5
:101C400008098EE994E00E94980D20E030E040E21F
:101C500051E40E94791B87FF1BC080918B039091F8
:101C60008C03019690938C0380938B030497A4F0CC
:101C700081E08093070285E090E01F910F91FF9033
:101C8000EF90DF90CF90BF90AF909F908F9008958E
:101C900010928C0310928B0386E090E0EECFEDCF94
:101CA000CF92DF92EF92FF928091830381110DC05A
:101CB0000E94380460937F037093800380938103B4
:101CC0009093820381E08093830366E475E08BE464
:101CD00094E00E94410762E776E088E494E00E9485
:101CE000410762E776E085E494E00E94410766E4FC
:101CF00075E082E494E00E9441078AEB94E00E9440
:101D0000980D20E030E040E051E40E94791B87FF0D
:101D100011C080917E0381110DC00E943804609330
:101D20007F0370938003809381039093820381E00B
:101D300080937E03C0907F03D0908003E090810366
:101D4000F090820388EEC80E83E0D81EE11CF11CDF
:101D50000E943804C616D706E806F90668F4809192
:101D60007E03882349F010927E0383E090E0FF9089
:101D7000EF90DF90CF90089582E090E0F8CF1F922F
:101D80000F920FB60F9211242F933F938F939F932F
:101D9000AF93BF938091760390917703A0917803DE
:101DA000B09179033091750323E0230F2D3758F557
:101DB0000196A11DB11D2093750380937603909326
:101DC0007703A0937803B093790380917A0390917D
:101DD0007B03A0917C03B0917D030196A11DB11DF1
:101DE00080937A0390937B03A0937C03B0937D034D
:101DF000BF91AF919F918F913F912F910F900FBE07
:101E00000F901F90189526E8230F0296A11DB11D73
:101E1000D2CF1F920F920FB60F9211240BB60F92D2
:101E20002F933F934F935F936F937F938F939F93E2
:101E3000AF93BF93EF93FF9385EA93E00E940B0269
:101E4000FF91EF91BF91AF919F918F917F916F9192
:101E50005F914F913F912F910F900BBE0F900FBE4E
:101E60000F901F9018951F920F920FB60F9211248A
:101E70000BB60F922F938F939F93EF93FF93E09165
:101E8000B503F091B6038081E091BB03F091BC03F0
:101E900082FD1DC090818091BE038F5F8F73209162
:101EA000BF03821741F0E091BE03F0E0EB55FC4F19
:101EB000958F8093BE03FF91EF919F918F912F910A
:101EC0000F900BBE0F900FBE0F901F901895808142
:101ED000F2CF1F920F920FB60F9211240BB60F92F2
:101EE0002F933F934F935F936F937F938F939F9322
:101EF000AF93BF93EF93FF93E091AE02F091AF02E7
:101F0000309749F0A685B7858585968D91FF16C0D7
:101F10009C918923B1F4FF91EF91BF91AF919F9173
:101F20008F917F916F915F914F913F912F910F9082
:101F30000BBE0F900FBE0F901F9018959C91892398
:101F400051F7A389B4899C918589809589238C93C5
:101F5000868997890197F1F7608D718DA685B78580
:101F6000558538E020E0CB010197F1F7822F90E012
:101F700095958795282F4C91452309F0206831507D
:101F800091F7868D81FD20958091AD0290E00196BC
:101F90008F7399273091AC02381799F0A091AD0258
:101FA000B0E0AF59BD4F2C938093AD02828D938DDD
:101FB0000197F1F7A389B4898C919589892B8C932A
:101FC000AACF868D8160868FF1CF1F920F920FB6B8
:101FD0000F9211240BB60F922F933F934F935F9361
:101FE0006F937F938F939F93AF93BF93EF93FF93E1
:101FF00048E251E064E271E090E080E00E944E0827
:10200000FF91EF91BF91AF919F918F917F916F91D0
:102010005F914F913F912F910F900BBE0F900FBE8C
:102020000F901F9018951F920F920FB60F921124C8
:102030000BB60F922F933F934F935F936F937F93C2
:102040008F939F93AF93BF93EF93FF9348EA50E032
:1020500064EA70E083E090E00E944E08FF91EF9107
:10206000BF91AF919F918F917F916F915F914F91B0
:102070003F912F910F900BBE0F900FBE0F901F90AE
:1020800018951F920F920FB60F9211240BB60F9254
:102090002F933F934F935F936F937F938F939F9370
:1020A000AF93BF93EF93FF9348E950E064E970E08A
:1020B00082E090E00E944E08FF91EF91BF91AF91B6
:1020C0009F918F917F916F915F914F913F912F9150
:1020D0000F900BBE0F900FBE0F901F9018951F9280
:1020E0000F920FB60F9211240BB60F922F933F93BE
:1020F0004F935F936F937F938F939F93AF93BF9310
:10210000EF93FF9348E850E064E870E081E090E0EE
:102110000E944E08FF91EF91BF91AF919F918F91D7
:102120007F916F915F914F913F912F910F900BBED7
:102130000F900FBE0F901F901895FC0190916002B8
:10214000903398F481E0890F809360029083892F07
:1021500090E0FC01EE0FFF1FE80FF91FE552FD4F65
:1021600088EB9BE09283818308958FEF80830895AD
:102170004F925F926F927F92AF92BF92CF92DF9217
:10218000EF92FF920F931F931092A8031092A70350
:1021900088EE93E0A0E0B0E08093A9039093AA03B7
:1021A000A093AB03B093AC038EE092E09093A603B0
:1021B0008093A50385EC90E09093B2038093B103E4
:1021C00084EC90E09093B4038093B30380EC90E0B0
:1021D0009093B6038093B50381EC90E09093B8039D
:1021E0008093B70382EC90E09093BA038093B90395
:1021F00086EC90E09093BC038093BB031092BE03E7
:102200001092BF031092C0031092C1038BE494E0BC
:102210000E949D1088E494E00E949D1085E494E063
:102220000E949D1082E494E00E949D101092C904C7
:102230001092C8041092CA041092CB041092CC04DD
:102240001092CD041092BB041092BA041092BC04F8
:102250001092BD041092BE041092BF041092AD04FF
:102260001092AC041092AE041092AF041092B0041D
:102270001092B10410929F0410929E041092A00438
:102280001092A1041092A2041092A30486E994E093
:1022900090936D0480936C0482E994E090936B04B6
:1022A00080936A048AE994E090936F0480936E04AB
:1022B00010929004109288041092890410928A045B
:1022C00010928B0480E090E0AFE7B3E480938C043D
:1022D00090938D04A0938E04B0938F0494E6492EBE
:1022E000512C612C712C4092840450928504609290
:1022F00086047092870470E060E08EE494E00E94AF
:102300003A0AAA24A394B12CC12CD12C76019701AE
:10231000860140E050E060E87FE38EE494E00E94B4
:102320007E090E9438040091840410918504209154
:10233000860430918704601B710B820B930B6093B2
:1023400070047093710480937204909373048EE10F
:1023500095E09093F5048093F4048AE195E09093DE
:10236000F3048093F20482E295E09093F704809363
:10237000F60410921805C0921005D0921105E09253
:102380001205F092130580E090E0AFE7B3E480938C
:10239000140590931505A0931605B0931705409268
:1023A0000C0550920D0560920E0570920F0561E0CC
:1023B00070E086ED94E00E943A0A97018601B70129
:1023C000A60186ED94E00E947E090E9438044090A8
:1023D0000C0550900D0560900E0570900F05641966
:1023E0007509860997096093F8047093F90480933E
:1023F000FA049093FB04109229051092280588EEA8
:1024000093E0A0E0B0E080932A0590932B05A09381
:102410002C05B0932D0580E292E0909327058093E0
:10242000260510923D0510923C0510923F05109232
:102430003E051092410510924005109243051092FE
:102440004205609144056E7F6D7F609344056695FB
:10245000617081E068278BE00E94650361E08BE09A
:102460000E949303E7EFF2E0E491E0933605E1EB9D
:10247000F2E0E491F0E0EE0FFF1FE457FD4F85918D
:102480009491909338058093370560E08AE00E942C
:1024900093038091440581FD04C061E08AE00E94BD
:1024A00065038AE080933205E6EFF2E0E491E09381
:1024B0003305E0EBF2E0E491F0E0EE0FFF1FEE58A1
:1024C000FD4F8591949190933505809334051F912C
:1024D0000F91FF90EF90DF90CF90BF90AF907F90E3
:1024E0006F905F904F900895CF93DF9300D0CDB75A
:1024F000DEB7789484B5826084BD84B5816084BD84
:1025000085B5826085BD85B5816085BD80916E0091
:10251000816080936E0010928100809181008260C2
:1025200080938100809181008160809381008091FF
:1025300080008160809380008091B10084608093EE
:10254000B1008091B00081608093B00080919100D3
:1025500082608093910080919100816080939100CE
:10256000809190008160809390008091A1008260B2
:102570008093A1008091A10081608093A10080914F
:10258000A00081608093A0008091210182608093EF
:10259000210180912101816080932101809120019E
:1025A00081608093200180917A00846080937A001A
:1025B00080917A00826080937A0080917A008160B5
:1025C00080937A0080917A00806880937A001092DC
:1025D000C10080E090E0A8E4B2E48093920490937C
:1025E0009304A0939404B0939504109296041092CF
:1025F0009704109298041092990480939A049093EF
:102600009B04A0939C04B0939D048091900481113D
:1026100049C0E0916C04F0916D04C080D180E280EB
:10262000F380C0927404D0927504E0927604F09224
:102630007704E0916A04F0916B0480819181A2811A
:10264000B3818093780490937904A0937A04B09333
:102650007B0480908C0490908D04A0908E04B090A8
:102660008F04A5019401C701B6010E94D81C181659
:102670004CF48092740490927504A0927604B09207
:10268000770410C08090880490908904A0908A04F8
:10269000B0908B04A5019401C701B6010E94791B7B
:1026A00087FDE7CF81E08093900400E010E028EC04
:1026B00032E440E050E068EC72EC8EE494E00E947A
:1026C000790A70E060E08EE494E00E943A0A61E0EA
:1026D0008DE00E94930361E080E30E94930360E039
:1026E00080E30E9465038BE390E09093C90480939C
:1026F000C8048AE999E8A6EEB4E48093CE049093E6
:10270000CF04A093D004B093D10481EE9AE7A4E75C
:10271000BFEB8093D2049093D304A093D404B093DE
:10272000D50460E08BE30E9493038AE390E09093EA
:10273000BB048093BA0480E090E9AFE1B6E48093F3
:10274000C0049093C104A093C204B093C30482E177
:1027500093E8A0E9BFEB8093C4049093C504A093D1
:10276000C604B093C70460E08AE30E9493038DE33C
:1027700090E09093AD048093AC0480EC92E9A6E5E0
:10278000B8E48093B2049093B304A093B404B093DC
:10279000B50481E895E9A3EDBFEB8093B60490936F
:1027A000B704A093B804B093B90460E08DE30E942D
:1027B00093038CE390E090939F0480939E0480E0C9
:1027C0009FE7A5EDB7E48093A4049093A504A0939C
:1027D000A604B093A7048BE39FEDAFEDBFEB80930E
:1027E000A8049093A904A093AA04B093AB0460E05A
:1027F0008CE30E9493030AE010E01B821A8289E3B3
:102800000E94C4037C010E94300D8A819B818E0D41
:102810009F1D9B838A8365E070E080E090E00E94CA
:1028200006040150110959F76DE372E085EA93E05F
:102830000E94F30B8A819B810E94300D8A819B81CB
:102840006AE070E00E94DC1A7093A2026093A10219
:1028500066E472E085EA93E00E94F30B8091A102A6
:102860009091A2020E94300D68EE73E080E090E04B
:102870000E9406040E943804AB01BC018091A302AF
:102880009091A402A091A502B091A6020696A11D66
:10289000B11D84179507A607B7070CF04CC089E354
:1028A0000E94C4032091A1023091A202BC01621BCC
:1028B000730BCB010196039710F470E060E0072ED4
:1028C000000C880B990B0E94281C26EA3BE944EC7B
:1028D0005BE30E947E1B28E638EE4FE95BE30E9433
:1028E000DD1C20E030E040EC50E40E94DD1C20E0E4
:1028F00030E04AE754E40E947E1B9B01AC016091EA
:1029000095037091960380919703909198030E948C
:102910000D1B609395037093960380939703909398
:1029200098030E9438046093A3027093A4028093DA
:10293000A5029093A602809073039090740391E097
:102940008916910469F140F0B2E08B16910409F404
:102950003EC50E94A4028ECF68EE73E080E090E056
:102960000E9406046EE270E08BE494E00E94C607C9
:102970006FE270E088E494E00E94C60762E370E0D2
:1029800085E494E00E94C60763E370E082E494E08B
:102990000E94C60721E02093730310927403D9CFDD
:1029A0000E9438040091A8021091A9022091AA0265
:1029B0003091AB020617170728073907E0F480911A
:1029C000A7028F5F8093A702853008F4F8C10E94A8
:1029D000380464547D4F8F4F9F4F6093A8027093CB
:1029E000A9028093AA029093AB0260E08DE00E945E
:1029F00065031092A7028091050290910602039749
:102A000009F4BFC1109241051092400510923F0594
:102A100010923E0510923D0510923C058FE190E02A
:102A200090934305809342052091320536EF320F93
:102A3000343048F08EEC820F843028F082EC820F24
:102A4000883008F061C081E080933C0510923D051C
:102A50008DE190E090933F0580933E058DE090E0FE
:102A60009093410580934005343050F08EEC820FF6
:102A7000843030F082EC820FF0E0E0E0883010F437
:102A8000E8E6F0E08081343028F092EC920F983044
:102A900008F4AEC191E0892B343048F09EEC920FDF
:102AA000943028F02E53F0E0E0E0283010F4E8E60F
:102AB000F0E080838091320596EF980F943008F40F
:102AC00099C12EEC280F243008F494C122EC280F71
:102AD000283008F492C130E020E030933A0520938A
:102AE0003905943008F08CC18650990BA1E001C0E3
:102AF000AA0F8A95EAF78A2F80933B0580914205B9
:102B0000909143050197F1F780914005909141051F
:102B1000892B49F1E091AE02F091AF0225E0E63257
:102B2000F20709F1309739F0A389B4899C9185891E
:102B3000809589238C93809144058E7F80934405F2
:102B40001092AD021092AC0286E295E09093AF0233
:102B50008093AE02E0913905F0913A058081909121
:102B60003B05892B80838AEB94E00E94F4058CEA74
:102B700094E00E94F4050E9438042B013C018091EE
:102B80000102882361F00E942D096093C4027093B2
:102B9000C5028093C6029093C702109201028091F1
:102BA000C0029091C102A091C202B091C3028C50A8
:102BB0009E4FAF4FBF4F84159505A605B7050CF086
:102BC000CBC06091BC027091BD028091BE02909119
:102BD000BF0242E00E944E0C69E572E086E295E099
:102BE0000E94F30B6091B8027091B9028091BA0211
:102BF0009091BB0242E00E944E0C6AE372E086E2D2
:102C000095E00E94F30BC090C402D090C502E09002
:102C1000C602F090C7020E942D099B01AC01C701BA
:102C2000B6010E940C1B20E030E040E751E40E9416
:102C30000D1B6093BC027093BD028093BE02909303
:102C4000BF02C090B402D090B502E090B602F090FE
:102C5000B7028AEB94E00E94680D9B01AC01C701AA
:102C6000B6010E940C1B6B017C01C092B802D0928D
:102C7000B902E092BA02F092BB028091000288236E
:102C800071F08CEA94E00E94680D6093B00270933A
:102C9000B1028093B2029093B3021092000220E03E
:102CA00030E04CE852ECC701B6010E94791B87FF67
:102CB0002EC080E090E0ACE0B2EC8093B402909340
:102CC000B502A093B602B093B702C090B002D09004
:102CD000B102E090B202F090B3028CEA94E00E945C
:102CE000680D9B01AC01C701B6010E940C1B9B0142
:102CF000AC0160E070E08CE092EC0E940C1B6093F1
:102D0000B8027093B9028093BA029093BB02C0904C
:102D10009503D0909603E0909703F090980320E0FD
:102D200030E0A901C701B6010E94D81C18160CF0AA
:102D300082C020E030E04AE253E4C701B6010E94BD
:102D4000D81C18160CF481C04092C0025092C102E7
:102D50006092C2027092C3026090050270900602F7
:102D600094E06916710409F4C5C108F09FC0B2E08F
:102D70006B16710409F427C323E06216710409F08D
:102D8000A1C080910202811110920202E091CC0256
:102D9000F091CD02EB30F10508F039C18827EC52F3
:102DA000F94E8F4F0C94F01A6717F3170E1811187D
:102DB0002A183418451850186018681874180E949A
:102DC00038046C597F4F8F4F9F4F6093A8027093C8
:102DD000A9028093AA029093AB028DE00E943C036B
:102DE00061E0892B09F060E08DE00E94650303CE6D
:102DF00094E051CE2BE630E070CE2DE630E06DCE83
:102E0000823389F0833389F0843389F092EC980F10
:102E1000983078F48E53990BB1E001C0BB0F8A95BE
:102E2000EAF78B2F69CE88E067CE84E065CE82E03A
:102E300063CE81E061CE20E030E04AE253ECC7018E
:102E4000B6010E94791B87FF7FCF0E942D0920E0E9
:102E500030E040E751E40E940D1B6093BC02709388
:102E6000BD028093BE029093BF028AEB94E00E9461
:102E7000680D2091B0023091B1024091B2025091A0
:102E8000B3020E940C1B2091B4023091B502409114
:102E9000B6025091B7020E940D1B6093B802709366
:102EA000B9028093BA029093BB024ECF86E06816B7
:102EB000710409F4E5C108F4D0C1A7E06A167104F1
:102EC00009F47AC2909274038092730342CD8AEB24
:102ED00094E00E94980DF62E072F182F9A838CEA03
:102EE00094E00E94980D1B018983E92E8EE994E0FD
:102EF0000E94980D5B016C010E942D092B013C0181
:102F0000910149815E2D6F2D702F812F9A810E9432
:102F1000D81C18160CF448C01092C8021092C902AE
:102F20001092CA021092CB022F2D302F412F5A81BE
:102F3000C601B5010E94791B87FF47C080E090E081
:102F4000A4EBB2EC8093C8029093C902A093CA028A
:102F5000B093CB02A3019201C601B5010E94D81C17
:102F60001816DCF480E090E0A4EBB2E48093C80291
:102F70009093C902A093CA02B093CB0220E030E044
:102F8000A9016091C8027091C9028091CA02909112
:102F9000CB020E94791B882319F181E090E0909385
:102FA000CD028093CC0233C080E090E0A4E3B3E490
:102FB0008093C8029093C902A093CA02B093CB0237
:102FC000F22C032D1981EA82AFCF2F2D302F412F04
:102FD0005A81C301B2010E94791B87FDC3CFCECFB6
:102FE00082E090E0DCCF6091C8027091C9028091CC
:102FF000CA029091CB020E94010BA2E0B0E00797B9
:1030000009F03EC0B1E0B093CC021092CD0283E053
:1030100090E0909306028093050254CF0E94500ED8
:10302000BECF0E942D096B017C018EE994E00E94C5
:10303000980D9B01AC01C701B6010E940D1B20E059
:1030400030E048EC52E40E94D81C181654F085E099
:1030500090E0A5CF0E94AD0D069719F084E090E0B6
:10306000D8CF84E090E09BCF64EF71E080E090E007
:103070000E9478078530910509F491CFA6E0B0E071
:10308000B093CD02A093CC02C2CF60E070E084EB9D
:1030900092E40E94010B079789F387E090E07FCFCD
:1030A0000E942D0920E030E040EA52E40E94791BA2
:1030B00087FD03C088E090E072CF89E090E06FCF99
:1030C0000E94500E029709F4A2CF81E090E0A1CFB8
:1030D00060E070E084EB92EC0E94010B079709F42A
:1030E00096CFAAE0B0E0CCCF0E94AD0D069709F0D4
:1030F000B5CF8DCF809103028823A9F1109295035B
:10310000109296031092970310929803A09068046F
:10311000B0906904C12CD12C76019701860140E062
:1031200050E060EA71E48EE494E00E947E09C0926F
:103130009A04D0929B04E0929C04F0929D0400E0DB
:1031400010E028EC32E440E050E068EC72EC8EE4F1
:1031500094E00E94790A61E070E08EE494E00E94BD
:103160003A0A109203022090D0023090D10240908F
:10317000D2025090D3028091950390919603A09132
:103180009703B09198038093920490939304A09333
:103190009404B09395040E944404C0909604D09087
:1031A0009704E0909804F0909904C092D002D092D5
:1031B000D102E092D202F092D302A7019601C2019D
:1031C000B1010E94791B8823E1F1C701B6010E9479
:1031D000F01B6B0102E716E0061B170BB8018BE42E
:1031E00094E00E944107B80188E494E00E944107FE
:1031F00006E415E00C191D09B80185E494E00E946D
:103200004107B80182E494E00E9441070E942D0921
:1032100020E030E040E251E40E94791B87FF18C0B3
:103220008091CE029091CF0201969093CF0280932D
:10323000CE02049734F081E080930302A5E06A2E69
:10324000712C70920602609205021092DA023ACE58
:103250001092CF021092CE02F4CF68EE73E080E0BD
:1032600090E00E94780790930602809305020597EC
:1032700009F428CE8091DA02882309F423CEEECE19
:10328000809104028823A9F110929503109296036D
:103290001092970310929803A0906804B09069046C
:1032A000C12CD12C76019701860140E050E060EA04
:1032B00071E48EE494E00E947E09C0929A04D09258
:1032C0009B04E0929C04F0929D0400E010E028EC46
:1032D00032E440E050E068EC72EC8EE494E00E944E
:1032E000790A61E070E08EE494E00E943A0A10925C
:1032F00004022090D6023090D7024090D80250901D
:10330000D9028091950390919603A0919703B09173
:1033100098038093920490939304A0939404B093A1
:1033200095040E944404C0909604D0909704E090C5
:103330009804F0909904C092D602D092D702E092FD
:10334000D802F092D902A7019601C201B1010E94F0
:10335000791B882321F1C701B6010E94F01BCB0124
:103360000E9408098EE994E00E94980D20E030E068
:1033700040E251E40E94791B87FF19C08091D4027A
:103380009091D50201969093D5028093D402049730
:1033900034F081E080930402F5E06F2E712C70927E
:1033A00006026092050281E08093DA028BCD1092D2
:1033B000D5021092D402F3CF60E070E084E393E48E
:1033C0000E94010B26CEE2E08E2E912C7BCD6CED7F
:1033D00075E08BE494E00E9441076CED75E088E4B1
:1033E00094E00E9441076CED75E085E494E00E9452
:1033F00041076CED75E082E494E00E944107209162
:103400004B0430E0C901880F991F820F931FFC0104
:10341000E552FD4F80818F7B80832091480430E00E
:10342000C901880F991F820F931FFC01E552FD4FC0
:1034300080818F7B80832091450430E0C901880F13
:10344000991F820F931FFC01E552FD4F80818F7BF6
:1034500080832091420430E0C901880F991F820FB8
:10346000931FFC01E552FD4F80818F7B808360E0DC
:103470008EE20E94930360E08FE20E94930360E07B
:1034800082E30E94930360E083E30E9493030E941F
:10349000380400916B0310916C0320916D033091FF
:1034A0006E03601B710B820B930B613D77408105AE
:1034B0009105A0F00E94380460936B0370936C0335
:1034C00080936D0390936E038DE00E943C0361E056
:1034D000892B09F060E08DE00E9465030E943804AA
:1034E00000916F031091700320917103309172036A
:1034F000601B710B820B930B653F71408105910539
:1035000050F00E94380460936F03709370038093AF
:1035100071039093720382E090E090937403809320
:10352000730317CA80E292E09093270580932605E3
:103530008091AE029091AF028652954071F4E09175
:103540003905F0913A05908180913B05809589235A
:1035500080831092AF021092AE020895A1E21A2E5B
:10356000AA1BBB1BFD010DC0AA1FBB1FEE1FFF1F27
:10357000A217B307E407F50720F0A21BB30BE40B77
:10358000F50B661F771F881F991F1A9469F76095BE
:103590007095809590959B01AC01BD01CF01089578
:1035A000991B79E004C0991F961708F0961B881F95
:1035B0007A95C9F78095089597FB072E16F4009425
:1035C00007D077FD09D00E94F81A07FC05D03EF419
:1035D000909581959F4F0895709561957F4F0895BF
:1035E000EE0FFF1F881F8BBF0790F691E02D1994F7
:1035F000AA1BBB1B51E107C0AA1FBB1FA617B70719
:1036000010F0A61BB70B881F991F5A95A9F7809534
:103610009095BC01CD0108955058BB27AA270E9460
:10362000241B0C949E1C0E94901C38F00E94971C36
:1036300020F039F49F3F19F426F40C948D1C0EF4FD
:10364000E095E7FB0C94871CE92F0E94AF1C58F310
:10365000BA17620773078407950720F079F4A6F577
:103660000C94D11C0EF4E0950B2EBA2FA02D0B015B
:10367000B90190010C01CA01A0011124FF27591BB7
:1036800099F0593F50F4503E68F11A16F040A22FBD
:10369000232F342F4427585FF3CF4695379527952E
:1036A000A795F0405395C9F77EF41F16BA0B620B2D
:1036B000730B840BBAF09150A1F0FF0FBB1F661F74
:1036C000771F881FC2F70EC0BA0F621F731F841FB7
:1036D00048F4879577956795B795F7959E3F08F0DD
:1036E000B0CF9395880F08F09927EE0F979587959F
:1036F00008950E94631C08F481E008950E94921BC3
:103700000C949E1C0E94971C58F00E94901C40F044
:1037100029F45F3F29F00C94871C51110C94D21CA2
:103720000C948D1C0E94AF1C68F39923B1F35523B0
:1037300091F3951B550BBB27AA27621773078407C4
:1037400038F09F5F5F4F220F331F441FAA1FA9F35A
:1037500035D00E2E3AF0E0E832D091505040E69548
:10376000001CCAF72BD0FE2F29D0660F771F881FA9
:10377000BB1F261737074807AB07B0E809F0BB0B9C
:10378000802DBF01FF2793585F4F3AF09E3F5105B0
:1037900078F00C94871C0C94D21C5F3FE4F3983EA5
:1037A000D4F3869577956795B795F7959F5FC9F799
:1037B000880F911D9695879597F90895E1E0660F1A
:1037C000771F881FBB1F621773078407BA0720F093
:1037D000621B730B840BBA0BEE1F88F7E0950895FC
:1037E0000E94F71B6894B1110C94D21C08950E949A
:1037F000B71C88F09F5798F0B92F9927B751B0F0B0
:10380000E1F0660F771F881F991F1AF0BA95C9F764
:1038100014C0B13091F00E94D11CB1E008950C9415
:10382000D11C672F782F8827B85F39F0B93FCCF3C8
:10383000869577956795B395D9F73EF490958095E1
:10384000709561957F4F8F4F9F4F0895E89409C001
:1038500097FB3EF490958095709561957F4F8F4FC3
:103860009F4F9923A9F0F92F96E9BB279395F695D9
:10387000879577956795B795F111F8CFFAF4BB0F57
:1038800011F460FF1BC06F5F7F4F8F4F9F4F16C0BB
:10389000882311F096E911C0772321F09EE8872F45
:1038A000762F05C0662371F096E8862F70E060E001
:1038B0002AF09A95660F771F881FDAF7880F96957A
:1038C000879597F90895990F0008550FAA0BE0E81E
:1038D000FEEF16161706E807F907C0F012161306D2
:1038E000E407F50798F0621B730B840B950B39F412
:1038F0000A2661F0232B242B252B21F408950A2678
:1039000009F4A140A6958FEF811D811D089597F9B7
:103910009F6780E870E060E008959FEF80EC089575
:1039200000240A941616170618060906089500249E
:103930000A9412161306140605060895092E039418
:10394000000C11F4882352F0BB0F40F4BF2B11F48C
:1039500060FF04C06F5F7F4F8F4F9F4F089557FDEB
:103960009058440F551F59F05F3F71F04795880FED
:1039700097FB991F61F09F3F79F087950895121684
:1039800013061406551FF2CF4695F1DF08C0161630
:1039900017061806991FF1CF8695710561050894E1
:1039A0000895E894BB2766277727CB0197F90895F8
:1039B0000E94631C08F48FEF08950E94F01C0C9481
:1039C0009E1C0E94901C38F00E94971C20F09523AA
:1039D00011F00C94871C0C948D1C11240C94D21C97
:1039E0000E94AF1C70F3959FC1F3950F50E0551FD7
:1039F000629FF001729FBB27F00DB11D639FAA2744
:103A0000F00DB11DAA1F649F6627B00DA11D661F92
:103A1000829F2227B00DA11D621F739FB00DA11DB3
:103A2000621F839FA00D611D221F749F3327A00D6D
:103A3000611D231F849F600D211D822F762F6A2F09
:103A400011249F5750409AF0F1F088234AF0EE0F6E
:103A5000FF1FBB1F661F771F881F91505040A9F79B
:103A60009E3F510580F00C94871C0C94D21C5F3F44
:103A7000E4F3983ED4F3869577956795B795F795D7
:103A8000E7959F5FC1F7FE2B880F911D969587954F
:103A900097F90895FA01EE0FFF1F309621053105C1
:103AA000A1F16115710561F48038BFE39B0749F10D
:103AB00068949038810561F08038BFEF9B0741F032
:103AC00099234AF5FF3FE1053105210519F1E894F5
:103AD0000894E795D901AA2329F4AB2FBE2FF85FEC
:103AE000D0F310C0FF5F70F4A695E0F7F73950F0FF
:103AF00019F0FF3A38F49F779F930DD00F9007FC91
:103B00009058089546F00C948D1C60E070E080E8B9
:103B10009FE308954FE79F775F934F933F932F93D2
:103B20000E944A1E2F913F914F915F910E94DD1C90
:103B30000C94A71D0E94631C880B990B089529F40F
:103B400016F00C94871C0C94D11C0C948D1C0E94B4
:103B5000B71CA8F39638A0F707F80F92E8942BE368
:103B60003AEA48EB5FE70E94F31C0F920F920F9224
:103B70004DB75EB70F920E94921EE4EEF0E00E94F5
:103B8000D91D4F915F91EF91FF91E595EE1FFF1FBA
:103B900049F0FE57E0684427EE0F441FFA95E1F71D
:103BA0004195550B0E940C1E0F9007FE0C94001EB1
:103BB0000895DF93CF931F930F93FF92EF92DF92BD
:103BC0007B018C01689406C0DA2EEF010E94F01C84
:103BD000FE01E894A5912591359145915591A6F363
:103BE000EF010E94241BFE019701A801DA9469F7F6
:103BF000DF90EF90FF900F911F91CF91DF9108958B
:103C00009B01AC0160E070E080E89FE30C947E1BB8
:103C10000C94871C0C94C61E0E94B71CD8F39923E1
:103C2000C9F3940F511DA3F39150504094F059F0F3
:103C3000882332F0660F771F881F91505040C1F7DC
:103C40009E3F51052CF7880F911D9695879597F902
:103C500008955F3FACF0983E9CF0BB278695779522
:103C60006795B79508F4B1609395C1F7BB0F58F706
:103C700011F460FFE8CF6F5F7F4F8F4F9F4FE3CF0F
:103C80000C94D21C16F00C94C61E0C948D1C6894D7
:103C90000C94871C0E94B71CA8F39923C1F3AEF3C0
:103CA000DF93CF931F930F93FF92C92FDD278823B4
:103CB0002AF02197660F771F881FDAF720E030E09F
:103CC00040E85FEB9FE3883920F0803E38F0219692
:103CD0008F770E940D1BECE0F1E004C00E940D1BE9
:103CE000E9E3F1E00E94D91D8B01BE01EC01FB2E3E
:103CF0006F5771097595771F880B990B0E94281CC7
:103D000028E132E741E35FE30E94F01CAF2D980108
:103D1000AE01FF900F911F91CF91DF910E94241B64
:103D20000C949E1CFA01DC01AA0FBB1F9B01AC0185
:103D3000BF5728F4222733274427507820C0B75193
:103D400090F4AB2F0024469537952795011CA39539
:103D5000D2F3002071F0220F331F441FB395DAF322
:103D60000ED00C940C1B61307105A0E88A07B9468F
:103D700030F49B01AC01662777278827907830962E
:103D800021F0208331834283538308959F3F31F094
:103D9000915020F4879577956795B795880F911D79
:103DA0009695879597F9089511E0CAE9D1E000E06A
:103DB00006C0802FFE010E94F01A2196011DCB390A
:0C3DC000D10780E00807A9F7F894FFCFB6
:103DCC0001010101010300010101000000002D02AD
:103DDC006306CE017A02FF01DD01F1010000000053
:103DEC00A90663063E07A80605071D0790066E6127
:103DFC006E00696E66006F7666000D0A0073756D55
:103E0C002069733A20007A65726F4779726F566F2A
:0C3E1C006C746167652069733A20000037
:00000001FF
