:100000000C9485010C94B6010C94B6010C94B601C5
:100010000C94B6010C94B6010C94B6010C94B60184
:100020000C94B6010C94400D0C94400D0C94400DB2
:100030000C94B6010C94B6010C94B6010C94B60164
:100040000C94B6010C94460E0C94B6010C94B601B7
:100050000C94B6010C94B6010C94B6010C94960C59
:100060000C94B6010C940A0D0C94E00C0C94B6019F
:100070000C94B6010C94B6010C94B6010C94B60124
:100080000C94180E0C94B6010C94B6010C94B601A5
:100090000C94B6010C94B6010C94B6010C94B60104
:1000A0000C94B6010C94B6010C94EA0D0C94B601B4
:1000B0000C94B6010C94B6010C94B6010C94BC0DD2
:1000C0000C94B6010C94B6010C94B6010C94B601D4
:1000D0000C94B6010C94B6010C94B6010C94B601C4
:1000E0000C94B60107634236B79BD8A71A396856F5
:1000F00018AEBAAB558C1D3CB7CC5763BD6DEDFD4A
:10010000753EF6177231BF000000803F0800000006
:10011000BE922449123EABAAAA2ABECDCCCC4C3EFC
:1001200000000080BEABAAAAAA3E00000000BF00EB
:100130000000803F0000000000084178D3BB4387E7
:10014000D1133D190E3CC3BD4282AD2B3E68EC82FB
:1001500076BED98FE1A93E4C80EFFFBE01C4FF7F80
:100160003F00000000000C941D170C94CB030C946E
:10017000B6030C94E3030C9488070C94B8020C9417
:10018000BA030C94D9030C94E7030C94B2030C94B7
:10019000AA020C94D5030C94E6020C94AD060C94C0
:1001A000C7030C94AC030C9496020C94EC030C94CF
:1001B000ED030C9433030C94F1030C944F070C944F
:1001C00067070C94F2060C94DA060C94DF030C9487
:1001D000F3060C9487020C94D1030C94BE030C9488
:1001E0008F0E0C94C10300002100240027002A0078
:1001F0002D003000330001010000040107010A0155
:1002000000000A0B02090C0D0E0807030401000090
:1002100000000000000000000000000000000000DE
:10022000000000000000000000000000121110009B
:1002300000000000000000000000000000000000BE
:10024000000000000000000020002300260029001C
:100250002C002F00320000010000030106010901FB
:1002600000002200250028002B002E003100340061
:1002700002010000050108010B0105050505070540
:1002800008080808020202020A0A08080404040412
:10029000010101010101010103030303030303033E
:1002A000040707070C0C0C0C0C0C0C0C02020202CD
:1002B00006060606060606060B0B0B0B0B0B0B0BB6
:1002C0000102102020080810204010204080020168
:1002D000020108040201010204081020408080404D
:1002E000201008040201800402018040201008044C
:1002F00002010804020101020408102040800102EA
:100300000408102040808F0E1D1711241FBECFEF50
:10031000D1E2DEBFCDBF00E00CBF12E0A0E0B2E052
:10032000E2EEF6E300E00BBF02C007900D92AE369E
:10033000B107D9F725E0AEE6B2E001C01D92AE32BA
:10034000B207E1F711E0C4E8D1E000E006C0219770
:100350000109802FFE010E947B17C338D10780E07E
:100360000807A9F70E9449100C945F1B0C94000029
:1003700010924604109245041092440410924304D3
:1003800010924204109241048FE190E0909348044F
:10039000809347048091370496EF980F943048F08B
:1003A0002EEC280F243028F022EC280F283008F0FB
:1003B00061C021E030E030934204209341042DE1FC
:1003C00030E030934404209343042DE030E0309338
:1003D000460420934504943050F02EEC280F24302E
:1003E00030F022EC280FF0E0E0E0283010F4E8E6EE
:1003F000F0E02081943028F032EC380F383008F4E7
:1004000069C031E0232B943048F09EEC980F943073
:1004100028F08E53F0E0E0E0883010F4E8E6F0E0F9
:1004200020832091370436EF320F343008F454C063
:100430008EEC820F843008F44FC082EC820F88303B
:1004400008F44DC090E080E090933F0480933E0418
:10045000343008F047C02650330B81E001C0880FCC
:100460002A95EAF7809340048091470490914804CC
:100470000197F1F78091450490914604892B49F149
:10048000E0918C03F0918D0384E0EB32F80709F1E1
:10049000309739F0A389B4899C9185898095892307
:1004A0008C93809149048E7F8093490410928B0332
:1004B00010928A038BE294E090938D0380938C03D7
:1004C000E0913E04F0913F04808190914004892B9B
:1004D0008083089534E096CF8BE690E0B5CF8DE62B
:1004E00090E0B2CF88E0223309F4BCCF84E023331C
:1004F00009F4B8CF82E0243309F4B4CF82EC820F40
:10050000883018F42E53330BA8CF81E0ABCFFC0119
:10051000538D448D252F30E0842F90E0821B930B68
:10052000541710F0CF96089501970895FC01918D0E
:10053000828D981761F0A28DAE0FBF2FB11D5D9611
:100540008C91928D9F5F9F73928F90E008958FEFB3
:100550009FEF0895FC01918D828D981731F0828D67
:10056000E80FF11D858D90E008958FEF9FEF0895BE
:10057000FC01918D228D892F90E0805C9F4F821B22
:1005800091098F7399270895FC01A48DA80FB92FA5
:10059000B11DA35ABF4F2C91848D90E001968F73AB
:1005A0009927848FA689B7892C93A089B1898C91CA
:1005B000837080648C93938D848D981306C0028819
:1005C000F389E02D80818F7D80830895EF92FF92E3
:1005D0000F931F93CF93DF93EC0181E0888F9B8D66
:1005E0008C8D98131AC0E889F989808185FF15C020
:1005F0009FB7F894EE89FF896083E889F989808143
:100600008370806480839FBF81E090E0DF91CF9111
:100610001F910F91FF90EF900895F62E0B8D10E033
:100620000F5F1F4F0F731127E02E8C8D8E110CC0A2
:100630000FB607FCFACFE889F989808185FFF5CFED
:10064000CE010E94C402F1CFEB8DEC0FFD2FF11D06
:10065000E35AFF4FF0829FB7F8940B8FEA89FB892A
:1006600080818062CFCFCF93DF93EC01888D882388
:10067000B9F0AA89BB89E889F9898C9185FD03C005
:10068000808186FD0DC00FB607FCF7CF8C9185FFEA
:10069000F2CF808185FFEDCFCE010E94C402E9CF69
:1006A000DF91CF9108958EE893E00E94B80221E097
:1006B000892B09F420E0822F089580E090E0892BB7
:1006C00029F00E94530381110E94000080E090E015
:1006D000892B49F080E090E0892B29F00E940000EE
:1006E00081110E94000080E090E0892B49F080E0B9
:1006F00090E0892B29F00E94000081110E940000E7
:1007000080E090E0892B49F080E090E0892B29F08F
:100710000E94000081110C940000089581508231E4
:1007200008F05AC0E82FF0E08827E656FC4F8F4FBC
:100730000C947B17BA03BE03AC03B203B603EC03FD
:10074000C103C703CB03D103D503D903DF03E303FD
:10075000EC03E703ED03F103809180008F77809332
:1007600080000895809180008F7DF9CF8091800076
:10077000877FF5CF84B58F7784BD089584B58F7D4D
:10078000FBCF8091B0008F778093B0000895809167
:10079000B0008F7DF9CF809190008F77809390008B
:1007A0000895809190008F7DF9CF80919000877F90
:1007B000F5CF8091A0008F778093A000089580915D
:1007C000A0008F7DF9CF8091A000877FF5CF809129
:1007D00020018F77809320010895809120018F7DE3
:1007E000F9CF80912001877FF5CFCF93DF93282F1A
:1007F00030E0F901E050FE4F8491F901E054FD4FE3
:10080000D491F901E658FD4FC491CC23A1F0811198
:100810000E948E03EC2FF0E0EE0FFF1FEA5BFD4F0E
:10082000A591B491EC91ED2381E090E009F480E092
:10083000DF91CF91089580E090E0FACF1F93CF939E
:10084000DF93282F30E0F901E050FE4F8491F90149
:10085000E054FD4FD491F901E658FD4FC491CC23EB
:10086000A9F0162F81110E948E03EC2FF0E0EE0FFD
:10087000FF1FE05AFD4FA591B4918FB7F894EC910A
:10088000111108C0D095DE23DC938FBFDF91CF918B
:100890001F910895DE2BF8CFCF93DF9390E0FC01FA
:1008A000E054FD4F249186589D4FFC01849188238C
:1008B000D1F090E0880F991FFC01EA51FE4FA591FD
:1008C000B491FC01E05AFD4FC591D49161110EC065
:1008D0009FB7F8948C91E22FE0958E238C9328811A
:1008E000E223E8839FBFDF91CF9108958FB7F894FB
:1008F000EC91E22BEC938FBFF6CF863308F0865352
:1009000020917B00982F9870277F922B90937B00EB
:100910008770806480937C0080917A0080648093EB
:100920007A0080917A0086FDFCCF809178009091CA
:10093000790008953FB7F8948091860390918703DA
:10094000A0918803B091890326B5A89B05C02F3FCD
:1009500019F00196A11DB11D3FBFBA2FA92F982FE5
:100960008827BC01CD01620F711D811D911D42E0E0
:10097000660F771F881F991F4A95D1F708958F92A8
:100980009F92AF92BF92CF92DF92EF92FF924B0174
:100990005C010E949A046B017C010E949A046C190C
:1009A0007D098E099F09683E734081059105A8F372
:1009B00021E0821A9108A108B10888EEC80E83E0F0
:1009C000D81EE11CF11C81149104A104B10429F783
:1009D000FF90EF90DF90CF90BF90AF909F908F905F
:1009E00008952FB7F89460918203709183038091EA
:1009F0008403909185032FBF08952F923F924F92C9
:100A00005F926F927F928F929F92AF92BF92CF929E
:100A1000DF92EF92FF920F931F93CF93DF93CDB7A7
:100A2000DEB72E970FB6F894DEBF0FBECDBF309065
:100A3000980431101BC0312C832D2E960FB6F894DC
:100A4000DEBF0FBECDBFDF91CF911F910F91FF9001
:100A5000EF90DF90CF90BF90AF909F908F907F905E
:100A60006F905F904F903F902F9008950E94F104F7
:100A700069877A878B879C87809178049091790425
:100A8000A0917A04B0917B0449855A856B857C8559
:100A9000481B590B6A0B7B0B80918C0490918D0441
:100AA000A0918E04B0918F04481759076A077B07FD
:100AB00010F2E0917204F091730480819181A2811F
:100AC000B3818D839E83AF83B887E0917604F091E4
:100AD00077049C01AD0160817181828193810E94C4
:100AE00097174B015C012091800430918104409163
:100AF0008204509183046D817E818F8198850E944C
:100B000097176B017C012091660430916704409136
:100B1000680450916904C501B4010E9468192091CC
:100B20007C0430917D0440917E0450917F040E94AA
:100B300098172B013C0140927C0450927D046092F6
:100B40007E0470927F0420909904211031C080911E
:100B5000620490916304A0916404B0916504898358
:100B60009A83AB83BC839C01AD01C701B6010E948F
:100B700068199B01AC01C301B2010E9497176093F1
:100B80007C0470937D0480937E0490937F0469813C
:100B90007A818B819C819058A70196010E946819E7
:100BA00060938404709385048093860490938704F3
:100BB00040907C0450907D0460907E0470907F048F
:100BC00010919404909195049E87A0919604AD870E
:100BD00000919704212F392F4A2F502FC301B201C2
:100BE0000E94631918160CF09BC0812F9E85AD855D
:100BF000B02F80937C0490937D04A0937E04B093E7
:100C00007F04222009F4A5C020916204309163047E
:100C10004091640450916504C501B4010E946819B3
:100C20004B015C018092840490928504A09286041A
:100C3000B092870440906A0450906B0460906C04FA
:100C400070906D04A3019201C701B6010E9468195A
:100C50009B01AC0160917C0470917D0480917E04C5
:100C600090917F040E949717A50194010E94981704
:100C70004B015C01C301B2019058A70196010E948B
:100C80006819609388047093890480938A04909310
:100C90008B049401A501612F7E858D85902F0E9484
:100CA000041887FD18C010919004909191049E87BC
:100CB000A0919204AD8700919304212F392F4A2FE0
:100CC000502FB401C5010E94041887FD04C0182DDF
:100CD0009E86AD860B2DE0917404F0917504812FF2
:100CE0009E85AD85B02F80839183A283B3838D8150
:100CF0009E81AF81B8858093800490938104A093F6
:100D00008204B093830489859A85AB85BC858093E2
:100D1000780490937904A0937A04B0937B048CCEEA
:100D20008091900490919104A0919204B0919304C9
:100D300089839A83AB83BC839C01AD01C301B2015B
:100D40000E94041887FF5DCF89819A81AB81BC81A5
:100D500050CF812C912C54016DCFAF92BF92CF9286
:100D6000DF92EF92FF920F931F93CF93DF936C016B
:100D70007B018B01040F151FEB015E01AE18BF084C
:100D8000C017D10759F06991D601ED91FC910190FE
:100D9000F081E02DC6011995892B79F7C501DF9106
:100DA000CF911F910F91FF90EF90DF90CF90BF9068
:100DB000AF90089520918C0330918D032817390747
:100DC00071F490918A0380918B03981741F0E09120
:100DD0008A03F0E0E558FD4F808190E008958FEFA1
:100DE0009FEF08950895EF92FF920F931F93CF9373
:100DF000DF93DC015C96ED90FC905D97E114F104CB
:100E000079F481E090E013969C938E93129790E092
:100E100080E0DF91CF911F910F91FF90EF900895A7
:100E20005196ED91FC91529750968C915097982F36
:100E300090950FB75E962C915E97122F127021FD40
:100E40006095F8942081112319F1282B2083E70164
:100E50002197F1F728E0462F50E0308160FF1AC05B
:100E6000382B3083E7012197F1F7BA017595679523
:100E7000215089F7112381F08081892380830FBF5E
:100E80005C968D919C910197F1F781E090E0C1CF44
:100E90002923DCCF3923E5CF9081892BEFCF209117
:100EA0008C0330918D032817390771F480918B03DF
:100EB00020918A0390E0805C9F4F821B910960E43F
:100EC00070E00E946717089590E080E008952091F7
:100ED0008C0330918D0328173907B9F490918A0358
:100EE00080918B03981789F0E0918A03F0E0E55830
:100EF000FD4F808120918A0330E02F5F3F4F2F7399
:100F0000332720938A0390E008958FEF9FEF089591
:100F100090E080E00895DC01EC91E03390F51196CB
:100F20008C91119728E830E0281B310987FD339513
:100F3000220F331F220F331F6217730784F012969C
:100F40008C9128E532E0281B310987FD3395220F6B
:100F5000331F220F331F621773070CF49B012250BB
:100F60003109220F331F4FB7F8948E2F90E0FC0108
:100F7000EE0FFF1FE80FF91FE951FD4F3283218368
:100F80004FBF08951F93CF93DF93EC01162F8881F5
:100F9000803308F04EC061E0812F0E944C048881AC
:100FA000282F30E0F901EE0FFF1FE20FF31FE95188
:100FB000FD4F1F736081607C612B608319821A82F0
:100FC0002CE0622F0E945B17829FB001112430E059
:100FD00020E0AB01420F531FFA01EE0FFF1FE40F99
:100FE000F51FE951FD4F908196FD16C02F5F3F4FD1
:100FF0002C30310571F7813009F51092800082E0C4
:10100000809381001092850010928400B19A8091A3
:101010006F00826080936F00E8818E2F90E0FC016A
:10102000EE0FFF1FE80FF91FE951FD4F808180642B
:1010300080838881DF91CF911F910895823061F480
:10104000109290008093910010929500109294005D
:1010500088BB80937100E0CF833069F41092A000C8
:1010600082E08093A1001092A5001092A40089BB99
:1010700080937200D1CF8111CFCF1092200182E0F6
:101080008093210110922501109224018ABB809344
:101090007300C2CFAF92BF92CF92DF92EF92FF92D6
:1010A0000F931F93CF93DF936B017A01EC01CA5822
:1010B000DD4F28813CE0389F8001399F100D1124BD
:1010C000A0907A02B12C27FF1FC0FB011182108271
:1010D00088818F5F888388819801280F311D87FD63
:1010E0003A95F6012A153B051CF488818C30C4F131
:1010F00080819181049680349C4908F473C0F60184
:1011000080819181049670C088819801280F311DDB
:1011100087FD3A952A153B05DCF68881A801480F22
:10112000511D87FD5A95FA01EE0FFF1FE40FF51FC1
:10113000E951FD4F808186FFCBCF8881F801E80F10
:10114000F11D87FDFA95CF01EE0FFF1FE80FF91F84
:10115000E951FD4F808160E08F730E941E04B8CF7B
:10116000808191812881A801420F511D27FD5A9548
:101170009A01FA01EE0FFF1FE20FF31FE951FD4F35
:1011800021813281820F931FF701918380838881AF
:101190009801280F311D87FD3A95F901EE0FFF1FC9
:1011A000E20FF31FE951FD4F808186FF22C0888145
:1011B000080F111D87FD1A95F801EE0FFF1FE00FB4
:1011C000F11FE951FD4F808161E08F73DF91CF9175
:1011D0001F910F91FF90EF90DF90CF90BF90AF9055
:1011E0000C941E0480E49CE9F701918380838FEFC7
:1011F0008883DF91CF911F910F91FF90EF90DF9047
:10120000CF90BF90AF9008954F925F926F927F9270
:101210008F929F92AF92BF92CF92DF92EF92FF9206
:101220000F931F93CF93DF9300D000D000D01F9275
:10123000CDB7DEB79A8789872A013B0109831A83D4
:101240002B833C83DC015B96BC92AE925A97FC01E7
:10125000ED5BFF4F81E0AA94AB2809F080E080832A
:10126000E985FA85408251826282738289819A81FE
:10127000AB81BC8184839583A683B783C086D186E6
:10128000E286F38666A977A980AD91AD0E94B11878
:1012900020E030E04AE754E40E9409186D837E8321
:1012A0008F839887E985FA85448655866686778692
:1012B0009B01AC0169817A818B819C810E946819B4
:1012C0004B015C01A985BA8550968D929D92AD9295
:1012D000BC9253972D813E814F815885C701B6013D
:1012E0000E9409186B017C01E985FA85C48AD58AB8
:1012F000E68AF78A808D918D019759F5A3019201B5
:1013000060E070E0CB010E949717A985BA851C9612
:101310006D937D938D939C931F97A501940160E03D
:1013200070E0CB010E949717E985FA85608B718B7D
:10133000828B938BA701960160E070E0CB010E9445
:101340009717A985BA8554966D937D938D939C9339
:1013500057972A960FB6F894DEBF0FBECDBFDF9128
:10136000CF911F910F91FF90EF90DF90CF90BF90A2
:10137000AF909F908F907F906F905F904F90089567
:101380000F931F93CF93DF93EC018B01FC01EE5B76
:10139000FF4F8081882361F1888D998D861797078B
:1013A00039F12C853D854E855F8560E070E0CB018D
:1013B0000E9497176C877D878E879F872889398938
:1013C0004A895B8960E070E0CB010E949717688BC7
:1013D000798B8A8B9B8B2C893D894E895F8960E054
:1013E00070E0CB010E9497176C8B7D8B8E8B9F8B4F
:1013F000198F088FDF91CF911F910F9108952F9230
:101400003F924F925F926F927F928F929F92AF9294
:10141000BF92CF92DF92EF92FF920F931F93CF93E1
:10142000DF931C016A017B0148015901A901980160
:10143000CB01B6010E94631987FF3BC0F101C2AE28
:10144000D3AEE4AEF5AE8101025C1F4FF80180829D
:101450009182A282B38234968081882351F1F10176
:10146000C68DD78D488059806A807B80A301920108
:10147000C501B4010E94041887FF2EC0888299829A
:10148000AA82BB82F10186A097A0A0A4B1A4F80112
:10149000C080D180E280F380A7019601C501B4012C
:1014A0000E946319F101181624F5C6A2D7A2E0A67E
:1014B000F1A6DF91CF911F910F91FF90EF90DF90F8
:1014C000CF90BF90AF909F908F907F906F905F90E4
:1014D0004F903F902F900895A3019201C701B6014C
:1014E0000E946319181674F6C882D982EA82FB82B8
:1014F000C9CFC2ACD3ACE4ACF5ACA7019601C50131
:10150000B4010E94041887FFD4CFF101CECFFB01B4
:1015100001900020E9F73197AF01461B570BDC0122
:10152000ED91FC910280F381E02D19948F929F92AE
:10153000AF92BF92EF92FF920F931F93CF93DF93DF
:10154000CDB7DEB7A1970FB6F894DEBF0FBECDBF03
:101550007C01FA01CB0119A2223008F42AE08E01A5
:101560000F5D1F4F822E912CB12CA12CBF01A50124
:1015700094010E943917F901CA016A300CF5605DC7
:10158000D8016E938D01232B242B252B79F790E026
:1015900080E0109721F0BD01C7010E94870AA19643
:1015A0000FB6F894DEBF0FBECDBFDF91CF911F9174
:1015B0000F91FF90EF90BF90AF909F908F90089504
:1015C000695CDECFCF92DF92EF92FF92CF93DF93F1
:1015D0006C01990FEE08FF08F7FE23C06DE28EE85C
:1015E00093E00E94E602EC0144275527BA014C190A
:1015F0005D096E097F092AE08EE893E00E94960A51
:10160000C80FD91F69E272E08EE893E00E94870A52
:101610008C0F9D1FDF91CF91FF90EF90DF90CF90C7
:1016200008952AE0B701A6018EE893E00E94960A89
:10163000EC01E8CF2F923F924F925F926F927F9290
:101640008F929F92AF92BF92CF92DF92EF92FF92D2
:101650001F93CF93DF93EC016A017B01722EAB01E4
:101660009601CB01B6010E94251A6CE272E081114D
:1016700026C046015701E894B7F82FEF3FEF4FE738
:101680005FE7C501B4010E94251A81110CC02FEF3C
:101690003FEF4FE75FE7C501B4010E94041860E324
:1016A00072E0181664F02FEF3FEF4FE75FE4C701D9
:1016B000B6010E9463191816B4F464E372E0CE0117
:1016C000DF91CF911F91FF90EF90DF90CF90BF906F
:1016D000AF909F908F907F906F905F904F903F90D2
:1016E0002F900C94870A2FEF3FEF4FE75FECC70175
:1016F000B6010E94041887FDE0CF20E030E0A90188
:10170000C701B6010E940418312C212C87FF0DC09F
:10171000E881F9810190F081E02D6DE2CE0119950B
:101720001C01F7FAF094F7F8F09410E060E070E034
:1017300080E09FE3711641F020E030E040E251E4A8
:101740000E9409181F5FF6CFA70196010E94981703
:101750002B013C010E9482184B015C012AE0BC0174
:10176000A401CE010E94960A7C01E20CF31C112315
:10177000E1F1C501B4010E94B1189B01AC01C301A4
:10178000B2010E9497174B015C01E881F981019039
:10179000F081E02D6EE2CE011995E80EF91E115090
:1017A00020F120E030E040E251E4C501B4010E94A4
:1017B00068192B013C010E9482184B01B12CA12C0D
:1017C0002AE0B501A401CE010E94960AE80EF91E96
:1017D000C501B4010E94B1189B01AC01C301B20163
:1017E0000E9497174B015C01DACFC701DF91CF91BF
:1017F0001F91FF90EF90DF90CF90BF90AF909F90A0
:101800008F907F906F905F904F903F902F900895B2
:101810000F931F93CF93DF93EC0122E00E941A0BEA
:101820008C0169E272E0CE010E94870A800F911F4D
:10183000DF91CF911F910F9108954F925F926F9218
:101840007F928F929F92AF92BF92CF92DF92EF9250
:10185000FF92CF93DF93EC016A017B010E94F104B8
:101860004B015C018091720290917302A09174020D
:10187000B09175028C0D9D1DAE1DBF1D881599057B
:10188000AA05BB050CF043C088810E947D04BC0101
:10189000990F880B990B0E94B3186B017C0120E013
:1018A00030E040E05FE360916E0270916F028091E2
:1018B0007002909171020E9468192B013C0120E096
:1018C00030E040E05FE3C701B6010E9468199B0168
:1018D000AC01C301B2010E94981760936E0270932D
:1018E0006F028093700290937102CA82DB82EC8255
:1018F000FD828092720290927302A0927402B09262
:101900007502B701A6018EE893E00E94080CDF91F2
:10191000CF91FF90EF90DF90CF90BF90AF909F90CE
:101920008F907F906F905F904F9008951F920F92CD
:101930000FB60F9211242F933F938F939F93AF93E2
:10194000BF938091820390918303A0918403B0910F
:1019500085033091810323E0230F2D3758F501963D
:10196000A11DB11D20938103809382039093830373
:10197000A0938403B093850380918603909187039D
:10198000A0918803B09189030196A11DB11D809398
:10199000860390938703A0938803B0938903BF9134
:1019A000AF919F918F913F912F910F900FBE0F900C
:1019B0001F90189526E8230F0296A11DB11DD2CFC6
:1019C0001F920F920FB60F9211240BB60F922F9306
:1019D0003F934F935F936F937F938F939F93AF93B7
:1019E000BF93EF93FF938EE893E00E94C402FF91B0
:1019F000EF91BF91AF919F918F917F916F915F9187
:101A00004F913F912F910F900BBE0F900FBE0F90F3
:101A10001F9018951F920F920FB60F9211240BB6BC
:101A20000F922F938F939F93EF93FF93E0919E03D9
:101A3000F0919F038081E091A403F091A50382FDC2
:101A40001DC090818091A7038F5F8F732091A803A1
:101A5000821741F0E091A703F0E0E257FC4F958F29
:101A60008093A703FF91EF919F918F912F910F90FA
:101A70000BBE0F900FBE0F901F9018958081F2CF74
:101A80001F920F920FB60F9211240BB60F922F9345
:101A90003F934F935F936F937F938F939F93AF93F6
:101AA000BF93EF93FF93E0918C03F0918D033097F8
:101AB00049F0A685B7858585968D91FF16C09C91C6
:101AC0008923B1F4FF91EF91BF91AF919F918F91D5
:101AD0007F916F915F914F913F912F910F900BBE2E
:101AE0000F900FBE0F901F9018959C91892351F76E
:101AF000A389B4899C918589809589238C93868953
:101B000097890197F1F7608D718DA685B785558509
:101B100038E020E0CB010197F1F7822F90E0959516
:101B20008795282F4C91452309F02068315091F773
:101B3000868D81FD209580918B0390E001968F73B7
:101B4000992730918A03381799F0A0918B03B0E060
:101B5000A558BD4F2C9380938B03828D938D019755
:101B6000F1F7A389B4898C919589892B8C93AACF9D
:101B7000868D8160868FF1CF1F920F920FB60F92E4
:101B800011240BB60F922F933F934F935F936F9354
:101B90007F938F939F93AF93BF93EF93FF9348E20D
:101BA00051E064E271E090E080E00E944A08FF9119
:101BB000EF91BF91AF919F918F917F916F915F91C5
:101BC0004F913F912F910F900BBE0F900FBE0F9032
:101BD0001F9018951F920F920FB60F9211240BB6FB
:101BE0000F922F933F934F935F936F937F938F93B6
:101BF0009F93AF93BF93EF93FF9348EA50E064EA5B
:101C000070E083E090E00E944A08FF91EF91BF915D
:101C1000AF919F918F917F916F915F914F913F9184
:101C20002F910F900BBE0F900FBE0F901F90189525
:101C30001F920F920FB60F9211240BB60F922F9393
:101C40003F934F935F936F937F938F939F93AF9344
:101C5000BF93EF93FF9348E950E064E970E082E0BE
:101C600090E00E944A08FF91EF91BF91AF919F9140
:101C70008F917F916F915F914F913F912F910F9035
:101C80000BBE0F900FBE0F901F9018951F920F92D2
:101C90000FB60F9211240BB60F922F933F934F93D1
:101CA0005F936F937F938F939F93AF93BF93EF93C4
:101CB000FF9348E850E064E870E081E090E00E9423
:101CC0004A08FF91EF91BF91AF919F918F917F91C2
:101CD0006F915F914F913F912F910F900BBE0F909D
:101CE0000FBE0F901F901895FC0190917A029033CF
:101CF00098F481E0890F80937A029083892F90E095
:101D0000FC01EE0FFF1FE80FF91FE951FD4F88EBB3
:101D10009BE09283818308958FEF808308954F9293
:101D20005F926F927F92AF92BF92CF92DF92EF92CB
:101D3000FF920F931F93109291031092900338EE2D
:101D4000432E33E0532E612C712C4092920350921B
:101D50009303609294037092950389E092E09093CC
:101D60008F0380938E0385EC90E090939B03809388
:101D70009A0384EC90E090939D0380939C0380EC05
:101D800090E090939F0380939E0381EC90E090936A
:101D9000A1038093A00382EC90E09093A30380932F
:101DA000A20386EC90E09093A5038093A403109285
:101DB000A7031092A8031092A9031092AA0383E527
:101DC00094E00E94740E80E594E00E94740E8DE40D
:101DD00094E00E94740E8AE494E00E94740E1092C3
:101DE0002E0410922D0440922F04509230046092E1
:101DF0003104709232048BE192E090932C04809332
:101E00002B04109242041092410410924404109248
:101E10004304109246041092450410924804109214
:101E20004704609149046E7F6D7F60934904669515
:101E3000617081E068278BE00E941E0461E08BE006
:101E40000E944C04EBECF2E0E491E0933B04E5E803
:101E5000F2E0E491F0E0EE0FFF1FE05AFD4F8591B4
:101E6000949190933D0480933C0460E08AE00E944A
:101E70004C048091490481FD04C061E08AE00E9425
:101E80001E048AE080933704EAECF2E0E491E093E8
:101E90003804E4E8F2E0E491F0E0EE0FFF1FEA5BC3
:101EA000FD4F8591949190933A0480933904109258
:101EB000D1041092D0041092D2041092D304109244
:101EC000D4041092D5041092C3041092C20410924C
:101ED000C4041092C5041092C6041092C704109254
:101EE000B5041092B4041092B6041092B704109284
:101EF000B8041092B9041092A7041092A60410928C
:101F0000A8041092A9041092AA041092AB048EE9BE
:101F100094E090937504809374048AE994E090931C
:101F200073048093720482EA94E090937704809320
:101F300076041092980410929004109291041092DA
:101F400092041092930480E090E0AFE7B3E48093B2
:101F5000940490939504A0939604B093970494E608
:101F6000492E512C612C712C40928C0450928D047E
:101F700060928E0470928F0470E060E086E594E0D9
:101F80000E94C009AA24A394B12CC12CD12C7601A3
:101F90009701860140E050E060E87FE386E594E049
:101FA0000E9404090E94F10400918C0410918D0498
:101FB00020918E0430918F04601B710B820B930B68
:101FC000609378047093790480937A0490937B04EF
:101FD00086E295E09093FD048093FC0482E295E014
:101FE0009093FB048093FA048AE295E09093FF04B7
:101FF0008093FE0410922005C0921805D092190516
:10200000E0921A05F0921B0580E090E0AFE7B3E4A0
:1020100080931C0590931D05A0931E05B0931F058A
:10202000409214055092150560921605709217059E
:1020300061E070E08EED94E00E94C0099701860196
:10204000B701A6018EED94E00E9404090E94F104FC
:102050004090140550901505609016057090170576
:102060006419750986099709609300057093010545
:1020700080930205909303051F910F91FF90EF90BD
:10208000DF90CF90BF90AF907F906F905F904F9018
:102090000895789484B5826084BD84B5816084BDE0
:1020A00085B5826085BD85B5816085BD80916E00F6
:1020B000816080936E001092810080918100826027
:1020C0008093810080918100816080938100809164
:1020D00080008160809380008091B1008460809353
:1020E000B1008091B00081608093B0008091910038
:1020F0008260809391008091910081608093910033
:10210000809190008160809390008091A100826016
:102110008093A1008091A10081608093A1008091B3
:10212000A00081608093A000809121018260809353
:102130002101809121018160809321018091200102
:1021400081608093200180917A00846080937A007E
:1021500080917A00826080937A0080917A00816019
:1021600080937A0080917A00806880937A00109240
:10217000C10080E090E0A8E4B2E480939A049093D8
:102180009B04A0939C04B0939D0410929E04109213
:102190009F041092A0041092A1048093A204909333
:1021A000A304A093A404B093A50480919804811182
:1021B00049C0E0917404F0917504C080D180E28040
:1021C000F380C0927C04D0927D04E0927E04F09271
:1021D0007F04E0917204F091730480819181A28167
:1021E000B3818093800490938104A0938204B09380
:1021F00083048090940490909504A0909604B090ED
:102200009704A5019401C701B6010E94631918162D
:102210004CF480927C0490927D04A0927E04B09253
:102220007F0410C08090900490909104A09092043C
:10223000B0909304A5019401C701B6010E9404184F
:1022400087FDE7CF81E08093980400E010E028EC60
:1022500032E440E050E068EC72EC86E594E00E94E5
:10226000FF0970E060E086E594E00E94C00961E04B
:102270008DE00E944C0461E080E30E944C0460E029
:1022800080E30E941E048BE390E09093D10480933E
:10229000D0048AE999E8A6EEB4E48093D60490933A
:1022A000D704A093D804B093D90481EE9AE7A4E7A9
:1022B000BFEB8093DA049093DB04A093DC04B0932B
:1022C000DD0460E08BE30E944C048AE390E090938D
:1022D000C3048093C20480E090E9AFE1B6E4809348
:1022E000C8049093C904A093CA04B093CB0482E1BC
:1022F00093E8A0E9BFEB8093CC049093CD04A09326
:10230000CE04B093CF0460E08AE30E944C048DE3D6
:1023100090E09093B5048093B40480EC92E9A6E534
:10232000B8E48093BA049093BB04A093BC04B09328
:10233000BD0481E895E9A3EDBFEB8093BE049093C3
:10234000BF04A093C004B093C10460E08DE30E9479
:102350004C0488E390E09093A7048093A60480E067
:102360009FE7A5EDB7E48093AC049093AD04A093F0
:10237000AE04B093AF048BE39FEDAFEDBFEB809362
:10238000B0049093B104A093B204B093B30460E09E
:1023900088E30E944C040AE010E0D0E0C0E089E34A
:1023A0000E947D047C010E94E20ACE0DDF1D65E0E3
:1023B00070E080E090E00E94BF040150110979F7BD
:1023C00068E372E08EE893E00E94870ACE010E94E3
:1023D000E20ACE016AE070E00E9467177093BC02C7
:1023E0006093BB0261E472E08EE893E00E94870A8A
:1023F0008091BB029091BC020E94E20A68EE73E0F9
:1024000080E090E00E94BF0449E050E060E070E0AE
:1024100082EC94E00E941D0C4AE050E060E070E025
:1024200084EB94E00E941D0C4BE050E060E070E013
:1024300086EA94E00E941D0C47E050E060E070E006
:1024400080ED94E00E941D0C0E94F104AB01BC01E0
:102450008091BD029091BE02A091BF02B091C002D6
:102460000696A11DB11D84179507A607B7070CF0A6
:102470004DC089E30E947D042091BB023091BC02D3
:10248000821B930B9C012F5F3F4F2330310510F4CB
:1024900090E080E0BC01990F880B990B0E94B31863
:1024A00026EA3BE944EC5BE30E94091828E638EE93
:1024B0004FE95BE30E94681920E030E040EC50E413
:1024C0000E94681920E030E04AE754E40E940918AD
:1024D0009B01AC016091DE027091DF028091E0020D
:1024E0009091E1020E9498176093DE027093DF02E0
:1024F0008093E0029093E1020E94F1046093BD0298
:102500007093BE028093BF029093C00220907F031D
:102510003090800321E02216310471F140F092E006
:102520002916310409F4E2C30E945D036DCF68EE01
:1025300073E080E090E00E94BF046EE270E083E50B
:1025400094E00E94C2076FE270E080E594E00E9490
:10255000C20762E370E08DE494E00E94C20763E387
:1025600070E08AE494E00E94C20781E090E09093DA
:10257000800380937F03D8CF0E94F1040091C202B0
:102580001091C3022091C4023091C50206171707AB
:1025900028073907D8F48091C1028F5F8093C10268
:1025A000853048F10E94F10464547D4F8F4F9F4F56
:1025B0006093C2027093C3028093C4029093C502D9
:1025C00060E08DE00E941E041092C102C0910302DF
:1025D000D0910402C430D10509F408C128F5C230F5
:1025E000D10509F47FC3239709F463C230928003B5
:1025F00020927F0399CF0E94F1046C597F4F8F4F37
:102600009F4F6093C2027093C3028093C402909361
:10261000C5028DE00E94F50361E0892B09F060E0BE
:102620008DE00E941E04D2CFC630D10509F44BC202
:1026300008F4F6C1C730D105C9F68091020288239B
:1026400009F440C01092DE021092DF021092E00204
:102650001092E102A0907004B09071047AE0C72E4D
:1026600077EDD72E73E2E72E7CE3F72E97018601F4
:1026700049E25CE56FE87DE386E594E00E940409A9
:1026800080E090E0A4E3B3E48093A2049093A304D9
:10269000A093A404B093A50400E010E020E83FE379
:1026A00040E050E060E87FEB86E594E00E94FF099F
:1026B00061E070E086E594E00E94C0090E94B801E4
:1026C00010920202C090DE02D090DF02E090E002A1
:1026D000F090E1024090E2025090E3026090E40248
:1026E0007090E502C0929A04D0929B04E0929C0400
:1026F000F0929D040E94FD0480909E0490909F049F
:10270000A090A004B090A1048092E2029092E30213
:10271000A092E402B092E502A5019401C301B201C6
:102720000E9404188823A1F120E030E046E153E440
:10273000C501B4010E9468199B01AC0160E070E81A
:102740008BEB94E40E9497170E947B184B0183E562
:1027500094E00E948B07B40180E594E00E948B070F
:10276000B4018DE494E00E948B07B4018AE494E004
:102770000E948B07A701960160E070E084E393E478
:102780000E949717AB01BC018BE294E00E94080CF9
:1027900020E030E044E353E4C701B6010E949717FC
:1027A0006B017C0120E030E0A9010E94631918163A
:1027B0000CF088C220E030E040E050E4C701B601F0
:1027C0000E94041887FF89C281E08093020269E6B3
:1027D00072E08BE294E00E94870A69E272E08BE289
:1027E00094E00E94870AC2E0D0E077C280910002A4
:1027F0008823B9F11092DE021092DF021092E002FB
:102800001092E102A0907004B0907104C12CD12C00
:1028100076019701860140E050E060EA71E486E5C8
:1028200094E00E940409C092A204D092A304E09212
:10283000A404F092A50400E010E028EC32E440E0AB
:1028400050E068EC72EC86E594E00E94FF0961E0DC
:1028500070E086E594E00E94C0090E94B8011092E1
:1028600000028090DE029090DF02A090E002B09023
:10287000E1024090C8025090C9026090CA02709074
:10288000CB0280929A0490929B04A0929C04B092F6
:102890009D040E94FD04C0909E04D0909F04E0908F
:1028A000A004F090A104C092C802D092C902E092A4
:1028B000CA02F092CB02A7019601C301B2010E94A5
:1028C0000418882309F46FC0C701B6010E947B1861
:1028D0002B01A2E7EA2EA6E0FA2EE61AF70AB701C4
:1028E00083E594E00E948B07B70180E594E00E94A5
:1028F0008B07B6E4EB2EB5E0FB2EE418F508B70124
:102900008DE494E00E948B07B7018AE494E00E9472
:102910008B0766E572E08BE294E00E94870A22E072
:10292000B501A4018BE294E00E941A0B6EE572E0FF
:102930008BE294E00E94870A4091C8025091C9023C
:102940006091CA027091CB028BE294E00E94080C65
:1029500061E080E30E941E0483E290E00197F1F7BA
:1029600060E080E30E941E040E949A046B017C01D7
:1029700081E30E94F503892BE9F40E949A046C1903
:102980007D098E099F0969387E458105910580F38F
:102990008091C6029091C70201969093C7028093DE
:1029A000C6020497BCF5D0930402C09303021092B0
:1029B000E6021CCE0E949A046B017C0181E30E9416
:1029C000F503019761F40E949A046C197D098E0940
:1029D0009F0969387E458105910580F3D9CF0E9412
:1029E0009A046C197D098E099F090E94B11820E094
:1029F00030E048E652E40E94091820E030E040E26E
:102A000051E40E94041887FDC3CF1092C7021092B0
:102A1000C602C9CF81E080930002C5E0D0E0C3CFF9
:102A20008091D00281110DC00E94F1046093CC020C
:102A30007093CD028093CE029093CF0281E0809379
:102A4000D00262E776E083E594E00E948B0766E4BB
:102A500075E080E594E00E948B0766E475E08DE404
:102A600094E00E948B0762E776E08AE494E00E949B
:102A70008B07C090CC02D090CD02E090CE02F090B7
:102A8000CF0288EEC80E83E0D81EE11CF11C0E9424
:102A9000F104C616D706E806F90670F486E090E061
:102AA00090930402809303028091E602882309F444
:102AB0009DCD84E090E002C085E090E09093040218
:102AC0008093030293CD809101028823B9F1109283
:102AD000DE021092DF021092E0021092E102A0905A
:102AE0007004B0907104C12CD12C7601970186013D
:102AF00040E050E060EA71E486E594E00E94040959
:102B0000C092A204D092A304E092A404F092A5047F
:102B100000E010E028EC32E440E050E068EC72ECB9
:102B200086E594E00E94FF0961E070E086E594E0AC
:102B30000E94C0090E94B801109201028090DE023A
:102B40009090DF02A090E002B090E1024090DA02A3
:102B50005090DB026090DC027090DD0280929A045B
:102B600090929B04A0929C04B0929D040E94FD044C
:102B7000C0909E04D0909F04E090A004F090A10427
:102B8000C092DA02D092DB02E092DC02F092DD0227
:102B9000A7019601C301B2010E940418882309F419
:102BA00084C0C701B6010E947B182B01E6E4EE2E1B
:102BB000E5E0FE2EE61AF70AB70183E594E00E94ED
:102BC0008B07B70180E594E00E948B07F2E7EF2EB8
:102BD000F6E0FF2EE418F508B7018DE494E00E94BA
:102BE0008B07B7018AE494E00E948B0766E572E0E8
:102BF0008BE294E00E94870A22E0B501A4018BE2F7
:102C000094E00E941A0B6EE572E08BE294E00E9461
:102C1000870A4091DA025091DB026091DC027091E8
:102C2000DD028BE294E00E94080C2091B004309108
:102C3000B1044091B2045091B3046091A804709122
:102C4000A9048091AA049091AB040E94D519209107
:102C5000AC043091AD044091AE045091AF040E9499
:102C600068196B017C0120E030E040EA52E40E94E8
:102C70006319181614F120E030E040E251E4C70176
:102C8000B6010E94041887FF18C08091D802909165
:102C9000D90201969093D9028093D80204972CF020
:102CA00081E080930102C5E0D0E0D0930402C0939C
:102CB000030281E08093E60299CC1092D90210922F
:102CC000D802F3CF20E030E040E050ECC701B6017D
:102CD0000E94631918160CF477CDD0930402C093A8
:102CE000030284CC62E0262E312C80CC6CED75E0A2
:102CF00083E594E00E948B076CED75E080E594E03D
:102D00000E948B076CED75E08DE494E00E948B07C8
:102D10006CED75E08AE494E00E948B07E091530427
:102D20008E2F90E0FC01EE0FFF1FE80FF91FE95115
:102D3000FD4F80818F7B8083E09150048E2F90E047
:102D4000FC01EE0FFF1FE80FF91FE951FD4F8081D5
:102D50008F7B8083E0914D048E2F90E0FC01EE0F7D
:102D6000FF1FE80FF91FE951FD4F80818F7B8083A2
:102D7000E0914A048E2F90E0FC01EE0FFF1FE80F58
:102D8000F91FE951FD4F80818F7B808360E08EE2E7
:102D90000E944C0460E08FE20E944C0460E082E3F9
:102DA0000E944C0460E083E30E944C040E94F10402
:102DB00000917703109178032091790330917A0381
:102DC000601B710B820B930B613D77408105910570
:102DD000A0F00E94F10460937703709378038093CE
:102DE000790390937A038DE00E94F50361E0892BCB
:102DF00009F060E08DE00E941E040E94F104009141
:102E00007B0310917C0320917D0330917E03601B36
:102E1000710B820B930B653F71408105910550F05A
:102E20000E94F10460937B0370937C0380937D0385
:102E300090937E0382E090E09ACB8BE192E09093B6
:102E40002C0480932B0480918C0390918D038B52E2
:102E5000944071F4E0913E04F0913F0490818091A0
:102E6000400480958923808310928D0310928C03F7
:102E70000895A1E21A2EAA1BBB1BFD010DC0AA1FBB
:102E8000BB1FEE1FFF1FA217B307E407F50720F0D3
:102E9000A21BB30BE40BF50B661F771F881F991F4E
:102EA0001A9469F760957095809590959B01AC0197
:102EB000BD01CF010895991B79E004C0991F9617B1
:102EC00008F0961B881F7A95C9F78095089597FB9F
:102ED000072E16F4009407D077FD09D00E948317BF
:102EE00007FC05D03EF4909581959F4F089570950D
:102EF00061957F4F0895EE0FFF1F881F8BBF0790CE
:102F0000F691E02D1994AA1BBB1B51E107C0AA1F23
:102F1000BB1FA617B70710F0A61BB70B881F991F7A
:102F20005A95A9F780959095BC01CD010895505808
:102F3000BB27AA270E94AF170C9429190E941B19BE
:102F400038F00E94221920F039F49F3F19F426F43A
:102F50000C9418190EF4E095E7FB0C941219E92F64
:102F60000E943A1958F3BA17620773078407950746
:102F700020F079F4A6F50C945C190EF4E0950B2E74
:102F8000BA2FA02D0B01B90190010C01CA01A001BB
:102F90001124FF27591B99F0593F50F4503E68F116
:102FA0001A16F040A22F232F342F4427585FF3CF57
:102FB000469537952795A795F0405395C9F77EF428
:102FC0001F16BA0B620B730B840BBAF09150A1F071
:102FD000FF0FBB1F661F771F881FC2F70EC0BA0FF7
:102FE000621F731F841F48F4879577956795B7957F
:102FF000F7959E3F08F0B0CF9395880F08F099277A
:10300000EE0F9795879508950E94EE1808F481E0D9
:1030100008950E941D180C9429190E94221958F035
:103020000E941B1940F029F45F3F29F00C941219FB
:1030300051110C945D190C9418190E943A1968F3F7
:103040009923B1F3552391F3951B550BBB27AA2761
:1030500062177307840738F09F5F5F4F220F331F9B
:10306000441FAA1FA9F335D00E2E3AF0E0E832D063
:1030700091505040E695001CCAF72BD0FE2F29D066
:10308000660F771F881FBB1F261737074807AB0738
:10309000B0E809F0BB0B802DBF01FF2793585F4FAD
:1030A0003AF09E3F510578F00C9412190C945D197A
:1030B0005F3FE4F3983ED4F3869577956795B7958F
:1030C000F7959F5FC9F7880F911D9695879597F99A
:1030D0000895E1E0660F771F881FBB1F6217730713
:1030E0008407BA0720F0621B730B840BBA0BEE1F28
:1030F00088F7E09508950E9482186894B1110C94A5
:103100005D1908950E94421988F09F5798F0B92FD1
:103110009927B751B0F0E1F0660F771F881F991F0C
:103120001AF0BA95C9F714C0B13091F00E945C1939
:10313000B1E008950C945C19672F782F8827B85F49
:1031400039F0B93FCCF3869577956795B395D9F764
:103150003EF490958095709561957F4F8F4F9F4F6E
:103160000895E89409C097FB3EF49095809570957A
:1031700061957F4F8F4F9F4F9923A9F0F92F96E9C3
:10318000BB279395F695879577956795B795F11138
:10319000F8CFFAF4BB0F11F460FF1BC06F5F7F4FD5
:1031A0008F4F9F4F16C0882311F096E911C07723E7
:1031B00021F09EE8872F762F05C0662371F096E8F0
:1031C000862F70E060E02AF09A95660F771F881FBF
:1031D000DAF7880F9695879597F90895990F000863
:1031E000550FAA0BE0E8FEEF16161706E807F907D9
:1031F000C0F012161306E407F50798F0621B730B74
:10320000840B950B39F40A2661F0232B242B252BF4
:1032100021F408950A2609F4A140A6958FEF811D97
:10322000811D089597F99F6780E870E060E0089538
:103230009FEF80EC089500240A94161617061806CE
:103240000906089500240A941216130614060506AA
:103250000895092E0394000C11F4882352F0BB0F3B
:1032600040F4BF2B11F460FF04C06F5F7F4F8F4F9E
:103270009F4F089557FD9058440F551F59F05F3FD9
:1032800071F04795880F97FB991F61F09F3F79F088
:1032900087950895121613061406551FF2CF46950A
:1032A000F1DF08C0161617061806991FF1CF86958C
:1032B0007105610508940895E894BB276627772770
:1032C000CB0197F908950E94EE1808F48FEF089546
:1032D0000E947B190C9429190E941B1938F00E9436
:1032E000221920F0952311F00C9412190C9418193E
:1032F00011240C945D190E943A1970F3959FC1F343
:10330000950F50E0551F629FF001729FBB27F00D93
:10331000B11D639FAA27F00DB11DAA1F649F6627E8
:10332000B00DA11D661F829F2227B00DA11D621F37
:10333000739FB00DA11D621F839FA00D611D221FF1
:10334000749F3327A00D611D231F849F600D211DD5
:10335000822F762F6A2F11249F5750409AF0F1F058
:1033600088234AF0EE0FFF1FBB1F661F771F881FC1
:1033700091505040A9F79E3F510580F00C941219CE
:103380000C945D195F3FE4F3983ED4F386957795EE
:103390006795B795F795E7959F5FC1F7FE2B880F67
:1033A000911D9695879597F90895FA01EE0FFF1FE5
:1033B000309621053105A1F16115710561F4803860
:1033C000BFE39B0749F168949038810561F080382C
:1033D000BFEF9B0741F099234AF5FF3FE105310517
:1033E000210519F1E8940894E795D901AA2329F455
:1033F000AB2FBE2FF85FD0F310C0FF5F70F4A6951F
:10340000E0F7F73950F019F0FF3A38F49F779F93BF
:103410000DD00F9007FC9058089546F00C941819A1
:1034200060E070E080E89FE308954FE79F775F9347
:103430004F933F932F930E94D51A2F913F914F9115
:103440005F910E9468190C94321A0E94EE18880B42
:10345000990B089529F416F00C9412190C945C1928
:103460000C9418190E944219A8F39638A0F707F88F
:103470000F92E8942BE33AEA48EB5FE70E947E194B
:103480000F920F920F924DB75EB70F920E941D1BC5
:10349000E4EEF0E00E94641A4F915F91EF91FF918A
:1034A000E595EE1FFF1F49F0FE57E0684427EE0F39
:1034B000441FFA95E1F74195550B0E94971A0F901A
:1034C00007FE0C948B1A0895DF93CF931F930F93ED
:1034D000FF92EF92DF927B018C01689406C0DA2E96
:1034E000EF010E947B19FE01E894A5912591359189
:1034F00045915591A6F3EF010E94AF17FE01970188
:10350000A801DA9469F7DF90EF90FF900F911F9177
:10351000CF91DF9108959B01AC0160E070E080E8FD
:103520009FE30C9409180C9412190C94511B0E94DF
:103530004219D8F39923C9F3940F511DA3F3915065
:10354000504094F059F0882332F0660F771F881F9F
:1035500091505040C1F79E3F51052CF7880F911DA7
:103560009695879597F908955F3FACF0983E9CF04B
:10357000BB27869577956795B79508F4B1609395C5
:10358000C1F7BB0F58F711F460FFE8CF6F5F7F4FB3
:103590008F4F9F4FE3CF0C945D1916F00C94511B85
:1035A0000C94181968940C9412190E944219A8F3EB
:1035B0009923C1F3AEF3DF93CF931F930F93FF9241
:1035C000C92FDD2788232AF02197660F771F881FD0
:1035D000DAF720E030E040E85FEB9FE3883920F045
:1035E000803E38F021968F770E949817ECE0F1E04A
:1035F00004C00E949817E9E3F1E00E94641A8B016D
:10360000BE01EC01FB2E6F5771097595771F880B72
:10361000990B0E94B31828E132E741E35FE30E946F
:103620007B19AF2D9801AE01FF900F911F91CF91A3
:10363000DF910E94AF170C942919FA01DC01AA0F3F
:10364000BB1F9B01AC01BF5728F422273327442717
:10365000507820C0B75190F4AB2F00244695379591
:103660002795011CA395D2F3002071F0220F331F80
:10367000441FB395DAF30ED00C949717613071059F
:10368000A0E88A07B94630F49B01AC01662777278A
:1036900088279078309621F02083318342835383AA
:1036A00008959F3F31F0915020F487957795679565
:1036B000B795880F911D9695879597F9089511E014
:1036C000C4E8D1E000E006C0802FFE010E947B1715
:1036D0002196011DC538D10780E00807A9F7F894A5
:0236E000FFCF1A
:1036E200010101070000000000E602AD0687023377
:1036F20003B8029602AA0200000000F306AD068893
:1037020007F2064F076707DA060D0A006E616E00C0
:10371200696E66006F76660073756D2069733A2074
:10372200007A65726F4779726F566F6C7461676564
:103732002069733A2000696E7075743A20002C205B
:0E3742006F75747075743A2000656E64000037
:00000001FF
