:100000000C9485010C94B6010C94B6010C94B601C5
:100010000C94B6010C94B6010C94B6010C94B60184
:100020000C94B6010C94CD0D0C94CD0D0C94CD0D0B
:100030000C94B6010C94B6010C94B6010C94B60164
:100040000C94B6010C94D30E0C94B6010C94B6012A
:100050000C94B6010C94B6010C94B6010C94230DCB
:100060000C94B6010C94970D0C946D0D0C94B60184
:100070000C94B6010C94B6010C94B6010C94B60124
:100080000C94A50E0C94B6010C94B6010C94B60118
:100090000C94B6010C94B6010C94B6010C94B60104
:1000A0000C94B6010C94B6010C94770E0C94B60126
:1000B0000C94B6010C94B6010C94B6010C94490E44
:1000C0000C94B6010C94B6010C94B6010C94B601D4
:1000D0000C94B6010C94B6010C94B6010C94B601C4
:1000E0000C94B60107634236B79BD8A71A396856F5
:1000F00018AEBAAB558C1D3CB7CC5763BD6DEDFD4A
:10010000753EF6177231BF000000803F0800000006
:10011000BE922449123EABAAAA2ABECDCCCC4C3EFC
:1001200000000080BEABAAAAAA3E00000000BF00EB
:100130000000803F0000000000084178D3BB4387E7
:10014000D1133D190E3CC3BD4282AD2B3E68EC82FB
:1001500076BED98FE1A93E4C80EFFFBE01C4FF7F80
:100160003F00000000000C9495040C942B030C94A9
:100170001C0F0C94D7030C945A170C9491040C94F4
:100180005C030C9465040C9443060C9462040C9478
:10019000CE050C946B040C9456040C9487040C94B8
:1001A0004E030C945B060C9479040C945E040C943E
:1001B0003A030C9475040C9450040C948B040C9426
:1001C00090040C948A030C94E6050C945A040C9445
:1001D0007D040C947C060C9483040C946F040C94A2
:1001E000A1050C94E70500002100240027002A0047
:1001F0002D003000330001010000040107010A0155
:1002000000000A0B02090C0D0E0807030401000090
:1002100000000000000000000000000000000000DE
:10022000000000000000000000000000121110009B
:1002300000000000000000000000000000000000BE
:10024000000000000000000020002300260029001C
:100250002C002F00320000010000030106010901FB
:1002600000002200250028002B002E003100340061
:1002700002010000050108010B0105050505070540
:1002800008080808020202020A0A08080404040412
:10029000010101010101010103030303030303033E
:1002A000040707070C0C0C0C0C0C0C0C02020202CD
:1002B00006060606060606060B0B0B0B0B0B0B0BB6
:1002C0000102102020080810204010204080020168
:1002D000020108040201010204081020408080404D
:1002E000201008040201800402018040201008044C
:1002F00002010804020101020408102040800102EA
:100300000408102040801C0F5A1711241FBECFEF85
:10031000D1E2DEBFCDBF00E00CBF12E0A0E0B2E052
:10032000ECE5F7E300E00BBF02C007900D92AA36A0
:10033000B107D9F724E0AAE6B2E001C01D92A13EC0
:10034000B207E1F711E0C4E8D1E000E006C0219770
:100350000109802FFE010E94B817C338D10780E041
:100360000807A9F70E94F9100C949C1B0C9400003C
:100370008F929F92AF92BF92CF92DF92EF92FF92B5
:1003800081E020917304309174042130310509F02B
:1003900080E080939C04812C912C80EAA82E80E43C
:1003A000B82E8092590490925A04A0925B04B092A5
:1003B0005C0410925D0410925E0410925F0410922F
:1003C000600410926104109262041092630410920F
:1003D000640460918F0470919004809191049091D5
:1003E00092040E94EE1820E030E04AE754E40E94B4
:1003F00046186B017C018092650490926604A0927D
:100400006704B092680420E030E0A9010E94A519B9
:100410004B015C018092690490926A04A0926B0483
:10042000B0926C04A701960160E070E0CB010E94DD
:1004300046186B017C01C0926D04D0926E04E0926C
:100440006F04F0927004809171049091720401978E
:1004500051F580E090E0A0EAB0EC809365049093C1
:100460006604A0936704B0936804A501940160E05A
:1004700070E0CB010E94D4176093690470936A0402
:1004800080936B0490936C04A701960160E070E088
:10049000CB010E94D41760936D0470936E04809317
:1004A0006F0490937004FF90EF90DF90CF90BF9017
:1004B000AF909F908F900895109249041092480435
:1004C000109247041092460410924504109244047E
:1004D0008FE190E090934B0480934A0480913A041A
:1004E00096EF980F943048F02EEC280F243028F027
:1004F00022EC280F283008F061C021E030E0309372
:100500004504209344042DE130E0309347042093C8
:1005100046042DE030E030934904209348049430A1
:1005200050F02EEC280F243030F022EC280FF0E0B1
:10053000E0E0283010F4E8E6F0E02081943028F084
:1005400032EC380F383008F469C031E0232B943096
:1005500048F09EEC980F943028F08E53F0E0E0E0E5
:10056000883010F4E8E6F0E0208320913A0436EF7A
:10057000320F343008F454C08EEC820F843008F40B
:100580004FC082EC820F883008F44DC090E080E0CC
:100590009093420480934104343008F047C02650C1
:1005A000330B81E001C0880F2A95EAF7809343045A
:1005B00080914A0490914B040197F1F7809148048F
:1005C00090914904892B49F1E0918703F0918803C8
:1005D00084E0EE32F80709F1309739F0A389B48945
:1005E0009C918589809589238C9380914C048E7F82
:1005F00080934C0410928603109285038EE294E05F
:100600009093880380938703E0914104F091420422
:10061000808190914304892B8083089534E096CFA4
:100620008BE690E0B5CF8DE690E0B2CF88E0223344
:1006300009F4BCCF84E0233309F4B8CF82E024333B
:1006400009F4B4CF82EC820F883018F42E53330BA8
:10065000A8CF81E0ABCFFC01538D448D252F30E036
:10066000842F90E0821B930B541710F0CF960895BF
:1006700001970895FC01918D828D981761F0A28DEC
:10068000AE0FBF2FB11D5D968C91928D9F5F9F73B2
:10069000928F90E008958FEF9FEF0895FC01918D68
:1006A000828D981731F0828DE80FF11D858D90E0D5
:1006B00008958FEF9FEF0895FC01918D228D892F72
:1006C00090E0805C9F4F821B91098F73992708955A
:1006D000FC01A48DA80FB92FB11DA35ABF4F2C91B7
:1006E000848D90E001968F739927848FA689B789AE
:1006F0002C93A089B1898C91837080648C93938DA5
:10070000848D981306C00288F389E02D80818F7D47
:1007100080830895EF92FF920F931F93CF93DF93FF
:10072000EC0181E0888F9B8D8C8D98131AC0E8892D
:10073000F989808185FF15C09FB7F894EE89FF89FC
:100740006083E889F98980818370806480839FBF9A
:1007500081E090E0DF91CF911F910F91FF90EF909A
:100760000895F62E0B8D10E00F5F1F4F0F731127AA
:10077000E02E8C8D8E110CC00FB607FCFACFE889E5
:10078000F989808185FFF5CFCE010E946803F1CF02
:10079000EB8DEC0FFD2FF11DE35AFF4FF0829FB759
:1007A000F8940B8FEA89FB8980818062CFCFCF9349
:1007B000DF93EC01888D8823B9F0AA89BB89E88989
:1007C000F9898C9185FD03C0808186FD0DC00FB62F
:1007D00007FCF7CF8C9185FFF2CF808185FFEDCFAD
:1007E000CE010E946803E9CFDF91CF91089581E99E
:1007F00093E00E945C0321E0892B09F420E0822F22
:10080000089580E090E0892B29F00E94F703811180
:100810000E94000080E090E0892B49F080E090E0A9
:10082000892B29F00E94000081110E94000080E0C5
:1008300090E0892B49F080E090E0892B29F00E941C
:10084000000081110E94000080E090E0892B49F0B7
:1008500080E090E0892B29F00E94000081110C9427
:10086000000008958150823108F05AC0E82FF0E06E
:100870008827E25CFB4F8F4F0C94B8175E0462042C
:10088000500456045A04900465046B046F04750404
:1008900079047D048304870490048B0491049504F7
:1008A000809180008F7780938000089580918000F0
:1008B0008F7DF9CF80918000877FF5CF84B58F77CA
:1008C00084BD089584B58F7DFBCF8091B0008F7774
:1008D0008093B00008958091B0008F7DF9CF809112
:1008E00090008F77809390000895809190008F7D85
:1008F000F9CF80919000877FF5CF8091A0008F770E
:100900008093A00008958091A0008F7DF9CF809101
:10091000A000877FF5CF809120018F778093200101
:100920000895809120018F7DF9CF80912001877FEC
:10093000F5CFCF93DF93282F30E0F901E050FE4F41
:100940008491F901E054FD4FD491F901E658FD4F2F
:10095000C491CC23A1F081110E943204EC2FF0E06D
:10096000EE0FFF1FEA5BFD4FA591B491EC91ED23D3
:1009700081E090E009F480E0DF91CF91089580E07C
:1009800090E0FACF1F93CF93DF93282F30E0F90147
:10099000E050FE4F8491F901E054FD4FD491F901EC
:1009A000E658FD4FC491CC23A9F0162F81110E9467
:1009B0003204EC2FF0E0EE0FFF1FE05AFD4FA5913F
:1009C000B4918FB7F894EC91111108C0D095DE2343
:1009D000DC938FBFDF91CF911F910895DE2BF8CF6D
:1009E000CF93DF9390E0FC01E054FD4F24918658B3
:1009F0009D4FFC0184918823D1F090E0880F991FCE
:100A0000FC01EA51FE4FA591B491FC01E05AFD4F63
:100A1000C591D49161110EC09FB7F8948C91E22FCB
:100A2000E0958E238C932881E223E8839FBFDF919A
:100A3000CF9108958FB7F894EC91E22BEC938FBF90
:100A4000F6CF863308F0865320917B00982F98705C
:100A5000277F922B90937B008770806480937C002B
:100A600080917A00806480937A0080917A0086FD7C
:100A7000FCCF809178009091790008953FB7F89469
:100A80008091810390918203A0918303B0918403AC
:100A900026B5A89B05C02F3F19F00196A11DB11DD9
:100AA0003FBFBA2FA92F982F8827BC01CD01620F15
:100AB000711D811D911D42E0660F771F881F991FD0
:100AC0004A95D1F708958F929F92AF92BF92CF929D
:100AD000DF92EF92FF924B015C010E943E056B0199
:100AE0007C010E943E056C197D098E099F09683EB4
:100AF000734081059105A8F321E0821A9108A108AD
:100B0000B10888EEC80E83E0D81EE11CF11C8114E8
:100B10009104A104B10429F7FF90EF90DF90CF90EA
:100B2000BF90AF909F908F9008952FB7F8946091E9
:100B30007D0370917E0380917F03909180032FBF8E
:100B40000895AF92BF92CF92DF92EF92FF920F93F0
:100B50001F93CF93DF936C017B018B01040F151F53
:100B6000EB015E01AE18BF08C017D10759F06991BB
:100B7000D601ED91FC910190F081E02DC60119950F
:100B8000892B79F7C501DF91CF911F910F91FF90CC
:100B9000EF90DF90CF90BF90AF90089520918703A2
:100BA000309188032817390771F49091850380915B
:100BB0008603981741F0E0918503F0E0E159FD4F7D
:100BC000808190E008958FEF9FEF08950895EF9250
:100BD000FF920F931F93CF93DF93DC015C96ED9010
:100BE000FC905D97E114F10479F481E090E01396B4
:100BF0009C938E93129790E080E0DF91CF911F91AC
:100C00000F91FF90EF9008955196ED91FC915297BE
:100C100050968C915097982F90950FB75E962C9187
:100C20005E97122F127021FD6095F8942081112398
:100C300019F1282B2083E7012197F1F728E0462FAF
:100C400050E0308160FF1AC0382B3083E7012197D4
:100C5000F1F7BA0175956795215089F7112381F055
:100C60008081892380830FBF5C968D919C91019731
:100C7000F1F781E090E0C1CF2923DCCF3923E5CF24
:100C80009081892BEFCF209187033091880328171B
:100C9000390771F4809186032091850390E0805C90
:100CA0009F4F821B910960E470E00E94A417089591
:100CB00090E080E008952091870330918803281701
:100CC0003907B9F49091850380918603981789F0CC
:100CD000E0918503F0E0E159FD4F8081209185038B
:100CE00030E02F5F3F4F2F7333272093850390E031
:100CF00008958FEF9FEF089590E080E00895DC0164
:100D0000EC91E03390F511968C91119728E830E042
:100D1000281B310987FD3395220F331F220F331F04
:100D20006217730784F012968C9128E532E0281B35
:100D3000310987FD3395220F331F220F331F6217AE
:100D400073070CF49B0122503109220F331F4FB758
:100D5000F8948E2F90E0FC01EE0FFF1FE80FF91FB3
:100D6000EE51FD4F328321834FBF08951F93CF93E0
:100D7000DF93EC01162F8881803308F04EC061E0CC
:100D8000812F0E94F0048881282F30E0F901EE0FB6
:100D9000FF1FE20FF31FEE51FD4F1F736081607C58
:100DA000612B608319821A822CE0622F0E949817AF
:100DB000829FB001112430E020E0AB01420F531FAD
:100DC000FA01EE0FFF1FE40FF51FEE51FD4F90816A
:100DD00096FD16C02F5F3F4F2C30310571F78130E3
:100DE00009F51092800082E08093810010928500C6
:100DF00010928400B19A80916F00826080936F009E
:100E0000E8818E2F90E0FC01EE0FFF1FE80FF91F25
:100E1000EE51FD4F8081806480838881DF91CF9186
:100E20001F910895823061F4109290008093910098
:100E3000109295001092940088BB80937100E0CFCF
:100E4000833069F41092A00082E08093A100109298
:100E5000A5001092A40089BB80937200D1CF8111AC
:100E6000CFCF1092200182E08093210110922501C2
:100E7000109224018ABB80937300C2CFAF92BF92BD
:100E8000CF92DF92EF92FF920F931F93CF93DF9356
:100E90006B017A01EC01C659DD4F28813CE0389F97
:100EA0008001399F100D1124A0906E02B12C27FFF4
:100EB0001FC0FB011182108288818F5F8883888127
:100EC0009801280F311D87FD3A95F6012A153B053B
:100ED0001CF488818C30C4F1808191810496803427
:100EE0009C4908F473C0F60180819181049670C01A
:100EF00088819801280F311D87FD3A952A153B05F9
:100F0000DCF68881A801480F511D87FD5A95FA012A
:100F1000EE0FFF1FE40FF51FEE51FD4F808186FF9E
:100F2000CBCF8881F801E80FF11D87FDFA95CF013D
:100F3000EE0FFF1FE80FF91FEE51FD4F808160E0BB
:100F40008F730E94C204B8CF808191812881A8014B
:100F5000420F511D27FD5A959A01FA01EE0FFF1F0E
:100F6000E20FF31FEE51FD4F21813281820F931F5B
:100F7000F7019183808388819801280F311D87FDB7
:100F80003A95F901EE0FFF1FE20FF31FEE51FD4FEF
:100F9000808186FF22C08881080F111D87FD1A9568
:100FA000F801EE0FFF1FE00FF11FEE51FD4F8081A2
:100FB00061E08F73DF91CF911F910F91FF90EF90C0
:100FC000DF90CF90BF90AF900C94C20480E49CE976
:100FD000F701918380838FEF8883DF91CF911F91F9
:100FE0000F91FF90EF90DF90CF90BF90AF9008955A
:100FF000CF92DF92EF92FF9261E080E30E94C20401
:1010000083E290E00197F1F760E080E30E94C20480
:101010000E943E056B017C0181E30E949904892BAB
:10102000A1F40E943E056C197D098E099F0969385B
:101030007E458105910580F360E070E080E89FEBDC
:10104000FF90EF90DF90CF9008950E943E056B01D6
:101050007C0181E30E949904019761F40E943E059E
:101060006C197D098E099F0969387E4581059105B6
:1010700080F3E2CF0E943E056C197D098E099F091D
:101080000E94EE1820E030E048E652E40E94461844
:10109000D7CF0F931F93CF93DF93EC018B01FC010C
:1010A000EE5BFF4F8081882361F1888D998D8617D3
:1010B000970739F12C853D854E855F8560E070E0AE
:1010C000CB010E94D4176C877D878E879F872889E4
:1010D00039894A895B8960E070E0CB010E94D417AE
:1010E000688B798B8A8B9B8B2C893D894E895F8994
:1010F00060E070E0CB010E94D4176C8B7D8B8E8BEF
:101100009F8B198F088FDF91CF911F910F910895B9
:101110008F929F92AF92BF92CF92DF92EF92FF9207
:10112000CF93DF93EC01EE8DFF8DC080D180E28004
:10113000F380CEA2DFA2E8A6F9A6EC8DFD8D80811A
:101140009181A281B3818AA79BA7ACA7BDA7FE010D
:10115000FE9680809180A280B380A5019401C70192
:10116000B6010E94A01918162CF48EA29FA2A8A660
:10117000B9A60CC08AAC9BACACACBDACA5019401CB
:10118000C701B6010E94411887FDEFCFDF91CF91D3
:10119000FF90EF90DF90CF90BF90AF909F908F9097
:1011A00008952F923F924F925F926F927F928F920B
:1011B0009F92AF92BF92CF92DF92EF92FF920F93E6
:1011C0001F93CF93DF931C016A017B0148015901F2
:1011D000A9019801CB01B6010E94A01987FF3BC06D
:1011E000F101C2AED3AEE4AEF5AE8101025C1F4F99
:1011F000F80180829182A282B38234968081882312
:1012000051F1F101C68DD78D488059806A807B806D
:10121000A3019201C501B4010E94411887FF2EC0AD
:1012200088829982AA82BB82F10186A097A0A0A49D
:10123000B1A4F801C080D180E280F380A7019601BB
:10124000C501B4010E94A019F101181624F5C6A227
:10125000D7A2E0A6F1A6DF91CF911F910F91FF9049
:10126000EF90DF90CF90BF90AF909F908F907F9046
:101270006F905F904F903F902F900895A30192013F
:10128000C701B6010E94A019181674F6C882D98247
:10129000EA82FB82C9CFC2ACD3ACE4ACF5ACA70107
:1012A0009601C501B4010E94411887FFD4CFF10116
:1012B000CECF2F923F924F925F926F927F928F92FA
:1012C0009F92AF92BF92CF92DF92EF92FF920F93D5
:1012D0001F93CF93DF93CDB7DEB760970FB6F89427
:1012E000DEBF0FBECDBFFC01EE5BFF4F2081298723
:1012F00021111BC01986898560960FB6F894DEBF50
:101300000FBECDBFDF91CF911F910F91FF90EF9056
:10131000DF90CF90BF90AF909F908F907F906F9015
:101320005F904F903F902F900895988B8F870E94E9
:1013300095056A877B878C879D87EF85F88982A1D1
:1013400093A1A4A1B5A14A855B856C857D85481BC9
:10135000590B6A0B7B0B86A997A9A0ADB1AD4817B5
:1013600059076A077B0730F2048CF58DE02D8081E8
:101370009181A281B3818D839E83AF83B887AF852E
:10138000B8899096ED91FC912D813E814F815885D1
:1013900060817181828193810E94D4176B017C01ED
:1013A000EF85F88922A533A544A555A56D817E81D9
:1013B0008F8198850E94D41769837A838B839C835D
:1013C000AF85B88950962D913D914D915C91539781
:1013D000C701B6010E94A519EF85F88926A137A19A
:1013E00040A551A50E94D5174B015C01AF85B88976
:1013F00096968D929D92AD92BC929997FD01ED5B70
:10140000FF4FB081BE87B1112BC0EF85F8894484AE
:10141000558466847784A301920169817A818B81E6
:101420009C810E94A5199B01AC01C501B4010E94D9
:10143000D417AF85B88996966D937D938D939C93C1
:101440009997C301B201905829813A814B815C81FF
:101450000E94A519EF85F88966A777A780AB91ABA5
:10146000AF85B88996964D905D906D907C909997D8
:10147000FD01FE961081018132802380212F302FC3
:10148000432D522DC301B2010E94A01918160CF071
:1014900091C0812F902FA32DB22DEF85F88986A3BF
:1014A00097A3A0A7B1A7FE85FF2309F49AC0AF8533
:1014B000B8891C962D913D914D915C911F97C70164
:1014C000B6010E94A5196B017C01EF85F889C6A6BB
:1014D000D7A6E0AAF1AAAF85B88954968D909D90C1
:1014E000AD90BC905797A501940169817A818B8159
:1014F0009C810E94A5199B01AC01EF85F88966A12A
:1015000077A180A591A50E94D417A70196010E94FA
:10151000D5176B017C01C501B401905829813A812E
:101520004B815C810E94A519AF85B889D2966D93D5
:101530007D938D939C93D5979601A701612F702F72
:10154000832D922D0E94411887FD14C0EF85F889E4
:1015500012AD03AD34AC25AC212F302F432D522DCD
:10156000B601C7010E94411887FD04C01C2D0D2D36
:101570003E2C2F2CAF85B8895E96ED91FC91812F82
:10158000902FA32DB22D80839183A283B3838D816D
:101590009E81AF81B885EF85F88982A793A7A4A71C
:1015A000B5A78A859B85AC85BD8582A393A3A4A39B
:1015B000B5A3A1CEAF85B889DA968D909D90AD90F8
:1015C000BC90DD97A5019401C301B2010E944118AE
:1015D00087FF69CFEF85F88986A297A2A0A6B1A65A
:1015E00062CFC12CD12C760176CFFB010190002077
:1015F000E9F73197AF01461B570BDC01ED91FC91E8
:101600000280F381E02D19948F929F92AF92BF9246
:10161000EF92FF920F931F93CF93DF93CDB7DEB777
:10162000A1970FB6F894DEBF0FBECDBF7C01FA01C3
:10163000CB0119A2223008F42AE08E010F5D1F4F62
:10164000822E912CB12CA12CBF01A50194010E94E6
:101650007617F901CA016A300CF5605DD8016E9306
:101660008D01232B242B252B79F790E080E0109718
:1016700021F0BD01C7010E94F50AA1960FB6F894AA
:10168000DEBF0FBECDBFDF91CF911F910F91FF90B5
:10169000EF90BF90AF909F908F900895695CDECFE0
:1016A000CF92DF92EF92FF92CF93DF936C01990F6D
:1016B000EE08FF08F7FE23C06DE281E993E00E9487
:1016C0008A03EC0144275527BA014C195D096E09BC
:1016D0007F092AE081E993E00E94040BC80FD91F1B
:1016E00069E272E081E993E00E94F50A8C0F9D1F88
:1016F000DF91CF91FF90EF90DF90CF9008952AE097
:10170000B701A60181E993E00E94040BEC01E8CF48
:101710002F923F924F925F926F927F928F929F9201
:10172000AF92BF92CF92DF92EF92FF921F93CF932F
:10173000DF93EC016A017B01722EAB019601CB01B4
:10174000B6010E94621A6CE272E0811126C0460165
:101750005701E894B7F82FEF3FEF4FE75FE7C50178
:10176000B4010E94621A81110CC02FEF3FEF4FE7C6
:101770005FE7C501B4010E94411860E372E01816EA
:1017800064F02FEF3FEF4FE75FE4C701B6010E941F
:10179000A0191816B4F464E372E0CE01DF91CF9182
:1017A0001F91FF90EF90DF90CF90BF90AF909F90F0
:1017B0008F907F906F905F904F903F902F900C9400
:1017C000F50A2FEF3FEF4FE75FECC701B6010E942C
:1017D000411887FDE0CF20E030E0A901C701B60144
:1017E0000E944118312C212C87FF0DC0E881F9811E
:1017F0000190F081E02D6DE2CE0119951C01F7FA00
:10180000F094F7F8F09410E060E070E080E09FE37F
:10181000711641F020E030E040E251E40E944618A9
:101820001F5FF6CFA70196010E94D5172B013C013F
:101830000E94BF184B015C012AE0BC01A401CE014B
:101840000E94040B7C01E20CF31C1123E1F1C501A1
:10185000B4010E94EE189B01AC01C301B2010E94C9
:10186000D4174B015C01E881F9810190F081E02DF2
:101870006EE2CE011995E80EF91E115020F120E01C
:1018800030E040E251E4C501B4010E94A5192B01EA
:101890003C010E94BF184B01B12CA12C2AE0B501DC
:1018A000A401CE010E94040BE80EF91EC501B4018B
:1018B0000E94EE189B01AC01C301B2010E94D41733
:1018C0004B015C01DACFC701DF91CF911F91FF90EF
:1018D000EF90DF90CF90BF90AF909F908F907F90D0
:1018E0006F905F904F903F902F9008954F925F922E
:1018F0006F927F928F929F92AF92BF92CF92DF9220
:10190000EF92FF92CF93DF93EC010E9495054B017C
:101910005C0180918D0390918E03A0918F03B09113
:1019200090030A96A11DB11D88159905AA05BB054E
:101930000CF04AC088810E942105BC01990F880BD8
:10194000990B0E94F0186B017C012DEC3CEC4CE4EF
:101950005EE36091890370918A0380918B0390917B
:101960008C030E94A5192B013C012DEC3CEC4CE4AE
:101970005FE3C701B6010E94A5199B01AC01C30139
:10198000B2010E94D5176093890370938A038093F4
:101990008B0390938C03CA82DB82EC82FD8280925F
:1019A0008D0390928E03A0928F03B092900322E059
:1019B000B701A60181E993E00E94880B69E272E019
:1019C00081E993E00E94F50ADF91CF91FF90EF90BB
:1019D000DF90CF90BF90AF909F908F907F906F904F
:1019E0005F904F900895CF92DF92EF92FF92CF9346
:1019F000DF93EC012A853B854C855D856A817B817F
:101A00008C819D810E94121A2E813F8148855985C3
:101A10000E94A5196B017C0120E030E040EA52E40D
:101A20000E94A019181634F4C12CD12C80EAE82E9B
:101A300082E4F82EC701B601DF91CF91FF90EF90BD
:101A4000DF90CF9008951F920F920FB60F9211243E
:101A50002F933F938F939F93AF93BF9380917D0379
:101A600090917E03A0917F03B091800330917C031D
:101A700023E0230F2D3758F50196A11DB11D2093AA
:101A80007C0380937D0390937E03A0937F03B093A8
:101A900080038091810390918203A0918303B09190
:101AA00084030196A11DB11D80938103909382034D
:101AB000A0938303B0938403BF91AF919F918F91C3
:101AC0003F912F910F900FBE0F901F90189526E811
:101AD000230F0296A11DB11DD2CF1F920F920FB6F8
:101AE0000F9211240BB60F922F933F934F935F9356
:101AF0006F937F938F939F93AF93BF93EF93FF93D6
:101B000081E993E00E946803FF91EF91BF91AF914B
:101B10009F918F917F916F915F914F913F912F9105
:101B20000F900BBE0F900FBE0F901F9018951F9235
:101B30000F920FB60F9211240BB60F922F938F9323
:101B40009F93EF93FF93E091A103F091A203808113
:101B5000E091A703F091A80382FD1DC090818091C0
:101B6000AA038F5F8F732091AB03821741F0E0913E
:101B7000AA03F0E0EF56FC4F958F8093AA03FF91E4
:101B8000EF919F918F912F910F900BBE0F900FBEF1
:101B90000F901F9018958081F2CF1F920F920FB671
:101BA0000F9211240BB60F922F933F934F935F9395
:101BB0006F937F938F939F93AF93BF93EF93FF9315
:101BC000E0918703F0918803309749F0A685B785A7
:101BD0008585968D91FF16C09C918923B1F4FF9164
:101BE000EF91BF91AF919F918F917F916F915F9195
:101BF0004F913F912F910F900BBE0F900FBE0F9002
:101C00001F9018959C91892351F7A389B4899C91C1
:101C10008589809589238C93868997890197F1F727
:101C2000608D718DA685B785558538E020E0CB01A4
:101C30000197F1F7822F90E095958795282F4C9189
:101C4000452309F02068315091F7868D81FD20955C
:101C50008091860390E001968F73992730918503D8
:101C6000381799F0A0918603B0E0A159BD4F2C938D
:101C700080938603828D938D0197F1F7A389B489B0
:101C80008C919589892B8C93AACF868D8160868FC4
:101C9000F1CF1F920F920FB60F9211240BB60F9235
:101CA0002F933F934F935F936F937F938F939F9364
:101CB000AF93BF93EF93FF9348E251E064E271E08A
:101CC00090E080E00E943E07FF91EF91BF91AF91BD
:101CD0009F918F917F916F915F914F913F912F9144
:101CE0000F900BBE0F900FBE0F901F9018951F9274
:101CF0000F920FB60F9211240BB60F922F933F93B2
:101D00004F935F936F937F938F939F93AF93BF9303
:101D1000EF93FF9348EA50E064EA70E083E090E0DC
:101D20000E943E07FF91EF91BF91AF919F918F91DC
:101D30007F916F915F914F913F912F910F900BBECB
:101D40000F900FBE0F901F9018951F920F920FB615
:101D50000F9211240BB60F922F933F934F935F93E3
:101D60006F937F938F939F93AF93BF93EF93FF9363
:101D700048E950E064E970E082E090E00E943E07AC
:101D8000FF91EF91BF91AF919F918F917F916F9153
:101D90005F914F913F912F910F900BBE0F900FBE0F
:101DA0000F901F9018951F920F920FB60F9211244B
:101DB0000BB60F922F933F934F935F936F937F9345
:101DC0008F939F93AF93BF93EF93FF9348E850E0B7
:101DD00064E870E081E090E00E943E07FF91EF919F
:101DE000BF91AF919F918F917F916F915F914F9133
:101DF0003F912F910F900BBE0F900FBE0F901F9031
:101E00001895FC0190916E02903398F481E0890F4F
:101E100080936E029083892F90E0FC01EE0FFF1FEC
:101E2000E80FF91FEE51FD4F88EB9BE09283818311
:101E300008958FEF808308958F929F92AF92BF9203
:101E4000CF92DF92EF92FF9210929403109293033D
:101E500028EEC22E23E0D22EE12CF12CC092950365
:101E6000D0929603E0929703F092980389E092E073
:101E7000909392038093910385EC90E090939E035E
:101E800080939D0384EC90E09093A00380939F0344
:101E900080EC90E09093A2038093A10381EC90E00A
:101EA0009093A4038093A30382EC90E09093A60305
:101EB0008093A50386EC90E09093A8038093A703FA
:101EC0001092AA031092AB031092AC031092AD03D0
:101ED00086E594E00E94010F83E594E00E94010FE3
:101EE00080E594E00E94010F8DE494E00E94010FD0
:101EF0001092310410923004C0923204D092330414
:101F0000E0923404F09235048BE192E090932F0438
:101F100080932E04109245041092440410924704BA
:101F200010924604109249041092480410924B04F7
:101F300010924A0460914C046E7F6D7F60934C0454
:101F40006695617081E068278BE00E94C20461E0C1
:101F50008BE00E94F004EBECF2E0E491E0933E04AD
:101F6000E5E8F2E0E491F0E0EE0FFF1FE05AFD4FEC
:101F7000859194919093400480933F0460E08AE0BF
:101F80000E94F00480914C0481FD04C061E08AE06D
:101F90000E94C2048AE080933A04EAECF2E0E49101
:101FA000E0933B04E4E8F2E0E491F0E0EE0FFF1F81
:101FB000EA5BFD4F8591949190933D0480933C049E
:101FC0001092D4041092D3041092D5041092D60427
:101FD0001092D7041092D8041092C6041092C5042F
:101FE0001092C7041092C8041092C9041092CA0437
:101FF0001092B8041092B7041092B9041092BA0467
:102000001092BB041092BC041092AA041092A9046E
:102010001092AB041092AC041092AD041092AE0476
:1020200081EA94E090937804809377048DE994E0BA
:10203000909376048093750485EA94E090937A04F3
:102040008093790410929B0410929304109294044C
:10205000109295041092960480E090E0AFE7B3E40C
:102060008093970490939804A0939904B0939A0452
:1020700084E690E0A0E0B0E080938F049093900419
:10208000A0939104B093920470E060E089E594E03D
:102090000E94490881E090E0909374048093730457
:1020A00080939C04812C912C90E8A92E9FE3B92E5B
:1020B0008092590490925A04A0925B04B0925C04FE
:1020C00010925D0410925E0410925F0410926004FE
:1020D00010926104109262041092630410926404DE
:1020E00060918F047091900480919104909192047A
:1020F0000E94EE1820E030E04AE754E40E944618BF
:102100006B017C018092650490926604A092670442
:10211000B092680420E030E0A9010E94A5194B01AB
:102120005C018092690490926A04A0926B04B09260
:102130006C04A701960160E070E0CB010E94461894
:102140006B017C01C0926D04D0926E04E0926F042A
:10215000F09270048091710490917204019751F58E
:1021600080E090E0A0E8BFEB809365049093660464
:10217000A0936704B0936804A501940160E070E047
:10218000CB010E94D4176093690470936A04809312
:102190006B0490936C04A701960160E070E0CB01A2
:1021A0000E94D41760936D0470936E0480936F0443
:1021B000909370040E949505C0908F04D090900475
:1021C000E0909104F09092046C197D098E099F09AA
:1021D00060937B0470937C0480937D0490937E04D1
:1021E000FF90EF90DF90CF90BF90AF909F908F9037
:1021F0000895CF93DF93CDB7DEB7C855D1090FB699
:10220000F894DEBF0FBECDBF789484B5826084BDE4
:1022100084B5816084BD85B5826085BD85B58160EA
:1022200085BD80916E00816080936E001092810068
:102230008091810082608093810080918100816023
:1022400080938100809180008160809380008091E4
:10225000B10084608093B1008091B0008160809370
:10226000B0008091910082608093910080919100F4
:1022700081608093910080919000816080939000B4
:102280008091A10082608093A1008091A100816073
:102290008093A1008091A00081608093A000809134
:1022A00021018260809321018091210181608093CE
:1022B00021018091200181608093200180917A002A
:1022C000846080937A0080917A00826080937A00A3
:1022D00080917A00816080937A0080917A00806892
:1022E00080937A001092C10080E090E0A8E4B2E40C
:1022F00080939D0490939E04A0939F04B093A004A8
:102300001092A1041092A2041092A3041092A404AB
:102310008093A5049093A604A093A704B093A80467
:1023200080919B04811104C089E594E00E94880893
:1023300081E080939B0400E010E028EC32E440E070
:1023400050E068EC72EC89E594E00E94D10870E0FE
:1023500060E089E594E00E94490861E08DE00E9418
:10236000F00461E080E30E94F00460E080E30E94FA
:10237000C2048BE390E09093D4048093D3048AE961
:1023800099E8A6EEB4E48093D9049093DA04A0937C
:10239000DB04B093DC0481EE9AE7A4E7BFEB809303
:1023A000DD049093DE04A093DF04B093E00460E0CA
:1023B0008BE30E94F0048AE390E09093C60480933C
:1023C000C50480E090E9AFE1B6E48093CB0490933C
:1023D000CC04A093CD04B093CE0482E193E8A0E9AD
:1023E000BFEB8093CF049093D004A093D104B0931B
:1023F000D20460E08AE30E94F0048DE390E09093C1
:10240000B8048093B70480E090E0A0E8BFE3809335
:10241000BD049093BE04A093BF04B093C004809306
:10242000C1049093C204A093C304B093C40460E0B9
:102430008DE30E94F00488E390E09093AA048093D7
:10244000A90480E09FE7A5EDB7E48093AF049093E3
:10245000B004A093B104B093B2048BE39FEDAFED51
:10246000BFEB8093B3049093B404A093B504B093EE
:10247000B60460E088E30E94F004FAE0EF2EF12C4D
:1024800010E000E089E30E9421055C010E94500BEE
:102490000A0D1B1D65E070E080E090E00E9463057E
:1024A00021E0E21AF10871F768E372E081E993E054
:1024B0000E94F50AC8010E94500BC8016AE070E052
:1024C0000E94A4177093CD026093CC0261E472E085
:1024D00081E993E00E94F50A8091CC029091CD02AF
:1024E0000E94500B68EE73E080E090E00E9463056C
:1024F0006E0189E4C80ED11C1E0195E4290E311C21
:1025000085EC94E00E94760C87EB94E00E94760CB8
:1025100089EA94E00E94760C83ED94E00E94760CA8
:1025200080917A0390917B038130910561F130F0C5
:10253000029709F418C40E940104E2CF68EE73E028
:1025400080E090E00E9463056EE270E086E594E032
:102550000E94B6066FE270E083E594E00E94B60642
:1025600062E370E080E594E00E94B60663E370E009
:102570008DE494E00E94B60681E090E090937B03A6
:1025800080937A03D8CF0E9495050091B0021091F4
:10259000B1022091B2023091B30206171707280743
:1025A0003907E0F48091AF028F5F8093AF028530EE
:1025B00008F4D1C00E94950564547D4F8F4F9F4F02
:1025C0006093B0027093B1028093B2029093B30211
:1025D00060E08DE00E94C2041092AF02E09003021E
:1025E000F0900402A5E0EA16F10409F496C208F09E
:1025F000CBC0E4E0EE16F10409F0BECF0E945C020D
:1026000080910002882311F10E94B80180E090E0DF
:10261000A0E2B1E48093A5049093A604A093A7043C
:10262000B093A80400E010E028EC32E440E050E071
:1026300068EC72EC89E594E00E94D10861E070E0FA
:1026400089E594E00E9449081092000283ED94E02D
:102650000E94760C83ED94E00E94F30C4090B60249
:102660005090B7026090B8027090B90260939D04D8
:1026700070939E0480939F049093A00489E594E056
:102680000E9459098090A1049090A204A090A304F4
:10269000B090A4048092B6029092B702A092B802C1
:1026A000B092B902A5019401C301B2010E94411880
:1026B000882309F42BC2C501B4010E94B8184B014C
:1026C00002E716E0061B170BB80186E594E00E94AE
:1026D0007F06B80183E594E00E947F0606E415E0DA
:1026E00008191909B80180E594E00E947F06B80135
:1026F0008DE494E00E947F060E94F807AB01BC01C4
:1027000022E08EE294E00E94880B0E94F80720E00D
:1027100030E040E251E40E94411887FFF2C180910D
:10272000B4029091B50201969093B5028093B402E1
:10273000049734F081E080930002E5E0EE2EF12C66
:10274000F0920402E09203026696EFAE66976796F7
:10275000FFAE679711CF0E9495056C597F4F8F4F41
:102760009F4F6093B0027093B1028093B202909336
:10277000B3028DE00E94990461E0892B09F060E0CA
:102780008DE00E94C2042ACFF6E0EF16F10409F4AE
:102790000AC227E0E216F10409F0EECED8A2CF8EED
:1027A0003E8E2D8EADE4B0E0AC0FBD1FBAA3A9A341
:1027B00024961FAE24971BAE1CAE1DAE1EAE80E04D
:1027C00090E0AFE7B3E423968CAF9DAFAEAFBFAF61
:1027D000239784E690E0A0E0B0E08FAB98AFA9AF7C
:1027E000BAAF61E070E0CE0101960E94490881E035
:1027F00090E09C8F8B8F25968FAF25978DEC9CEC6E
:10280000ACECBDE389839A83AB83BC831D821E82BB
:102810001F82188619861A861B861C866FA978ADBA
:1028200089AD9AAD0E94EE1820E030E04AE754E40A
:102830000E9446184B015C018DEC9CECACECBDE3B6
:102840008D879E87AF87B88B20E030E0A901C50156
:10285000B4010E94A5192B013C01498A5A8A6B8A4E
:102860007C8AA501940160E070E0CB010E944618CB
:102870004B015C018D8A9E8AAF8AB88E898D9A8DB4
:102880000197F1F48DEC9CECACECBDEB8D879E8751
:10289000AF87B88BA301920160E070E0CB010E948A
:1028A000D417698B7A8B8B8B9C8BA501940160E08C
:1028B00070E0CB010E94D4176D8B7E8B8F8B988F2D
:1028C0000E9495050FA918AD29AD3AAD601B710B9B
:1028D000820B930B6BA37CA38DA39EA3809102021A
:1028E0008823E1F11092D2021092D3021092D40206
:1028F0001092D502D1011D921D921D921C92139728
:1029000080E090E0A0E8BFE3F60180839183A2839A
:10291000B38380E090E0A0E7B2E461968CAF9DAF16
:10292000AEAFBFAF619724968FAD2497811104C0DD
:10293000CE0101960E94880881E024968FAF2497EB
:1029400000E010E020E83FE340E050E060E87FEB8B
:10295000CE0101960E94D108109202020E949505B4
:102960002091DA0221110BC06093D6027093D70236
:102970008093D8029093D90281E08093DA020E947A
:102980009505AB01BC018091CE029091CF02A09140
:10299000D002B091D1020596A11DB11D84179507F3
:1029A000A607B7070CF04DC089E30E9421052091CE
:1029B000CC023091CD02821B930B9C012F5F3F4FC5
:1029C0002330310510F490E080E0BC01990F880BB2
:1029D000990B0E94F01824EF3DEF44ED5BE30E9459
:1029E000461828E638EE4FE95BE30E94A51920E07F
:1029F00030E040EA50E40E94A51920E030E04AE7C8
:102A000054E40E9446189B01AC016091D20270917F
:102A1000D3028091D4029091D5020E94D517609381
:102A2000D2027093D3028093D4029093D5020E9475
:102A300095056093CE027093CF028093D00290935D
:102A4000D1028091D2029091D302A091D402B09190
:102A5000D502F10180839183A283B383CE010196D5
:102A60000E945909D6018D909D90AD90BC900E9416
:102A70009505AB01BC018091D6029091D702A0913F
:102A8000D802B091D9028C599F4FAF4FBF4F8417D6
:102A90009507A607B70774F54093D6025093D7025F
:102AA0006093D8027093D90220E030E046E153E40D
:102AB000C501B4010E94A5199B01AC0160E070E85A
:102AC0008BEB94E40E94D4170E94B8184B0186E562
:102AD00094E00E947F06B40183E594E00E947F06A3
:102AE000B40180E594E00E947F06B4018DE494E097
:102AF0000E947F0687E090E0909304028093030297
:102B00003BCD1092B5021092B4021ACE6696EFAC8D
:102B100066976796FFAC679713CE8091BE028111CE
:102B20000DC00E9495056093BA027093BB0280931A
:102B3000BC029093BD0281E08093BE0262E776E022
:102B400086E594E00E947F0666E475E083E594E004
:102B50000E947F0666E475E080E594E00E947F06AF
:102B600062E776E08DE494E00E947F068090BA02EE
:102B70009090BB02A090BC02B090BD0288EE880E7F
:102B800083E0981EA11CB11C0E949505861697062D
:102B9000A806B90618F476E0E72EF12CF0920402AC
:102BA000E0920302E9CC0E945C028091010288233A
:102BB00011F10E94B80180E090E0A0EFB1E48093B1
:102BC000A5049093A604A093A704B093A80400E0E2
:102BD00010E028EC32E440E050E068EC72EC89E56B
:102BE00094E00E94D10870E060E089E594E00E94E2
:102BF00049081092010285EC94E00E94F30C2B012D
:102C00003C018091C8029091C902A091CA02B09182
:102C1000CB0265968CAF9DAFAEAFBFAF65974092CC
:102C20009D0450929E0460929F047092A00489E5D6
:102C300094E00E9459098090A1049090A204A09071
:102C4000A304B090A4048092C8029092C902A092FA
:102C5000CA02B092CB02A501940165966CAD7DAD20
:102C60008EAD9FAD65970E944118882309F474C00A
:102C7000C501B4010E94B8184B0106E415E0061B1B
:102C8000170BB80186E594E00E947F06B80183E542
:102C900094E00E947F0602E716E008191909B801BE
:102CA00080E594E00E947F06B8018DE494E00E94E4
:102CB0007F0666E572E08EE294E00E94F50A22E06B
:102CC000B301A2018EE294E00E94880B6EE572E0EF
:102CD0008EE294E00E94F50A4091C8025091C90228
:102CE0006091CA027091CB0222E08EE294E00E94D1
:102CF000880B69E272E08EE294E00E94F50A89EAAC
:102D000094E00E94F30C20E030E040E251E40E94A5
:102D1000411887FF1CC08091C6029091C70201969E
:102D20009093C7028093C602049734F081E08093A9
:102D3000010265E0E62EF12CF0920402E09203021B
:102D40006896EFAE68976996FFAE699715CC1092BA
:102D5000C7021092C602F0CF6896EFAC68976996EA
:102D6000FFAC6997E9CF6CED75E086E594E00E94D1
:102D70007F066CED75E083E594E00E947F066CEDC4
:102D800075E080E594E00E947F066CED75E08DE4CF
:102D900094E00E947F06E09156048E2F90E0FC01A3
:102DA000EE0FFF1FE80FF91FEE51FD4F80818F7B63
:102DB0008083E09153048E2F90E0FC01EE0FFF1F03
:102DC000E80FF91FEE51FD4F80818F7B8083E091EA
:102DD00050048E2F90E0FC01EE0FFF1FE80FF91F4B
:102DE000EE51FD4F80818F7B8083E0914D048E2FCB
:102DF00090E0FC01EE0FFF1FE80FF91FEE51FD4FB1
:102E000080818F7B808360E08EE20E94F00460E02E
:102E10008FE20E94F00460E082E30E94F00460E030
:102E200083E30E94F0040E949505009172031091C3
:102E300073032091740330917503601B710B820B37
:102E4000930B613D774081059105A0F00E949505A7
:102E5000609372037093730380937403909375036C
:102E60008DE00E94990461E0892B09F060E08DE01B
:102E70000E94C2040E949505009176031091770389
:102E80002091780330917903601B710B820B930BB7
:102E9000653F71408105910550F00E949505609352
:102EA000760370937703809378039093790382E09D
:102EB00090E064CB8BE192E090932F0480932E04FA
:102EC00080918703909188038E52944071F4E09131
:102ED0004104F091420490818091430480958923BC
:102EE000808310928803109287030895A1E21A2E1E
:102EF000AA1BBB1BFD010DC0AA1FBB1FEE1FFF1F9E
:102F0000A217B307E407F50720F0A21BB30BE40BED
:102F1000F50B661F771F881F991F1A9469F7609534
:102F20007095809590959B01AC01BD01CF010895EE
:102F3000991B79E004C0991F961708F0961B881F0B
:102F40007A95C9F78095089597FB072E16F400949B
:102F500007D077FD09D00E94C01707FC05D03EF4CA
:102F6000909581959F4F0895709561957F4F089535
:102F7000EE0FFF1F881F8BBF0790F691E02D19946D
:102F8000AA1BBB1B51E107C0AA1FBB1FA617B7078F
:102F900010F0A61BB70B881F991F5A95A9F78095AB
:102FA0009095BC01CD0108955058BB27AA270E94D7
:102FB000EC170C9466190E94581938F00E945F199A
:102FC00020F039F49F3F19F426F40C9455190EF4AF
:102FD000E095E7FB0C944F19E92F0E94771958F3FD
:102FE000BA17620773078407950720F079F4A6F5EE
:102FF0000C9499190EF4E0950B2EBA2FA02D0B010D
:10300000B90190010C01CA01A0011124FF27591B2D
:1030100099F0593F50F4503E68F11A16F040A22F33
:10302000232F342F4427585FF3CF469537952795A4
:10303000A795F0405395C9F77EF41F16BA0B620BA3
:10304000730B840BBAF09150A1F0FF0FBB1F661FEA
:10305000771F881FC2F70EC0BA0F621F731F841F2D
:1030600048F4879577956795B795F7959E3F08F053
:10307000B0CF9395880F08F09927EE0F9795879515
:1030800008950E942B1908F481E008950E945A18AF
:103090000C9466190E945F1958F00E94581940F06C
:1030A00029F45F3F29F00C944F1951110C949A198F
:1030B0000C9455190E94771968F39923B1F355239D
:1030C00091F3951B550BBB27AA276217730784073B
:1030D00038F09F5F5F4F220F331F441FAA1FA9F3D1
:1030E00035D00E2E3AF0E0E832D091505040E695BF
:1030F000001CCAF72BD0FE2F29D0660F771F881F20
:10310000BB1F261737074807AB07B0E809F0BB0B12
:10311000802DBF01FF2793585F4F3AF09E3F510526
:1031200078F00C944F190C949A195F3FE4F3983E91
:10313000D4F3869577956795B795F7959F5FC9F70F
:10314000880F911D9695879597F90895E1E0660F90
:10315000771F881FBB1F621773078407BA0720F009
:10316000621B730B840BBA0BEE1F88F7E095089572
:103170000E94BF186894B1110C949A1908950E9486
:103180007F1988F09F5798F0B92F9927B751B0F061
:10319000E1F0660F771F881F991F1AF0BA95C9F7DB
:1031A00014C0B13091F00E949919B1E008950C94C7
:1031B0009919672F782F8827B85F39F0B93FCCF37A
:1031C000869577956795B395D9F73EF49095809558
:1031D000709561957F4F8F4F9F4F0895E89409C078
:1031E00097FB3EF490958095709561957F4F8F4F3A
:1031F0009F4F9923A9F0F92F96E9BB279395F69550
:10320000879577956795B795F111F8CFFAF4BB0FCD
:1032100011F460FF1BC06F5F7F4F8F4F9F4F16C031
:10322000882311F096E911C0772321F09EE8872FBB
:10323000762F05C0662371F096E8862F70E060E077
:103240002AF09A95660F771F881FDAF7880F9695F0
:10325000879597F90895990F0008550FAA0BE0E894
:10326000FEEF16161706E807F907C0F01216130648
:10327000E407F50798F0621B730B840B950B39F488
:103280000A2661F0232B242B252B21F408950A26EE
:1032900009F4A140A6958FEF811D811D089597F92E
:1032A0009F6780E870E060E008959FEF80EC0895EC
:1032B00000240A9416161706180609060895002415
:1032C0000A9412161306140605060895092E03948F
:1032D000000C11F4882352F0BB0F40F4BF2B11F403
:1032E00060FF04C06F5F7F4F8F4F9F4F089557FD62
:1032F0009058440F551F59F05F3F71F04795880F64
:1033000097FB991F61F09F3F79F0879508951216FA
:1033100013061406551FF2CF4695F1DF08C01616A6
:1033200017061806991FF1CF869571056105089457
:103330000895E894BB2766277727CB0197F908956E
:103340000E942B1908F48FEF08950E94B8190C946D
:1033500066190E94581938F00E945F1920F09523D1
:1033600011F00C944F190C94551911240C949A19BE
:103370000E94771970F3959FC1F3950F50E0551F88
:10338000629FF001729FBB27F00DB11D639FAA27BA
:10339000F00DB11DAA1F649F6627B00DA11D661F09
:1033A000829F2227B00DA11D621F739FB00DA11D2A
:1033B000621F839FA00D611D221F749F3327A00DE4
:1033C000611D231F849F600D211D822F762F6A2F80
:1033D00011249F5750409AF0F1F088234AF0EE0FE5
:1033E000FF1FBB1F661F771F881F91505040A9F712
:1033F0009E3F510580F00C944F190C949A195F3F31
:10340000E4F3983ED4F3869577956795B795F7954D
:10341000E7959F5FC1F7FE2B880F911D96958795C5
:1034200097F90895FA01EE0FFF1F30962105310537
:10343000A1F16115710561F48038BFE39B0749F183
:1034400068949038810561F08038BFEF9B0741F0A8
:1034500099234AF5FF3FE1053105210519F1E8946B
:103460000894E795D901AA2329F4AB2FBE2FF85F62
:10347000D0F310C0FF5F70F4A695E0F7F73950F075
:1034800019F0FF3A38F49F779F930DD00F9007FC07
:103490009058089546F00C94551960E070E080E86B
:1034A0009FE308954FE79F775F934F933F932F9349
:1034B0000E94121B2F913F914F915F910E94A5197D
:1034C0000C946F1A0E942B19880B990B089529F4FC
:1034D00016F00C944F190C9499190C9455190E94DC
:1034E0007F19A8F39638A0F707F80F92E8942BE31A
:1034F0003AEA48EB5FE70E94BB190F920F920F92D6
:103500004DB75EB70F920E945A1BE4EEF0E00E94A6
:10351000A11A4F915F91EF91FF91E595EE1FFF1F6B
:1035200049F0FE57E0684427EE0F441FFA95E1F793
:103530004195550B0E94D41A0F9007FE0C94C81A9F
:103540000895DF93CF931F930F93FF92EF92DF9233
:103550007B018C01689406C0DA2EEF010E94B81935
:10356000FE01E894A5912591359145915591A6F3D9
:10357000EF010E94EC17FE019701A801DA9469F7A8
:10358000DF90EF90FF900F911F91CF91DF91089501
:103590009B01AC0160E070E080E89FE30C9446186A
:1035A0000C944F190C948E1B0E947F19D8F3992309
:1035B000C9F3940F511DA3F39150504094F059F06A
:1035C000882332F0660F771F881F91505040C1F753
:1035D0009E3F51052CF7880F911D9695879597F979
:1035E00008955F3FACF0983E9CF0BB278695779599
:1035F0006795B79508F4B1609395C1F7BB0F58F77D
:1036000011F460FFE8CF6F5F7F4F8F4F9F4FE3CF85
:103610000C949A1916F00C948E1B0C9455196894FE
:103620000C944F190E947F19A8F39923C1F3AEF3AC
:10363000DF93CF931F930F93FF92C92FDD2788232A
:103640002AF02197660F771F881FDAF720E030E015
:1036500040E85FEB9FE3883920F0803E38F0219608
:103660008F770E94D517ECE0F1E004C00E94D517D7
:10367000E9E3F1E00E94A11A8B01BE01EC01FB2EEF
:103680006F5771097595771F880B990B0E94F01879
:1036900028E132E741E35FE30E94B819AF2D9801BA
:1036A000AE01FF900F911F91CF91DF910E94EC1717
:1036B0000C946619FA01DC01AA0FBB1F9B01AC0137
:1036C000BF5728F4222733274427507820C0B7510A
:1036D00090F4AB2F0024469537952795011CA395B0
:1036E000D2F3002071F0220F331F441FB395DAF399
:1036F0000ED00C94D41761307105A0E88A07B94642
:1037000030F49B01AC0166277727882790783096A4
:1037100021F0208331834283538308959F3F31F00A
:10372000915020F4879577956795B795880F911DEF
:103730009695879597F9089511E0C4E8D1E000E0E7
:1037400006C0802FFE010E94B8172196011DC538C2
:0C375000D10780E00807A9F7F894FFCF2C
:10375C000101010300000000008A03A1052B03D71F
:10376C00035C033A034E0300000000E705A1057C4F
:10377C0006E60543065B06CE050D0A006E616E007B
:10378C00696E66006F76660073756D2069733A20FA
:10379C00007A65726F4779726F566F6C74616765EA
:1037AC002069733A2000696E7075743A20002C20E1
:0A37BC006F75747075743A200000F8
:00000001FF
