:100000000C94AB010C94DC010C94DC010C94DC012D
:100010000C94DC010C94DC010C94DC010C94DC01EC
:100020000C94DC010C94320F0C94320F0C94320FB0
:100030000C94DC010C94DC010C94DC010C94DC01CC
:100040000C94DC010C9438100C94DC010C94DC0151
:100050000C94DC010C94DC010C94DC010C94880EF3
:100060000C94DC010C94FC0E0C94D20E0C94DC016C
:100070000C94DC010C94DC010C94DC010C94DC018C
:100080000C940A100C94DC010C94DC010C94DC013F
:100090000C94DC010C94DC010C94DC010C94DC016C
:1000A0000C94DC010C94DC010C94DC0F0C94DC014E
:1000B0000C94DC010C94DC010C94DC010C94AE0F6C
:1000C0000C94DC010C94DC010C94DC010C94DC013C
:1000D0000C94DC010C94DC010C94DC010C94DC012C
:1000E0000C94DC0107634236B79BD8A71A396856CF
:1000F00018AEBAAB558C1D3CB7CC5763BD6DEDFD4A
:10010000753EF6177231BF000000803F0800000006
:10011000BE922449123EABAAAA2ABECDCCCC4C3EFC
:1001200000000080BEABAAAAAA3E00000000BF00EB
:100130000000803F0000000000084178D3BB4387E7
:10014000D1133D190E3CC3BD4282AD2B3E68EC82FB
:1001500076BED98FE1A93E4C80EFFFBE01C4FF7F80
:100160003F00000000000C943A030C94A0060C948D
:1001700044030C9464190C943E030C9473060C9481
:10018000DE010C941E030C94E2150C9464180C947C
:1001900030030C9422030C94E9150C940F020C9478
:1001A00036030C942D070C94C01A0C949D150C94D6
:1001B0008F160C940D030C946A1B0C9415030C946D
:1001C00015070C94ED010C94B8060C9409030C94DB
:1001D00047180C942C180C943D1A0C948A180C9403
:1001E0002C030C9481100C943D020C9490170C94E9
:1001F00028030C9434190C9411030C942F180C94AC
:1002000018030C9401020C9448030C944E070C94B0
:1002100013180C94361A0C946F180C94B9060C949D
:1002200003030C948A020C9456180C9443030C9408
:100230007C1800002100240027002A002D00300037
:10024000330001010000040107010A0100000A0B4C
:1002500002090C0D0E080703040100000000000055
:10026000000000000000000000000000000000008E
:10027000000000000000000012111000000000004B
:10028000000000000000000000000000000000006E
:100290000000000020002300260029002C002F0071
:1002A00032000001000003010601090100002200E4
:1002B000250028002B002E00310034000201000030
:1002C000050108010B0105050505070508080808D3
:1002D000020202020A0A08080404040401010101DE
:1002E00001010101030303030303030304070707D9
:1002F0000C0C0C0C0C0C0C0C02020202060606067E
:10030000060606060B0B0B0B0B0B0B0B010210204A
:10031000200808102040102040800201020108043B
:1003200002010102040810204080804020100804CF
:100330000201800402018040201008040201080428
:10034000020101020408102040800102040810206C
:10035000408081106A1B11241FBECFEFD1E2DEBFA7
:10036000CDBF00E00CBF12E0A0E0B2E0E2E7FFE3A7
:1003700000E00BBF02C007900D92AA37B107D9F772
:1003800025E0AAE7B2E001C01D92A138B207E1F76B
:1003900011E0CAEAD1E000E006C021970109802FF0
:1003A000FE010E94C81BC93AD10780E00807A9F7DF
:1003B0000E943B120C94A71F0C940000FC01538D6B
:1003C000448D252F30E0842F90E0821B930B54172F
:1003D00010F0CF96089501970895FC01918D828DBC
:1003E000981761F0A28DAE0FBF2FB11D5D968C9155
:1003F000928D9F5F9F73928F90E008958FEF9FEF94
:100400000895FC01918D828D981731F0828DE80F4F
:10041000F11D858D90E008958FEF9FEF0895FC0109
:10042000918D228D892F90E0805C9F4F821B9109D6
:100430008F7399270895FC01A48DA80FB92FB11DC2
:10044000A35ABF4F2C91848D90E001968F7399270A
:10045000848FA689B7892C93A089B1898C918370E8
:1004600080648C93938D848D981306C00288F389E1
:10047000E02D80818F7D80830895EF92FF920F930E
:100480001F93CF93DF93EC0181E0888F9B8D8C8D40
:1004900098131AC0E889F989808185FF15C09FB734
:1004A000F894EE89FF896083E889F98980818370F7
:1004B000806480839FBF81E090E0DF91CF911F91A6
:1004C0000F91FF90EF900895F62E0B8D10E00F5FC7
:1004D0001F4F0F731127E02E8C8D8E110CC00FB69D
:1004E00007FCFACFE889F989808185FFF5CFCE0135
:1004F0000E941B02F1CFEB8DEC0FFD2FF11DE35A93
:10050000FF4FF0829FB7F8940B8FEA89FB898081B7
:100510008062CFCFCF93DF93EC01888D8823B9F031
:10052000AA89BB89E889F9898C9185FD03C08081FE
:1005300086FD0DC00FB607FCF7CF8C9185FFF2CF7B
:10054000808185FFEDCFCE010E941B02E9CFDF91B4
:10055000CF91089581EE93E00E940F0221E0892B54
:1005600009F420E0822F089580E090E0892B29F0A3
:100570000E94AA0281110E94000080E090E0892B75
:1005800049F080E090E0892B29F00E940000811161
:100590000E94000080E090E0892B49F080E090E02C
:1005A000892B29F00E94000081110E94000080E048
:1005B00090E0892B49F080E090E0892B29F00E949F
:1005C000000081110C94000008958150823108F0E0
:1005D0005AC0E82FF0E08827EF50FD4F8F4F0C9462
:1005E000C81B11031503030309030D034303180379
:1005F0001E03220328032C03300336033A0343036C
:100600003E0344034803809180008F7780938000ED
:100610000895809180008F7DF9CF80918000877F41
:10062000F5CF84B58F7784BD089584B58F7DFBCFDA
:100630008091B0008F778093B00008958091B000D2
:100640008F7DF9CF809190008F77809390000895EF
:10065000809190008F7DF9CF80919000877FF5CFBA
:100660008091A0008F778093A00008958091A000D2
:100670008F7DF9CF8091A000877FF5CF80912001F9
:100680008F77809320010895809120018F7DF9CF8D
:1006900080912001877FF5CFCF93DF93282F30E023
:1006A000F901E45BFD4F8491F901E45FFC4FD491C3
:1006B000F901EA53FD4FC491CC23A1F081110E94AE
:1006C000E502EC2FF0E0EE0FFF1FEE56FD4FA59177
:1006D000B491EC91ED2381E090E009F480E0DF91AA
:1006E000CF91089580E090E0FACF1F93CF93DF93EE
:1006F000282F30E0F901E45BFD4F8491F901E45FBC
:10070000FC4FD491F901EA53FD4FC491CC23A9F0D9
:10071000162F81110E94E502EC2FF0E0EE0FFF1F73
:10072000E455FD4FA591B4918FB7F894EC91111158
:1007300008C0D095DE23DC938FBFDF91CF911F914E
:100740000895DE2BF8CFCF93DF9390E0FC01E45FB8
:10075000FC4F24918A539D4FFC0184918823D1F052
:1007600090E0880F991FFC01EE5CFD4FA591B491BC
:10077000FC01E455FD4FC591D49161110EC09FB7A6
:10078000F8948C91E22FE0958E238C932881E223BC
:10079000E8839FBFDF91CF9108958FB7F894EC91D4
:1007A000E22BEC938FBFF6CF863308F0865320916F
:1007B0007B00982F9870277F922B90937B008770F7
:1007C000806480937C0080917A00806480937A00BA
:1007D00080917A0086FDFCCF80917800909179001D
:1007E00008953FB7F8948091B1039091B203A0911E
:1007F000B303B091B40326B5A89B05C02F3F19F0F1
:100800000196A11DB11D3FBFBA2FA92F982F882790
:10081000BC01CD01620F711D811D911D42E0660F6B
:10082000771F881F991F4A95D1F708958F929F923D
:10083000AF92BF92CF92DF92EF92FF924B015C0199
:100840000E94F1036B017C010E94F1036C197D0988
:100850008E099F09683E734081059105A8F321E048
:10086000821A9108A108B10888EEC80E83E0D81E4C
:10087000E11CF11C81149104A104B10429F7FF903B
:10088000EF90DF90CF90BF90AF909F908F900895A2
:100890002FB7F8946091AD037091AE038091AF03D0
:1008A0009091B0032FBF08952F923F924F925F9285
:1008B0006F927F928F929F92AF92BF92CF92DF9270
:1008C000EF92FF920F931F93CF93DF93CDB7DEB7D5
:1008D0002E970FB6F894DEBF0FBECDBF3090EB045D
:1008E00031101BC0312C832D2E960FB6F894DEBF2D
:1008F0000FBECDBFDF91CF911F910F91FF90EF9071
:10090000DF90CF90BF90AF909F908F907F906F902F
:100910005F904F903F902F9008950E944804698700
:100920007A878B879C878091CB049091CC04A0918F
:10093000CD04B091CE0449855A856B857C85481BD2
:10094000590B6A0B7B0B8091DF049091E004A0911E
:10095000E104B091E204481759076A077B0710F2D7
:10096000E091C504F091C60480819181A281B38198
:100970008D839E83AF83B887E091C904F091CA0448
:100980009C01AD0160817181828193810E94E41B91
:100990004B015C012091D3043091D4044091D504E3
:1009A0005091D6046D817E818F8198850E94E41BD1
:1009B0006B017C012091B9043091BA044091BB04D1
:1009C0005091BC04C501B4010E94B51D2091CF0413
:1009D0003091D0044091D1045091D2040E94E51B83
:1009E0002B013C014092CF045092D0046092D1047C
:1009F0007092D2042090EC04211031C08091B50493
:100A00009091B604A091B704B091B80489839A83F9
:100A1000AB83BC839C01AD01C701B6010E94B51D2B
:100A20009B01AC01C301B2010E94E41B6093CF049F
:100A30007093D0048093D1049093D20469817A8119
:100A40008B819C819058A70196010E94B51D6093EF
:100A5000D7047093D8048093D9049093DA0440901B
:100A6000CF045090D0046090D1047090D2041091C3
:100A7000E7049091E8049E87A091E904AD87009176
:100A8000EA04212F392F4A2F502FC301B2010E94AF
:100A9000B01D18160CF09BC0812F9E85AD85B02F20
:100AA0008093CF049093D004A093D104B093D20448
:100AB000222009F4A5C02091B5043091B6044091DC
:100AC000B7045091B804C501B4010E94B51D4B0193
:100AD0005C018092D7049092D804A092D904B0927D
:100AE000DA044090BD045090BE046090BF04709042
:100AF000C004A3019201C701B6010E94B51D9B016C
:100B0000AC016091CF047091D0048091D104909198
:100B1000D2040E94E41BA50194010E94E51B4B0135
:100B20005C01C301B2019058A70196010E94B51D56
:100B30006093DB047093DC048093DD049093DE0407
:100B40009401A501612F7E858D85902F0E94511CF7
:100B500087FD18C01091E3049091E4049E87A09152
:100B6000E504AD870091E604212F392F4A2F502F3D
:100B7000B401C5010E94511C87FD04C0182D9E863A
:100B8000AD860B2DE091C704F091C804812F9E859E
:100B9000AD85B02F80839183A283B3838D819E81A5
:100BA000AF81B8858093D3049093D404A093D504E7
:100BB000B093D60489859A85AB85BC858093CB0498
:100BC0009093CC04A093CD04B093CE048CCE8091AE
:100BD000E3049091E404A091E504B091E6048983D4
:100BE0009A83AB83BC839C01AD01C301B2010E9417
:100BF000511C87FF5DCF89819A81AB81BC8150CF29
:100C0000812C912C54016DCF4F925F926F927F9205
:100C10008F929F92AF92BF92CF92DF92EF92FF920C
:100C2000CF93DF93EC010E9448046B017C0180911B
:100C3000DD039091DE03A091DF03B091E0030A96FB
:100C4000A11DB11D8C159D05AE05BF05ECF5888174
:100C50000E94D403BC01990F880B990B0E94001DC0
:100C60004B015C0120E030E040E05FE36091D9039C
:100C70007091DA038091DB039091DC030E94B51D33
:100C80002B013C0120E030E040E05FE3C501B4010E
:100C90000E94B51D9B01AC01C301B2010E94E51B7E
:100CA0006093D9037093DA038093DB039093DC03A2
:100CB0008A829B82AC82BD82C092DD03D092DE0329
:100CC000E092DF03F092E003DF91CF91FF90EF908D
:100CD000DF90CF90BF90AF909F908F907F906F905C
:100CE0005F904F900895AF92BF92CF92DF92EF92B4
:100CF000FF920F931F93CF93DF936C017B018B01C6
:100D0000040F151FEB015E01AE18BF08C017D10715
:100D100059F06991D601ED91FC910190F081E02D9F
:100D2000C6011995892B79F7C501DF91CF911F91E4
:100D30000F91FF90EF90DF90CF90BF90AF9008950C
:100D40002091E7023091E8022817390771F4909159
:100D5000E5028091E602981741F0E091E502F0E0AB
:100D6000E058FD4F808190E008958FEF9FEF089548
:100D70000895EF92FF920F931F93CF93DF93DC01BF
:100D80005C96ED90FC905D97E114F10479F481E0BC
:100D900090E013969C938E93129790E080E0DF9101
:100DA000CF911F910F91FF90EF9008955196ED9183
:100DB000FC91529750968C915097982F90950FB721
:100DC0005E962C915E97122F127021FD6095F8941B
:100DD0002081112319F1282B2083E7012197F1F7B6
:100DE00028E0462F50E0308160FF1AC0382B308356
:100DF000E7012197F1F7BA0175956795215089F7B9
:100E0000112381F08081892380830FBF5C968D91AF
:100E10009C910197F1F781E090E0C1CF2923DCCFCD
:100E20003923E5CF9081892BEFCF2091E7023091D4
:100E3000E8022817390771F48091E6022091E50253
:100E400090E0805C9F4F821B910960E470E00E94FB
:100E5000B41B089590E080E008952091E70230915E
:100E6000E80228173907B9F49091E5028091E6026B
:100E7000981789F0E091E502F0E0E058FD4F80819D
:100E80002091E50230E02F5F3F4F2F7333272093EF
:100E9000E50290E008958FEF9FEF089590E080E0E5
:100EA0000895DC01EC91E03390F511968C91119747
:100EB00028E830E0281B310987FD3395220F331FC6
:100EC000220F331F6217730784F012968C9128E566
:100ED00032E0281B310987FD3395220F331F220F83
:100EE000331F621773070CF49B0122503109220F44
:100EF000331F4FB7F8948E2F90E0FC01EE0FFF1FC9
:100F0000E80FF91FEC5EFC4F328321834FBF089539
:100F1000CF92DF92EF92FF926B017C0180911502DC
:100F2000882361F00E9448046093CD037093CE0340
:100F30008093CF039093D0031092150264EA76E079
:100F400086EA94E00E94510764E175E083EA94E048
:100F50000E94510764E175E080EA94E00E94510725
:100F600064EA76E08DE994E00E9451078091CD0318
:100F70009091CE03A091CF03B091D003C80ED91E9B
:100F8000EA1EFB1E0E944804C616D706E806F906AC
:100F900050F481E08093150289E090E0FF90EF909B
:100FA000DF90CF90089588E090E0F8CF1F93CF9323
:100FB000DF93EC01162F8881803308F04EC061E08A
:100FC000812F0E94A3038881282F30E0F901EE0FC2
:100FD000FF1FE20FF31FEC5EFC4F1F736081607C0C
:100FE000612B608319821A822CE0622F0E94A81B59
:100FF000829FB001112430E020E0AB01420F531F6B
:10100000FA01EE0FFF1FE40FF51FEC5EFC4F90811D
:1010100096FD16C02F5F3F4F2C30310571F78130A0
:1010200009F51092800082E0809381001092850083
:1010300010928400B19A80916F00826080936F005B
:10104000E8818E2F90E0FC01EE0FFF1FE80FF91FE3
:10105000EC5EFC4F8081806480838881DF91CF913A
:101060001F910895823061F4109290008093910056
:10107000109295001092940088BB80937100E0CF8D
:10108000833069F41092A00082E08093A100109256
:10109000A5001092A40089BB80937200D1CF81116A
:1010A000CFCF1092200182E0809321011092250180
:1010B000109224018ABB80937300C2CFAF92BF927B
:1010C000CF92DF92EF92FF920F931F93CF93DF9314
:1010D0006B017A01EC01C558DD4F28813CE0389F57
:1010E0008001399F100D1124A0907F02B12C27FFA1
:1010F0001FC0FB011182108288818F5F88838881E5
:101100009801280F311D87FD3A95F6012A153B05F8
:101110001CF488818C30C4F18081918104968034E4
:101120009C4908F473C0F60180819181049670C0D7
:1011300088819801280F311D87FD3A952A153B05B6
:10114000DCF68881A801480F511D87FD5A95FA01E8
:10115000EE0FFF1FE40FF51FEC5EFC4F808186FF52
:10116000CBCF8881F801E80FF11D87FDFA95CF01FB
:10117000EE0FFF1FE80FF91FEC5EFC4F808160E06F
:101180008F730E947503B8CF808191812881A80157
:10119000420F511D27FD5A959A01FA01EE0FFF1FCC
:1011A000E20FF31FEC5EFC4F21813281820F931F0F
:1011B000F7019183808388819801280F311D87FD75
:1011C0003A95F901EE0FFF1FE20FF31FEC5EFC4FA3
:1011D000808186FF22C08881080F111D87FD1A9526
:1011E000F801EE0FFF1FE00FF11FEC5EFC4F808156
:1011F00061E08F73DF91CF911F910F91FF90EF907E
:10120000DF90CF90BF90AF900C94750380E49CE981
:10121000F701918380838FEF8883DF91CF911F91B6
:101220000F91FF90EF90DF90CF90BF90AF90089517
:101230000F931F93CF93DF938C01C4E1D5E0C81BBC
:10124000D90BBE0186EA94E00E945107BE0183EAF1
:1012500094E00E945107C4EAD6E0C01BD10BBE0146
:1012600080EA94E00E945107BE018DE994E0DF918D
:10127000CF911F910F910C9451070F931F93CF9310
:10128000DF938C01C4EAD6E0C81BD90BBE0186EA05
:1012900094E00E945107BE0183EA94E00E94510746
:1012A000C4E1D5E0C01BD10BBE0180EA94E00E94EE
:1012B0005107BE018DE994E0DF91CF911F910F910D
:1012C0000C945107CF92DF92EF92FF9261E080E39E
:1012D0000E94750383E290E00197F1F760E080E3FC
:1012E0000E9475030E94F1036B017C0181E30E945F
:1012F0004C03892BA1F40E94F1036C197D098E091E
:101300009F0969387E458105910580F360E070E0B2
:1013100080E89FEBFF90EF90DF90CF9008950E94C0
:10132000F1036B017C0181E30E944C03019761F49E
:101330000E94F1036C197D098E099F0969387E4569
:101340008105910580F3E2CF0E94F1036C197D09BC
:101350008E099F090E94FE1C20E030E048E652E41E
:101360000E94561CD7CF4F925F926F927F928F92BE
:101370009F92AF92BF92CF92DF92EF92FF920F9324
:101380001F93CF93DF9300D000D000D01F92CDB732
:10139000DEB79A8789872A013B0109831A832B8349
:1013A0003C83DC015B96BC92AE925A97FC01ED5BEC
:1013B000FF4F81E0AA94AB2809F080E08083E985A3
:1013C000FA85408251826282738289819A81AB81DF
:1013D000BC8184839583A683B783C086D186E28649
:1013E000F38666A977A980AD91AD0E94FE1C20E02E
:1013F00030E04AE754E40E94561C6D837E838F835D
:101400009887E985FA8544865586668677869B01A6
:10141000AC0169817A818B819C810E94B51D4B0151
:101420005C01A985BA8550968D929D92AD92BC9231
:1014300053972D813E814F815885C701B6010E9487
:10144000561C6B017C01E985FA85C48AD58AE68A37
:10145000F78A808D918D019759F5A301920160E083
:1014600070E0CB010E94E41BA985BA851C966D93A0
:101470007D938D939C931F97A501940160E070E08C
:10148000CB010E94E41BE985FA85608B718B828B0E
:10149000938BA701960160E070E0CB010E94E41BF2
:1014A000A985BA8554966D937D938D939C93579798
:1014B0002A960FB6F894DEBF0FBECDBFDF91CF9155
:1014C0001F910F91FF90EF90DF90CF90BF90AF9062
:1014D0009F908F907F906F905F904F9008950F93A3
:1014E0001F93CF93DF93EC018B01FC01EE5BFF4F69
:1014F0008081882361F1888D998D8617970739F14E
:101500002C853D854E855F8560E070E0CB010E94B3
:10151000E41B6C877D878E879F87288939894A8954
:101520005B8960E070E0CB010E94E41B688B798BE3
:101530008A8B9B8B2C893D894E895F8960E070E0A6
:10154000CB010E94E41B6C8B7D8B8E8B9F8B198F44
:10155000088FDF91CF911F910F9108952F923F92A5
:101560004F925F926F927F928F929F92AF92BF92B3
:10157000CF92DF92EF92FF920F931F93CF93DF935F
:101580001C016A017B0148015901A9019801CB01A5
:10159000B6010E94B01D87FF3BC0F101C2AED3AEC1
:1015A000E4AEF5AE8101025C1F4FF80180829182AA
:1015B000A282B38234968081882351F1F101C68DD5
:1015C000D78D488059806A807B80A3019201C50134
:1015D000B4010E94511C87FF2EC088829982AA8282
:1015E000BB82F10186A097A0A0A4B1A4F801C0809D
:1015F000D180E280F380A7019601C501B4010E9469
:10160000B01DF101181624F5C6A2D7A2E0A6F1A6D6
:10161000DF91CF911F910F91FF90EF90DF90CF90CE
:10162000BF90AF909F908F907F906F905F904F9002
:101630003F902F900895A3019201C701B6010E9427
:10164000B01D181674F6C882D982EA82FB82C9CF0F
:10165000C2ACD3ACE4ACF5ACA7019601C501B401B2
:101660000E94511C87FFD4CFF101CECF4F925F92E1
:101670006F927F928F929F92AF92BF92CF92DF92A2
:10168000EF92FF920F931F93CF93DF9300D01F929F
:10169000CDB7DEB72B013C01809116028823D1F132
:1016A0001092D1031092D2031092D3031092D4035C
:1016B000A090C304B090C4048AE0C82E87EDD82E51
:1016C00083E2E82E8CE3F82E9701860149E25CE57F
:1016D0006FE87DE389EA94E00E94B3094092F50443
:1016E0005092F6046092F7047092F80400E010E063
:1016F00020E83FE340E050E060E87FEB89EA94E0D7
:101700000E94AE0A61E070E089EA94E00E946F0AEC
:10171000109216028090D1039090D203A090D30330
:10172000B090D4038091D5039091D603A091D703B4
:10173000B091D80389839A83AB83BC838092ED04F4
:101740009092EE04A092EF04B092F0040E94540430
:10175000C090F104D090F204E090F304F090F4040F
:10176000C092D503D092D603E092D703F092D8036B
:10177000A701960169817A818B819C810E94511C0D
:10178000882331F120E030E048E453E4C701B6019A
:101790000E94B51D9B01AC0160E070E88BEB94E406
:1017A0000E94E41B0E94C81C6B0186EA94E00E9420
:1017B0005107B60183EA94E00E945107B60180EA1E
:1017C00094E00E945107B6018DE994E00E94510710
:1017D000A3019201C501B4010E94E41B6B017C01CD
:1017E00020E030E0A9010E94B01D181624F520E089
:1017F00030E040E050E4C701B6010E94511C87FF71
:1018000024C081E08093160285E090E00F900F9055
:101810000F900F90DF91CF911F910F91FF90EF905C
:10182000DF90CF90BF90AF909F908F907F906F9000
:101830005F904F90089520E030E040E050ECC70109
:10184000B6010E94B01D1816E4F28AE090E0DECFE7
:10185000FB0101900020E9F73197AF01461B570BC0
:10186000DC01ED91FC910280F381E02D19944F92FF
:101870005F926F927F928F929F92AF92BF92CF9220
:10188000DF92EF92FF920F931F93CF93DF93CDB729
:10189000DEB7A1970FB6F894DEBF0FBECDBF8C01A7
:1018A0006B01770FEE08FF08F7FE50C0DC01ED91E9
:1018B000FC910190F081E02D6DE219955C012227E9
:1018C0003327A9012C193D094E095F0919A2FE0110
:1018D000B1967F019AE0492E512C612C712CCA01DE
:1018E000B901A30192010E94861B605DD7016E932E
:1018F0007D01211531054105510589F790E080E012
:10190000109721F0BD01C8010E94280CA80EB91E35
:101910006BE372E0C8010E94280C8A0D9B1DA19602
:101920000FB6F894DEBF0FBECDBFDF91CF911F91F0
:101930000F91FF90EF90DF90CF90BF90AF909F906E
:101940008F907F906F905F904F900895A7019601C0
:1019500019A2FE01B1967F018AE0882E912CA12C5C
:10196000B12CCA01B901A50194010E94861B605DDA
:10197000D7016E937D01211531054105510589F788
:10198000B12CA12C109721F2BD01C8010E94280C96
:101990005C01BECFCF92DF92EF92FF92CF93DF93A5
:1019A000EC012A853B854C855D856A817B818C8134
:1019B0009D810E94221E2E813F81488559850E946B
:1019C000B51D6B017C0120E030E040EA52E40E944A
:1019D000B01D181634F4C12CD12C80EAE82E82E414
:1019E000F82EC701B601DF91CF91FF90EF90DF9005
:1019F000CF900895CF93DF93EC0188810E94D403A8
:101A0000BC01990F880B990B0E94001D6A837B8390
:101A10008C839D83CE01DF91CF910C94CA0CCF9221
:101A2000DF92EF92FF928091C50381110DC00E9459
:101A300048046093C1037093C2038093C3039093DF
:101A4000C40381E08093C50380911402882381F050
:101A50006EE372E08EE794E00E94280C6091BF0371
:101A60007091C0038EE794E00E94370C109214022C
:101A700064E175E086EA94E00E94510764EA76E04A
:101A800083EA94E00E94510764EA76E080EA94E0F9
:101A90000E94510764E175E08DE994E00E945107CE
:101AA000C090C103D090C203E090C303F090C40380
:101AB00084E6C80ED11CE11CF11C0E944804C61625
:101AC000D706E806F90618F083E090E036C00E94D9
:101AD00048046093C1037093C2038093C30390933F
:101AE000C40385E195E00E94FA0C20E030E040E07C
:101AF00051E40E94511C87FF25C08091BF03909143
:101B0000C00301969093C0038093BF036091BF030D
:101B10007091C0038EE794E00E94370C8091BF0360
:101B20009091C003069784F281E080931402109292
:101B3000C0031092BF0384E090E0FF90EF90DF902D
:101B4000CF9008951092C0031092BF03BDCF4F9263
:101B50005F926F927F928F929F92AF92BF92CF923D
:101B6000DF92EF92FF920F931F93CF93DF932B019E
:101B70003C01EA0180911302882369F1A090C3041B
:101B8000B090C404C12CD12C76019701860140E0AD
:101B900050E060EA71E489EA94E00E94B30940925F
:101BA000F5045092F6046092F7047092F80400E095
:101BB00010E028EC32E440E050E068EC72EC89EA96
:101BC00094E00E94AE0A61E070E089EA94E00E942D
:101BD0006F0A10921302CE010E940406CE010E94E9
:101BE000CA0C8090BB039090BC03A090BD03B09042
:101BF000BE036093ED047093EE048093EF04909322
:101C0000F0040E945404C090F104D090F204E090DB
:101C1000F304F090F404C092BB03D092BC03E092B2
:101C2000BD03F092BE03A7019601C501B4010E9455
:101C3000511C882339F0C701B6010E94C81CCB0192
:101C40000E941809C090B703D090B803E090B90380
:101C5000F090BA0384E6C80ED11CE11CF11C0E946E
:101C60004804C616D706E806F90618F081E090E0A9
:101C700039C00E9448046093B7037093B8038093FF
:101C8000B9039093BA0389EF94E00E94FA0C20E024
:101C900030E040E051E40E94511C87FF34C069E409
:101CA00072E08EE794E00E94280C6091B503709179
:101CB000B6036F5F7F4F7093B6036093B5038EE7F3
:101CC00094E00E94370C8091B5039091B6030B9776
:101CD0006CF281E0809313021092B6031092B50368
:101CE00085E090E0DF91CF911F910F91FF90EF90F1
:101CF000DF90CF90BF90AF909F908F907F906F902C
:101D00005F904F9008951092B6031092B503AECF36
:101D10001F920F920FB60F9211242F933F938F9320
:101D20009F93AF93BF938091AD039091AE03A09129
:101D3000AF03B091B0033091AC0323E0230F2D37F4
:101D400058F50196A11DB11D2093AC038093AD03FE
:101D50009093AE03A093AF03B093B0038091B1030F
:101D60009091B203A091B303B091B4030196A11D69
:101D7000B11D8093B1039093B203A093B303B093CA
:101D8000B403BF91AF919F918F913F912F910F908D
:101D90000FBE0F901F90189526E8230F0296A11DE5
:101DA000B11DD2CF1F920F920FB60F9211240BB616
:101DB0000F922F933F934F935F936F937F938F93E4
:101DC0009F93AF93BF93EF93FF9381EE93E00E94B5
:101DD0001B02FF91EF91BF91AF919F918F917F91E6
:101DE0006F915F914F913F912F910F900BBE0F908C
:101DF0000FBE0F901F9018951F920F920FB60F9263
:101E000011240BB60F922F938F939F93EF93FF9311
:101E1000E091F103F091F2038081E091F703F091FA
:101E2000F80382FD1DC090818091FA038F5F8F734C
:101E30002091FB03821741F0E091FA03F0E0EF51AB
:101E4000FC4F958F8093FA03FF91EF919F918F91B3
:101E50002F910F900BBE0F900FBE0F901F901895F3
:101E60008081F2CF1F920F920FB60F9211240BB602
:101E70000F922F933F934F935F936F937F938F9323
:101E80009F93AF93BF93EF93FF93E091E702F0919D
:101E9000E802309749F0A685B7858585968D91FF34
:101EA00016C09C918923B1F4FF91EF91BF91AF913E
:101EB0009F918F917F916F915F914F913F912F9162
:101EC0000F900BBE0F900FBE0F901F9018959C9116
:101ED000892351F7A389B4899C91858980958923A9
:101EE0008C93868997890197F1F7608D718DA6850E
:101EF000B785558538E020E0CB010197F1F7822FB7
:101F000090E095958795282F4C91452309F02068FE
:101F1000315091F7868D81FD20958091E60290E009
:101F200001968F7399273091E502381799F0A091A7
:101F3000E602B0E0A058BD4F2C938093E602828D5C
:101F4000938D0197F1F7A389B4898C919589892B99
:101F50008C93AACF868D8160868FF1CF1F920F92CE
:101F60000FB60F9211240BB60F922F933F934F93FE
:101F70005F936F937F938F939F93AF93BF93EF93F1
:101F8000FF9348E251E064E271E090E080E00E945B
:101F90005E08FF91EF91BF91AF919F918F917F91DB
:101FA0006F915F914F913F912F910F900BBE0F90CA
:101FB0000FBE0F901F9018951F920F920FB60F92A1
:101FC00011240BB60F922F933F934F935F936F9310
:101FD0007F938F939F93AF93BF93EF93FF9348EAC1
:101FE00050E064EA70E083E090E00E945E08FF91B8
:101FF000EF91BF91AF919F918F917F916F915F9181
:102000004F913F912F910F900BBE0F900FBE0F90ED
:102010001F9018951F920F920FB60F9211240BB6B6
:102020000F922F933F934F935F936F937F938F9371
:102030009F93AF93BF93EF93FF9348E950E064E918
:1020400070E082E090E00E945E08FF91EF91BF9106
:10205000AF919F918F917F916F915F914F913F9140
:102060002F910F900BBE0F900FBE0F901F901895E1
:102070001F920F920FB60F9211240BB60F922F934F
:102080003F934F935F936F937F938F939F93AF9300
:10209000BF93EF93FF9348E850E064E870E081E07D
:1020A00090E00E945E08FF91EF91BF91AF919F91E8
:1020B0008F917F916F915F914F913F912F910F90F1
:1020C0000BBE0F900FBE0F901F901895FC019091C2
:1020D0007F02903398F481E0890F80937F02908390
:1020E000892F90E0FC01EE0FFF1FE80FF91FEC5E57
:1020F000FC4F88EB9BE09283818308958FEF808370
:1021000008954F925F926F927F92AF92BF92CF925B
:10211000DF92EF92FF920F931F931092E4031092BD
:10212000E30338EE432E33E0532E612C712C4092A2
:10213000E5035092E6036092E7037092E8038BE1B7
:1021400092E09093E2038093E10385EC90E090931A
:10215000EE038093ED0384EC90E09093F003809382
:10216000EF0380EC90E09093F2038093F10381EC15
:1021700090E09093F4038093F30382EC90E09093CB
:10218000F6038093F50386EC90E09093F803809338
:10219000F7031092FA031092FB031092FC031092C3
:1021A000FD0386EA94E00E94661083EA94E00E94B0
:1021B000661080EA94E00E9466108DE994E00E9427
:1021C0006610109281041092800440928204509212
:1021D000830460928404709285048DE292E090936F
:1021E0007F0480937E0410929504109294041092C0
:1021F00097041092960410929904109298041092E9
:102200009B0410929A0460919C046E7F6D7F609392
:102210009C046695617081E068278BE00E947503DD
:1022200061E08BE00E94A303E7E1F3E0E491E09337
:102230008E04E1EDF2E0E491F0E0EE0FFF1FE455D3
:10224000FD4F859194919093900480938F0460E06A
:102250008AE00E94A30380919C0481FD04C061E098
:102260008AE00E9475038AE080938A04E6E1F3E045
:10227000E491E0938B04E0EDF2E0E491F0E0EE0F06
:10228000FF1FEE56FD4F8591949190938D0480939E
:102290008C041092240510922305109225051092AB
:1022A0002605109227051092280510921605109207
:1022B0001505109217051092180510921905109225
:1022C0001A05109208051092070510920905109240
:1022D0000A0510920B0510920C051092FA04109248
:1022E000F9041092FB041092FC041092FD04109269
:1022F000FE0481EF94E09093C8048093C7048DEEB0
:1023000094E09093C6048093C50485EF94E0909385
:10231000CA048093C9041092EB041092E304109253
:10232000E4041092E5041092E60480E090E0AFE748
:10233000B3E48093E7049093E804A093E904B09396
:10234000EA0494E6492E512C612C712C4092DF0452
:102350005092E0046092E1047092E20470E060E068
:1023600089EA94E00E946F0AAA24A394B12CC12C9C
:10237000D12C76019701860140E050E060E87FE3D0
:1023800089EA94E00E94B3090E9448040091DF04A6
:102390001091E0042091E1043091E204601B710B84
:1023A000820B930B6093CB047093CC048093CD0489
:1023B0009093CE0489E795E09093500580934F0564
:1023C00085E795E090934E0580934D058DE795E068
:1023D000909352058093510510927305C0926B053E
:1023E000D0926C05E0926D05F0926E0580E090E071
:1023F000AFE7B3E480936F0590937005A0937105E8
:10240000B093720540926705509268056092690525
:1024100070926A0561E070E081E395E00E946F0AC6
:1024200097018601B701A60181E395E00E94B309F7
:102430000E944804409067055090680560906905C7
:1024400070906A05641975098609970960935305A8
:102450007093540580935505909356051F910F91E5
:10246000FF90EF90DF90CF90BF90AF907F906F90F4
:102470005F904F900895CF93DF9300D01F92CDB718
:10248000DEB7789484B5826084BD84B5816084BDF4
:1024900085B5826085BD85B5816085BD80916E0002
:1024A000816080936E001092810080918100826033
:1024B0008093810080918100816080938100809170
:1024C00080008160809380008091B100846080935F
:1024D000B1008091B00081608093B0008091910044
:1024E000826080939100809191008160809391003F
:1024F000809190008160809390008091A100826023
:102500008093A1008091A10081608093A1008091BF
:10251000A00081608093A00080912101826080935F
:10252000210180912101816080932101809120010E
:1025300081608093200180917A00846080937A008A
:1025400080917A00826080937A0080917A00816025
:1025500080937A0080917A00806880937A0010924C
:10256000C10080E090E0A8E4B2E48093ED04909391
:10257000EE04A093EF04B093F0041092F1041092D3
:10258000F2041092F3041092F4048093F5049093F3
:10259000F604A093F704B093F8048091EB04811142
:1025A00049C0E091C704F091C804C080D180E280A6
:1025B000F380C092CF04D092D004E092D104F09284
:1025C000D204E091C504F091C60480819181A2817A
:1025D000B3818093D3049093D404A093D504B09393
:1025E000D6048090E7049090E804A090E904B090AD
:1025F000EA04A5019401C701B6010E94B01D181696
:102600004CF48092CF049092D004A092D104B09266
:10261000D20410C08090E3049090E404A090E504FC
:10262000B090E604A5019401C701B6010E94511CB7
:1026300087FDE7CF81E08093EB0400E010E028EC19
:1026400032E440E050E068EC72EC89EA94E00E94E9
:10265000AE0A70E060E089EA94E00E946F0A61E0EF
:102660008DE00E94A30361E080E30E94A30360E089
:1026700080E30E9475038BE390E0909324058093A0
:1026800023058AE999E8A6EEB4E48093290590939E
:102690002A05A0932B05B0932C0581EE9AE7A4E7B9
:1026A000BFEB80932D0590932E05A0932F05B0933B
:1026B000300560E08BE30E94A3038AE390E09093EF
:1026C00016058093150580E090E9AFE1B6E48093AC
:1026D0001B0590931C05A0931D05B0931E0582E178
:1026E00093E8A0E9BFEB80931F0590932005A0938A
:1026F0002105B093220560E08AE30E94A3038DE3E5
:1027000090E0909308058093070580EC92E9A6E598
:10271000B8E480930D0590930E05A0930F05B09338
:10272000100581E895E9A3EDBFEB80931105909327
:102730001205A0931305B093140560E08DE30E9489
:10274000A3038CE390E09093FA048093F90480E073
:102750009FE7A5EDB7E48093FF0490930005A09355
:102760000105B09302058BE39FEDAFEDBFEB8093C6
:10277000030590930405A0930505B093060560E05A
:102780008CE30E94A3030AE010E01C821B8289E311
:102790000E94D4037C01BC0181EE93E00E94370CBF
:1027A0008B819C818E0D9F1D9C838B8365E070E0E7
:1027B00080E090E00E9416040150110941F76BE59A
:1027C00072E081EE93E00E94280C6B817C8181EEA7
:1027D00093E00E94370C8B819C816AE070E00E943C
:1027E000B41B7093C1026093C00264E672E081EE94
:1027F00093E00E94280C6091C0027091C10281EEAA
:1028000093E00E94370C68EE73E080E090E00E9455
:1028100016040E944804AB01BC018091C202909151
:10282000C302A091C402B091C5020696A11DB11DBC
:1028300084179507A607B7070CF04CC089E30E94E0
:10284000D4032091C0023091C102BC01621B730B02
:10285000CB010196039710F470E060E0072E000CA6
:10286000880B990B0E94001D26EA3BE944EC5BE3D0
:102870000E94561C28E638EE4FE95BE30E94B51D26
:1028800020E030E040EC50E40E94B51D20E030E054
:102890004AE754E40E94561C9B01AC016091D103AD
:1028A0007091D2038091D3039091D4030E94E51BD1
:1028B0006093D1037093D2038093D3039093D40396
:1028C0000E9448046093C2027093C3028093C402C2
:1028D0009093C502209011023090120294E02916C4
:1028E000310479F1A5E02A16310409F44CC6B3E0AD
:1028F0002B16310409F06AC168EE73E080E090E0C5
:102900000E9416046EE270E086EA94E00E94D60708
:102910006FE270E083EA94E00E94D60762E370E021
:1029200080EA94E00E94D60763E370E08DE994E0CA
:102930000E94D60784E090E09093120280931102E7
:1029400045C10E9448040091C7021091C80220911D
:10295000C9023091CA020617170728073907E0F4A1
:102960008091C6028F5F8093C602853008F4BFC095
:102970000E94480464547D4F8F4F9F4F6093C7025D
:102980007093C8028093C9029093CA0260E08DE000
:102990000E9475031092C60280910F02909110025E
:1029A0009C838B83069709F4CDC185E195E00E9455
:1029B000040687E095E00E9404060E9448044B014B
:1029C0005C0180910102882361F00E94620960939A
:1029D000D7027093D8028093D9029093DA021092B2
:1029E00001028091D3029091D402A091D502B091BE
:1029F000D6028C509E4FAF4FBF4F88159905AA0540
:102A0000BB050CF05BC00E946209C090CF02D09061
:102A1000D002E090D102F090D20285E195E00E94D0
:102A2000CA0C9B01AC01C701B6010E94E41B20E067
:102A300030E04CE852EC0E94511C87FF1AC0809194
:102A40000002882371F087E095E00E94CA0C609331
:102A5000CB027093CC028093CD029093CE02109261
:102A600000021092CF021092D0021092D102109266
:102A7000D202C090D103D090D203E090D303F09063
:102A8000D40320E030E0A901C701B6010E94B01DC7
:102A900018160CF045C020E030E04AE253E4C701CC
:102AA000B6010E94B01D18160CF444C08092D302E7
:102AB0009092D402A092D502B092D602AB81BC8192
:102AC000AC30B10508F07EC0FD018827E559FA4E0B
:102AD0008F4F0C94C81BE9158F169D15E215E21552
:102AE000C01AE2158A1834196419361A3D1A0E9460
:102AF00048046C597F4F8F4F9F4F6093C70270936C
:102B0000C8028093C9029093CA028DE00E944C03D0
:102B100061E0892B09F060E08DE00E9475033CCFF5
:102B200020E030E04AE253ECC701B6010E94511C9C
:102B300087FFBCCF0E946209B9CF8091020288232F
:102B400061F00E9448046093DB027093DC02809382
:102B5000DD029093DE021092020264E175E086EAE3
:102B600094E00E94510764EA76E083EA94E00E94D0
:102B7000510764EA76E080EA94E00E94510764E13C
:102B800075E08DE994E00E945107C090DB02D0907F
:102B9000DC02E090DD02F090DE02B8ECCB0ED11C3E
:102BA000E11CF11C0E944804C616D706E806F90687
:102BB00048F481E08093020281E090E0909310025B
:102BC00080930F0230921202209211020E94B402EE
:102BD00020CE80910E02882331F087E095E00E949C
:102BE000FA0C10920E02809103028823A9F1A090A2
:102BF000C304B090C404C12CD12CE0E8EE2EEFE366
:102C0000FE2E00E010E0980140E050E060EA71E440
:102C100089EA94E00E94B30980E090E0A0E1B1E489
:102C20008093F5049093F604A093F704B093F8040E
:102C300000E010E028EC32E440E050E068EC72EC98
:102C400089EA94E00E94AE0A61E070E089EA94E0CB
:102C50000E946F0A1092030283E295E00E9404062C
:102C600083E295E00E94CA0C8090E1029090E2021B
:102C7000A090E302B090E4026093ED047093EE0440
:102C80008093EF049093F0040E945404C090F104E8
:102C9000D090F204E090F304F090F404C092E102CA
:102CA000D092E202E092E302F092E402A7019601E0
:102CB000C501B4010E94511C882319F1C701B60156
:102CC0000E94C81CCB010E943D090E94620920E0BD
:102CD00030E040E251E40E94511C87FF1BC080910C
:102CE000DF029091E00201969093E0028093DF0270
:102CF00004973CF081E08093030288E090E09C839D
:102D00008B83AB81BC81B0931002A0930F02109211
:102D1000130358CF1092E0021092DF02F2CF80919D
:102D20000E02882331F087E095E00E94FA0C1092A1
:102D30000E0247E055E060E070E080E191E40E941F
:102D4000A70D3CCF80910602882309F4B4C01092ED
:102D5000990410929804109297041092960410927D
:102D60009504109294048FE190E090939B048093DB
:102D70009A0480918A0496EF980F943048F02EECD4
:102D8000280F243028F022EC280F283008F062C0E9
:102D900021E030E030939504209394042DE130E05D
:102DA00030939704209396042DE030E030939904FB
:102DB00020939804943050F02EEC280F243030F0FB
:102DC00022EC280FF0E0E0E0283010F4E8E6F0E034
:102DD0003081943028F022EC280F283008F483C08A
:102DE00021E0232B943048F09EEC980F943028F08B
:102DF0008E53F0E0E0E0883010F4E8E6F0E0208365
:102E000080918A0496EF980F943008F46EC02EECEF
:102E1000280F243008F469C022EC280F283008F469
:102E200067C030E020E03093920420939104943006
:102E300008F061C08650990B91E001C0990F8A9506
:102E4000EAF7892F8093930480919A0490919B04D0
:102E50000197F1F78091980490919904892B49F199
:102E6000E091E702F091E80294E0EE37F90709F10A
:102E7000309739F0A389B4898C91958990958923ED
:102E80008C9380919C048E7F80939C041092E60228
:102E90001092E502AEE7B4E0B093E802A093E70237
:102EA000E0919104F0919204908180919304892B98
:102EB000808310920602E0910402F091050231979E
:102EC000E930F10508F0C1C08827E659F84E8F4F68
:102ED0000C94C81B901713182C182F184718561845
:102EE00064186F187C1824E07CCF2BE630E09BCF71
:102EF0002DE630E098CF823359F0833359F0843394
:102F000059F092EC980F983048F48E53990B94CF67
:102F100088E098CF84E096CF82E094CF81E092CF92
:102F200085E195E00E94FA0C7B018C0187E095E039
:102F30000E94FA0C69837A836C0189EF94E00E9405
:102F4000FA0C2B013C010E9462094B015C012981B2
:102F50003A81A601B701C8010E94B01D18160CF4F1
:102F600042C01092E9021092EA021092EB02109213
:102F7000EC029701A801C301B2010E94511C87FF16
:102F800042C080E090E0A4EBB2EC8093E902909321
:102F9000EA02A093EB02B093EC02A5019401C301F5
:102FA000B2010E94B01D1816DCF480E090E0A4EBA2
:102FB000B2E48093E9029093EA02A093EB02B0930B
:102FC000EC0220E030E0A9016091E9027091EA0290
:102FD0008091EB029091EC020E94511C8823E1F059
:102FE00082E090E01BC080E090E0A4E3B3E4809333
:102FF000E9029093EA02A093EB02B093EC02E9801D
:10300000FA808601B6CF9701A801C501B4010E94DC
:10301000511C87FDCACFD5CF83E090E09093050285
:103020008093040212C06091E9027091EA028091DB
:10303000EB029091EC020E94360BA3E0B0E00A97FD
:1030400079F2B0930502A0930402AB81BC81B093E6
:103050001002A0930F02B6CD0E940F0DDFCF0E9489
:1030600062096B017C0189EF94E00E94FA0C20E078
:1030700030E048EC52E4C701B6010E94B01D1816BA
:103080001CF086E090E0CACF85E090E0C7CF45E134
:1030900055E060E070E080E291E40E94A70DA5E0B9
:1030A000B0E0019771F21C821B82CFCF64EF71E018
:1030B00080E090E00E948807089719F087E090E090
:1030C000ADCFA6E0B0E0BDCF60E070E084EB92E46D
:1030D0000E94360B0A9791F388E090E09FCF0E9400
:1030E000620920E030E040EF52E40E94B01D181663
:1030F00074F08AE090E092CF0E940F0D039739F0B0
:10310000A9E0B0E0B0930502A0930402CCCF89E01F
:1031100090E084CF809107028823A9F11092D10317
:103120001092D2031092D3031092D403A090C30440
:10313000B090C404C12CD12C76019701860140E0E7
:1031400050E060EA71E489EA94E00E94B309C09219
:10315000F504D092F604E092F704F092F80400E04F
:1031600010E028EC32E440E050E068EC72EC89EAD0
:1031700094E00E94AE0A61E070E089EA94E00E9467
:103180006F0A109207028090EF029090F002A090D8
:10319000F102B090F2028091D1039091D203A091FC
:1031A000D303B091D4038093ED049093EE04A093E5
:1031B000EF04B093F0040E945404C090F104D09046
:1031C000F204E090F304F090F404C092EF02D09285
:1031D000F002E092F102F092F202A7019601C5011D
:1031E000B4010E94511C882319F1C701B6010E9445
:1031F000C81CCB010E943D090E94620920E030E01A
:1032000040E551E40E94511C87FF29C08091ED02E6
:103210009091EE0201969093EE028093ED02049756
:103220003CF081E08093070288E090E09C838B83F0
:10323000AB81BC81B0931002A0930F0287E095E0B0
:103240000E94040687E095E00E94CA0C60930A027F
:1032500070930B0280930C0290930D0258CD109244
:10326000EE021092ED02E4CF81E080930E0262E55F
:1032700073E080E090E00E948807909310028093B2
:103280000F02089751F080911303882331F087E0F3
:1032900090E09093100280930F0220E030E040E233
:1032A00052E460910A0270910B0280910C0290919D
:1032B0000D020E94511C87FF85CC80911303811160
:1032C00081CC8BE090E07ACC8091FD0281110DC021
:1032D0000E9448046093F9027093FA028093FB0203
:1032E0009093FC0281E08093FD0280910802882384
:1032F000A9F11092D1031092D2031092D30310922D
:10330000D403A090C304B090C404C12CD12C760186
:103310009701860140E050E060EA71E489EA94E0B8
:103320000E94B309C092F504D092F604E092F7042B
:10333000F092F80400E010E028EC32E440E050E0C5
:1033400068EC72EC89EA94E00E94AE0A61E070E0F9
:1033500089EA94E00E946F0A109208028090F502B8
:103360009090F602A090F702B090F8028091D103FD
:103370009091D203A091D303B091D4038093ED0434
:103380009093EE04A093EF04B093F0040E945404D1
:10339000C090F104D090F204E090F304F090F404B3
:1033A000C092F502D092F602E092F702F092F80293
:1033B000A7019601C501B4010E94511C882339F070
:1033C000C701B6010E94C81CCB010E941809C09019
:1033D000F902D090FA02E090FB02F090FC0294E631
:1033E000C90ED11CE11CF11C0E944804C616D70668
:1033F000E806F90660F50E9448046093F9027093AC
:10340000FA028093FB029093FC0289EF94E00E9401
:10341000FA0C20E030E040E251E40E94511C87FFAA
:1034200020C08091F3029091F40201969093F402EF
:103430008093F3020B975CF081E080930802109276
:10344000F4021092F302A8E0B0E0BC83AB838B815E
:103450009C819093100280930F0281E0809313036C
:10346000B1CB1092F4021092F302F1CF60E070E061
:1034700084E393E40E94360BA1CB80910B0381116E
:103480000DC00E9448046093070370930803809363
:10349000090390930A0381E080930B038091090252
:1034A000882351F060910503709106038EE794E044
:1034B0000E94370C1092090264EA76E086EA94E0F2
:1034C0000E94510764E175E083EA94E00E9451078D
:1034D00064E175E080EA94E00E94510764EA76E0D6
:1034E0008DE994E00E945107C0900703D090080333
:1034F000E0900903F0900A0394E6C90ED11CE11C88
:10350000F11C0E944804C616D706E806F90680F5A5
:103510000E94480460930703709308038093090393
:1035200090930A0387E095E00E94FA0C20E030E0D7
:1035300040E051E40E94511C87FF1DC080910503AB
:103540009091060301969093060380930503809162
:1035500005039091060306975CF081E080930902D1
:103560001092060310920503A2E0B0E0BC83AB8387
:103570008B819C8123CB1092060310920503F8CF18
:103580002B803C801FCB6CED75E086EA94E00E94B6
:1035900051076CED75E083EA94E00E9451076CEDF1
:1035A00075E080EA94E00E9451076CED75E08DE9CA
:1035B00094E00E9451072091A60430E0C901880FD1
:1035C000991F820F931FFC01EC5EFC4F80818F7B63
:1035D00080832091A30430E0C901880F991F820FD6
:1035E000931FFC01EC5EFC4F80818F7B80832091D8
:1035F000A00430E0C901880F991F820F931FFC01BE
:10360000EC5EFC4F80818F7B808320919D0430E0B5
:10361000C901880F991F820F931FFC01EC5EFC4FBC
:1036200080818F7B808360E08EE20E94A30360E054
:103630008FE20E94A30360E082E30E94A30360E0A4
:1036400083E30E94A3030E9448040091A403109105
:10365000A5032091A6033091A703601B710B820B79
:10366000930B613D774081059105A0F00E944804CD
:103670006093A4037093A5038093A6039093A7037C
:103680008DE00E944C0361E0892B09F060E08DE041
:103690000E9475030E9448040091A8031091A90399
:1036A0002091AA033091AB03601B710B820B930B2B
:1036B000653F71408105910550F00E944804609378
:1036C000A8037093A9038093AA039093AB0385E0AA
:1036D00090E032C98DE292E090937F0480937E0463
:1036E0008091E7029091E8028E57944071F4E09146
:1036F0009104F091920490818091930480958923A4
:1037000080831092E8021092E7020895A1E21A2E37
:10371000AA1BBB1BFD010DC0AA1FBB1FEE1FFF1F75
:10372000A217B307E407F50720F0A21BB30BE40BC5
:10373000F50B661F771F881F991F1A9469F760950C
:103740007095809590959B01AC01BD01CF010895C6
:10375000991B79E004C0991F961708F0961B881FE3
:103760007A95C9F78095089597FB072E16F4009473
:1037700007D077FD09D00E94D01B07FC05D03EF48E
:10378000909581959F4F0895709561957F4F08950D
:10379000EE0FFF1F881F8BBF0790F691E02D199445
:1037A000AA1BBB1B51E107C0AA1FBB1FA617B70767
:1037B00010F0A61BB70B881F991F5A95A9F7809583
:1037C0009095BC01CD0108955058BB27AA270E94AF
:1037D000FC1B0C94761D0E94681D38F00E946F1D22
:1037E00020F039F49F3F19F426F40C94651D0EF473
:1037F000E095E7FB0C945F1DE92F0E94871D58F3AD
:10380000BA17620773078407950720F079F4A6F5C5
:103810000C94A91D0EF4E0950B2EBA2FA02D0B01D0
:10382000B90190010C01CA01A0011124FF27591B05
:1038300099F0593F50F4503E68F11A16F040A22F0B
:10384000232F342F4427585FF3CF4695379527957C
:10385000A795F0405395C9F77EF41F16BA0B620B7B
:10386000730B840BBAF09150A1F0FF0FBB1F661FC2
:10387000771F881FC2F70EC0BA0F621F731F841F05
:1038800048F4879577956795B795F7959E3F08F02B
:10389000B0CF9395880F08F09927EE0F97958795ED
:1038A00008950E943B1D08F481E008950E946A1C5F
:1038B0000C94761D0E946F1D58F00E94681D40F008
:1038C00029F45F3F29F00C945F1D51110C94AA1D3F
:1038D0000C94651D0E94871D68F39923B1F355234D
:1038E00091F3951B550BBB27AA2762177307840713
:1038F00038F09F5F5F4F220F331F441FAA1FA9F3A9
:1039000035D00E2E3AF0E0E832D091505040E69596
:10391000001CCAF72BD0FE2F29D0660F771F881FF7
:10392000BB1F261737074807AB07B0E809F0BB0BEA
:10393000802DBF01FF2793585F4F3AF09E3F5105FE
:1039400078F00C945F1D0C94AA1D5F3FE4F3983E41
:10395000D4F3869577956795B795F7959F5FC9F7E7
:10396000880F911D9695879597F90895E1E0660F68
:10397000771F881FBB1F621773078407BA0720F0E1
:10398000621B730B840BBA0BEE1F88F7E09508954A
:103990000E94CF1C6894B1110C94AA1D08950E9436
:1039A0008F1D88F09F5798F0B92F9927B751B0F025
:1039B000E1F0660F771F881F991F1AF0BA95C9F7B3
:1039C00014C0B13091F00E94A91DB1E008950C948B
:1039D000A91D672F782F8827B85F39F0B93FCCF33E
:1039E000869577956795B395D9F73EF49095809530
:1039F000709561957F4F8F4F9F4F0895E89409C050
:103A000097FB3EF490958095709561957F4F8F4F11
:103A10009F4F9923A9F0F92F96E9BB279395F69527
:103A2000879577956795B795F111F8CFFAF4BB0FA5
:103A300011F460FF1BC06F5F7F4F8F4F9F4F16C009
:103A4000882311F096E911C0772321F09EE8872F93
:103A5000762F05C0662371F096E8862F70E060E04F
:103A60002AF09A95660F771F881FDAF7880F9695C8
:103A7000879597F90895990F0008550FAA0BE0E86C
:103A8000FEEF16161706E807F907C0F01216130620
:103A9000E407F50798F0621B730B840B950B39F460
:103AA0000A2661F0232B242B252B21F408950A26C6
:103AB00009F4A140A6958FEF811D811D089597F906
:103AC0009F6780E870E060E008959FEF80EC0895C4
:103AD00000240A94161617061806090608950024ED
:103AE0000A9412161306140605060895092E039467
:103AF000000C11F4882352F0BB0F40F4BF2B11F4DB
:103B000060FF04C06F5F7F4F8F4F9F4F089557FD39
:103B10009058440F551F59F05F3F71F04795880F3B
:103B200097FB991F61F09F3F79F0879508951216D2
:103B300013061406551FF2CF4695F1DF08C016167E
:103B400017061806991FF1CF86957105610508942F
:103B50000895E894BB2766277727CB0197F9089546
:103B60000E943B1D08F48FEF08950E94C81D0C941D
:103B7000761D0E94681D38F00E946F1D20F095236D
:103B800011F00C945F1D0C94651D11240C94AA1D5A
:103B90000E94871D70F3959FC1F3950F50E0551F4C
:103BA000629FF001729FBB27F00DB11D639FAA2792
:103BB000F00DB11DAA1F649F6627B00DA11D661FE1
:103BC000829F2227B00DA11D621F739FB00DA11D02
:103BD000621F839FA00D611D221F749F3327A00DBC
:103BE000611D231F849F600D211D822F762F6A2F58
:103BF00011249F5750409AF0F1F088234AF0EE0FBD
:103C0000FF1FBB1F661F771F881F91505040A9F7E9
:103C10009E3F510580F00C945F1D0C94AA1D5F3FE0
:103C2000E4F3983ED4F3869577956795B795F79525
:103C3000E7959F5FC1F7FE2B880F911D969587959D
:103C400097F90895FA01EE0FFF1F3096210531050F
:103C5000A1F16115710561F48038BFE39B0749F15B
:103C600068949038810561F08038BFEF9B0741F080
:103C700099234AF5FF3FE1053105210519F1E89443
:103C80000894E795D901AA2329F4AB2FBE2FF85F3A
:103C9000D0F310C0FF5F70F4A695E0F7F73950F04D
:103CA00019F0FF3A38F49F779F930DD00F9007FCDF
:103CB0009058089546F00C94651D60E070E080E82F
:103CC0009FE308954FE79F775F934F933F932F9321
:103CD0000E941D1F2F913F914F915F910E94B51D32
:103CE0000C947A1E29F416F00C945F1D0C94A91DF7
:103CF0000C94651D0E948F1DA8F39638A0F707F855
:103D00000F92E8942BE33AEA48EB5FE70E94CB1D61
:103D10000F920F920F924DB75EB70F920E94651FE0
:103D2000E4EEF0E00E94AC1E4F915F91EF91FF91A5
:103D3000E595EE1FFF1F49F0FE57E0684427EE0FA0
:103D4000441FFA95E1F74195550B0E94DF1E0F9035
:103D500007FE0C94D31E0895DF93CF931F930F9308
:103D6000FF92EF92DF927B018C01689406C0DA2EFD
:103D7000EF010E94C81DFE01E894A591259135919F
:103D800045915591A6F3EF010E94FC1BFE0197019E
:103D9000A801DA9469F7DF90EF90FF900F911F91DF
:103DA000CF91DF9108959B01AC0160E070E080E865
:103DB0009FE30C94561C0C945F1D0C94991F0E9459
:103DC0008F1DD8F39923C9F3940F511DA3F391507C
:103DD000504094F059F0882332F0660F771F881F07
:103DE00091505040C1F79E3F51052CF7880F911D0F
:103DF0009695879597F908955F3FACF0983E9CF0B3
:103E0000BB27869577956795B79508F4B16093952C
:103E1000C1F7BB0F58F711F460FFE8CF6F5F7F4F1A
:103E20008F4F9F4FE3CF0C94AA1D16F00C94991F4F
:103E30000C94651D68940C945F1D0E948F1DA8F35F
:103E40009923C1F3AEF3DF93CF931F930F93FF92A8
:103E5000C92FDD2788232AF02197660F771F881F37
:103E6000DAF720E030E040E85FEB9FE3883920F0AC
:103E7000803E38F021968F770E94E51BECE0F1E060
:103E800004C00E94E51BE9E3F1E00E94AC1E8B0137
:103E9000BE01EC01FB2E6F5771097595771F880BDA
:103EA000990B0E94001D28E132E741E35FE30E9485
:103EB000C81DAF2D9801AE01FF900F911F91CF91BA
:103EC000DF910E94FC1B0C94761DFA01DC01AA0F05
:103ED000BB1F9B01AC01BF5728F42227332744277F
:103EE000507820C0B75190F4AB2F002446953795F9
:103EF0002795011CA395D2F3002071F0220F331FE8
:103F0000441FB395DAF30ED00C94E41B61307105B5
:103F1000A0E88A07B94630F49B01AC0166277727F1
:103F200088279078309621F0208331834283538311
:103F300008959F3F31F0915020F4879577956795CC
:103F4000B795880F911D9695879597F9089511E07B
:103F5000CAEAD1E000E006C0802FFE010E94C81B23
:103F60002196011DCB3AD10780E00807A9F7F89404
:023F7000FFCF81
:103F720001010101010001010101000048420106A5
:103F820000030001010101000000003D027306DE92
:103F9200018A020F02ED01010200000000B906735E
:103FA200064E07B80615072D07A0060D0A00696E12
:103FB200697420436F756E740053656E736F72205F
:103FC20072656164696E67203C380073756D2069A3
:103FD200733A20007A65726F4779726F566F6C740C
:0A3FE2006167652069733A20000052
:00000001FF
