:100000000C94AD010C94DE010C94DE010C94DE0125
:100010000C94DE010C94DE010C94DE010C94DE01E4
:100020000C94DE010C941D0F0C941D0F0C941D0FED
:100030000C94DE010C94DE010C94DE010C94DE01C4
:100040000C94DE010C9423100C94DE010C94DE0160
:100050000C94DE010C94DE010C94DE010C94730E02
:100060000C94DE010C94E70E0C94BD0E0C94DE0192
:100070000C94DE010C94DE010C94DE010C94DE0184
:100080000C94F50F0C94DE010C94DE010C94DE014F
:100090000C94DE010C94DE010C94DE010C94DE0164
:1000A0000C94DE010C94DE010C94C70F0C94DE015D
:1000B0000C94DE010C94DE010C94DE010C94990F7B
:1000C0000C94DE010C94DE010C94DE010C94DE0134
:1000D0000C94DE010C94DE010C94DE010C94DE0124
:1000E0000C94DE0107634236B79BD8A71A396856CD
:1000F00018AEBAAB558C1D3CB7CC5763BD6DEDFD4A
:10010000753EF6177231BF000000803F0800000006
:10011000BE922449123EABAAAA2ABECDCCCC4C3EFC
:1001200000000080BEABAAAAAA3E00000000BF00EB
:100130000000803F0000000000084178D3BB4387E7
:10014000D1133D190E3CC3BD4282AD2B3E68EC82FB
:1001500076BED98FE1A93E4C80EFFFBE01C4FF7F80
:100160003F00000000000C943C030C9453180C94C6
:10017000A2060C9446030C9440030C9475060C9450
:10018000E0010C9420030C945E180C942A180C9433
:100190004A190C941C1A0C94231A0C943A180C94B7
:1001A00032030C9424030C94D4150C9411020C9477
:1001B00038030C942F070C9448180C94AB1A0C9429
:1001C00088150C947A160C940F030C94551B0C9400
:1001D00070180C9417030C9417070C94EF010C94EF
:1001E000BA060C940B030C942E030C94A61A0C94D0
:1001F0006C100C943F020C947B170C942A030C9403
:1002000013030C941A190C941A030C9403020C9403
:1002100014180C944A030C9427180C9450070C944F
:10022000BB060C9405030C948C020C9445030C94AF
:100230006B180C94951700002100240027002A0059
:100240002D003000330001010000040107010A0104
:1002500000000A0B02090C0D0E0807030401000040
:10026000000000000000000000000000000000008E
:10027000000000000000000000000000121110004B
:10028000000000000000000000000000000000006E
:1002900000000000000000002000230026002900CC
:1002A0002C002F00320000010000030106010901AB
:1002B00000002200250028002B002E003100340011
:1002C00002010000050108010B01050505050705F0
:1002D00008080808020202020A0A080804040404C2
:1002E00001010101010101010303030303030303EE
:1002F000040707070C0C0C0C0C0C0C0C020202027D
:1003000006060606060606060B0B0B0B0B0B0B0B65
:100310000102102020080810204010204080020117
:1003200002010804020101020408102040808040FC
:1003300020100804020180040201804020100804FB
:100340000201080402010102040810204080010299
:100350000408102040806C10551B11241FBECFEFE5
:10036000D1E2DEBFCDBF00E00CBF12E0A0E0B2E002
:10037000E8E4FFE300E00BBF02C007900D92AE3649
:10038000B107D9F725E0AEE6B2E001C01D92A5376E
:10039000B207E1F711E0CCEAD1E000E006C0219716
:1003A0000109802FFE010E94B31BCB3AD10780E0E8
:1003B0000807A9F70E9426120C94921F0C940000C3
:1003C000FC01538D448D252F30E0842F90E0821B5B
:1003D000930B541710F0CF96089501970895FC01E0
:1003E000918D828D981761F0A28DAE0FBF2FB11D38
:1003F0005D968C91928D9F5F9F73928F90E0089590
:100400008FEF9FEF0895FC01918D828D981731F049
:10041000828DE80FF11D858D90E008958FEF9FEF9D
:100420000895FC01918D228D892F90E0805C9F4F73
:10043000821B91098F7399270895FC01A48DA80F41
:10044000B92FB11DA35ABF4F2C91848D90E0019616
:100450008F739927848FA689B7892C93A089B18936
:100460008C91837080648C93938D848D981306C0D7
:100470000288F389E02D80818F7D80830895EF923B
:10048000FF920F931F93CF93DF93EC0181E0888F4E
:100490009B8D8C8D98131AC0E889F989808185FF1E
:1004A00015C09FB7F894EE89FF896083E889F989C0
:1004B00080818370806480839FBF81E090E0DF91C2
:1004C000CF911F910F91FF90EF900895F62E0B8D15
:1004D00010E00F5F1F4F0F731127E02E8C8D8E11D0
:1004E0000CC00FB607FCFACFE889F989808185FF37
:1004F000F5CFCE010E941D02F1CFEB8DEC0FFD2F49
:10050000F11DE35AFF4FF0829FB7F8940B8FEA89F1
:10051000FB8980818062CFCFCF93DF93EC01888D00
:100520008823B9F0AA89BB89E889F9898C9185FD6E
:1005300003C0808186FD0DC00FB607FCF7CF8C91FC
:1005400085FFF2CF808185FFEDCFCE010E941D0295
:10055000E9CFDF91CF91089585ED93E00E941102DC
:1005600021E0892B09F420E0822F089580E090E0BB
:10057000892B29F00E94AC0281110E94000080E0CA
:1005800090E0892B49F080E090E0892B29F00E94CF
:10059000000081110E94000080E090E0892B49F06A
:1005A00080E090E0892B29F00E94000081110E94D8
:1005B000000080E090E0892B49F080E090E0892BFA
:1005C00029F00E94000081110C94000008958150D0
:1005D000823108F05AC0E82FF0E08827ED50FD4F37
:1005E0008F4F0C94B31B1303170305030B030F0367
:1005F00045031A03200324032A032E03320338037E
:100600003C034503400346034A03809180008F77F3
:10061000809380000895809180008F7DF9CF809134
:100620008000877FF5CF84B58F7784BD089584B52A
:100630008F7DFBCF8091B0008F778093B0000895BD
:100640008091B0008F7DF9CF809190008F7780935B
:1006500090000895809190008F7DF9CF8091900057
:10066000877FF5CF8091A0008F778093A0000895B9
:100670008091A0008F7DF9CF8091A000877FF5CF7A
:10068000809120018F77809320010895809120012F
:100690008F7DF9CF80912001877FF5CFCF93DF93B6
:1006A000282F30E0F901E05BFD4F8491F901E05F14
:1006B000FC4FD491F901E653FD4FC491CC23A1F036
:1006C00081110E94E702EC2FF0E0EE0FFF1FEA56C7
:1006D000FD4FA591B491EC91ED2381E090E009F4F8
:1006E00080E0DF91CF91089580E090E0FACF1F93F2
:1006F000CF93DF93282F30E0F901E05BFD4F849129
:10070000F901E05FFC4FD491F901E653FD4FC4912C
:10071000CC23A9F0162F81110E94E702EC2FF0E004
:10072000EE0FFF1FE055FD4FA591B4918FB7F894E0
:10073000EC91111108C0D095DE23DC938FBFDF91BF
:10074000CF911F910895DE2BF8CFCF93DF9390E0E8
:10075000FC01E05FFC4F249186539D4FFC01849186
:100760008823D1F090E0880F991FFC01EA5CFD4FCF
:10077000A591B491FC01E055FD4FC591D491611153
:100780000EC09FB7F8948C91E22FE0958E238C9346
:100790002881E223E8839FBFDF91CF9108958FB72F
:1007A000F894EC91E22BEC938FBFF6CF863308F0F0
:1007B000865320917B00982F9870277F922B9093DF
:1007C0007B008770806480937C0080917A008064D5
:1007D00080937A0080917A0086FDFCCF809178002A
:1007E0009091790008953FB7F8948091A503909176
:1007F000A603A091A703B091A80326B5A89B05C0A6
:100800002F3F19F00196A11DB11D3FBFBA2FA92F8F
:10081000982F8827BC01CD01620F711D811D911D8C
:1008200042E0660F771F881F991F4A95D1F70895F8
:100830008F929F92AF92BF92CF92DF92EF92FF92F0
:100840004B015C010E94F3036B017C010E94F303E6
:100850006C197D098E099F09683E734081059105D9
:10086000A8F321E0821A9108A108B10888EEC80E09
:1008700083E0D81EE11CF11C81149104A104B10491
:1008800029F7FF90EF90DF90CF90BF90AF909F90AF
:100890008F9008952FB7F8946091A1037091A203EF
:1008A0008091A3039091A4032FBF08952F923F92AC
:1008B0004F925F926F927F928F929F92AF92BF9270
:1008C000CF92DF92EF92FF920F931F93CF93DF931C
:1008D000CDB7DEB72E970FB6F894DEBF0FBECDBFF3
:1008E0003090DF0431101BC0312C832D2E960FB6B3
:1008F000F894DEBF0FBECDBFDF91CF911F910F9156
:10090000FF90EF90DF90CF90BF90AF909F908F902F
:100910007F906F905F904F903F902F9008950E942E
:100920004A0469877A878B879C878091BF0490915E
:10093000C004A091C104B091C20449855A856B8559
:100940007C85481B590B6A0B7B0B8091D3049091DB
:10095000D404A091D504B091D604481759076A076A
:100960007B0710F2E091B904F091BA048081918183
:10097000A281B3818D839E83AF83B887E091BD044C
:10098000F091BE049C01AD016081718182819381EF
:100990000E94CF1B4B015C012091C7043091C80419
:1009A0004091C9045091CA046D817E818F819885E0
:1009B0000E94CF1B6B017C012091AD043091AE04ED
:1009C0004091AF045091B004C501B4010E94A01D34
:1009D0002091C3043091C4044091C5045091C604D1
:1009E0000E94D01B2B013C014092C3045092C404CE
:1009F0006092C5047092C6042090E004211031C0BA
:100A00008091A9049091AA04A091AB04B091AC0488
:100A100089839A83AB83BC839C01AD01C701B60176
:100A20000E94A01D9B01AC01C301B2010E94CF1B1B
:100A30006093C3047093C4048093C5049093C60468
:100A400069817A818B819C819058A70196010E94CF
:100A5000A01D6093CB047093CC048093CD0490933D
:100A6000CE044090C3045090C4046090C5047090BC
:100A7000C6041091DB049091DC049E87A091DD04F4
:100A8000AD870091DE04212F392F4A2F502FC3014B
:100A9000B2010E949B1D18160CF09BC0812F9E85F1
:100AA000AD85B02F8093C3049093C404A093C50474
:100AB000B093C604222009F4A5C02091A904309166
:100AC000AA044091AB045091AC04C501B4010E944A
:100AD000A01D4B015C018092CB049092CC04A092AB
:100AE000CD04B092CE044090B1045090B204609016
:100AF000B3047090B404A3019201C701B6010E942F
:100B0000A01D9B01AC016091C3047091C40480914D
:100B1000C5049091C6040E94CF1BA50194010E94B8
:100B2000D01B4B015C01C301B2019058A701960193
:100B30000E94A01D6093CF047093D0048093D104D1
:100B40009093D2049401A501612F7E858D85902F0D
:100B50000E943C1C87FD18C01091D7049091D804C6
:100B60009E87A091D904AD870091DA04212F392FF7
:100B70004A2F502FB401C5010E943C1C87FD04C0C0
:100B8000182D9E86AD860B2DE091BB04F091BC0420
:100B9000812F9E85AD85B02F80839183A283B383FF
:100BA0008D819E81AF81B8858093C7049093C804DE
:100BB000A093C904B093CA0489859A85AB85BC8586
:100BC0008093BF049093C004A093C104B093C20467
:100BD0008CCE8091D7049091D804A091D904B09183
:100BE000DA0489839A83AB83BC839C01AD01C30182
:100BF000B2010E943C1C87FF5DCF89819A81AB8145
:100C0000BC8150CF812C912C54016DCF4F925F92BB
:100C10006F927F928F929F92AF92BF92CF92DF920C
:100C2000EF92FF92CF93DF93EC010E944A046B0195
:100C30007C018091D1039091D203A091D303B09114
:100C4000D4030A96A11DB11D8C159D05AE05BF05E7
:100C5000ECF588810E94D603BC01990F880B990B93
:100C60000E94EB1C4B015C0120E030E040E05FE3C0
:100C70006091CD037091CE038091CF039091D0030A
:100C80000E94A01D2B013C0120E030E040E05FE32A
:100C9000C501B4010E94A01D9B01AC01C301B201BA
:100CA0000E94D01B6093CD037093CE038093CF033B
:100CB0009093D0038A829B82AC82BD82C092D10382
:100CC000D092D203E092D303F092D403DF91CF917C
:100CD000FF90EF90DF90CF90BF90AF909F908F905C
:100CE0007F906F905F904F900895AF92BF92CF9298
:100CF000DF92EF92FF920F931F93CF93DF936C01DC
:100D00007B018B01040F151FEB015E01AE18BF08BC
:100D1000C017D10759F06991D601ED91FC9101906E
:100D2000F081E02DC6011995892B79F7C501DF9176
:100D3000CF911F910F91FF90EF90DF90CF90BF90D8
:100D4000AF9008952091DB023091DC02281739071B
:100D500071F49091D9028091DA02981741F0E091F4
:100D6000D902F0E0EC58FD4F808190E008958FEFBC
:100D70009FEF08950895EF92FF920F931F93CF93E3
:100D8000DF93DC015C96ED90FC905D97E114F1043B
:100D900079F481E090E013969C938E93129790E003
:100DA00080E0DF91CF911F910F91FF90EF90089518
:100DB0005196ED91FC91529750968C915097982FA7
:100DC00090950FB75E962C915E97122F127021FDB1
:100DD0006095F8942081112319F1282B2083E701D5
:100DE0002197F1F728E0462F50E0308160FF1AC0CC
:100DF000382B3083E7012197F1F7BA017595679594
:100E0000215089F7112381F08081892380830FBFCE
:100E10005C968D919C910197F1F781E090E0C1CFB4
:100E20002923DCCF3923E5CF9081892BEFCF209187
:100E3000DB023091DC022817390771F48091DA0265
:100E40002091D90290E0805C9F4F821B910960E461
:100E500070E00E949F1B089590E080E0089520912B
:100E6000DB023091DC0228173907B9F49091D902DE
:100E70008091DA02981789F0E091D902F0E0EC58FD
:100E8000FD4F80812091D90230E02F5F3F4F2F73BB
:100E900033272093D90290E008958FEF9FEF0895B4
:100EA00090E080E00895DC01EC91E03390F511963C
:100EB0008C91119728E830E0281B310987FD339584
:100EC000220F331F220F331F6217730784F012960D
:100ED0008C9128E532E0281B310987FD3395220FDC
:100EE000331F220F331F621773070CF49B0122502C
:100EF0003109220F331F4FB7F8948E2F90E0FC0179
:100F0000EE0FFF1FE80FF91FE85FFC4F32832183CC
:100F10004FBF0895CF92DF92EF92FF926B017C0159
:100F200080911402882361F00E944A046093C103F7
:100F30007093C2038093C3039093C403109214026E
:100F400064EA76E08AE994E00E94530764E175E080
:100F500087E994E00E94530764E175E084E994E036
:100F60000E94530764EA76E081E994E00E94530707
:100F70008091C1039091C203A091C303B091C403B7
:100F8000C80ED91EEA1EFB1E0E944A04C616D706CA
:100F9000E806F90650F481E08093140289E090E0BD
:100FA000FF90EF90DF90CF90089588E090E0F8CF29
:100FB0001F93CF93DF93EC01162F8881803308F0C5
:100FC0004EC061E0812F0E94A5038881282F30E068
:100FD000F901EE0FFF1FE20FF31FE85FFC4F1F73D5
:100FE0006081607C612B608319821A822CE0622F01
:100FF0000E94931B829FB001112430E020E0AB01DE
:10100000420F531FFA01EE0FFF1FE40FF51FE85FB9
:10101000FC4F908196FD16C02F5F3F4F2C3031055D
:1010200071F7813009F51092800082E08093810091
:101030001092850010928400B19A80916F008260B6
:1010400080936F00E8818E2F90E0FC01EE0FFF1F70
:10105000E80FF91FE85FFC4F8081806480838881FE
:10106000DF91CF911F910895823061F4109290002A
:1010700080939100109295001092940088BB809309
:101080007100E0CF833069F41092A00082E0809379
:10109000A1001092A5001092A40089BB8093720059
:1010A000D1CF8111CFCF1092200182E08093210116
:1010B00010922501109224018ABB80937300C2CF45
:1010C000AF92BF92CF92DF92EF92FF920F931F9356
:1010D000CF93DF936B017A01EC01C159DD4F288179
:1010E0003CE0389F8001399F100D1124A0907302BD
:1010F000B12C27FF1FC0FB011182108288818F5FF6
:10110000888388819801280F311D87FD3A95F60163
:101110002A153B051CF488818C30C4F180819181B3
:10112000049680349C4908F473C0F6018081918153
:10113000049670C088819801280F311D87FD3A956B
:101140002A153B05DCF68881A801480F511D87FD53
:101150005A95FA01EE0FFF1FE40FF51FE85FFC4FF1
:10116000808186FFCBCF8881F801E80FF11D87FDD4
:10117000FA95CF01EE0FFF1FE80FF91FE85FFC4F54
:10118000808160E08F730E947703B8CF8081918166
:101190002881A801420F511D27FD5A959A01FA0195
:1011A000EE0FFF1FE20FF31FE85FFC4F218132813A
:1011B000820F931FF7019183808388819801280F04
:1011C000311D87FD3A95F901EE0FFF1FE20FF31F66
:1011D000E85FFC4F808186FF22C08881080F111DC7
:1011E00087FD1A95F801EE0FFF1FE00FF11FE85F72
:1011F000FC4F808161E08F73DF91CF911F910F9140
:10120000FF90EF90DF90CF90BF90AF900C9477035A
:1012100080E49CE9F701918380838FEF8883DF91DD
:10122000CF911F910F91FF90EF90DF90CF90BF90E3
:10123000AF9008950F931F93CF93DF938C01C4E178
:10124000D5E0C81BD90BBE018AE994E00E94530780
:10125000BE0187E994E00E945307C4EAD6E0C01BB0
:10126000D10BBE0184E994E00E945307BE0181E9DD
:1012700094E0DF91CF911F910F910C9453070F933E
:101280001F93CF93DF938C01C4EAD6E0C81BD90B20
:10129000BE018AE994E00E945307BE0187E994E009
:1012A0000E945307C4E1D5E0C01BD10BBE0184E905
:1012B00094E00E945307BE0181E994E0DF91CF9151
:1012C0001F910F910C945307CF92DF92EF92FF92F0
:1012D00061E080E30E94770383E290E00197F1F7F9
:1012E00060E080E30E9477030E94F3036B017C01BE
:1012F00081E30E944E03892BA1F40E94F3036C1931
:101300007D098E099F0969387E458105910580F325
:1013100060E070E080E89FEBFF90EF90DF90CF906F
:1013200008950E94F3036B017C0181E30E944E0348
:10133000019761F40E94F3036C197D098E099F09DE
:1013400069387E458105910580F3E2CF0E94F30361
:101350006C197D098E099F090E94E91C20E030E08C
:1013600048E652E40E94411CD7CF4F925F926F92A1
:101370007F928F929F92AF92BF92CF92DF92EF9225
:10138000FF920F931F93CF93DF9300D000D000D034
:101390001F92CDB7DEB79A8789872A013B0109835F
:1013A0001A832B833C83DC015B96BC92AE925A97E6
:1013B000FC01ED5BFF4F81E0AA94AB2809F080E0CF
:1013C0008083E985FA8540825182628273828981B5
:1013D0009A81AB81BC8184839583A683B783C086C1
:1013E000D186E286F38666A977A980AD91AD0E9489
:1013F000E91C20E030E04AE754E40E94411C6D8380
:101400007E838F839887E985FA854486558666862C
:1014100077869B01AC0169817A818B819C810E94D6
:10142000A01D4B015C01A985BA8550968D929D92B5
:10143000AD92BC9253972D813E814F815885C70153
:10144000B6010E94411C6B017C01E985FA85C48AC2
:10145000D58AE68AF78A808D918D019759F5A30187
:10146000920160E070E0CB010E94CF1BA985BA8594
:101470001C966D937D938D939C931F97A50194016A
:1014800060E070E0CB010E94CF1BE985FA85608B9C
:10149000718B828B938BA701960160E070E0CB018A
:1014A0000E94CF1BA985BA8554966D937D938D9329
:1014B0009C9357972A960FB6F894DEBF0FBECDBF08
:1014C000DF91CF911F910F91FF90EF90DF90CF9020
:1014D000BF90AF909F908F907F906F905F904F9054
:1014E00008950F931F93CF93DF93EC018B01FC01C1
:1014F000EE5BFF4F8081882361F1888D998D86177F
:10150000970739F12C853D854E855F8560E070E059
:10151000CB010E94CF1B6C877D878E879F87288990
:1015200039894A895B8960E070E0CB010E94CF1B5A
:10153000688B798B8A8B9B8B2C893D894E895F893F
:1015400060E070E0CB010E94CF1B6C8B7D8B8E8B9B
:101550009F8B198F088FDF91CF911F910F91089565
:101560002F923F924F925F926F927F928F929F92B3
:10157000AF92BF92CF92DF92EF92FF920F931F93A1
:10158000CF93DF931C016A017B0148015901A90136
:101590009801CB01B6010E949B1D87FF3BC0F10162
:1015A000C2AED3AEE4AEF5AE8101025C1F4FF801CE
:1015B00080829182A282B38234968081882351F105
:1015C000F101C68DD78D488059806A807B80A30148
:1015D0009201C501B4010E943C1C87FF2EC0888285
:1015E0009982AA82BB82F10186A097A0A0A4B1A48F
:1015F000F801C080D180E280F380A7019601C50187
:10160000B4010E949B1DF101181624F5C6A2D7A2B1
:10161000E0A6F1A6DF91CF911F910F91FF90EF907F
:10162000DF90CF90BF90AF909F908F907F906F9002
:101630005F904F903F902F900895A3019201C701B2
:10164000B6010E949B1D181674F6C882D982EA82E0
:10165000FB82C9CFC2ACD3ACE4ACF5ACA701960118
:10166000C501B4010E943C1C87FFD4CFF101CECF4D
:101670004F925F926F927F928F929F92AF92BF92A2
:10168000CF92DF92EF92FF920F931F93CF93DF934E
:1016900000D01F92CDB7DEB72B013C01809115021F
:1016A0008823D1F11092C5031092C6031092C7038C
:1016B0001092C803A090B704B090B8048AE0C82E76
:1016C00087EDD82E83E2E82E8CE3F82E9701860171
:1016D00049E25CE56FE87DE38DE994E00E94B5099D
:1016E0004092E9045092EA046092EB047092EC0498
:1016F00000E010E020E83FE340E050E060E87FEBEE
:101700008DE994E00E94B00A61E070E08DE994E018
:101710000E94710A109215028090C5039090C60332
:10172000A090C703B090C8038091C9039091CA03E9
:10173000A091CB03B091CC0389839A83AB83BC8304
:101740008092E1049092E204A092E304B092E40457
:101750000E945604C090E504D090E604E090E704AF
:10176000F090E804C092C903D092CA03E092CB0380
:10177000F092CC03A701960169817A818B819C81CB
:101780000E943C1C882331F120E030E048E453E41F
:10179000C701B6010E94A01D9B01AC0160E070E88A
:1017A0008BEB94E40E94CF1B0E94B31C6B018AE96F
:1017B00094E00E945307B60187E994E00E94530722
:1017C000B60184E994E00E945307B60181E994E0F0
:1017D0000E945307A3019201C501B4010E94CF1BCF
:1017E0006B017C0120E030E0A9010E949B1D1816CE
:1017F00024F520E030E040E050E4C701B6010E944B
:101800003C1C87FF24C081E08093150285E090E0B6
:101810000F900F900F900F90DF91CF911F910F912C
:10182000FF90EF90DF90CF90BF90AF909F908F9000
:101830007F906F905F904F90089520E030E040E0FF
:1018400050ECC701B6010E949B1D1816E4F28AE015
:1018500090E0DECFFB0101900020E9F73197AF0166
:10186000461B570BDC01ED91FC910280F381E02DCA
:1018700019944F925F926F927F928F929F92AF9244
:10188000BF92CF92DF92EF92FF920F931F93CF936D
:10189000DF93CDB7DEB7A1970FB6F894DEBF0FBECA
:1018A000CDBF8C016B01770FEE08FF08F7FE50C02B
:1018B000DC01ED91FC910190F081E02D6DE2199534
:1018C0005C0122273327A9012C193D094E095F0924
:1018D00019A2FE01B1967F019AE0492E512C612C8C
:1018E000712CCA01B901A30192010E94711B605DB4
:1018F000D7016E937D01211531054105510589F709
:1019000090E080E0109721F0BD01C8010E942A0CF0
:10191000A80EB91E6AE372E0C8010E942A0C8A0D63
:101920009B1DA1960FB6F894DEBF0FBECDBFDF9111
:10193000CF911F910F91FF90EF90DF90CF90BF90CC
:10194000AF909F908F907F906F905F904F90089591
:10195000A701960119A2FE01B1967F018AE0882EA7
:10196000912CA12CB12CCA01B901A50194010E94AE
:10197000711B605DD7016E937D0121153105410515
:10198000510589F7B12CA12C109721F2BD01C80196
:101990000E942A0C5C01BECFCF92DF92EF92FF92A1
:1019A000CF93DF93EC012A853B854C855D856A8169
:1019B0007B818C819D810E940D1E2E813F814885F7
:1019C00059850E94A01D6B017C0120E030E040EAB7
:1019D00052E40E949B1D181634F4C12CD12C80EACD
:1019E000E82E82E4F82EC701B601DF91CF91FF9077
:1019F000EF90DF90CF900895CF93DF93EC01888133
:101A00000E94D603BC01990F880B990B0E94EB1C16
:101A10006A837B838C839D83CE01DF91CF910C946D
:101A2000CC0CCF92DF92EF92FF928091B90381119B
:101A30000DC00E944A046093B5037093B60380936F
:101A4000B7039093B80381E08093B90364E175E034
:101A50008AE994E00E94530764EA76E087E994E01B
:101A60000E94530764EA76E084E994E00E945307F9
:101A700064E175E081E994E00E945307C090B503EA
:101A8000D090B603E090B703F090B80384E6C80E98
:101A9000D11CE11CF11C0E944A04C616D706E806B8
:101AA000F90618F083E090E033C00E944A04609386
:101AB000B5037093B6038093B7039093B80389E09E
:101AC00095E00E94FC0C20E030E040E051E40E94F0
:101AD0003C1C87FF22C08091B3039091B403019610
:101AE0009093B4038093B3036091B3037091B403F4
:101AF00082E794E00E94390C8091B3039091B40383
:101B0000069784F21092B4031092B30384E090E03D
:101B1000FF90EF90DF90CF9008951092B403109251
:101B2000B303C0CF4F925F926F927F928F929F923A
:101B3000AF92BF92CF92DF92EF92FF920F931F93DB
:101B4000CF93DF932B013C01EA018091130288239C
:101B500069F1A090B704B090B804C12CD12C7601E3
:101B60009701860140E050E060EA71E48DE994E07D
:101B70000E94B5094092E9045092EA046092EB0495
:101B80007092EC0400E010E028EC32E440E050E019
:101B900068EC72EC8DE994E00E94B00A61E070E0BC
:101BA0008DE994E00E94710A10921302CE010E9406
:101BB0000606CE010E94CC0C8090AF039090B0033B
:101BC000A090B103B090B2036093E1047093E2047B
:101BD0008093E3049093E4040E945604C090E504CB
:101BE000D090E604E090E704F090E804C092AF03E0
:101BF000D092B003E092B103F092B203A701960134
:101C0000C501B4010E943C1C882339F0C701B6010C
:101C10000E94B31CCB010E941A09C090AB03D09064
:101C2000AC03E090AD03F090AE0384E6C80ED11C87
:101C3000E11CF11C0E944A04C616D706E806F90604
:101C400018F081E090E039C00E944A046093AB0331
:101C50007093AC038093AD039093AE038DEE94E04C
:101C60000E94FC0C20E030E040E051E40E943C1C6B
:101C700087FF34C06DE372E082E794E00E942A0C93
:101C80006091A9037091AA036F5F7F4F7093AA03BD
:101C90006093A90382E794E00E94390C8091A90324
:101CA0009091AA030B976CF281E08093130210923B
:101CB000AA031092A90385E090E0DF91CF911F91D4
:101CC0000F91FF90EF90DF90CF90BF90AF909F90DB
:101CD0008F907F906F905F904F9008951092AA031D
:101CE0001092A903AECF1F920F920FB60F9211243C
:101CF0002F933F938F939F93AF93BF938091A103B3
:101D00009091A203A091A303B091A4033091A003EA
:101D100023E0230F2D3758F50196A11DB11D209307
:101D2000A0038093A1039093A203A093A303B09375
:101D3000A4038091A5039091A603A091A703B0915D
:101D4000A8030196A11DB11D8093A5039093A6033E
:101D5000A093A703B093A803BF91AF919F918F91D8
:101D60003F912F910F900FBE0F901F90189526E86E
:101D7000230F0296A11DB11DD2CF1F920F920FB655
:101D80000F9211240BB60F922F933F934F935F93B3
:101D90006F937F938F939F93AF93BF93EF93FF9333
:101DA00085ED93E00E941D02FF91EF91BF91AF91ED
:101DB0009F918F917F916F915F914F913F912F9163
:101DC0000F900BBE0F900FBE0F901F9018951F9293
:101DD0000F920FB60F9211240BB60F922F938F9381
:101DE0009F93EF93FF93E091E503F091E6038081E9
:101DF000E091EB03F091EC0382FD1DC09081809196
:101E0000EE038F5F8F732091EF03821741F0E09113
:101E1000EE03F0E0EB52FC4F958F8093EE03FF91C1
:101E2000EF919F918F912F910F900BBE0F900FBE4E
:101E30000F901F9018958081F2CF1F920F920FB6CE
:101E40000F9211240BB60F922F933F934F935F93F2
:101E50006F937F938F939F93AF93BF93EF93FF9372
:101E6000E091DB02F091DC02309749F0A685B7855E
:101E70008585968D91FF16C09C918923B1F4FF91C1
:101E8000EF91BF91AF919F918F917F916F915F91F2
:101E90004F913F912F910F900BBE0F900FBE0F905F
:101EA0001F9018959C91892351F7A389B4899C911F
:101EB0008589809589238C93868997890197F1F785
:101EC000608D718DA685B785558538E020E0CB0102
:101ED0000197F1F7822F90E095958795282F4C91E7
:101EE000452309F02068315091F7868D81FD2095BA
:101EF0008091DA0290E001968F7399273091D90290
:101F0000381799F0A091DA02B0E0AC58BD4F2C938D
:101F10008093DA02828D938D0197F1F7A389B489BA
:101F20008C919589892B8C93AACF868D8160868F21
:101F3000F1CF1F920F920FB60F9211240BB60F9292
:101F40002F933F934F935F936F937F938F939F93C1
:101F5000AF93BF93EF93FF9348E251E064E271E0E7
:101F600090E080E00E946008FF91EF91BF91AF91F7
:101F70009F918F917F916F915F914F913F912F91A1
:101F80000F900BBE0F900FBE0F901F9018951F92D1
:101F90000F920FB60F9211240BB60F922F933F930F
:101FA0004F935F936F937F938F939F93AF93BF9361
:101FB000EF93FF9348EA50E064EA70E083E090E03A
:101FC0000E946008FF91EF91BF91AF919F918F9117
:101FD0007F916F915F914F913F912F910F900BBE29
:101FE0000F900FBE0F901F9018951F920F920FB673
:101FF0000F9211240BB60F922F933F934F935F9341
:102000006F937F938F939F93AF93BF93EF93FF93C0
:1020100048E950E064E970E082E090E00E946008E6
:10202000FF91EF91BF91AF919F918F917F916F91B0
:102030005F914F913F912F910F900BBE0F900FBE6C
:102040000F901F9018951F920F920FB60F921124A8
:102050000BB60F922F933F934F935F936F937F93A2
:102060008F939F93AF93BF93EF93FF9348E850E014
:1020700064E870E081E090E00E946008FF91EF91D9
:10208000BF91AF919F918F917F916F915F914F9190
:102090003F912F910F900BBE0F900FBE0F901F908E
:1020A0001895FC0190917302903398F481E0890FA8
:1020B000809373029083892F90E0FC01EE0FFF1F45
:1020C000E80FF91FE85FFC4F88EB9BE09283818368
:1020D00008958FEF808308954F925F926F927F9261
:1020E000AF92BF92CF92DF92EF92FF920F931F9326
:1020F0001092D8031092D70338EE432E33E0532EBC
:10210000612C712C4092D9035092DA036092DB0368
:102110007092DC038AE192E09093D6038093D5031A
:1021200085EC90E09093E2038093E10384EC90E0EF
:102130009093E4038093E30380EC90E09093E603B4
:102140008093E50381EC90E09093E8038093E703AC
:1021500082EC90E09093EA038093E90386EC90E0B0
:102160009093EC038093EB031092EE031092EF0335
:102170001092F0031092F1038AE994E00E9451104A
:1021800087E994E00E94511084E994E00E94511084
:1021900081E994E00E945110109275041092740429
:1021A0004092760450927704609278047092790499
:1021B0008CE292E0909373048093720410928904ED
:1021C0001092880410928B0410928A0410928D044D
:1021D00010928C0410928F0410928E0460919004DF
:1021E0006E7F6D7F609390046695617081E06827D3
:1021F0008BE00E94770361E08BE00E94A503EBE196
:10220000F3E0E491E0938204E5EDF2E0E491F0E0A4
:10221000EE0FFF1FE055FD4F85919491909384043C
:102220008093830460E08AE00E94A503809190047B
:1022300081FD04C061E08AE00E9477038AE0809318
:102240007E04EAE1F3E0E491E0937F04E4EDF2E060
:10225000E491F0E0EE0FFF1FEA56FD4F8591949157
:1022600090938104809380041092180510921705B2
:102270001092190510921A0510921B0510921C0558
:1022800010920A051092090510920B0510920C0588
:1022900010920D0510920E051092FC041092FB0492
:1022A0001092FD041092FE041092FF04109200059B
:1022B0001092EE041092ED041092EF041092F004CC
:1022C0001092F1041092F20485EE94E09093BC0415
:1022D0008093BB0481EE94E09093BA048093B90498
:1022E00089EE94E09093BE048093BD041092DF04C5
:1022F0001092D7041092D8041092D9041092DA04E4
:1023000080E090E0AFE7B3E48093DB049093DC04DB
:10231000A093DD04B093DE0494E6492E512C612C89
:10232000712C4092D3045092D4046092D5047092E0
:10233000D60470E060E08DE994E00E94710AAA245E
:10234000A394B12CC12CD12C76019701860140E0D9
:1023500050E060E87FE38DE994E00E94B5090E94B7
:102360004A040091D3041091D4042091D5043091F3
:10237000D604601B710B820B930B6093BF047093A8
:10238000C0048093C1049093C2048DE695E09093BD
:1023900044058093430589E695E090934205809338
:1023A000410581E795E0909346058093450510929D
:1023B0006705C0925F05D0926005E0926105F092DA
:1023C000620580E090E0AFE7B3E48093630590930B
:1023D0006405A0936505B093660540925B05509235
:1023E0005C0560925D0570925E0561E070E085E2DB
:1023F00095E00E94710A97018601B701A60185E266
:1024000095E00E94B5090E944A0440905B055090F7
:102410005C0560905D0570905E056419750986091C
:1024200097096093470570934805809349059093F9
:102430004A051F910F91FF90EF90DF90CF90BF90D2
:10244000AF907F906F905F904F900895CF93DF9300
:1024500000D01F92CDB7DEB7789484B5826084BD7A
:1024600084B5816084BD85B5826085BD85B5816098
:1024700085BD80916E00816080936E001092810016
:1024800080918100826080938100809181008160D1
:102490008093810080918000816080938000809192
:1024A000B10084608093B1008091B000816080931E
:1024B000B0008091910082608093910080919100A2
:1024C0008160809391008091900081608093900062
:1024D0008091A10082608093A1008091A100816021
:1024E0008093A1008091A00081608093A0008091E2
:1024F000210182608093210180912101816080937C
:1025000021018091200181608093200180917A00D7
:10251000846080937A0080917A00826080937A0050
:1025200080917A00816080937A0080917A0080683F
:1025300080937A001092C10080E090E0A8E4B2E4B9
:102540008093E1049093E204A093E304B093E40445
:102550001092E5041092E6041092E7041092E80449
:102560008093E9049093EA04A093EB04B093EC0405
:102570008091DF04811149C0E091BB04F091BC045B
:10258000C080D180E280F380C092C304D092C404A2
:10259000E092C504F092C604E091B904F091BA0447
:1025A00080819181A281B3818093C7049093C804F4
:1025B000A093C904B093CA048090DB049090DC041B
:1025C000A090DD04B090DE04A5019401C701B6011E
:1025D0000E949B1D18164CF48092C3049092C40470
:1025E000A092C504B092C60410C08090D704909009
:1025F000D804A090D904B090DA04A5019401C701D1
:10260000B6010E943C1C87FDE7CF81E08093DF0488
:1026100000E010E028EC32E440E050E068EC72ECBE
:102620008DE994E00E94B00A70E060E08DE994E0EA
:102630000E94710A61E08DE00E94A50361E080E3E1
:102640000E94A50360E080E30E9477038BE390E0A3
:1026500090931805809317058AE999E8A6EEB4E4EB
:1026600080931D0590931E05A0931F05B093200530
:1026700081EE9AE7A4E7BFEB8093210590932205B2
:10268000A0932305B093240560E08BE30E94A5038B
:102690008AE390E090930A058093090580E090E931
:1026A000AFE1B6E480930F0590931005A093110558
:1026B000B093120582E193E8A0E9BFEB8093130584
:1026C00090931405A0931505B093160560E08AE376
:1026D0000E94A5038DE390E09093FC048093FB049B
:1026E00080EC92E9A6E5B8E4809301059093020599
:1026F000A0930305B093040581E895E9A3EDBFEB32
:102700008093050590930605A0930705B0930805EF
:1027100060E08DE30E94A5038CE390E09093EE04CB
:102720008093ED0480E09FE7A5EDB7E48093F30488
:102730009093F404A093F504B093F6048BE39FED1B
:10274000AFEDBFEB8093F7049093F804A093F904E6
:10275000B093FA0460E08CE30E94A5030AE010E065
:102760001C821B8289E30E94D6037C01BC0185ED9B
:1027700093E00E94390C8B819C818E0D9F1D9C8360
:102780008B8365E070E080E090E00E9418040150C7
:10279000110941F76FE472E085ED93E00E942A0C85
:1027A0006B817C8185ED93E00E94390C8B819C814B
:1027B0006AE070E00E949F1B7093B5026093B402C0
:1027C00068E572E085ED93E00E942A0C6091B40206
:1027D0007091B50285ED93E00E94390C68EE73E0CC
:1027E00080E090E00E9418040E944A04AB01BC0102
:1027F0008091B6029091B702A091B802B091B9024F
:102800000696A11DB11D84179507A607B7070CF002
:102810004CC089E30E94D6032091B4023091B502E6
:10282000BC01621B730BCB010196039710F470E09F
:1028300060E0072E000C880B990B0E94EB1C26EA27
:102840003BE944EC5BE30E94411C28E638EE4FE98B
:102850005BE30E94A01D20E030E040EC50E40E94C9
:10286000A01D20E030E04AE754E40E94411C9B0197
:10287000AC016091C5037091C6038091C70390912C
:10288000C8030E94D01B6093C5037093C603809356
:10289000C7039093C8030E944A046093B6027093E2
:1028A000B7028093B8029093B90220901102309041
:1028B000120294E02916310479F1A5E02A163104B8
:1028C00009F44CC6B3E02B16310409F06AC168EE76
:1028D00073E080E090E00E9418046EE270E08AE904
:1028E00094E00E94D8076FE270E087E994E00E94CC
:1028F000D80762E370E084E994E00E94D80763E3BC
:1029000070E081E994E00E94D80784E090E0909321
:1029100012028093110245C10E944A040091BB0239
:102920001091BC022091BD023091BE02061717071C
:1029300028073907E0F48091BA028F5F8093BA02CA
:10294000853008F4BFC00E944A0464547D4F8F4F05
:102950009F4F6093BB027093BC028093BD02909323
:10296000BE0260E08DE00E9477031092BA0280916F
:102970000F02909110029C838B83069709F4CDC1BE
:1029800089E095E00E9406068BEF94E00E9406061F
:102990000E944A044B015C0180910102882361F08E
:1029A0000E9464096093CB027093CC028093CD02A5
:1029B0009093CE02109201028091C7029091C802BA
:1029C000A091C902B091CA028C509E4FAF4FBF4F29
:1029D00088159905AA05BB050CF05BC00E94640927
:1029E000C090C302D090C402E090C502F090C6022D
:1029F00089E095E00E94CC0C9B01AC01C701B601B7
:102A00000E94CF1B20E030E04CE852EC0E943C1CBE
:102A100087FF1AC080910002882371F08BEF94E049
:102A20000E94CC0C6093BF027093C0028093C102DD
:102A30009093C202109200021092C3021092C4023C
:102A40001092C5021092C602C090C503D090C60372
:102A5000E090C703F090C80320E030E0A901C7016F
:102A6000B6010E949B1D18160CF045C020E030E016
:102A70004AE253E4C701B6010E949B1D18160CF4EC
:102A800044C08092C7029092C802A092C902B0923C
:102A9000CA02AB81BC81AC30B10508F057C5FD015D
:102AA0008827EA5AFA4E8F4F0C94B31BD4157A1626
:102AB0008815A61AA61AAB1AA61A70181A194A1956
:102AC0001C1A231A0E944A046C597F4F8F4F9F4F44
:102AD0006093BB027093BC028093BD029093BE02D0
:102AE0008DE00E944E0361E0892B09F060E08DE0EB
:102AF0000E9477033CCF20E030E04AE253ECC7016C
:102B0000B6010E943C1C87FFBCCF0E946409B9CF6C
:102B100080910202882361F00E944A046093CF02F0
:102B20007093D0028093D1029093D202109202024D
:102B300064E175E08AE994E00E94530764EA76E074
:102B400087E994E00E94530764EA76E084E994E020
:102B50000E94530764E175E081E994E00E94530705
:102B6000C090CF02D090D002E090D102F090D2027B
:102B7000B8ECCB0ED11CE11CF11C0E944A04C61615
:102B8000D706E806F90648F481E08093020281E066
:102B900090E09093100280930F02309212022092E4
:102BA00011020E94B60220CE80910E02882331F0DD
:102BB0008BEF94E00E94FC0C10920E0280910302B5
:102BC0008823A9F1A090B704B090B804C12CD12CEF
:102BD000E0E8EE2EEFE3FE2E00E010E0980140E08A
:102BE00050E060EA71E48DE994E00E94B50980E06C
:102BF00090E0A0E1B1E48093E9049093EA04A0930B
:102C0000EB04B093EC0400E010E028EC32E440E088
:102C100050E068EC72EC8DE994E00E94B00A61E04B
:102C200070E08DE994E00E94710A1092030287E13E
:102C300095E00E94060687E195E00E94CC0C80900A
:102C4000D5029090D602A090D702B090D80260939F
:102C5000E1047093E2048093E3049093E4040E94FF
:102C60005604C090E504D090E604E090E704F090AC
:102C7000E804C092D502D092D602E092D702F09238
:102C8000D802A7019601C501B4010E943C1C88230B
:102C900019F1C701B6010E94B31CCB010E943F0984
:102CA0000E94640920E030E040E251E40E943C1CB4
:102CB00087FF1BC08091D3029091D402019690931C
:102CC000D4028093D30204973CF081E08093030206
:102CD00088E090E09C838B83AB81BC81B093100231
:102CE000A0930F021092070358CF1092D4021092B3
:102CF000D302F2CF80910E02882331F08BEF94E063
:102D00000E94FC0C10920E024BEF54E060E070E069
:102D100080E191E40E94920D3CCF809106028823CD
:102D200009F4B4C010928D0410928C0410928B049C
:102D300010928A0410928904109288048FE190E026
:102D400090938F0480938E0480917E0496EF980F69
:102D5000943048F02EEC280F243028F022EC280F75
:102D6000283008F062C021E030E0309389042093DD
:102D700088042DE130E030938B0420938A042DE009
:102D800030E030938D0420938C04943050F02EEC7E
:102D9000280F243030F022EC280FF0E0E0E028305B
:102DA00010F4E8E6F0E03081943028F022EC280FAF
:102DB000283008F483C021E0232B943048F09EECA7
:102DC000980F943028F08E53F0E0E0E0883010F453
:102DD000E8E6F0E0208380917E0496EF980F94302F
:102DE00008F46EC02EEC280F243008F469C022ECE1
:102DF000280F283008F467C030E020E030938604C4
:102E000020938504943008F061C08650990B91E0BE
:102E100001C0990F8A95EAF7892F809387048091E2
:102E20008E0490918F040197F1F780918C0490911A
:102E30008D04892B49F1E091DB02F091DC0294E0F2
:102E4000E237F90709F1309739F0A389B4898C91F9
:102E50009589909589238C93809190048E7F80939F
:102E600090041092DA021092D902A2E7B4E0B09373
:102E7000DC02A093DB02E0918504F091860490814E
:102E800080918704892B808310920602E0910402CE
:102E9000F0910502EA30F10508F040C08827EC5AAD
:102EA000F84E8F4F0C94B31B7B17951714182718E7
:102EB0002A183A18481853185E186B1824E07CCF6B
:102EC0002BE630E09BCF2DE630E098CF823359F0EF
:102ED000833359F0843359F092EC980F983048F4CA
:102EE0008E53990B94CF88E098CF84E096CF82E000
:102EF00094CF81E092CF68EC70E080E090E00E9497
:102F00008A07089739F085E090E090930502809356
:102F1000040204C01092050210920402AB81BC812D
:102F2000B0931002A0930F0238CE89E095E00E9482
:102F3000FC0C7B018C018BEF94E00E94FC0C6983FC
:102F40007A836C018DEE94E00E94FC0C2B013C0115
:102F50000E9464094B015C0129813A81A601B701F5
:102F6000C8010E949B1D18160CF442C01092DD028D
:102F70001092DE021092DF021092E0029701A80187
:102F8000C301B2010E943C1C87FF42C080E090E078
:102F9000A4EBB2EC8093DD029093DE02A093DF02FB
:102FA000B093E002A5019401C301B2010E949B1DF0
:102FB0001816DCF480E090E0A4EBB2E48093DD022C
:102FC0009093DE02A093DF02B093E00220E030E0B5
:102FD000A9016091DD027091DE028091DF02909183
:102FE000E0020E943C1C8823E1F082E090E08DCF5B
:102FF00080E090E0A4E3B3E48093DD029093DE02EE
:10300000A093DF02B093E002E980FA808601B6CF98
:103010009701A801C501B4010E943C1C87FDCACFDD
:10302000D5CF83E090E071CF6091DD027091DE0238
:103030008091DF029091E0020E94380BA3E0B0E0A3
:103040000A9799F2B0930502A093040267CF0E94F9
:10305000110D5BCF0E94640920E030E048EC52E49F
:103060000E949B1D18161CF086E090E04ECF90E069
:1030700080E04BCF49E055E060E070E080E291E411
:103080000E94920D019709F43ECF1C821B8246CF0D
:1030900064EF71E080E090E00E948A07089721F3D6
:1030A000A7E0B0E0CFCF60E070E084EB92E40E9454
:1030B000380B0A97A9F3A8E0B0E0C4CF0E946409D6
:1030C00020E030E040EF52E40E949B1D18162CF0E7
:1030D0008AE090E01ACF0E94110D89E090E015CFB0
:1030E000809107028823A9F11092C5031092C603AC
:1030F0001092C7031092C803A090B704B090B80410
:10310000C12CD12C76019701860140E050E060EAA5
:1031100071E48DE994E00E94B509C092E904D0926F
:10312000EA04E092EB04F092EC0400E010E028ECFA
:1031300032E440E050E068EC72EC8DE994E00E94EB
:10314000B00A61E070E08DE994E00E94710A10928B
:1031500007028090E3029090E402A090E502B09014
:10316000E6028091C5039091C603A091C703B09178
:10317000C8038093E1049093E204A093E304B09326
:10318000E4040E945604C090E504D090E604E09068
:10319000E704F090E804C092E302D092E402E092E7
:1031A000E502F092E602A7019601C501B4010E9472
:1031B0003C1C882319F1C701B6010E94B31CCB0146
:1031C0000E943F090E94640920E030E040E551E49C
:1031D0000E943C1C87FF29C08091E1029091E2028D
:1031E00001969093E2028093E10204973CF081E023
:1031F0008093070288E090E09C838B83AB81BC8145
:10320000B0931002A0930F028BEF94E00E94060689
:103210008BEF94E00E94CC0C60930A0270930B0237
:1032200080930C0290930D025DCD1092E2021092F9
:10323000E102E4CF81E080930E0262E573E080E07A
:1032400090E00E948A079093100280930F020897E3
:1032500051F080910703882331F087E090E090934C
:10326000100280930F0220E030E040E252E46091CF
:103270000A0270910B0280910C0290910D020E9443
:103280003C1C87FF8ACC80910703811186CC8BE0A0
:1032900090E07FCC8091F10281110DC00E944A0420
:1032A0006093ED027093EE028093EF029093F00230
:1032B00081E08093F102809108028823A9F11092A5
:1032C000C5031092C6031092C7031092C803A090C2
:1032D000B704B090B804C12CD12C760197018601B7
:1032E00040E050E060EA71E48DE994E00E94B509A5
:1032F000C092E904D092EA04E092EB04F092EC046C
:1033000000E010E028EC32E440E050E068EC72ECC1
:103310008DE994E00E94B00A61E070E08DE994E0EC
:103320000E94710A109208028090E9029090EA02CD
:10333000A090EB02B090EC028091C5039091C6037F
:10334000A091C703B091C8038093E1049093E20475
:10335000A093E304B093E4040E945604C090E504F3
:10336000D090E604E090E704F090E804C092E9020F
:10337000D092EA02E092EB02F092EC02A7019601F1
:10338000C501B4010E943C1C882339F0C701B60175
:103390000E94B31CCB010E941A09C090ED02D0908C
:1033A000EE02E090EF02F090F00294E6C90ED11C1C
:1033B000E11CF11C0E944A04C616D706E806F9066D
:1033C00060F50E944A046093ED027093EE028093D0
:1033D000EF029093F0028DEE94E00E94FC0C20E04E
:1033E00030E040E251E40E943C1C87FF20C0809105
:1033F000E7029091E80201969093E8028093E70239
:103400000B975CF081E0809308021092E802109222
:10341000E702A8E0B0E0BC83AB838B819C819093F2
:10342000100280930F0281E080930703B6CB1092C5
:10343000E8021092E702F1CF60E070E084E393E4E9
:103440000E94380BA6CB8091FF0281110DC00E9413
:103450004A046093FB027093FC028093FD029093F8
:10346000FE0281E08093FF0280910902882351F0DF
:103470006091F9027091FA0282E794E00E94390C9F
:103480001092090264EA76E08AE994E00E94530708
:1034900064E175E087E994E00E94530764E175E018
:1034A00084E994E00E94530764EA76E081E994E0BD
:1034B0000E945307C090FB02D090FC02E090FD02F6
:1034C000F090FE0294E6C90ED11CE11CF11C0E9492
:1034D0004A04C616D706E806F90680F50E944A0493
:1034E0006093FB027093FC028093FD029093FE02B6
:1034F0008BEF94E00E94FC0C20E030E040E051E4CF
:103500000E943C1C87FF1DC08091F9029091FA0235
:1035100001969093FA028093F9028091F9029091BA
:10352000FA0206975CF081E0809309021092FA0299
:103530001092F902A2E0B0E0BC83AB838B819C8146
:1035400028CB1092FA021092F902F8CF10921002D2
:1035500010920F0222CB2B803C801FCB6CED75E0CC
:103560008AE994E00E9453076CED75E087E994E0E6
:103570000E9453076CED75E084E994E00E945307C4
:103580006CED75E081E994E00E94530720919A0464
:1035900030E0C901880F991F820F931FFC01E85F7B
:1035A000FC4F80818F7B80832091970430E0C9019C
:1035B000880F991F820F931FFC01E85FFC4F8081E9
:1035C0008F7B80832091940430E0C901880F991F7C
:1035D000820F931FFC01E85FFC4F80818F7B80830B
:1035E0002091910430E0C901880F991F820F931F29
:1035F000FC01E85FFC4F80818F7B808360E08EE27E
:103600000E94A50360E08FE20E94A50360E082E3D0
:103610000E94A50360E083E30E94A5030E944A0480
:10362000009198031091990320919A0330919B0384
:10363000601B710B820B930B613D774081059105F7
:10364000A0F00E944A0460939803709399038093BA
:103650009A0390939B038DE00E944E0361E0892BB7
:1036600009F060E08DE00E9477030E944A04009117
:103670009C0310919D0320919E0330919F03601B3A
:10368000710B820B930B653F71408105910550F0E2
:103690000E944A0460939C0370939D0380939E0351
:1036A00090939F0385E090E032C98CE292E0909382
:1036B0007304809372048091DB029091DC02825744
:1036C000944071F4E0918504F0918604908180919A
:1036D00087048095892380831092DC021092DB029C
:1036E0000895A1E21A2EAA1BBB1BFD010DC0AA1F43
:1036F000BB1FEE1FFF1FA217B307E407F50720F05B
:10370000A21BB30BE40BF50B661F771F881F991FD5
:103710001A9469F760957095809590959B01AC011E
:10372000BD01CF010895991B79E004C0991F961738
:1037300008F0961B881F7A95C9F78095089597FB26
:10374000072E16F4009407D077FD09D00E94BB1B0A
:1037500007FC05D03EF4909581959F4F0895709594
:1037600061957F4F0895EE0FFF1F881F8BBF079055
:10377000F691E02D1994AA1BBB1B51E107C0AA1FAB
:10378000BB1FA617B70710F0A61BB70B881F991F02
:103790005A95A9F780959095BC01CD010895505890
:1037A000BB27AA270E94E71B0C94611D0E94531D92
:1037B00038F00E945A1D20F039F49F3F19F426F486
:1037C0000C94501D0EF4E095E7FB0C944A1DE92F74
:1037D0000E94721D58F3BA17620773078407950792
:1037E00020F079F4A6F50C94941D0EF4E0950B2EC0
:1037F000BA2FA02D0B01B90190010C01CA01A00143
:103800001124FF27591B99F0593F50F4503E68F19D
:103810001A16F040A22F232F342F4427585FF3CFDE
:10382000469537952795A795F0405395C9F77EF4AF
:103830001F16BA0B620B730B840BBAF09150A1F0F8
:10384000FF0FBB1F661F771F881FC2F70EC0BA0F7E
:10385000621F731F841F48F4879577956795B79506
:10386000F7959E3F08F0B0CF9395880F08F0992701
:10387000EE0F9795879508950E94261D08F481E024
:1038800008950E94551C0C94611D0E945A1D58F009
:103890000E94531D40F029F45F3F29F00C944A1D0B
:1038A00051110C94951D0C94501D0E94721D68F3CB
:1038B0009923B1F3552391F3951B550BBB27AA27E9
:1038C00062177307840738F09F5F5F4F220F331F23
:1038D000441FAA1FA9F335D00E2E3AF0E0E832D0EB
:1038E00091505040E695001CCAF72BD0FE2F29D0EE
:1038F000660F771F881FBB1F261737074807AB07C0
:10390000B0E809F0BB0B802DBF01FF2793585F4F34
:103910003AF09E3F510578F00C944A1D0C94951D89
:103920005F3FE4F3983ED4F3869577956795B79516
:10393000F7959F5FC9F7880F911D9695879597F921
:103940000895E1E0660F771F881FBB1F621773079A
:103950008407BA0720F0621B730B840BBA0BEE1FAF
:1039600088F7E09508950E94BA1C6894B1110C94F0
:10397000951D08950E947A1D88F09F5798F0B92FE1
:103980009927B751B0F0E1F0660F771F881F991F94
:103990001AF0BA95C9F714C0B13091F00E94941D85
:1039A000B1E008950C94941D672F782F8827B85F95
:1039B00039F0B93FCCF3869577956795B395D9F7EC
:1039C0003EF490958095709561957F4F8F4F9F4FF6
:1039D0000895E89409C097FB3EF490958095709502
:1039E00061957F4F8F4F9F4F9923A9F0F92F96E94B
:1039F000BB279395F695879577956795B795F111C0
:103A0000F8CFFAF4BB0F11F460FF1BC06F5F7F4F5C
:103A10008F4F9F4F16C0882311F096E911C077236E
:103A200021F09EE8872F762F05C0662371F096E877
:103A3000862F70E060E02AF09A95660F771F881F46
:103A4000DAF7880F9695879597F90895990F0008EA
:103A5000550FAA0BE0E8FEEF16161706E807F90760
:103A6000C0F012161306E407F50798F0621B730BFB
:103A7000840B950B39F40A2661F0232B242B252B7C
:103A800021F408950A2609F4A140A6958FEF811D1F
:103A9000811D089597F99F6780E870E060E00895C0
:103AA0009FEF80EC089500240A9416161706180656
:103AB0000906089500240A94121613061406050632
:103AC0000895092E0394000C11F4882352F0BB0FC3
:103AD00040F4BF2B11F460FF04C06F5F7F4F8F4F26
:103AE0009F4F089557FD9058440F551F59F05F3F61
:103AF00071F04795880F97FB991F61F09F3F79F010
:103B000087950895121613061406551FF2CF469591
:103B1000F1DF08C0161617061806991FF1CF869513
:103B20007105610508940895E894BB2766277727F7
:103B3000CB0197F908950E94261D08F48FEF089590
:103B40000E94B31D0C94611D0E94531D38F00E9409
:103B50005A1D20F0952311F00C944A1D0C94501D11
:103B600011240C94951D0E94721D70F3959FC1F352
:103B7000950F50E0551F629FF001729FBB27F00D1B
:103B8000B11D639FAA27F00DB11DAA1F649F662770
:103B9000B00DA11D661F829F2227B00DA11D621FBF
:103BA000739FB00DA11D621F839FA00D611D221F79
:103BB000749F3327A00D611D231F849F600D211D5D
:103BC000822F762F6A2F11249F5750409AF0F1F0E0
:103BD00088234AF0EE0FFF1FBB1F661F771F881F49
:103BE00091505040A9F79E3F510580F00C944A1D1A
:103BF0000C94951D5F3FE4F3983ED4F3869577953A
:103C00006795B795F795E7959F5FC1F7FE2B880FEE
:103C1000911D9695879597F90895FA01EE0FFF1F6C
:103C2000309621053105A1F16115710561F48038E7
:103C3000BFE39B0749F168949038810561F08038B3
:103C4000BFEF9B0741F099234AF5FF3FE10531059E
:103C5000210519F1E8940894E795D901AA2329F4DC
:103C6000AB2FBE2FF85FD0F310C0FF5F70F4A695A6
:103C7000E0F7F73950F019F0FF3A38F49F779F9347
:103C80000DD00F9007FC9058089546F00C94501DED
:103C900060E070E080E89FE308954FE79F775F93CF
:103CA0004F933F932F930E94081F2F913F914F9165
:103CB0005F910E94A01D0C94651E29F416F00C94CF
:103CC0004A1D0C94941D0C94501D0E947A1DA8F35B
:103CD0009638A0F707F80F92E8942BE33AEA48EBFE
:103CE0005FE70E94B61D0F920F920F924DB75EB71D
:103CF0000F920E94501FE4EEF0E00E94971E4F9139
:103D00005F91EF91FF91E595EE1FFF1F49F0FE5780
:103D1000E0684427EE0F441FFA95E1F74195550BF3
:103D20000E94CA1E0F9007FE0C94BE1E0895DF93DA
:103D3000CF931F930F93FF92EF92DF927B018C0141
:103D4000689406C0DA2EEF010E94B31DFE01E894CC
:103D5000A5912591359145915591A6F3EF010E94CA
:103D6000E71BFE019701A801DA9469F7DF90EF9055
:103D7000FF900F911F91CF91DF9108959B01AC01AE
:103D800060E070E080E89FE30C94411C0C944A1DB5
:103D90000C94841F0E947A1DD8F39923C9F3940FC1
:103DA000511DA3F39150504094F059F0882332F004
:103DB000660F771F881F91505040C1F79E3F5105F5
:103DC0002CF7880F911D9695879597F908955F3F79
:103DD000ACF0983E9CF0BB27869577956795B79594
:103DE00008F4B1609395C1F7BB0F58F711F460FF69
:103DF000E8CF6F5F7F4F8F4F9F4FE3CF0C94951DA0
:103E000016F00C94841F0C94501D68940C944A1D59
:103E10000E947A1DA8F39923C1F3AEF3DF93CF93E9
:103E20001F930F93FF92C92FDD2788232AF0219734
:103E3000660F771F881FDAF720E030E040E85FEB7D
:103E40009FE3883920F0803E38F021968F770E94DA
:103E5000D01BECE0F1E004C00E94D01BE9E3F1E0EC
:103E60000E94971E8B01BE01EC01FB2E6F5771095A
:103E70007595771F880B990B0E94EB1C28E132E7A0
:103E800041E35FE30E94B31DAF2D9801AE01FF90A7
:103E90000F911F91CF91DF910E94E71B0C94611D40
:103EA000FA01DC01AA0FBB1F9B01AC01BF5728F42C
:103EB000222733274427507820C0B75190F4AB2FE6
:103EC0000024469537952795011CA395D2F3002031
:103ED00071F0220F331F441FB395DAF30ED00C9408
:103EE000CF1B61307105A0E88A07B94630F49B0109
:103EF000AC016627772788279078309621F02083B9
:103F000031834283538308959F3F31F0915020F4D1
:103F1000879577956795B795880F911D96958795A5
:103F200097F9089511E0CCEAD1E000E006C0802FB7
:103F3000FE010E94B31B2196011DCD3AD10780E0FE
:083F40000807A9F7F894FFCF70
:103F480001010101010001010101000048420106CF
:103F5800000300010101000000003F027506E001B6
:103F68008C021102EF01030200000000BB06750677
:103F78005007BA0617072F07A2060D0A0053656EE9
:103F8800736F722072656164696E67203C380073D4
:103F9800756D2069733A20007A65726F4779726F80
:0E3FA800566F6C746167652069733A200000E3
:00000001FF
