:100000000C9485010C94B6010C94B6010C94B601C5
:100010000C94B6010C94B6010C94B6010C94B60184
:100020000C94B6010C94980C0C94980C0C94980CAD
:100030000C94B6010C94B6010C94B6010C94B60164
:100040000C94B6010C949E0D0C94B6010C94B60160
:100050000C94B6010C94B6010C94B6010C94EE0B02
:100060000C94B6010C94620C0C94380C0C94B601F0
:100070000C94B6010C94B6010C94B6010C94B60124
:100080000C94700D0C94B6010C94B6010C94B6014E
:100090000C94B6010C94B6010C94B6010C94B60104
:1000A0000C94B6010C94B6010C94420D0C94B6015C
:1000B0000C94B6010C94B6010C94B6010C94140D7A
:1000C0000C94B6010C94B6010C94B6010C94B601D4
:1000D0000C94B6010C94B6010C94B6010C94B601C4
:1000E0000C94B60107634236B79BD8A71A396856F5
:1000F00018AEBAAB558C1D3CB7CC5763BD6DEDFD4A
:10010000753EF6177231BF000000803F0800000006
:10011000BE922449123EABAAAA2ABECDCCCC4C3EFC
:1001200000000080BEABAAAAAA3E00000000BF00EB
:100130000000803F0000000000084178D3BB4387E7
:10014000D1133D190E3CC3BD4282AD2B3E68EC82FB
:1001500076BED98FE1A93E4C80EFFFBE01C4FF7F80
:100160003F00000000000C94C1160C94CB030C94CB
:10017000B6030C94E3030C9488070C94B8020C9417
:10018000BA030C94D9030C94E7030C94B2030C94B7
:10019000AA020C94D5030C94E6020C94AD060C94C0
:1001A000C7030C94AC030C9496020C94EC030C94CF
:1001B000ED030C9433030C94F1030C944F070C944F
:1001C00067070C94F2060C94DA060C94DF030C9487
:1001D000F3060C9487020C94D1030C94BE030C9488
:1001E000E70D0C94C10300002100240027002A0021
:1001F0002D003000330001010000040107010A0155
:1002000000000A0B02090C0D0E0807030401000090
:1002100000000000000000000000000000000000DE
:10022000000000000000000000000000121110009B
:1002300000000000000000000000000000000000BE
:10024000000000000000000020002300260029001C
:100250002C002F00320000010000030106010901FB
:1002600000002200250028002B002E003100340061
:1002700002010000050108010B0105050505070540
:1002800008080808020202020A0A08080404040412
:10029000010101010101010103030303030303033E
:1002A000040707070C0C0C0C0C0C0C0C02020202CD
:1002B00006060606060606060B0B0B0B0B0B0B0BB6
:1002C0000102102020080810204010204080020168
:1002D000020108040201010204081020408080404D
:1002E000201008040201800402018040201008044C
:1002F00002010804020101020408102040800102EA
:10030000040810204080E70DC11611241FBECFEF56
:10031000D1E2DEBFCDBF00E00CBF12E0A0E0B2E052
:10032000EAE2F6E300E00BBF02C007900D92A436AC
:10033000B107D9F725E0A4E6B2E001C01D92AC31C7
:10034000B207E1F711E0C4E8D1E000E006C0219770
:100350000109802FFE010E941F17C338D10780E0DA
:100360000807A9F70E94A10F0C94031B0C9400002E
:10037000109234041092330410923204109231041B
:100380001092300410922F048FE190E09093360485
:10039000809335048091250496EF980F943048F0AF
:1003A0002EEC280F243028F022EC280F283008F0FB
:1003B00061C021E030E03093300420932F042DE120
:1003C00030E030933204209331042DE030E030935C
:1003D000340420933304943050F02EEC280F243052
:1003E00030F022EC280FF0E0E0E0283010F4E8E6EE
:1003F000F0E02081943028F032EC380F383008F4E7
:1004000069C031E0232B943048F09EEC980F943073
:1004100028F08E53F0E0E0E0883010F4E8E6F0E0F9
:1004200020832091250436EF320F343008F454C075
:100430008EEC820F843008F44FC082EC820F88303B
:1004400008F44DC090E080E090932D0480932C043C
:10045000343008F047C02650330B81E001C0880FCC
:100460002A95EAF780932E04809135049091360402
:100470000197F1F78091330490913404892B49F16D
:10048000E0917A03F0917B0384E0E931F80709F108
:10049000309739F0A389B4899C9185898095892307
:1004A0008C93809137048E7F809337041092790368
:1004B0001092780389E194E090937B0380937A0310
:1004C000E0912C04F0912D04808190912E04892BD1
:1004D0008083089534E096CF8BE690E0B5CF8DE62B
:1004E00090E0B2CF88E0223309F4BCCF84E023331C
:1004F00009F4B8CF82E0243309F4B4CF82EC820F40
:10050000883018F42E53330BA8CF81E0ABCFFC0119
:10051000538D448D252F30E0842F90E0821B930B68
:10052000541710F0CF96089501970895FC01918D0E
:10053000828D981761F0A28DAE0FBF2FB11D5D9611
:100540008C91928D9F5F9F73928F90E008958FEFB3
:100550009FEF0895FC01918D828D981731F0828D67
:10056000E80FF11D858D90E008958FEF9FEF0895BE
:10057000FC01918D228D892F90E0805C9F4F821B22
:1005800091098F7399270895FC01A48DA80FB92FA5
:10059000B11DA35ABF4F2C91848D90E001968F73AB
:1005A0009927848FA689B7892C93A089B1898C91CA
:1005B000837080648C93938D848D981306C0028819
:1005C000F389E02D80818F7D80830895EF92FF92E3
:1005D0000F931F93CF93DF93EC0181E0888F9B8D66
:1005E0008C8D98131AC0E889F989808185FF15C020
:1005F0009FB7F894EE89FF896083E889F989808143
:100600008370806480839FBF81E090E0DF91CF9111
:100610001F910F91FF90EF900895F62E0B8D10E033
:100620000F5F1F4F0F731127E02E8C8D8E110CC0A2
:100630000FB607FCFACFE889F989808185FFF5CFED
:10064000CE010E94C402F1CFEB8DEC0FFD2FF11D06
:10065000E35AFF4FF0829FB7F8940B8FEA89FB892A
:1006600080818062CFCFCF93DF93EC01888D882388
:10067000B9F0AA89BB89E889F9898C9185FD03C005
:10068000808186FD0DC00FB607FCF7CF8C9185FFEA
:10069000F2CF808185FFEDCFCE010E94C402E9CF69
:1006A000DF91CF9108958CE793E00E94B80221E09A
:1006B000892B09F420E0822F089580E090E0892BB7
:1006C00029F00E94530381110E94000080E090E015
:1006D000892B49F080E090E0892B29F00E940000EE
:1006E00081110E94000080E090E0892B49F080E0B9
:1006F00090E0892B29F00E94000081110E940000E7
:1007000080E090E0892B49F080E090E0892B29F08F
:100710000E94000081110C940000089581508231E4
:1007200008F05AC0E82FF0E08827E656FC4F8F4FBC
:100730000C941F17BA03BE03AC03B203B603EC0359
:10074000C103C703CB03D103D503D903DF03E303FD
:10075000EC03E703ED03F103809180008F77809332
:1007600080000895809180008F7DF9CF8091800076
:10077000877FF5CF84B58F7784BD089584B58F7D4D
:10078000FBCF8091B0008F778093B0000895809167
:10079000B0008F7DF9CF809190008F77809390008B
:1007A0000895809190008F7DF9CF80919000877F90
:1007B000F5CF8091A0008F778093A000089580915D
:1007C000A0008F7DF9CF8091A000877FF5CF809129
:1007D00020018F77809320010895809120018F7DE3
:1007E000F9CF80912001877FF5CFCF93DF93282F1A
:1007F00030E0F901E050FE4F8491F901E054FD4FE3
:10080000D491F901E658FD4FC491CC23A1F0811198
:100810000E948E03EC2FF0E0EE0FFF1FEA5BFD4F0E
:10082000A591B491EC91ED2381E090E009F480E092
:10083000DF91CF91089580E090E0FACF1F93CF939E
:10084000DF93282F30E0F901E050FE4F8491F90149
:10085000E054FD4FD491F901E658FD4FC491CC23EB
:10086000A9F0162F81110E948E03EC2FF0E0EE0FFD
:10087000FF1FE05AFD4FA591B4918FB7F894EC910A
:10088000111108C0D095DE23DC938FBFDF91CF918B
:100890001F910895DE2BF8CFCF93DF9390E0FC01FA
:1008A000E054FD4F249186589D4FFC01849188238C
:1008B000D1F090E0880F991FFC01EA51FE4FA591FD
:1008C000B491FC01E05AFD4FC591D49161110EC065
:1008D0009FB7F8948C91E22FE0958E238C9328811A
:1008E000E223E8839FBFDF91CF9108958FB7F894FB
:1008F000EC91E22BEC938FBFF6CF863308F0865352
:1009000020917B00982F9870277F922B90937B00EB
:100910008770806480937C0080917A0080648093EB
:100920007A0080917A0086FDFCCF809178009091CA
:10093000790008953FB7F8948091740390917503FE
:10094000A0917603B091770326B5A89B05C02F3FF1
:1009500019F00196A11DB11D3FBFBA2FA92F982FE5
:100960008827BC01CD01620F711D811D911D42E0E0
:10097000660F771F881F991F4A95D1F708958F92A8
:100980009F92AF92BF92CF92DF92EF92FF924B0174
:100990005C010E949A046B017C010E949A046C190C
:1009A0007D098E099F09683E734081059105A8F372
:1009B00021E0821A9108A108B10888EEC80E83E0F0
:1009C000D81EE11CF11C81149104A104B10429F783
:1009D000FF90EF90DF90CF90BF90AF909F908F905F
:1009E00008952FB7F894609170037091710380910E
:1009F0007203909173032FBF08952F923F924F92ED
:100A00005F926F927F928F929F92AF92BF92CF929E
:100A1000DF92EF92FF920F931F93CF93DF93CDB7A7
:100A2000DEB72E970FB6F894DEBF0FBECDBF309065
:100A3000860431101BC0312C832D2E960FB6F894EE
:100A4000DEBF0FBECDBFDF91CF911F910F91FF9001
:100A5000EF90DF90CF90BF90AF909F908F907F905E
:100A60006F905F904F903F902F9008950E94F104F7
:100A700069877A878B879C87809166049091670449
:100A8000A0916804B091690449855A856B857C857D
:100A9000481B590B6A0B7B0B80917A0490917B0465
:100AA000A0917C04B0917D04481759076A077B0721
:100AB00010F2E0916004F091610480819181A28143
:100AC000B3818D839E83AF83B887E0916404F091F6
:100AD00065049C01AD0160817181828193810E94D6
:100AE0003B174B015C0120916E0430916F044091E3
:100AF0007004509171046D817E818F8198850E9470
:100B00003B176B017C0120915404309155044091B6
:100B1000560450915704C501B4010E940C1920914C
:100B20006A0430916B0440916C0450916D040E94F2
:100B30003C172B013C0140926A0450926B04609276
:100B40006C0470926D0420908704211031C0809154
:100B5000500490915104A0915204B09153048983A0
:100B60009A83AB83BC839C01AD01C701B6010E948F
:100B70000C199B01AC01C301B2010E943B176093A9
:100B80006A0470936B0480936C0490936D04698184
:100B90007A818B819C819058A70196010E940C1943
:100BA000609372047093730480937404909375043B
:100BB00040906A0450906B0460906C0470906D04D7
:100BC00010918204909183049E87A0918404AD8744
:100BD00000918504212F392F4A2F502FC301B201D4
:100BE0000E94071918160CF09BC0812F9E85AD85B9
:100BF000B02F80936A0490936B04A0936C04B0931D
:100C00006D04222009F4A5C02091500430915104B4
:100C10004091520450915304C501B4010E940C1933
:100C20004B015C018092720490927304A092740450
:100C3000B0927504409058045090590460905A0442
:100C400070905B04A3019201C701B6010E940C19C8
:100C50009B01AC0160916A0470916B0480916C04FB
:100C600090916D040E943B17A50194010E943C17CE
:100C70004B015C01C301B2019058A70196010E948B
:100C80000C196093760470937704809378049093A2
:100C900079049401A501612F7E858D85902F0E9496
:100CA000A81787FD18C010917E0490917F049E873D
:100CB000A0918004AD8700918104212F392F4A2F04
:100CC000502FB401C5010E94A81787FD04C0182D3C
:100CD0009E86AD860B2DE0916204F0916304812F16
:100CE0009E85AD85B02F80839183A283B3838D8150
:100CF0009E81AF81B88580936E0490936F04A0931A
:100D00007004B093710489859A85AB85BC85809306
:100D1000660490936704A0936804B09369048CCE32
:100D200080917E0490917F04A0918004B091810411
:100D300089839A83AB83BC839C01AD01C301B2015B
:100D40000E94A81787FF5DCF89819A81AB81BC8102
:100D500050CF812C912C54016DCFAF92BF92CF9286
:100D6000DF92EF92FF920F931F93CF93DF936C016B
:100D70007B018B01040F151FEB015E01AE18BF084C
:100D8000C017D10759F06991D601ED91FC910190FE
:100D9000F081E02DC6011995892B79F7C501DF9106
:100DA000CF911F910F91FF90EF90DF90CF90BF9068
:100DB000AF90089520917A0330917B03281739076B
:100DC00071F49091780380917903981741F0E09144
:100DD0007803F0E0E759FD4F808190E008958FEFB0
:100DE0009FEF08950895EF92FF920F931F93CF9373
:100DF000DF93DC015C96ED90FC905D97E114F104CB
:100E000079F481E090E013969C938E93129790E092
:100E100080E0DF91CF911F910F91FF90EF900895A7
:100E20005196ED91FC91529750968C915097982F36
:100E300090950FB75E962C915E97122F127021FD40
:100E40006095F8942081112319F1282B2083E70164
:100E50002197F1F728E0462F50E0308160FF1AC05B
:100E6000382B3083E7012197F1F7BA017595679523
:100E7000215089F7112381F08081892380830FBF5E
:100E80005C968D919C910197F1F781E090E0C1CF44
:100E90002923DCCF3923E5CF9081892BEFCF209117
:100EA0007A0330917B032817390771F48091790315
:100EB0002091780390E0805C9F4F821B910960E451
:100EC00070E00E940B17089590E080E00895209153
:100ED0007A0330917B0328173907B9F4909178038E
:100EE00080917903981789F0E0917803F0E0E75951
:100EF000FD4F80812091780330E02F5F3F4F2F73AB
:100F000033272093780390E008958FEF9FEF0895A3
:100F100090E080E00895DC01EC91E03390F51196CB
:100F20008C91119728E830E0281B310987FD339513
:100F3000220F331F220F331F6217730784F012969C
:100F40008C9128E532E0281B310987FD3395220F6B
:100F5000331F220F331F621773070CF49B012250BB
:100F60003109220F331F4FB7F8948E2F90E0FC0108
:100F7000EE0FFF1FE80FF91FEB52FD4F3283218365
:100F80004FBF08951F93CF93DF93EC01162F8881F5
:100F9000803308F04EC061E0812F0E944C048881AC
:100FA000282F30E0F901EE0FFF1FE20FF31FEB5285
:100FB000FD4F1F736081607C612B608319821A82F0
:100FC0002CE0622F0E94FF16829FB001112430E0B6
:100FD00020E0AB01420F531FFA01EE0FFF1FE40F99
:100FE000F51FEB52FD4F908196FD16C02F5F3F4FCE
:100FF0002C30310571F7813009F51092800082E0C4
:10100000809381001092850010928400B19A8091A3
:101010006F00826080936F00E8818E2F90E0FC016A
:10102000EE0FFF1FE80FF91FEB52FD4F8081806428
:1010300080838881DF91CF911F910895823061F480
:10104000109290008093910010929500109294005D
:1010500088BB80937100E0CF833069F41092A000C8
:1010600082E08093A1001092A5001092A40089BB99
:1010700080937200D1CF8111CFCF1092200182E0F6
:101080008093210110922501109224018ABB809344
:101090007300C2CFAF92BF92CF92DF92EF92FF92D6
:1010A0000F931F93CF93DF936B017A01EC01CC591F
:1010B000DD4F28813CE0389F8001399F100D1124BD
:1010C000A0906802B12C27FF1FC0FB011182108283
:1010D00088818F5F888388819801280F311D87FD63
:1010E0003A95F6012A153B051CF488818C30C4F131
:1010F00080819181049680349C4908F473C0F60184
:1011000080819181049670C088819801280F311DDB
:1011100087FD3A952A153B05DCF68881A801480F22
:10112000511D87FD5A95FA01EE0FFF1FE40FF51FC1
:10113000EB52FD4F808186FFCBCF8881F801E80F0D
:10114000F11D87FDFA95CF01EE0FFF1FE80FF91F84
:10115000EB52FD4F808160E08F730E941E04B8CF78
:10116000808191812881A801420F511D27FD5A9548
:101170009A01FA01EE0FFF1FE20FF31FEB52FD4F32
:1011800021813281820F931FF701918380838881AF
:101190009801280F311D87FD3A95F901EE0FFF1FC9
:1011A000E20FF31FEB52FD4F808186FF22C0888142
:1011B000080F111D87FD1A95F801EE0FFF1FE00FB4
:1011C000F11FEB52FD4F808161E08F73DF91CF9172
:1011D0001F910F91FF90EF90DF90CF90BF90AF9055
:1011E0000C941E0480E49CE9F701918380838FEFC7
:1011F0008883DF91CF911F910F91FF90EF90DF9047
:10120000CF90BF90AF9008954F925F926F927F9270
:101210008F929F92AF92BF92CF92DF92EF92FF9206
:101220000F931F93CF93DF9300D000D000D01F9275
:10123000CDB7DEB79A8789872A013B0109831A83D4
:101240002B833C83DC015B96BC92AE925A97FC01E7
:10125000ED5BFF4F81E0AA94AB2809F080E080832A
:10126000E985FA85408251826282738289819A81FE
:10127000AB81BC8184839583A683B783C086D186E6
:10128000E286F38666A977A980AD91AD0E945518D4
:1012900020E030E04AE754E40E94AD176D837E837E
:1012A0008F839887E985FA85448655866686778692
:1012B0009B01AC0169817A818B819C810E940C1910
:1012C0004B015C01A985BA8550968D929D92AD9295
:1012D000BC9253972D813E814F815885C701B6013D
:1012E0000E94AD176B017C01E985FA85C48AD58A15
:1012F000E68AF78A808D918D019759F5A3019201B5
:1013000060E070E0CB010E943B17A985BA851C966E
:101310006D937D938D939C931F97A501940160E03D
:1013200070E0CB010E943B17E985FA85608B718BD9
:10133000828B938BA701960160E070E0CB010E9445
:101340003B17A985BA8554966D937D938D939C9395
:1013500057972A960FB6F894DEBF0FBECDBFDF9128
:10136000CF911F910F91FF90EF90DF90CF90BF90A2
:10137000AF909F908F907F906F905F904F90089567
:101380000F931F93CF93DF93EC018B01FC01EE5B76
:10139000FF4F8081882361F1888D998D861797078B
:1013A00039F12C853D854E855F8560E070E0CB018D
:1013B0000E943B176C877D878E879F872889398994
:1013C0004A895B8960E070E0CB010E943B17688B23
:1013D000798B8A8B9B8B2C893D894E895F8960E054
:1013E00070E0CB010E943B176C8B7D8B8E8B9F8BAB
:1013F000198F088FDF91CF911F910F9108952F9230
:101400003F924F925F926F927F928F929F92AF9294
:10141000BF92CF92DF92EF92FF920F931F93CF93E1
:10142000DF931C016A017B0148015901A901980160
:10143000CB01B6010E94071987FF3BC0F101C2AE84
:10144000D3AEE4AEF5AE8101025C1F4FF80180829D
:101450009182A282B38234968081882351F1F10176
:10146000C68DD78D488059806A807B80A301920108
:10147000C501B4010E94A81787FF2EC088829982F7
:10148000AA82BB82F10186A097A0A0A4B1A4F80112
:10149000C080D180E280F380A7019601C501B4012C
:1014A0000E940719F101181624F5C6A2D7A2E0A6DA
:1014B000F1A6DF91CF911F910F91FF90EF90DF90F8
:1014C000CF90BF90AF909F908F907F906F905F90E4
:1014D0004F903F902F900895A3019201C701B6014C
:1014E0000E940719181674F6C882D982EA82FB8214
:1014F000C9CFC2ACD3ACE4ACF5ACA7019601C50131
:10150000B4010E94A81787FFD4CFF101CECFFB0111
:1015100001900020E9F73197AF01461B570BDC0122
:10152000ED91FC910280F381E02D19948F929F92AE
:10153000AF92BF92EF92FF920F931F93CF93DF93DF
:10154000CDB7DEB7A1970FB6F894DEBF0FBECDBF03
:101550007C01FA01CB0119A2223008F42AE08E01A5
:101560000F5D1F4F822E912CB12CA12CBF01A50124
:1015700094010E94DD16F901CA016A300CF5605D24
:10158000D8016E938D01232B242B252B79F790E026
:1015900080E0109721F0BD01C7010E94870AA19643
:1015A0000FB6F894DEBF0FBECDBFDF91CF911F9174
:1015B0000F91FF90EF90BF90AF909F908F90089504
:1015C000695CDECFCF92DF92EF92FF92CF93DF93F1
:1015D0006C01990FEE08FF08F7FE23C06DE28CE75F
:1015E00093E00E94E602EC0144275527BA014C190A
:1015F0005D096E097F092AE08CE793E00E94960A54
:10160000C80FD91F6AE272E08CE793E00E94870A54
:101610008C0F9D1FDF91CF91FF90EF90DF90CF90C7
:1016200008952AE0B701A6018CE793E00E94960A8C
:10163000EC01E8CF4F925F926F927F928F929F92D0
:10164000AF92BF92CF92DF92EF92FF926B017C013B
:10165000AC019B010E94C9196DE272E081111AC0B0
:1016600046015701E894B7F82FEF3FEF4FE75FE7E8
:10167000C501B4010E94C919811126C02FEF3FEFA7
:101680004FE75FE7C501B4010E94A8171816E4F4FC
:1016900061E372E089E194E00E94870A7C016AE2DA
:1016A00072E089E194E00E94870A8E0D9F1DFF90F1
:1016B000EF90DF90CF90BF90AF909F908F907F90F2
:1016C0006F905F904F9008952FEF3FEF4FE75FE4EB
:1016D000C701B6010E94071918161CF465E372E0F1
:1016E000D9CF2FEF3FEF4FE75FECC701B6010E9464
:1016F000A81787FDF3CF20E030E0A901C701B601AC
:101700000E94A817B12CA12C87FF0AC06DE289E1C5
:1017100094E00E94F3065C01F7FAF094F7F8F09475
:101720002AE037ED43EA5BE3C701B6010E943C17AC
:101730002B013C010E9426186B017C010E94551868
:101740009B01AC01C301B2010E943B172B013C017C
:101750002AE0B701A60189E194E00E94960A7C0183
:10176000EA0CFB1C6EE289E194E00E94F306E80EAD
:10177000F91E20E030E040E251E4C301B2010E94D2
:101780000C192B013C010E9426184B01B12CA12CF5
:101790002AE0B501A40189E194E00E94960AE80ECE
:1017A000F91EC501B4010E9455189B01AC01C3018B
:1017B000B2010E943B1720E030E040E251E40E9479
:1017C0000C190E942618AB0170E060E02AE089E164
:1017D00094E00E94960AE80EF91E61CF1F920F92C4
:1017E0000FB60F9211242F933F938F939F93AF9334
:1017F000BF938091700390917103A0917203B09197
:10180000730330916F0323E0230F2D3758F50196B2
:10181000A11DB11D20936F038093700390937103FA
:10182000A0937203B0937303809174039091750336
:10183000A0917603B09177030196A11DB11D80930D
:10184000740390937503A0937603B0937703BF91CD
:10185000AF919F918F913F912F910F900FBE0F905D
:101860001F90189526E8230F0296A11DB11DD2CF17
:101870001F920F920FB60F9211240BB60F922F9357
:101880003F934F935F936F937F938F939F93AF9308
:10189000BF93EF93FF938CE793E00E94C402FF9104
:1018A000EF91BF91AF919F918F917F916F915F91D8
:1018B0004F913F912F910F900BBE0F900FBE0F9045
:1018C0001F9018951F920F920FB60F9211240BB60E
:1018D0000F922F938F939F93EF93FF93E0918C033D
:1018E000F0918D038081E0919203F091930382FD4A
:1018F0001DC09081809195038F5F8F732091960317
:10190000821741F0E0919503F0E0E458FC4F958F89
:1019100080939503FF91EF919F918F912F910F905D
:101920000BBE0F900FBE0F901F9018958081F2CFC5
:101930001F920F920FB60F9211240BB60F922F9396
:101940003F934F935F936F937F938F939F93AF9347
:10195000BF93EF93FF93E0917A03F0917B0330976D
:1019600049F0A685B7858585968D91FF16C09C9117
:101970008923B1F4FF91EF91BF91AF919F918F9126
:101980007F916F915F914F913F912F910F900BBE7F
:101990000F900FBE0F901F9018959C91892351F7BF
:1019A000A389B4899C918589809589238C938689A4
:1019B00097890197F1F7608D718DA685B78555855B
:1019C00038E020E0CB010197F1F7822F90E0959568
:1019D0008795282F4C91452309F02068315091F7C5
:1019E000868D81FD20958091790390E001968F731B
:1019F000992730917803381799F0A0917903B0E0D6
:101A0000A759BD4F2C9380937903828D938D0197B5
:101A1000F1F7A389B4898C919589892B8C93AACFEE
:101A2000868D8160868FF1CF1F920F920FB60F9235
:101A300011240BB60F922F933F934F935F936F93A5
:101A40007F938F939F93AF93BF93EF93FF9348E25E
:101A500051E064E271E090E080E00E944A08FF916A
:101A6000EF91BF91AF919F918F917F916F915F9116
:101A70004F913F912F910F900BBE0F900FBE0F9083
:101A80001F9018951F920F920FB60F9211240BB64C
:101A90000F922F933F934F935F936F937F938F9307
:101AA0009F93AF93BF93EF93FF9348EA50E064EAAC
:101AB00070E083E090E00E944A08FF91EF91BF91AF
:101AC000AF919F918F917F916F915F914F913F91D6
:101AD0002F910F900BBE0F900FBE0F901F90189577
:101AE0001F920F920FB60F9211240BB60F922F93E5
:101AF0003F934F935F936F937F938F939F93AF9396
:101B0000BF93EF93FF9348E950E064E970E082E00F
:101B100090E00E944A08FF91EF91BF91AF919F9191
:101B20008F917F916F915F914F913F912F910F9086
:101B30000BBE0F900FBE0F901F9018951F920F9223
:101B40000FB60F9211240BB60F922F933F934F9322
:101B50005F936F937F938F939F93AF93BF93EF9315
:101B6000FF9348E850E064E870E081E090E00E9474
:101B70004A08FF91EF91BF91AF919F918F917F9113
:101B80006F915F914F913F912F910F900BBE0F90EE
:101B90000FBE0F901F901895FC0190916802903332
:101BA00098F481E0890F809368029083892F90E0F8
:101BB000FC01EE0FFF1FE80FF91FEB52FD4F88EB02
:101BC0009BE09283818308958FEF808308954F92E5
:101BD0005F926F927F92AF92BF92CF92DF92EF921D
:101BE000FF920F931F9310927F0310927E0338EEA3
:101BF000432E33E0532E612C712C4092800350927F
:101C0000810360928203709283038AE092E0909352
:101C10007D0380937C0385EC90E09093890380930F
:101C2000880384EC90E090938B0380938A0380EC8C
:101C300090E090938D0380938C0381EC90E09093DF
:101C40008F0380938E0382EC90E0909391038093B6
:101C5000900386EC90E0909393038093920310920C
:101C6000950310929603109297031092980381E4C3
:101C700094E00E94CC0D8EE394E00E94CC0D8BE3A7
:101C800094E00E94CC0D88E394E00E94CC0D109269
:101C90001C0410921B0440921D0450921E0460927A
:101CA0001F04709220048CE192E090931A048093B8
:101CB00019041092300410922F04109232041092E2
:101CC00031041092340410923304109236041092AE
:101CD0003504609137046E7F6D7F6093370466959D
:101CE000617081E068278BE00E941E0461E08BE058
:101CF0000E944C04EBECF2E0E491E0932904E5E867
:101D0000F2E0E491F0E0EE0FFF1FE05AFD4F859105
:101D1000949190932B0480932A0460E08AE00E94BF
:101D20004C048091370481FD04C061E08AE00E9488
:101D30001E048AE080932504EAECF2E0E491E0934B
:101D40002604E4E8F2E0E491F0E0EE0FFF1FEA5B26
:101D5000FD4F8591949190932804809327041092CD
:101D6000BF041092BE041092C0041092C1041092DD
:101D7000C2041092C3041092B1041092B0041092E5
:101D8000B2041092B3041092B4041092B5041092ED
:101D9000A3041092A2041092A4041092A50410921D
:101DA000A6041092A7041092950410929404109225
:101DB00096041092970410929804109299048CE85B
:101DC00094E0909363048093620488E894E0909395
:101DD00061048093600480E994E0909365048093AB
:101DE00064041092860410927E0410927F04109274
:101DF00080041092810480E090E0AFE7B3E4809328
:101E0000820490938304A0938404B093850494E6A1
:101E1000492E512C612C712C40927A0450927B04F3
:101E200060927C0470927D0470E060E084E494E051
:101E30000E94C009AA24A394B12CC12CD12C7601F4
:101E40009701860140E050E060E87FE384E494E09D
:101E50000E9404090E94F10400917A0410917B040D
:101E600020917C0430917D04601B710B820B930BDD
:101E70006093660470936704809368049093690488
:101E800084E195E09093EB048093EA0480E195E08F
:101E90009093E9048093E80488E195E09093ED0441
:101EA0008093EC0410920E05C0920605D0920705AF
:101EB000E0920805F092090580E090E0AFE7B3E416
:101EC00080930A0590930B05A0930C05B0930D0524
:101ED0004092020550920305609204057092050538
:101EE00061E070E08CEC94E00E94C00997018601EB
:101EF000B701A6018CEC94E00E9404090E94F10451
:101F0000409002055090030560900405709005050F
:101F100064197509860997096093EE047093EF04BC
:101F20008093F0049093F1041F910F91FF90EF9034
:101F3000DF90CF90BF90AF907F906F905F904F9069
:101F40000895CF93DF9300D000D0CDB7DEB778945B
:101F500084B5826084BD84B5816084BD85B58260AE
:101F600085BD85B5816085BD80916E00816080935F
:101F70006E001092810080918100826080938100C8
:101F800080918100816080938100809180008160D8
:101F9000809380008091B10084608093B100809133
:101FA000B00081608093B000809191008260809346
:101FB00091008091910081608093910080919000C8
:101FC0008160809390008091A10082608093A10045
:101FD0008091A10081608093A1008091A000816028
:101FE0008093A000809121018260809321018091E3
:101FF0002101816080932101809120018160809383
:10200000200180917A00846080937A0080917A0028
:10201000826080937A0080917A00816080937A0058
:1020200080917A00806880937A001092C10080E0ED
:1020300090E0A8E4B2E48093880490938904A0938C
:102040008A04B0938B0410928C0410928D04109229
:102050008E0410928F048093900490939104A09327
:102060009204B093930480918604811149C0E09159
:102070006204F0916304C080D180E280F380C0925A
:102080006A04D0926B04E0926C04F0926D04E091CB
:102090006004F091610480819181A281B381809379
:1020A0006E0490936F04A0937004B09371048090B9
:1020B000820490908304A0908404B0908504A501CC
:1020C0009401C701B6010E94071918164CF48092BA
:1020D0006A0490926B04A0926C04B0926D0410C0DC
:1020E00080907E0490907F04A0908004B090810442
:1020F000A5019401C701B6010E94A81787FDE7CF8B
:1021000081E08093860400E010E028EC32E440E0B7
:1021100050E068EC72EC84E494E00E94FF0970E007
:1021200060E084E494E00E94C00961E08DE00E94D8
:102130004C0461E080E30E944C0460E080E30E9474
:102140001E048BE390E09093BF048093BE048AE961
:1021500099E8A6EEB4E48093C4049093C504A093D8
:10216000C604B093C70481EE9AE7A4E7BFEB80935F
:10217000C8049093C904A093CA04B093CB0460E050
:102180008BE30E944C048AE390E09093B104809327
:10219000B00480E090E9AFE1B6E48093B604909398
:1021A000B704A093B804B093B90482E193E8A0E91E
:1021B000BFEB8093BA049093BB04A093BC04B0938C
:1021C000BD0460E08AE30E944C048DE390E09093AC
:1021D000A3048093A20480EC92E9A6E5B8E480937E
:1021E000A8049093A904A093AA04B093AB0481E837
:1021F00095E9A3EDBFEB8093AC049093AD04A0935D
:10220000AE04B093AF0460E08DE30E944C048CE315
:1022100090E0909395048093940480E09FE7A5ED6F
:10222000B7E480939A0490939B04A0939C04B0938A
:102230009D048BE39FEDAFEDBFEB80939E049093E5
:102240009F04A093A004B093A10460E08CE30E94DB
:102250004C040AE010E01A82198289E30E947D048E
:102260007C010E94E20A89819A818E0D9F1D9A83CA
:10227000898365E070E080E090E00E94BF04015037
:10228000110959F769E372E08CE793E00E94870A2D
:1022900089819A810E94E20A89819A816AE070E0CC
:1022A0000E940B177093AA026093A90262E472E085
:1022B0008CE793E00E94870A8091A9029091AA027C
:1022C0000E94E20A68EE73E080E090E00E94BF04A2
:1022D0000E94F104AB01BC018091AB029091AC0271
:1022E000A091AD02B091AE020696A11DB11D84175A
:1022F0009507A607B7070CF04DC089E30E947D043F
:102300002091A9023091AA02821B930B9C012F5F9E
:102310003F4F2330310510F490E080E0BC01990F6D
:10232000880B990B0E94571826EA3BE944EC5BE3C3
:102330000E94AD1728E638EE4FE95BE30E940C19C6
:1023400020E030E040EC50E40E940C1920E030E046
:102350004AE754E40E94AD179B01AC016091CC02A6
:102360007091CD028091CE029091CF020E943C17D5
:102370006093CC027093CD028093CE029093CF02F3
:102380000E94F1046093AB027093AC028093AD02A3
:102390009093AE0220906D0330906E0391E0291669
:1023A000310471F140F0B2E02B16310409F442C45B
:1023B0000E945D038DCF68EE73E080E090E00E94A4
:1023C000BF046EE270E081E494E00E94C2076FE215
:1023D00070E08EE394E00E94C20762E370E08BE35A
:1023E00094E00E94C20763E370E088E394E00E94F7
:1023F000C20781E090E090936E0380936D03D8CF85
:102400000E94F1040091B0021091B1022091B20239
:102410003091B3020617170728073907D8F48091BF
:10242000AF028F5F8093AF02853058F10E94F104B4
:1024300064547D4F8F4F9F4F6093B0027093B102F1
:102440008093B2029093B30260E08DE00E941E047C
:102450001092AF0280910402909105029E838D83B9
:102460008430910509F407C128F58230910509F4FB
:10247000DDC3039709F450C230926E0320926D03BE
:1024800097CF0E94F1046C597F4F8F4F9F4F6093FD
:10249000B0027093B1028093B2029093B3028DE0C8
:1024A0000E94F50361E0892B09F060E08DE00E9455
:1024B0001E04D0CFAD81BE81A630B10509F42FC274
:1024C00008F4D8C11797C1F680910302882309F454
:1024D00040C01092CC021092CD021092CE02109207
:1024E000CF02A0905E04B0905F047AE0C72E77ED33
:1024F000D72E73E2E72E7CE3F72E9701860149E29F
:102500005CE56FE87DE384E494E00E94040980E0E8
:1025100090E0A4E3B3E48093900490939104A0939B
:102520009204B093930400E010E020E83FE340E021
:1025300050E060E87FEB84E494E00E94FF0961E0F2
:1025400070E084E494E00E94C0090E94B8011092F7
:102550000302C090CC02D090CD02E090CE02F09069
:10256000CF024090D0025090D1026090D202709081
:10257000D302C0928804D0928904E0928A04F09237
:102580008B040E94FD0480908C0490908D04A09098
:102590008E04B0908F048092D0029092D102A092CB
:1025A000D202B092D302A5019401C301B2010E94EC
:1025B000A817882381F120E030E046E153E4C5010B
:1025C000B4010E940C199B01AC0160E070E88BEB38
:1025D00094E40E943B170E941F184B0181E494E091
:1025E0000E948B07B4018EE394E00E948B07B40134
:1025F0008BE394E00E948B07B40188E394E00E948F
:102600008B07A701960160E070E084E393E40E94E9
:102610003B170E941A0B20E030E044E353E4C7016B
:10262000B6010E943B176B017C0120E030E0A9015C
:102630000E94071918160CF0EBC220E030E040E0D1
:1026400050E4C701B6010E94A81787FFECC281E0E1
:102650008093030260E672E089E194E00E94870AB9
:102660006AE272E089E194E00E94870AA2E0B0E0A9
:10267000BE83AD83D8C2809100028823B9F1109245
:10268000CC021092CD021092CE021092CF02A090F6
:102690005E04B0905F04C12CD12C760197018601B5
:1026A00040E050E060EA71E484E494E00E940409B0
:1026B000C0929004D0929104E0929204F09293041C
:1026C00000E010E028EC32E440E050E068EC72EC0E
:1026D00084E494E00E94FF0961E070E084E494E007
:1026E0000E94C0090E94B801109200028090B602B8
:1026F0009090B702A090B802B090B9028091CC023D
:102700009091CD02A091CE02B091CF028093880427
:1027100090938904A0938A04B0938B040E94FD04D3
:10272000C0908C04D0908D04E0908E04F0908F04C3
:10273000C092B602D092B702E092B802F092B9020B
:10274000A7019601C501B4010E94A817882309F4C6
:1027500050C0C701B6010E941F184B01B2E7EB2E13
:10276000B6E0FB2EE61AF70AB70181E494E00E9476
:102770008B07B7018EE394E00E948B0716E4E12EED
:1027800015E0F12EE818F908B7018BE394E00E94F8
:102790008B07B70188E394E00E948B0761E080E338
:1027A0000E941E0483E290E00197F1F760E080E36D
:1027B0000E941E040E949A046B017C0181E30E9426
:1027C000F503892BF9F40E949A046C197D098E098E
:1027D0009F0969387E458105910580F38091B40297
:1027E0009091B50201969093B5028093B40204973C
:1027F000CCF5AD81BE81B0930502A0930402109286
:10280000D4023ACE0E949A046B017C0181E30E94BB
:10281000F503019761F40E949A046C197D098E09F1
:102820009F0969387E458105910580F3D7CF0E94C5
:102830009A046C197D098E099F090E94551820E0A1
:1028400030E048E652E40E94AD1720E030E040E27C
:1028500051E40E94A81787FDC1CF1092B5021092D3
:10286000B402C7CF81E08093000285E090E09E83B0
:102870008D83BFCF80910102882361F00E94F10413
:102880006093BA027093BB028093BC029093BD0226
:102890001092010262E776E081E494E00E948B07E7
:1028A00066E475E08EE394E00E948B0766E475E0D1
:1028B0008BE394E00E948B0762E776E088E394E084
:1028C0000E948B07C090BA02D090BB02E090BC027D
:1028D000F090BD02B8EECB0EB3E0DB1EE11CF11CA4
:1028E0000E94F104C616D706E806F90638F085E01E
:1028F00090E09093050280930402BECD81E0809326
:102900000102A6E0B0E0B0930502A093040280911A
:10291000D402882309F4B0CD84E090E0EACF80911E
:1029200002028823B9F11092CC021092CD021092CB
:10293000CE021092CF02A0905E04B0905F04C12C32
:10294000D12C76019701860140E050E060EA71E405
:1029500084E494E00E940409C0929004D09291040F
:10296000E0929204F092930400E010E028EC32E44C
:1029700040E050E068EC72EC84E494E00E94FF09CF
:1029800061E070E084E494E00E94C0090E94B80114
:10299000109202028091CC029091CD02A091CE02C1
:1029A000B091CF0289839A83AB83BC830E94F104E8
:1029B0006B017C018091C2029091C302A091C4027C
:1029C000B091C5020A96A11DB11D8C159D05AE05DD
:1029D000BF050CF042C0809194040E947D04BC01AC
:1029E000990F880B990B0E9457184B015C0120E04E
:1029F00030E040E05FE36091BE027091BF028091E1
:102A0000C0029091C1020E940C192B013C0120E0F0
:102A100030E040E05FE3C501B4010E940C199B0166
:102A2000AC01C301B2010E943C176093BE027093D7
:102A3000BF028093C0029093C1028092960490924C
:102A40009704A0929804B0929904C092C202D092C6
:102A5000C302E092C402F092C502C090C802D090B6
:102A6000C902E090CA02F090CB0289819A81AB81C1
:102A7000BC818093880490938904A0938A04B093C6
:102A80008B040E94FD0480908C0490908D04A09093
:102A90008E04B0908F048092C8029092C902A092D6
:102AA000CA02B092CB02A5019401C701B6010E94EF
:102AB000A817882309F49DC0C501B4010E941F18FE
:102AC0004B01F6E4EF2EF5E0FF2EE61AF70AB70108
:102AD00081E494E00E948B07B7018EE394E00E94AA
:102AE0008B07A2E7EA2EA6E0FA2EE818F908B7014C
:102AF0008BE394E00E948B07B70188E394E00E9487
:102B00008B0767E572E089E194E00E94870A2091D3
:102B10009E0430919F044091A0045091A1046091C3
:102B200096047091970480919804909199040E9462
:102B3000791920919A0430919B0440919C04509102
:102B40009D040E940C196B017C0120E030E040EAFA
:102B500052E40E940719181634F4C12CD12CE0EA73
:102B6000EE2EE2E4FE2EC701B6010E941A0B209160
:102B70009E0430919F044091A0045091A104609163
:102B800096047091970480919804909199040E9402
:102B9000791920919A0430919B0440919C045091A2
:102BA0009D040E940C196B017C0120E030E040EA9A
:102BB00052E40E940719181634F120E030E040E298
:102BC00051E4C701B6010E94A81787FF1CC080917D
:102BD000C6029091C70201969093C7028093C602E5
:102BE00004973CF081E080930202A5E0B0E0BE8350
:102BF000AD838D819E81909305028093040281E0D4
:102C00008093D40239CC1092C7021092C602F1CF41
:102C100020E030E040E050ECC701B6010E94071907
:102C200018160CF414CD8D819E8163CE62E0262EA1
:102C3000312C22CC6CED75E081E494E00E948B078E
:102C40006CED75E08EE394E00E948B076CED75E00F
:102C50008BE394E00E948B076CED75E088E394E0D1
:102C60000E948B07E09141048E2F90E0FC01EE0F53
:102C7000FF1FE80FF91FEB52FD4F80818F7B808390
:102C8000E0913E048E2F90E0FC01EE0FFF1FE80F55
:102C9000F91FEB52FD4F80818F7B8083E0913B04D5
:102CA0008E2F90E0FC01EE0FFF1FE80FF91FEB5293
:102CB000FD4F80818F7B8083E09138048E2F90E0E0
:102CC000FC01EE0FFF1FE80FF91FEB52FD4F808153
:102CD0008F7B808360E08EE20E944C0460E08FE294
:102CE0000E944C0460E082E30E944C0460E083E3B5
:102CF0000E944C040E94F104009165031091660348
:102D00002091670330916803601B710B820B930B5A
:102D1000613D774081059105A0F00E94F104609328
:102D200065037093660380936703909368038DE057
:102D30000E94F50361E0892B09F060E08DE00E94BC
:102D40001E040E94F1040091690310916A0320910E
:102D50006B0330916C03601B710B820B930B653F0F
:102D600071408105910550F00E94F1046093690360
:102D700070936A0380936B0390936C0382E090E0FE
:102D80003ACB8CE192E090931A04809319048091DD
:102D90007A0390917B038951944071F4E0912C0463
:102DA000F0912D04908180912E0480958923808359
:102DB00010927B0310927A030895A1E21A2EAA1BA7
:102DC000BB1BFD010DC0AA1FBB1FEE1FFF1FA217DB
:102DD000B307E407F50720F0A21BB30BE40BF50BD8
:102DE000661F771F881F991F1A9469F76095709561
:102DF000809590959B01AC01BD01CF010895991B71
:102E000079E004C0991F961708F0961B881F7A95E1
:102E1000C9F78095089597FB072E16F4009407D004
:102E200077FD09D00E94271707FC05D03EF4909546
:102E300081959F4F0895709561957F4F0895EE0F8E
:102E4000FF1F881F8BBF0790F691E02D1994AA1BD6
:102E5000BB1B51E107C0AA1FBB1FA617B70710F085
:102E6000A61BB70B881F991F5A95A9F780959095B7
:102E7000BC01CD0108955058BB27AA270E945317C3
:102E80000C94CD180E94BF1838F00E94C61820F08C
:102E900039F49F3F19F426F40C94BC180EF4E09515
:102EA000E7FB0C94B618E92F0E94DE1858F3BA1706
:102EB000620773078407950720F079F4A6F50C9450
:102EC00000190EF4E0950B2EBA2FA02D0B01B901BD
:102ED00090010C01CA01A0011124FF27591B99F090
:102EE000593F50F4503E68F11A16F040A22F232F9C
:102EF000342F4427585FF3CF469537952795A795EC
:102F0000F0405395C9F77EF41F16BA0B620B730B92
:102F1000840BBAF09150A1F0FF0FBB1F661F771F03
:102F2000881FC2F70EC0BA0F621F731F841F48F4B8
:102F3000879577956795B795F7959E3F08F0B0CF41
:102F40009395880F08F09927EE0F97958795089528
:102F50000E94921808F481E008950E94C1170C9411
:102F6000CD180E94C61858F00E94BF1840F029F4EE
:102F70005F3F29F00C94B61851110C9401190C9470
:102F8000BC180E94DE1868F39923B1F3552391F31E
:102F9000951B550BBB27AA2762177307840738F0C8
:102FA0009F5F5F4F220F331F441FAA1FA9F335D025
:102FB0000E2E3AF0E0E832D091505040E695001CD9
:102FC000CAF72BD0FE2F29D0660F771F881FBB1F93
:102FD000261737074807AB07B0E809F0BB0B802D71
:102FE000BF01FF2793585F4F3AF09E3F510578F09D
:102FF0000C94B6180C9401195F3FE4F3983ED4F397
:10300000869577956795B795F7959F5FC9F7880F70
:10301000911D9695879597F90895E1E0660F771FC2
:10302000881FBB1F621773078407BA0720F0621B53
:10303000730B840BBA0BEE1F88F7E09508950E947E
:1030400026186894B1110C94011908950E94E6188D
:1030500088F09F5798F0B92F9927B751B0F0E1F059
:10306000660F771F881F991F1AF0BA95C9F714C009
:10307000B13091F00E940019B1E008950C9400194C
:10308000672F782F8827B85F39F0B93FCCF3869542
:1030900077956795B395D9F73EF49095809570959F
:1030A00061957F4F8F4F9F4F0895E89409C097FB1C
:1030B0003EF490958095709561957F4F8F4F9F4F0F
:1030C0009923A9F0F92F96E9BB279395F695879553
:1030D00077956795B795F111F8CFFAF4BB0F11F416
:1030E00060FF1BC06F5F7F4F8F4F9F4F16C08823BD
:1030F00011F096E911C0772321F09EE8872F762FF3
:1031000005C0662371F096E8862F70E060E02AF033
:103110009A95660F771F881FDAF7880F969587951F
:1031200097F90895990F0008550FAA0BE0E8FEEFF4
:1031300016161706E807F907C0F012161306E4077B
:10314000F50798F0621B730B840B950B39F40A2674
:1031500061F0232B242B252B21F408950A2609F452
:10316000A140A6958FEF811D811D089597F99F6756
:1031700080E870E060E008959FEF80EC08950024FF
:103180000A941616170618060906089500240A94CC
:1031900012161306140605060895092E0394000C52
:1031A00011F4882352F0BB0F40F4BF2B11F460FFE1
:1031B00004C06F5F7F4F8F4F9F4F089557FD90580A
:1031C000440F551F59F05F3F71F04795880F97FBEB
:1031D000991F61F09F3F79F08795089512161306A5
:1031E0001406551FF2CF4695F1DF08C016161706D4
:1031F0001806991FF1CF8695710561050894089509
:10320000E894BB2766277727CB0197F908950E949A
:10321000921808F48FEF08950E941F190C94CD188E
:103220000E94BF1838F00E94C61820F0952311F0B4
:103230000C94B6180C94BC1811240C9401190E941B
:10324000DE1870F3959FC1F3950F50E0551F629FF4
:10325000F001729FBB27F00DB11D639FAA27F00DEF
:10326000B11DAA1F649F6627B00DA11D661F829F16
:103270002227B00DA11D621F739FB00DA11D621FFB
:10328000839FA00D611D221F749F3327A00D611D18
:10329000231F849F600D211D822F762F6A2F1124FA
:1032A0009F5750409AF0F1F088234AF0EE0FFF1F2D
:1032B000BB1F661F771F881F91505040A9F79E3F84
:1032C000510580F00C94B6180C9401195F3FE4F39B
:1032D000983ED4F3869577956795B795F795E795DA
:1032E0009F5FC1F7FE2B880F911D9695879597F9E3
:1032F0000895FA01EE0FFF1F309621053105A1F167
:103300006115710561F48038BFE39B0749F168944A
:103310009038810561F08038BFEF9B0741F0992319
:103320004AF5FF3FE1053105210519F1E8940894BC
:10333000E795D901AA2329F4AB2FBE2FF85FD0F36C
:1033400010C0FF5F70F4A695E0F7F73950F019F060
:10335000FF3A38F49F779F930DD00F9007FC905859
:10336000089546F00C94BC1860E070E080E89FE39C
:1033700008954FE79F775F934F933F932F930E945A
:10338000791A2F913F914F915F910E940C190C94E3
:10339000D6190E949218880B990B089529F416F0FB
:1033A0000C94B6180C9400190C94BC180E94E618E2
:1033B000A8F39638A0F707F80F92E8942BE33AEABF
:1033C00048EB5FE70E9422190F920F920F924DB7C0
:1033D0005EB70F920E94C11AE4EEF0E00E94081A54
:1033E0004F915F91EF91FF91E595EE1FFF1F49F01F
:1033F000FE57E0684427EE0F441FFA95E1F7419528
:10340000550B0E943B1A0F9007FE0C942F1A08953B
:10341000DF93CF931F930F93FF92EF92DF927B0185
:103420008C01689406C0DA2EEF010E941F19FE017C
:10343000E894A5912591359145915591A6F3EF0119
:103440000E945317FE019701A801DA9469F7DF90F3
:10345000EF90FF900F911F91CF91DF9108959B0105
:10346000AC0160E070E080E89FE30C94AD170C9431
:10347000B6180C94F51A0E94E618D8F39923C9F3EC
:10348000940F511DA3F39150504094F059F08823AC
:1034900032F0660F771F881F91505040C1F79E3F52
:1034A00051052CF7880F911D9695879597F90895EA
:1034B0005F3FACF0983E9CF0BB278695779567956B
:1034C000B79508F4B1609395C1F7BB0F58F711F4A5
:1034D00060FFE8CF6F5F7F4F8F4F9F4FE3CF0C941C
:1034E000011916F00C94F51A0C94BC1868940C94FD
:1034F000B6180E94E618A8F39923C1F3AEF3DF9340
:10350000CF931F930F93FF92C92FDD2788232AF0B3
:103510002197660F771F881FDAF720E030E040E838
:103520005FEB9FE3883920F0803E38F021968F775B
:103530000E943C17ECE0F1E004C00E943C17E9E374
:10354000F1E00E94081A8B01BE01EC01FB2E6F57BF
:1035500071097595771F880B990B0E94571828E100
:1035600032E741E35FE30E941F19AF2D9801AE01DE
:10357000FF900F911F91CF91DF910E9453170C94F0
:10358000CD18FA01DC01AA0FBB1F9B01AC01BF578C
:1035900028F4222733274427507820C0B75190F4CD
:1035A000AB2F0024469537952795011CA395D2F3A0
:1035B000002071F0220F331F441FB395DAF30ED0B1
:1035C0000C943B1761307105A0E88A07B94630F4C6
:1035D0009B01AC016627772788279078309621F0E9
:1035E000208331834283538308959F3F31F091506C
:1035F00020F4879577956795B795880F911D9695D7
:10360000879597F9089511E0C4E8D1E000E006C07D
:10361000802FFE010E941F172196011DC538D1077A
:0A36200080E00807A9F7F894FFCF37
:10362A0001010101040000000000E602AD06870264
:10363A003303B8029602AA0200000000F306AD06A0
:10364A008807F2064F076707DA060D0A006E616EF1
:10365A0000696E66006F76660073756D2069733A4D
:10366A0020007A65726F4779726F566F6C74616762
:10367A00652069733A20006F75747075743A20007A
:04368A00656E640005
:00000001FF
