:100000000C94AF010C94E0010C94E0010C94E0011D
:100010000C94E0010C94E0010C94E0010C94E001DC
:100020000C94E0010C94E70F0C94E70F0C94E70F8D
:100030000C94E0010C94E0010C94E0010C94E001BC
:100040000C94E0010C94ED100C94E0010C94E00190
:100050000C94E0010C94E0010C94E0010C943D0F31
:100060000C94E0010C94B10F0C94870F0C94E001F8
:100070000C94E0010C94E0010C94E0010C94E0017C
:100080000C94BF100C94E0010C94E0010C94E0017E
:100090000C94E0010C94E0010C94E0010C94E0015C
:1000A0000C94E0010C94E0010C9491100C94E0018C
:1000B0000C94E0010C94E0010C94E0010C946310AA
:1000C0000C94E0010C94E0010C94E0010C94E0012C
:1000D0000C94E0010C94E0010C94E0010C94E0011C
:1000E0000C94E00107634236B79BD8A71A396856CB
:1000F00018AEBAAB558C1D3CB7CC5763BD6DEDFD4A
:10010000753EF6177231BF000000803F0800000006
:10011000BE922449123EABAAAA2ABECDCCCC4C3EFC
:1001200000000080BEABAAAAAA3E00000000BF00EB
:100130000000803F0000000000084178D3BB4387E7
:10014000D1133D190E3CC3BD4282AD2B3E68EC82FB
:1001500076BED98FE1A93E4C80EFFFBE01C4FF7F80
:100160003F00000000000C9488190C9441020C948C
:100170000D030C9447030C9426030C944C030C942D
:1001800036110C9419030C94E2010C948B1B0C9403
:1001900022030C94BD060C9419070C947B1A0C9442
:1001A00015030C942C030C940F1C0C94961A0C94AD
:1001B00048030C944A1A0C9431070C94511B0C946C
:1001C00007030C9405020C9413020C943A030C944C
:1001D000B91C0C94BC060C943A1A0C940A1C0C948E
:1001E0008E020C945D1A0C94A5190C94F1010C94D8
:1001F000A71A0C941C180C94B5190C9442030C9477
:100200001C030C9452070C94921B0C944D1A0C94E2
:10021000D5170C94861A0C94C4180C94A4060C944C
:1002200011030C9430030C943E030C94811B0C942A
:10023000651A0C9477060C94340300002100240006
:1002400027002A002D0030003300010100000401C6
:1002500007010A0100000A0B02090C0D0E08070332
:100260000401000000000000000000000000000089
:10027000000000000000000000000000000000007E
:10028000121110000000000000000000000000003B
:10029000000000000000000000000000200023001B
:1002A000260029002C002F0032000001000003016D
:1002B0000601090100002200250028002B002E0065
:1002C0003100340002010000050108010B010505A1
:1002D0000505070508080808020202020A0A0808BC
:1002E00004040404010101010101010103030303EA
:1002F00003030303040707070C0C0C0C0C0C0C0C79
:100300000202020206060606060606060B0B0B0B89
:100310000B0B0B0B010210202008081020401020AE
:1003200040800201020108040201010204081020B9
:1003300040808040201008040201800402018040B7
:100340002010080402010804020101020408102020
:10035000408001020408102040803611B91C11248D
:100360001FBECFEFD1E2DEBFCDBF00E00CBF12E079
:10037000A0E0B2E0EAE1F2E400E00BBF02C00790C7
:100380000D92A836B107D9F725E0A8E6B2E001C082
:100390001D92AF37B207E1F711E0CEEAD1E000E0FD
:1003A00006C021970109802FFE010E94171DCD3A3A
:1003B000D10780E00807A9F70E94F2120C94FB20F5
:1003C0000C940000FC01538D448D252F30E0842FC8
:1003D00090E0821B930B541710F0CF96089501976D
:1003E0000895FC01918D828D981761F0A28DAE0F5A
:1003F000BF2FB11D5D968C91928D9F5F9F73928FE1
:1004000090E008958FEF9FEF0895FC01918D828D0C
:10041000981731F0828DE80FF11D858D90E00895D9
:100420008FEF9FEF0895FC01918D228D892F90E031
:10043000805C9F4F821B91098F7399270895FC015F
:10044000A48DA80FB92FB11DA35ABF4F2C91848D35
:1004500090E001968F739927848FA689B7892C9392
:10046000A089B1898C91837080648C93938D848DE5
:10047000981306C00288F389E02D80818F7D8083E8
:100480000895EF92FF920F931F93CF93DF93EC01A8
:1004900081E0888F9B8D8C8D98131AC0E889F9892B
:1004A000808185FF15C09FB7F894EE89FF8960832E
:1004B000E889F98980818370806480839FBF81E0AF
:1004C00090E0DF91CF911F910F91FF90EF900895F1
:1004D000F62E0B8D10E00F5F1F4F0F731127E02ECC
:1004E0008C8D8E110CC00FB607FCFACFE889F98904
:1004F000808185FFF5CFCE010E941F02F1CFEB8DE9
:10050000EC0FFD2FF11DE35AFF4FF0829FB7F894D7
:100510000B8FEA89FB8980818062CFCFCF93DF93F5
:10052000EC01888D8823B9F0AA89BB89E889F9890B
:100530008C9185FD03C0808186FD0DC00FB607FC40
:10054000F7CF8C9185FFF2CF808185FFEDCFCE0173
:100550000E941F02E9CFDF91CF9108958FED93E0C4
:100560000E94130221E0892B09F420E0822F0895D4
:1005700080E090E0892B29F00E94AE0281110E9458
:10058000000080E090E0892B49F080E090E0892B2A
:1005900029F00E94000081110E94000080E090E09C
:1005A000892B49F080E090E0892B29F00E9400001F
:1005B00081110E94000080E090E0892B49F080E0EA
:1005C00090E0892B29F00E94000081110C9400001A
:1005D00008958150823108F05AC0E82FF0E0882752
:1005E000EB50FD4F8F4F0C94171D15031903070394
:1005F0000D03110347031C03220326032C033003BE
:1006000034033A033E034703420348034C038091FB
:1006100080008F77809380000895809180008F7D87
:10062000F9CF80918000877FF5CF84B58F7784BD27
:10063000089584B58F7DFBCF8091B0008F77809334
:10064000B00008958091B0008F7DF9CF8091900027
:100650008F77809390000895809190008F7DF9CFDF
:1006600080919000877FF5CF8091A0008F77809355
:10067000A00008958091A0008F7DF9CF8091A00007
:10068000877FF5CF809120018F7780932001089597
:10069000809120018F7DF9CF80912001877FF5CF58
:1006A000CF93DF93282F30E0F901EC5AFD4F84916E
:1006B000F901EC5EFC4FD491F901E253FD4FC49176
:1006C000CC23A1F081110E94E902EC2FF0E0EE0FA3
:1006D000FF1FE656FD4FA591B491EC91ED2381E00B
:1006E00090E009F480E0DF91CF91089580E090E000
:1006F000FACF1F93CF93DF93282F30E0F901EC5A04
:10070000FD4F8491F901EC5EFC4FD491F901E25365
:10071000FD4FC491CC23A9F0162F81110E94E9024C
:10072000EC2FF0E0EE0FFF1FEC54FD4FA591B491BC
:100730008FB7F894EC91111108C0D095DE23DC93AB
:100740008FBFDF91CF911F910895DE2BF8CFCF930C
:10075000DF9390E0FC01EC5EFC4F249182539D4FAF
:10076000FC0184918823D1F090E0880F991FFC014F
:10077000E65CFD4FA591B491FC01EC54FD4FC59191
:10078000D49161110EC09FB7F8948C91E22FE0953F
:100790008E238C932881E223E8839FBFDF91CF9142
:1007A00008958FB7F894EC91E22BEC938FBFF6CFBE
:1007B000863308F0865320917B00982F9870277F0E
:1007C000922B90937B008770806480937C00809153
:1007D0007A00806480937A0080917A0086FDFCCF55
:1007E000809178009091790008953FB7F8948091B6
:1007F000A7039091A803A091A903B091AA0326B5DD
:10080000A89B05C02F3F19F00196A11DB11D3FBF48
:10081000BA2FA92F982F8827BC01CD01620F711D17
:10082000811D911D42E0660F771F881F991F4A9511
:10083000D1F708958F929F92AF92BF92CF92DF929D
:10084000EF92FF924B015C010E94F5036B017C016A
:100850000E94F5036C197D098E099F09683E73405B
:1008600081059105A8F321E0821A9108A108B10839
:1008700088EEC80E83E0D81EE11CF11C811491049F
:10088000A104B10429F7FF90EF90DF90CF90BF90C3
:10089000AF909F908F9008952FB7F8946091A30325
:1008A0007091A4038091A5039091A6032FBF089592
:1008B0002F923F924F925F926F927F928F929F9270
:1008C000AF92BF92CF92DF92EF92FF920F931F935E
:1008D000CF93DF93CDB7DEB72E970FB6F894DEBF78
:1008E0000FBECDBF3090CA0431101BC0312C832DF8
:1008F0002E960FB6F894DEBF0FBECDBFDF91CF911D
:100900001F910F91FF90EF90DF90CF90BF90AF902D
:100910009F908F907F906F905F904F903F902F901F
:1009200008950E944C0469877A878B879C87809101
:10093000AA049091AB04A091AC04B091AD04498598
:100940005A856B857C85481B590B6A0B7B0B809104
:10095000BE049091BF04A091C004B091C104481797
:1009600059076A077B0710F2E091A404F091A504EF
:1009700080819181A281B3818D839E83AF83B8876B
:10098000E091A804F091A9049C01AD0160817181FE
:10099000828193810E94331D4B015C012091B2043E
:1009A0003091B3044091B4045091B5046D817E81BF
:1009B0008F8198850E94331D6B017C0120919804E2
:1009C0003091990440919A0450919B04C501B4015F
:1009D0000E94041F2091AE043091AF044091B004F6
:1009E0005091B1040E94341D2B013C014092AE0491
:1009F0005092AF046092B0047092B1042090CB0486
:100A0000211031C08091940490919504A091960496
:100A1000B091970489839A83AB83BC839C01AD0119
:100A2000C701B6010E94041F9B01AC01C301B201C2
:100A30000E94331D6093AE047093AF048093B004A2
:100A40009093B10469817A818B819C819058A70130
:100A500096010E94041F6093B6047093B7048093BC
:100A6000B8049093B9044090AE045090AF046090E5
:100A7000B0047090B1041091C6049091C7049E8791
:100A8000A091C804AD870091C904212F392F4A2FA6
:100A9000502FC301B2010E94FF1E18160CF09BC01C
:100AA000812F9E85AD85B02F8093AE049093AF04C7
:100AB000A093B004B093B104222009F4A5C0209102
:100AC0009404309195044091960450919704C50187
:100AD000B4010E94041F4B015C018092B604909205
:100AE000B704A092B804B092B90440909C0450900E
:100AF0009D0460909E0470909F04A3019201C70121
:100B0000B6010E94041F9B01AC016091AE0470917C
:100B1000AF048091B0049091B1040E94331DA501EF
:100B200094010E94341D4B015C01C301B201905835
:100B3000A70196010E94041F6093BA047093BB043E
:100B40008093BC049093BD049401A501612F7E8520
:100B50008D85902F0E94A01D87FD18C01091C204A2
:100B60009091C3049E87A091C404AD870091C504F1
:100B7000212F392F4A2F502FB401C5010E94A01DEB
:100B800087FD04C0182D9E86AD860B2DE091A6042E
:100B9000F091A704812F9E85AD85B02F808391832E
:100BA000A283B3838D819E81AF81B8858093B20487
:100BB0009093B304A093B404B093B50489859A8547
:100BC000AB85BC858093AA049093AB04A093AC043E
:100BD000B093AD048CCE8091C2049091C304A091D7
:100BE000C404B091C50489839A83AB83BC839C0100
:100BF000AD01C301B2010E94A01D87FF5DCF8981B5
:100C00009A81AB81BC8150CF812C912C54016DCF46
:100C10004F925F926F927F928F929F92AF92BF920C
:100C2000CF92DF92EF92FF92CF93DF93EC010E947D
:100C30004C046B017C018091DB039091DC03A0915B
:100C4000DD03B091DE030A96A11DB11D8C159D0533
:100C5000AE05BF05ECF588810E94D803BC01990F51
:100C6000880B990B0E944F1E4B015C0120E030E085
:100C700040E05FE36091D7037091D8038091D9037E
:100C80009091DA030E94041F2B013C0120E030E028
:100C900040E05FE3C501B4010E94041F9B01AC0169
:100CA000C301B2010E94341D6093D7037093D8032F
:100CB0008093D9039093DA038A829B82AC82BD82AF
:100CC000C092DB03D092DC03E092DD03F092DE03FE
:100CD000DF91CF91FF90EF90DF90CF90BF90AF90DA
:100CE0009F908F907F906F905F904F900895AF92FC
:100CF000BF92CF92DF92EF92FF920F931F93CF9309
:100D0000DF936C017B018B01040F151FEB015E016A
:100D1000AE18BF08C017D10759F06991D601ED91FF
:100D2000FC910190F081E02DC6011995892B79F78E
:100D3000C501DF91CF911F910F91FF90EF90DF9050
:100D4000CF90BF90AF9008952091BB023091BC022C
:100D50002817390771F49091B9028091BA02981757
:100D600041F0E091B902F0E0E259FD4F808190E05E
:100D700008958FEF9FEF08950895EF92FF920F93DC
:100D80001F93CF93DF93DC015C96ED90FC905D9711
:100D9000E114F10479F481E090E013969C938E9332
:100DA000129790E080E0DF91CF911F910F91FF901B
:100DB000EF9008955196ED91FC91529750968C9139
:100DC0005097982F90950FB75E962C915E97122FA3
:100DD000127021FD6095F8942081112319F1282BC0
:100DE0002083E7012197F1F728E0462F50E030817A
:100DF00060FF1AC0382B3083E7012197F1F7BA0161
:100E000075956795215089F7112381F08081892399
:100E100080830FBF5C968D919C910197F1F781E0E3
:100E200090E0C1CF2923DCCF3923E5CF9081892BF6
:100E3000EFCF2091BB023091BC022817390771F423
:100E40008091BA022091B90290E0805C9F4F821B92
:100E5000910960E470E00E94031D089590E080E035
:100E600008952091BB023091BC0228173907B9F4CC
:100E70009091B9028091BA02981789F0E091B90275
:100E8000F0E0E259FD4F80812091B90230E02F5F00
:100E90003F4F2F7333272093B90290E008958FEFCF
:100EA0009FEF089590E080E00895DC01EC91E0333D
:100EB00090F511968C91119728E830E0281B3109A4
:100EC00087FD3395220F331F220F331F62177307DD
:100ED00084F012968C9128E532E0281B310987FDB9
:100EE0003395220F331F220F331F621773070CF441
:100EF0009B0122503109220F331F4FB7F8948E2FD8
:100F000090E0FC01EE0FFF1FE80FF91FE65FFC4FBA
:100F1000328321834FBF0895CF92DF92EF92FF92E9
:100F20006B017C0180911302882361F00E944C04C4
:100F30006093B9037093BA038093BB039093BC038F
:100F40001092130264EA76E085E894E00E94550767
:100F500064E175E082E894E00E94550764E175E081
:100F60008FE794E00E94550764EA76E08CE794E00E
:100F70000E9455078091B9039091BA03A091BB03D9
:100F8000B091BC03C80ED91EEA1EFB1E0E944C0481
:100F9000C616D706E806F90650F481E080931302DE
:100FA00089E090E0FF90EF90DF90CF90089588E087
:100FB00090E0F8CF1F93CF93DF93EC01162F888139
:100FC000803308F04EC061E0812F0E94A703888122
:100FD000282F30E0F901EE0FFF1FE20FF31FE65F4D
:100FE000FC4F1F736081607C612B608319821A82C1
:100FF0002CE0622F0E94F71C829FB001112430E088
:1010000020E0AB01420F531FFA01EE0FFF1FE40F68
:10101000F51FE65FFC4F908196FD16C02F5F3F4F96
:101020002C30310571F7813009F51092800082E093
:10103000809381001092850010928400B19A809173
:101040006F00826080936F00E8818E2F90E0FC013A
:10105000EE0FFF1FE80FF91FE65FFC4F80818064F1
:1010600080838881DF91CF911F910895823061F450
:10107000109290008093910010929500109294002D
:1010800088BB80937100E0CF833069F41092A00098
:1010900082E08093A1001092A5001092A40089BB69
:1010A00080937200D1CF8111CFCF1092200182E0C6
:1010B0008093210110922501109224018ABB809314
:1010C0007300C2CFAF92BF92CF92DF92EF92FF92A6
:1010D0000F931F93CF93DF936B017A01EC01C759F4
:1010E000DD4F28813CE0389F8001399F100D11248D
:1010F000A0906D02B12C27FF1FC0FB01118210824E
:1011000088818F5F888388819801280F311D87FD32
:101110003A95F6012A153B051CF488818C30C4F100
:1011200080819181049680349C4908F473C0F60153
:1011300080819181049670C088819801280F311DAB
:1011400087FD3A952A153B05DCF68881A801480FF2
:10115000511D87FD5A95FA01EE0FFF1FE40FF51F91
:10116000E65FFC4F808186FFCBCF8881F801E80FD6
:10117000F11D87FDFA95CF01EE0FFF1FE80FF91F54
:10118000E65FFC4F808160E08F730E947903B8CFE7
:10119000808191812881A801420F511D27FD5A9518
:1011A0009A01FA01EE0FFF1FE20FF31FE65FFC4FFB
:1011B00021813281820F931FF7019183808388817F
:1011C0009801280F311D87FD3A95F901EE0FFF1F99
:1011D000E20FF31FE65FFC4F808186FF22C088810B
:1011E000080F111D87FD1A95F801EE0FFF1FE00F84
:1011F000F11FE65FFC4F808161E08F73DF91CF913B
:101200001F910F91FF90EF90DF90CF90BF90AF9024
:101210000C94790380E49CE9F701918380838FEF3C
:101220008883DF91CF911F910F91FF90EF90DF9016
:10123000CF90BF90AF9008950F931F93CF93DF93FC
:101240008C01C4E1D5E0C81BD90BBE0185E894E050
:101250000E945507BE0182E894E00E945507C4EA47
:10126000D6E0C01BD10BBE018FE794E00E9455076A
:10127000BE018CE794E0DF91CF911F910F910C9408
:1012800055070F931F93CF93DF938C01C4EAD6E0E9
:10129000C81BD90BBE0185E894E00E945507BE012A
:1012A00082E894E00E945507C4E1D5E0C01BD10B51
:1012B000BE018FE794E00E945507BE018CE794E0E1
:1012C000DF91CF911F910F910C945507CF92DF9230
:1012D000EF92FF9261E080E30E94790383E290E065
:1012E0000197F1F760E080E30E9479030E94F50323
:1012F0006B017C0181E30E945003892BA1F40E94C1
:10130000F5036C197D098E099F0969387E458105B1
:10131000910580F360E070E080E89FEBFF90EF9034
:10132000DF90CF9008950E94F5036B017C0181E36B
:101330000E945003019761F40E94F5036C197D0926
:101340008E099F0969387E458105910580F3E2CFBA
:101350000E94F5036C197D098E099F090E944D1E9C
:1013600020E030E048E652E40E94A51DD7CF4F921E
:101370005F926F927F928F929F92AF92BF92CF9225
:10138000DF92EF92FF920F931F93CF93DF9300D0E2
:1013900000D000D01F92CDB7DEB79A8789872A0187
:1013A0003B0109831A832B833C83DC015B96BC924F
:1013B000AE925A97FC01ED5BFF4F81E0AA94AB28F7
:1013C00009F080E08083E985FA854082518262825B
:1013D000738289819A81AB81BC8184839583A68342
:1013E000B783C086D186E286F38666A977A980ADE9
:1013F00091AD0E944D1E20E030E04AE754E40E9487
:10140000A51D6D837E838F839887E985FA85448641
:101410005586668677869B01AC0169817A818B81CE
:101420009C810E94041F4B015C01A985BA855096DE
:101430008D929D92AD92BC9253972D813E814F81AA
:101440005885C701B6010E94A51D6B017C01E98585
:10145000FA85C48AD58AE68AF78A808D918D0197AC
:1014600059F5A301920160E070E0CB010E94331DA9
:10147000A985BA851C966D937D938D939C931F9738
:10148000A501940160E070E0CB010E94331DE98565
:10149000FA85608B718B828B938BA701960160E03C
:1014A00070E0CB010E94331DA985BA8554966D93D7
:1014B0007D938D939C9357972A960FB6F894DEBF31
:1014C0000FBECDBFDF91CF911F910F91FF90EF9095
:1014D000DF90CF90BF90AF909F908F907F906F9054
:1014E0005F904F9008950F931F93CF93DF93EC017C
:1014F0008B01FC01EE5BFF4F8081882361F1888DB9
:10150000998D8617970739F12C853D854E855F8526
:1015100060E070E0CB010E94331D6C877D878E8771
:101520009F87288939894A895B8960E070E0CB010F
:101530000E94331D688B798B8A8B9B8B2C893D890C
:101540004E895F8960E070E0CB010E94331D6C8B97
:101550007D8B8E8B9F8B198F088FDF91CF911F9181
:101560000F9108952F923F924F925F926F927F92C8
:101570008F929F92AF92BF92CF92DF92EF92FF92A3
:101580000F931F93CF93DF931C016A017B014801E6
:101590005901A9019801CB01B6010E94FF1E87FFE6
:1015A0003BC0F101C2AED3AEE4AEF5AE8101025C48
:1015B0001F4FF80180829182A282B382349680818B
:1015C000882351F1F101C68DD78D488059806A80FA
:1015D0007B80A3019201C501B4010E94A01D87FF79
:1015E0002EC088829982AA82BB82F10186A097A030
:1015F000A0A4B1A4F801C080D180E280F380A7014B
:101600009601C501B4010E94FF1EF101181624F5D0
:10161000C6A2D7A2E0A6F1A6DF91CF911F910F91AC
:10162000FF90EF90DF90CF90BF90AF909F908F9002
:101630007F906F905F904F903F902F900895A301FF
:101640009201C701B6010E94FF1E181674F6C882E7
:10165000D982EA82FB82C9CFC2ACD3ACE4ACF5AC90
:10166000A7019601C501B4010E94A01D87FFD4CF38
:10167000F101CECF4F925F926F927F928F929F92A5
:10168000AF92BF92CF92DF92EF92FF920F931F9390
:10169000CF93DF9300D01F92CDB7DEB72B013C0173
:1016A000809115028823D1F11092CF031092D003BC
:1016B0001092D1031092D203A090A204B090A30480
:1016C0008AE0C82E87EDD82E83E2E82E8CE3F82E30
:1016D0009701860149E25CE56FE87DE388E894E0E4
:1016E0000E94B7094092D4045092D5046092D60467
:1016F0007092D70400E010E020E83FE340E050E0C3
:1017000060E87FEB88E894E00E94B20A61E070E054
:1017100088E894E00E94730A109215028090CF032B
:101720009090D003A090D103B090D2038091D303C6
:101730009091D403A091D503B091D60389839A8365
:10174000AB83BC838092CC049092CD04A092CE0453
:10175000B092CF040E945804C090D004D090D1041D
:10176000E090D204F090D304C092D303D092D4037B
:10177000E092D503F092D603A701960169817A81A0
:101780008B819C810E94A01D882331F120E030E0F4
:1017900048E453E4C701B6010E94041F9B01AC0159
:1017A00060E070E88BEB94E40E94331D0E94171EEA
:1017B0006B0185E894E00E945507B60182E894E049
:1017C0000E945507B6018FE794E00E945507B601C5
:1017D0008CE794E00E945507A3019201C501B40172
:1017E0000E94331D6B017C0120E030E0A9010E94C2
:1017F000FF1E181624F520E030E040E650E4C70153
:10180000B6010E94A01D87FF24C081E080931502CD
:1018100085E090E00F900F900F900F90DF91CF91A7
:101820001F910F91FF90EF90DF90CF90BF90AF90FE
:101830009F908F907F906F905F904F90089520E0E1
:1018400030E040E650ECC701B6010E94FF1E1816BA
:10185000E4F28AE090E0DECFFB0101900020E9F79E
:101860003197AF01461B570BDC01ED91FC910280D3
:10187000F381E02D19948F929F92AF92BF92EF92D5
:10188000FF920F931F93CF93DF93CDB7DEB7A1974E
:101890000FB6F894DEBF0FBECDBF7C01FA01CB01BD
:1018A00019A2223008F42AE08E010F5D1F4F822E0C
:1018B000912CB12CA12CBF01A50194010E94D51C33
:1018C000F901CA016A300CF5605DD8016E938D0193
:1018D000232B242B252B79F790E080E0109721F023
:1018E000BD01C7010E942C0CA1960FB6F894DEBF73
:1018F0000FBECDBFDF91CF911F910F91FF90EF9061
:10190000BF90AF909F908F900895695CDECF4F920B
:101910005F926F927F928F929F92AF92BF92CF927F
:10192000DF92EF92FF920F931F93CF936B017C0195
:10193000742EAC019B010E94C11F6AE372E0811109
:1019400026C046015701E894B7F82FEF3FEF4FE765
:101950005FE7C501B4010E94C11F81110CC02FEFC8
:101960003FEF4FE75FE7C501B4010E94A01D6EE3A2
:1019700072E0181664F02FEF3FEF4FE75FE4C70106
:10198000B6010E94FF1E1816ACF462E472E080E615
:1019900095E0CF911F910F91FF90EF90DF90CF9046
:1019A000BF90AF909F908F907F906F905F904F907F
:1019B0000C942C0C2FEF3FEF4FE75FECC701B60103
:1019C0000E94A01D87FDE1CF20E030E0A901C70102
:1019D000B6010E94A01D10E000E087FF0AC06DE282
:1019E00080E695E00E94BD068C01F7FAF094F7F8C6
:1019F000F094C0E060E070E080E09FE37C1641F08E
:101A000020E030E040E251E40E94A51DCF5FF6CF18
:101A1000A70196010E94341D2B013C010E941E1E4D
:101A20004B015C012AE0BC01A40180E695E00E9424
:101A30003B0C7C01E00EF11ECC23D1F1C501B401B9
:101A40000E944D1E9B01AC01C301B2010E94331DD7
:101A50004B015C016EE280E695E00E94BD06E80E57
:101A6000F91EC15028F120E030E040E251E4C50108
:101A7000B4010E94041F2B013C010E941E1E4B0159
:101A8000B12CA12C2AE0B501A40180E695E00E94CA
:101A90003B0CE80EF91EC501B4010E944D1E9B01CE
:101AA000AC01C301B2010E94331D4B015C01D9CFCF
:101AB000C701CF911F910F91FF90EF90DF90CF90D2
:101AC000BF90AF909F908F907F906F905F904F905E
:101AD0000895CF92DF92EF92FF92CF93DF936C0144
:101AE000990FEE08FF08F7FE23C06DE28FED93E03B
:101AF0000E944102EC0144275527BA014C195D09A7
:101B00006E097F092AE08FED93E00E943B0CC80F1D
:101B1000D91F66E472E08FED93E00E942C0C8C0FCD
:101B20009D1FDF91CF91FF90EF90DF90CF900895B0
:101B30002AE0B701A6018FED93E00E943B0CEC0177
:101B4000E8CFCF92DF92EF92FF92CF93DF93EC0139
:101B50002A853B854C855D856A817B818C819D8151
:101B60000E94711F2E813F81488559850E94041F64
:101B70006B017C0120E030E040EA52E40E94FF1E4D
:101B8000181634F4C12CD12C80EAE82E82E4F82E09
:101B9000C701B601DF91CF91FF90EF90DF90CF901A
:101BA0000895CF93DF93EC0188810E94D803BC0194
:101BB000990F880B990B0E944F1E6A837B838C833D
:101BC0009D83CE01DF91CF910C94A10D8F929F92B6
:101BD000AF92BF92CF92DF92EF92FF920F931F933B
:101BE0008091C70381110DC00E944C046093C30310
:101BF0007093C4038093C5039093C60381E08093E0
:101C0000C703809114028823A9F11092CF03109288
:101C1000D0031092D1031092D203A090A204B090EE
:101C2000A304C12CD12C76019701860140E050E03D
:101C300060EA71E488E894E00E94B709C092D40495
:101C4000D092D504E092D604F092D70400E010E0E0
:101C500028EC32E440E050E068EC72EC88E894E074
:101C60000E94B20A61E070E088E894E00E94730A82
:101C7000109214028090BF039090C003A090C10303
:101C8000B090C2038091CF039091D003A091D10373
:101C9000B091D2038093CC049093CD04A093CE0452
:101CA000B093CF040E945804C090D004D090D104C7
:101CB000E090D204F090D304C092BF03D092C0034E
:101CC000E092C103F092C203A7019601C501B401DD
:101CD0000E94A01D882339F0C701B6010E94171E7B
:101CE000CB010E941C09C090C303D090C403E090B4
:101CF000C503F090C60384E6C80ED11CE11CF11C9C
:101D00000E944C04C616D706E806F90618F089E0CA
:101D100090E02AC00E944C046093C3037093C403F4
:101D20008093C5039093C60388ED94E00E94D10D83
:101D300020E030E040E251E40E94A01D87FF1FC078
:101D40008091BD039091BE0301969093BE03809352
:101D5000BD030497E4F281E0809314021092BE0365
:101D60001092BD0388E090E01F910F91FF90EF90DB
:101D7000DF90CF90BF90AF909F908F90089510927A
:101D8000BE031092BD03C3CFCF92DF92EF92FF92BA
:101D90008091B10381110DC00E944C046093AD038A
:101DA0007093AE038093AF039093B00381E0809370
:101DB000B10364E175E085E894E00E94550764EAA8
:101DC00076E082E894E00E94550764EA76E08FE7C7
:101DD00094E00E94550764E175E08CE794E00E946E
:101DE0005507C090AD03D090AE03E090AF03F090E4
:101DF000B00384E6C80ED11CE11CF11C0E944C0407
:101E0000C616D706E806F90618F083E090E02BC066
:101E10000E944C046093AD037093AE038093AF03B4
:101E20009093B00384EF94E00E94D10D20E030E065
:101E300040E051E40E94A01D87FF1AC08091AB03CF
:101E40009091AC0301969093AC038093AB03809187
:101E5000AB039091AC030697C4F21092AC031092BE
:101E6000AB0384E090E0FF90EF90DF90CF90089577
:101E70001092AC031092AB03C8CF1F920F920FB613
:101E80000F9211242F933F938F939F93AF93BF9300
:101E90008091A3039091A403A091A503B091A60300
:101EA0003091A20323E0230F2D3758F50196A11D91
:101EB000B11D2093A2038093A3039093A403A09346
:101EC000A503B093A6038091A7039091A803A091C6
:101ED000A903B091AA030196A11DB11D8093A70388
:101EE0009093A803A093A903B093AA03BF91AF91C5
:101EF0009F918F913F912F910F900FBE0F901F9048
:101F0000189526E8230F0296A11DB11DD2CF1F926E
:101F10000F920FB60F9211240BB60F922F933F938F
:101F20004F935F936F937F938F939F93AF93BF93E1
:101F3000EF93FF938FED93E00E941F02FF91EF91CB
:101F4000BF91AF919F918F917F916F915F914F91D1
:101F50003F912F910F900BBE0F900FBE0F901F90CF
:101F600018951F920F920FB60F9211240BB60F9275
:101F70002F938F939F93EF93FF93E091EF03F09153
:101F8000F0038081E091F503F091F60382FD1DC01E
:101F900090818091F8038F5F8F732091F9038217EE
:101FA00041F0E091F803F0E0E152FC4F958F80930F
:101FB000F803FF91EF919F918F912F910F900BBE9E
:101FC0000F900FBE0F901F9018958081F2CF1F9237
:101FD0000F920FB60F9211240BB60F922F933F93CF
:101FE0004F935F936F937F938F939F93AF93BF9321
:101FF000EF93FF93E091BB02F091BC02309749F060
:10200000A685B7858585968D91FF16C09C918923FD
:10201000B1F4FF91EF91BF91AF919F918F917F911B
:102020006F915F914F913F912F910F900BBE0F9049
:102030000FBE0F901F9018959C91892351F7A3898B
:10204000B4899C918589809589238C938689978909
:102050000197F1F7608D718DA685B785558538E0BC
:1020600020E0CB010197F1F7822F90E095958795BD
:10207000282F4C91452309F02068315091F7868D27
:1020800081FD20958091BA0290E001968F73992787
:102090003091B902381799F0A091BA02B0E0A25974
:1020A000BD4F2C938093BA02828D938D0197F1F7E7
:1020B000A389B4898C919589892B8C93AACF868D1D
:1020C0008160868FF1CF1F920F920FB60F9211246D
:1020D0000BB60F922F933F934F935F936F937F9322
:1020E0008F939F93AF93BF93EF93FF9348E251E099
:1020F00064E271E090E080E00E946208FF91EF915D
:10210000BF91AF919F918F917F916F915F914F910F
:102110003F912F910F900BBE0F900FBE0F901F900D
:1021200018951F920F920FB60F9211240BB60F92B3
:102130002F933F934F935F936F937F938F939F93CF
:10214000AF93BF93EF93FF9348EA50E064EA70E0E7
:1021500083E090E00E946208FF91EF91BF91AF9100
:102160009F918F917F916F915F914F913F912F91AF
:102170000F900BBE0F900FBE0F901F9018951F92DF
:102180000F920FB60F9211240BB60F922F933F931D
:102190004F935F936F937F938F939F93AF93BF936F
:1021A000EF93FF9348E950E064E970E082E090E04B
:1021B0000E946208FF91EF91BF91AF919F918F9123
:1021C0007F916F915F914F913F912F910F900BBE37
:1021D0000F900FBE0F901F9018951F920F920FB681
:1021E0000F9211240BB60F922F933F934F935F934F
:1021F0006F937F938F939F93AF93BF93EF93FF93CF
:1022000048E850E064E870E081E090E00E946208F5
:10221000FF91EF91BF91AF919F918F917F916F91BE
:102220005F914F913F912F910F900BBE0F900FBE7A
:102230000F901F901895FC0190916D02903398F4C7
:1022400081E0890F80936D029083892F90E0FC01DB
:10225000EE0FFF1FE80FF91FE65FFC4F88EB9BE0D6
:102260009283818308958FEF808308954F925F92C8
:102270006F927F92AF92BF92CF92DF92EF92FF92D6
:102280000F931F931092E2031092E10388EE93E004
:10229000A0E0B0E08093E3039093E403A093E50310
:1022A000B093E6038AE192E09093E0038093DF032A
:1022B00085EC90E09093EC038093EB0384EC90E04A
:1022C0009093EE038093ED0380EC90E09093F00305
:1022D0008093EF0381EC90E09093F2038093F103FD
:1022E00082EC90E09093F4038093F30386EC90E00B
:1022F0009093F6038093F5031092F8031092F9037C
:102300001092FA031092FB0385E894E00E941B11DF
:1023100082E894E00E941B118FE794E00E941B1159
:102320008CE794E00E941B111092030510920205A5
:1023300010920405109205051092060510920705EB
:102340001092F5041092F4041092F6041092F7041F
:102350001092F8041092F9041092E7041092E60427
:102360001092E8041092E9041092EA041092EB042F
:102370001092D9041092D8041092DA041092DB045F
:102380001092DC041092DD0480ED94E09093A70499
:102390008093A6048CEC94E09093A5048093A4040D
:1023A00084ED94E09093A9048093A8041092CA0449
:1023B0001092C2041092C3041092C4041092C50477
:1023C00080E090E0AFE7B3E48093C6049093C70445
:1023D000A093C804B093C90494E6492E512C612CF3
:1023E000712C4092BE045092BF046092C00470925F
:1023F000C10470E060E088E894E00E94730AAA24B7
:10240000A394B12CC12CD12C76019701860140E018
:1024100050E060E87FE388E894E00E94B7090E94FA
:102420004C040091BE041091BF042091C00430916F
:10243000C104601B710B820B930B6093AA04709311
:10244000AB048093AC049093AD0488E595E0909341
:102450002F0580932E0584E595E090932D058093BC
:102460002C058CE595E09093310580933005109212
:102470005205C0924A05D0924B05E0924C05F0926D
:102480004D0580E090E0AFE7B3E480934E05909374
:102490004F05A0935005B0935105409246055092C8
:1024A0004705609248057092490561E070E080E15F
:1024B00095E00E94730A97018601B701A60180E1A9
:1024C00095E00E94B7090E944C0440904605509048
:1024D000470560904805709049056419750986099B
:1024E0009709609332057093330580933405909378
:1024F0003505109263051092620588EE93E0A0E026
:10250000B0E08093640590936505A0936605B09351
:1025100067058CE292E090936105809360051092CC
:102520007705109276051092790510927805109231
:102530007B0510927A0510927D0510927C056091C2
:102540007E056E7F6D7F60937E056695617081E08C
:1025500068278BE00E94790361E08BE00E94A7036B
:10256000EFE1F3E0E491E0937005E9EDF2E0E4914E
:10257000F0E0EE0FFF1FEC54FD4F85919491909386
:1025800072058093710560E08AE00E94A703809144
:102590007E0581FD04C061E08AE00E9479038AE043
:1025A00080936C05EEE1F3E0E491E0936D05E8EDD6
:1025B000F2E0E491F0E0EE0FFF1FE656FD4F85914B
:1025C000949190936F0580936E051F910F91FF90EA
:1025D000EF90DF90CF90BF90AF907F906F905F9023
:1025E0004F900895CF93DF9300D01F921F92CDB7E5
:1025F000DEB7789484B5826084BD84B5816084BD83
:1026000085B5826085BD85B5816085BD80916E0090
:10261000816080936E0010928100809181008260C1
:1026200080938100809181008160809381008091FE
:1026300080008160809380008091B10084608093ED
:10264000B1008091B00081608093B00080919100D2
:1026500082608093910080919100816080939100CD
:10266000809190008160809390008091A1008260B1
:102670008093A1008091A10081608093A10080914E
:10268000A00081608093A0008091210182608093EE
:10269000210180912101816080932101809120019D
:1026A00081608093200180917A00846080937A0019
:1026B00080917A00826080937A0080917A008160B4
:1026C00080937A0080917A00806880937A001092DB
:1026D000C10080E090E0A8E4B2E48093CC04909341
:1026E000CD04A093CE04B093CF041092D0041092E6
:1026F000D1041092D2041092D3048093D404909306
:10270000D504A093D604B093D7048091CA04811154
:1027100049C0E091A604F091A704C080D180E28076
:10272000F380C092AE04D092AF04E092B004F09275
:10273000B104E091A404F091A50480819181A2816B
:10274000B3818093B2049093B304A093B404B09384
:10275000B5048090C6049090C704A090C804B090BF
:10276000C904A5019401C701B6010E94FF1E1816F5
:102770004CF48092AE049092AF04A092B004B09258
:10278000B10410C08090C2049090C304A090C4040F
:10279000B090C504A5019401C701B6010E94A01D17
:1027A00087FDE7CF81E08093CA0400E010E028ECC9
:1027B00032E440E050E068EC72EC88E894E00E947B
:1027C000B20A70E060E088E894E00E94730A61E079
:1027D0008DE00E94A70361E080E30E94A70360E010
:1027E00080E30E9479038BE390E09093030580934C
:1027F00002058AE999E8A6EEB4E48093080590936F
:102800000905A0930A05B0930B0581EE9AE7A4E7AA
:10281000BFEB80930C0590930D05A0930E05B0932C
:102820000F0560E08BE30E94A7038AE390E090939A
:10283000F5048093F40480E090E9AFE1B6E480937E
:10284000FA049093FB04A093FC04B093FD0482E18E
:1028500093E8A0E9BFEB8093FE049093FF04A0935C
:102860000005B093010560E08AE30E94A7038DE3B1
:1028700090E09093E7048093E60480EC92E9A6E56B
:10288000B8E48093EC049093ED04A093EE04B0932D
:10289000EF0481E895E9A3EDBFEB8093F0049093FA
:1028A000F104A093F204B093F30460E08DE30E947E
:1028B000A7038CE390E09093D9048093D80480E040
:1028C0009FE7A5EDB7E48093DE049093DF04A09327
:1028D000E004B093E1048BE39FEDAFEDBFEB809399
:1028E000E2049093E304A093E404B093E50460E071
:1028F0008CE30E94A7030AE010E01A82198289E3A0
:102900000E94D8037C010E94690D29813A812E0D15
:102910003F1D3A83298365E070E080E090E00E94EB
:102920001A040150110959F769E472E08FED93E040
:102930000E942C0C89819A810E94690D89819A815B
:102940006AE070E00E94031D7093AF026093AE02D4
:1029500062E572E08FED93E00E942C0C8091AE0254
:102960009091AF020E94690D68EE73E080E090E004
:102970000E941A040E944C04AB01BC018091B00279
:102980009091B102A091B202B091B3020696A11D3E
:10299000B11D84179507A607B7070CF04CC089E353
:1029A0000E94D8032091AE023091AF02BC01621B9D
:1029B000730BCB010196039710F470E060E0072ED3
:1029C000000C880B990B0E944F1E26EA3BE944EC51
:1029D0005BE30E94A51D28E638EE4FE95BE30E9409
:1029E000041F20E030E040EC50E40E94041F20E08F
:1029F00030E04AE754E40E94A51D9B01AC016091C0
:102A0000CF037091D0038091D1039091D2030E94A3
:102A1000341D6093CF037093D0038093D1039093C0
:102A2000D2030E944C046093B0027093B102809371
:102A3000B2029093B302809011029090120234E09F
:102A40008316910479F145E08416910409F4EAC6ED
:102A500053E08516910409F08FC368EE73E080E0BF
:102A600090E00E941A046EE270E085E894E00E9413
:102A7000DA076FE270E082E894E00E94DA0762E32E
:102A800070E08FE794E00E94DA0763E370E08CE780
:102A900094E00E94DA0784E090E090931202809321
:102AA00011026AC30E944C040091B5021091B60253
:102AB0002091B7023091B802061717072807390787
:102AC000E0F48091B4028F5F8093B402853008F403
:102AD00036C20E944C0464547D4F8F4F9F4F6093C9
:102AE000B5027093B6028093B7029093B80260E08B
:102AF0008DE00E9479031092B40280910F029091B0
:102B00001002069709F404C410927B0510927A050E
:102B1000109279051092780510927705109276053B
:102B20008FE190E090937D0580937C0580916C050A
:102B300096EF980F943048F02EEC280F243028F0B0
:102B400022EC280F283008F062C021E030E03093FA
:102B50007705209376052DE130E0309379052093B9
:102B600078052DE030E030937B0520937A05943092
:102B700050F02EEC280F243030F022EC280FF0E03B
:102B8000E0E0283010F4E8E6F0E03081943028F0FE
:102B900022EC280F283008F4EBC121E0232B9430DD
:102BA00048F09EEC980F943028F08E53F0E0E0E06F
:102BB000883010F4E8E6F0E0208380916C0596EF11
:102BC000980F943008F4D6C12EEC280F243008F466
:102BD000D1C122EC280F283008F0CFC12DE630E01B
:102BE0003093740520937305943008F0C9C1865062
:102BF000990B91E001C0990F8A95EAF7892F80938C
:102C0000750580917C0590917D050197F1F7809184
:102C10007A0590917B05892B49F1E091BB02F091F7
:102C2000BC0295E0E036F90709F1309739F0A38945
:102C3000B4898C919589909589238C9380917E0598
:102C40008E7F80937E051092BA021092B90280E6C0
:102C500095E09093BC028093BB02E0917305F091E4
:102C60007405808190917505892B808384EF94E0B1
:102C70000E94080686EE94E00E9408060E944C041A
:102C800069837A838B839C8380910102882361F01E
:102C90000E9466096093D9027093DA028093DB0286
:102CA0009093DC021092010280910102811120C0F8
:102CB0008091D5029091D602A091D702B091D8020E
:102CC0008093D1029093D202A093D302B093D40206
:102CD0008091CD029091CE02A091CF02B091D0020E
:102CE0008093C9029093CA02A093CB02B093CC0206
:102CF0008091C5029091C602A091C702B091C8020E
:102D00008C509E4FAF4FBF4F29813A814B815C81E0
:102D100082179307A407B5070CF0F4C0C090D9023E
:102D2000D090DA02E090DB02F090DC020E946609AB
:102D30009B01AC01C701B6010E94331D20E030E0C9
:102D400040E751E40E94341D2B013C014092D50222
:102D50005092D6026092D7027092D802C090C102FF
:102D6000D090C202E090C302F090C40284EF94E0DD
:102D70000E94A10D9B01AC01C701B6010E94331D49
:102D80006093CD027093CE028093CF029093D002D5
:102D900020E030E04CE852EC0E94A01D87FF3EC0CE
:102DA000309100023D8386EE94E00E94A10D4D819A
:102DB000442351F06093BD027093BE028093BF0222
:102DC0009093C00210920002C090BD02D090BE024B
:102DD000E090BF02F090C00286EE94E00E94A10D48
:102DE0009B01AC01C701B6010E94331D9B01AC01E0
:102DF00060E070E086E992EC0E94331D6093CD02A2
:102E00007093CE028093CF029093D0021092C102B1
:102E10001092C2021092C3021092C4022091D102F9
:102E20003091D2024091D3025091D402C301B20139
:102E30000E94331D6B017C0120E030E0A9010E945B
:102E4000FF1E181624F0F7FAF094F7F8F09420E03B
:102E500030E040EF51E4C701B6010E94A01D87FF9A
:102E600045C02091C9023091CA024091CB025091D5
:102E7000CC026091CD027091CE028091CF029091F0
:102E8000D0020E94331D6B017C0120E030E0A901DB
:102E90000E94FF1E181624F0F7FAF094F7F8F09449
:102EA00020E030E040EF51E4C701B6010E94A01DD0
:102EB00087FF1CC042E0C301B2010E94870C65E697
:102EC00072E080E695E00E942C0C6091CD0270913A
:102ED000CE028091CF029091D00242E00E94870CF6
:102EE00066E472E080E695E00E942C0C89819A816C
:102EF000AB81BC818093C5029093C602A093C702A8
:102F0000B093C802A0910F02B0911002BA83A983B6
:102F1000AC30B10508F07EC4FD018827ED56F84EAF
:102F20008F4F0C94171D1C18C418D5170A1C0A1CA7
:102F30000F1C8819A71A511B811B8B1B921B0E9407
:102F40004C046C597F4F8F4F9F4F6093B502709325
:102F5000B6028093B7029093B8028DE00E945003AE
:102F600061E0892B09F060E08DE00E947903C5CD16
:102F700024E014CE2BE630E033CE30E020E030CE3B
:102F8000823359F0833359F0843359F092EC980F1F
:102F9000983048F48E53990B2CCE88E030CE84E0E4
:102FA0002ECE82E02CCE81E02ACE809102028823B0
:102FB00061F00E944C046093DD027093DE02809306
:102FC000DF029093E0021092020264E175E085E86E
:102FD00094E00E94550764EA76E082E894E00E945B
:102FE000550764EA76E08FE794E00E94550764E1B4
:102FF00075E08CE794E00E945507C090DD02D09008
:10300000DE02E090DF02F090E002B3E7CB0ED11CCD
:10301000E11CF11C0E944C04C616D706E806F9060E
:1030200008F0A6C081E08093020281E090E09093D6
:10303000100280930F029CC080910E02882331F011
:1030400086EE94E00E94D10D10920E028091030250
:103050008823A9F1A090A204B090A304C12CD12C84
:10306000F0EFEF2EF1E4FF2E00E010E0980140E0D9
:1030700050E060EA71E488E894E00E94B70980E0DB
:1030800090E0A0E0B1E48093D4049093D504A093A1
:10309000D604B093D70400E010E028EC32E440E01E
:1030A00050E068EC72EC88E894E00E94B20A61E0BB
:1030B00070E088E894E00E94730A1092030282E0B4
:1030C00095E00E94D10D4090E3025090E4026090A0
:1030D000E5027090E6026093CC047093CD04809377
:1030E000CE049093CF040E945804C090D004D09096
:1030F000D104E090D204F090D304C092E302D092C5
:10310000E402E092E502F092E602A7019601C30113
:10311000B2010E94A01D882319F1C701B6010E94C7
:10312000171ECB010E9441090E94660920E030E091
:1031300040E251E40E94A01D87FF21C08091E1027E
:103140009091E20201969093E2028093E10204974B
:103150003CF081E08093030228E030E03A83298349
:1031600049815A815093100240930F021092090333
:1031700090921202809211020E94B802FBCB109230
:10318000E2021092E102ECCF80910E02882331F02E
:1031900086EE94E00E94D10D10920E0280910402FE
:1031A0008823A9F1A090A204B090A304C12CD12C33
:1031B000E4E0EE2EE2E4FE2E00E010E0980140E0B4
:1031C00050E068EC71E488E894E00E94B70980E080
:1031D00090E0A0EEB0E48093D4049093D504A09343
:1031E000D604B093D70400E010E028EC32E440E0CD
:1031F00050E068EC72EC88E894E00E94B20A61E06A
:1032000070E088E894E00E94730A1092040286EE4F
:1032100094E00E94D10D4090ED025090EE0260903B
:10322000EF027090F0026093CC047093CD04809311
:10323000CE049093CF040E945804C090D004D09044
:10324000D104E090D204F090D304C092ED02D09269
:10325000EE02E092EF02F092F002A7019601C301A4
:10326000B2010E94A01D882339F0C701B6010E9457
:10327000171ECB010E941C09C090E902D090EA02FF
:10328000E090EB02F090EC0294E6C90ED11CE11C38
:10329000F11C0E944C04C616D706E806F90688F50C
:1032A0000E944C046093E9027093EA028093EB025F
:1032B0009093EC0288ED94E00E94D10D20E030E084
:1032C00040E051E40E94A01D87FF17C08091E702F3
:1032D0009091E80201969093E8028093E7020597A7
:1032E00084F081E0809304021092E8021092E702D9
:1032F000A5E0B0E0BA83A98304C01092E80210925E
:10330000E70229813A813093100220930F0230CFD7
:1033100080910702811110920702E0910502F0915D
:103320000602EA30F10508F00FC18827E556F64E8F
:103330008F4F0C94171DA519B5193A1A4A1A4D1A30
:103340005D1A651A7B1A861A961A68E770E080E0A3
:1033500090E00E948C07089709F4F2C045E050E025
:103360005093060240930502EFC084EF94E00E9460
:10337000D10D8B018D83998386EE94E00E94D10D4F
:103380001B015C0188ED94E00E94D10D2B013C01F2
:103390000E9466096B017C019101A501B8018D8134
:1033A00099810E94FF1E18160CF443C01092F1027E
:1033B0001092F2021092F3021092F40298014D81E1
:1033C0005981C301B2010E94A01D87FF42C020E0C5
:1033D00030E044EB52EC2093F1023093F202409340
:1033E000F3025093F402A7019601C301B2010E94B7
:1033F000FF1E1816DCF480E090E0A4EBB2E48093AA
:10340000F1029093F202A093F302B093F40220E051
:1034100030E0A9016091F1027091F2028091F30213
:103420009091F4020E94A01D8823E9F082E090E0D0
:103430001CC080E090E0A4E3B3E48093F102909399
:10344000F202A093F302B093F4028101AD82B9823B
:10345000B5CF98014D815981C701B6010E94A01DC9
:1034600087FDC9CFD4CF83E090E09093060280938C
:1034700005026AC06091F1027091F2028091F3023C
:103480009091F4020E943A0B43E050E00A9709F051
:1034900067CFCCCF0E94C40EE8CF0E94660920E01F
:1034A00030E048EC52E40E94FF1E18161CF490E035
:1034B00080E0DBCF86E090E0D8CF0E94E60D099750
:1034C00009F44CCF90E080E0B2CD64EF71E080E091
:1034D00090E00E948C07089739F0A7E0B0E0B09325
:1034E0000602A093050230C026E030E030930602C9
:1034F0002093050229C060E070E084EB92E40E9412
:103500003A0B0A9751F348E050E02ACF0E9466092F
:1035100020E030E040EF52E40E94FF1E18161CF439
:1035200089E090E0A2CF8AE090E09FCF0E94C40E95
:10353000A9E0B0E0B0930602A0930502039721F042
:10354000109206021092050286E090E070CD809104
:1035500008028823A9F11092CF031092D003109291
:10356000D1031092D203A090A204B090A304C12C66
:10357000D12C76019701860140E050E060EA71E4C9
:1035800088E894E00E94B709C092D404D092D50490
:10359000E092D604F092D70400E010E028EC32E488
:1035A00040E050E068EC72EC88E894E00E94B20AD7
:1035B00061E070E088E894E00E94730A10920802CB
:1035C0004090F7025090F8026090F9027090FA0271
:1035D0008091CF039091D003A091D103B091D203F9
:1035E0008093CC049093CD04A093CE04B093CF04E9
:1035F0000E945804C090D004D090D104E090D2042E
:10360000F090D304C092F702D092F802E092F9024F
:10361000F092FA02A7019601C301B2010E94A01D17
:10362000882319F1C701B6010E94171ECB010E9421
:1036300041090E94660920E030E040E551E40E9423
:10364000A01D87FF29C08091F5029091F602019696
:103650009093F6028093F50204973CF081E080930A
:10366000080228E030E03A83298349815A81509347
:10367000100240930F0286EE94E00E94080686EE48
:1036800094E00E94A10D60930A0270930B02809354
:103690000C0290930D026ACD1092F6021092F50280
:1036A000E4CF81E080930E0264EF71E080E090E06F
:1036B0000E948C079093100280930F02089751F09C
:1036C00080910903882331F087E090E09093100205
:1036D00080930F0220E030E048E052E460910A025B
:1036E00070910B0280910C0290910D020E94A01D1E
:1036F00087FF3ECD8091090381113ACD8BE090E0A8
:1037000096CC0E94E60D9093100280930F0281E008
:10371000809309032DCD60E070E084E393E40E9480
:103720003A0B85CC8091010381110DC00E944C049D
:103730006093FD027093FE028093FF02909300035A
:1037400081E08093010380910902811110920902A6
:1037500064EA76E085E894E00E94550764E175E04C
:1037600082E894E00E94550764E175E08FE794E0F9
:103770000E94550764EA76E08CE794E00E945507C2
:10378000C090FD02D090FE02E090FF02F090000396
:1037900094E6C90ED11CE11CF11C0E944C04C61613
:1037A000D706E806F90608F0ACCD0E944C046093F9
:1037B000FD027093FE028093FF029093000386EE59
:1037C00094E00E94D10D20E030E040E051E40E94FE
:1037D000A01D87FF1AC08091FB029091FC02019608
:1037E0009093FC028093FB028091FB029091FC027B
:1037F00006970CF486CD81E0809309021092FC02BA
:103800001092FB02A2E0B0E075CD1092FC02109283
:10381000FB0277CD1092100210920F02A9CC898082
:103820009A80A6CC6CED75E085E894E00E9455077F
:103830006CED75E082E894E00E9455076CED75E050
:103840008FE794E00E9455076CED75E08CE794E0FB
:103850000E9455072091850430E0C901880F991F07
:10386000820F931FFC01E65FFC4F80818F7B80837A
:103870002091820430E0C901880F991F820F931FA5
:10388000FC01E65FFC4F80818F7B808320917F0469
:1038900030E0C901880F991F820F931FFC01E65F7A
:1038A000FC4F80818F7B808320917C0430E0C901B4
:1038B000880F991F820F931FFC01E65FFC4F8081E8
:1038C0008F7B808360E08EE20E94A70360E08FE23E
:1038D0000E94A70360E082E30E94A70360E083E305
:1038E0000E94A7030E944C0400919A0310919B032D
:1038F00020919C0330919D03601B710B820B930BF5
:10390000613D774081059105A0F00E944C046093D1
:103910009A0370939B0380939C0390939D038DE087
:103920000E94500361E0892B09F060E08DE00E9465
:1039300079030E944C0400919E0310919F032091F3
:10394000A0033091A103601B710B820B930B653FA9
:1039500071408105910550F00E944C0460939E03D4
:1039600070939F038093A0039093A10385E090E060
:1039700094C88CE292E090936105809360058091F9
:10398000BB029091BC028056954071F4E0917305A2
:10399000F0917405908180917505809589238083CD
:1039A0001092BC021092BB020895A1E21A2EAA1B2B
:1039B000BB1BFD010DC0AA1FBB1FEE1FFF1FA217DF
:1039C000B307E407F50720F0A21BB30BE40BF50BDC
:1039D000661F771F881F991F1A9469F76095709565
:1039E000809590959B01AC01BD01CF010895991B75
:1039F00079E004C0991F961708F0961B881F7A95E6
:103A0000C9F78095089597FB072E16F4009407D008
:103A100077FD09D00E941F1D07FC05D03EF490954C
:103A200081959F4F0895709561957F4F0895EE0F92
:103A3000FF1F881F8BBF0790F691E02D1994AA1BDA
:103A4000BB1B51E107C0AA1FBB1FA617B70710F089
:103A5000A61BB70B881F991F5A95A9F780959095BB
:103A6000BC01CD0108955058BB27AA270E944B1DC9
:103A70000C94C51E0E94B71E38F00E94BE1E20F096
:103A800039F49F3F19F426F40C94B41E0EF4E0951B
:103A9000E7FB0C94AE1EE92F0E94D61E58F3BA170E
:103AA000620773078407950720F079F4A6F50C9454
:103AB000F81E0EF4E0950B2EBA2FA02D0B01B901C4
:103AC00090010C01CA01A0011124FF27591B99F094
:103AD000593F50F4503E68F11A16F040A22F232FA0
:103AE000342F4427585FF3CF469537952795A795F0
:103AF000F0405395C9F77EF41F16BA0B620B730B97
:103B0000840BBAF09150A1F0FF0FBB1F661F771F07
:103B1000881FC2F70EC0BA0F621F731F841F48F4BC
:103B2000879577956795B795F7959E3F08F0B0CF45
:103B30009395880F08F09927EE0F9795879508952C
:103B40000E948A1E08F481E008950E94B91D0C9419
:103B5000C51E0E94BE1E58F00E94B71E40F029F4F8
:103B60005F3F29F00C94AE1E51110C94F91E0C9479
:103B7000B41E0E94D61E68F39923B1F3552391F326
:103B8000951B550BBB27AA2762177307840738F0CC
:103B90009F5F5F4F220F331F441FAA1FA9F335D029
:103BA0000E2E3AF0E0E832D091505040E695001CDD
:103BB000CAF72BD0FE2F29D0660F771F881FBB1F97
:103BC000261737074807AB07B0E809F0BB0B802D75
:103BD000BF01FF2793585F4F3AF09E3F510578F0A1
:103BE0000C94AE1E0C94F91E5F3FE4F3983ED4F3A0
:103BF000869577956795B795F7959F5FC9F7880F75
:103C0000911D9695879597F90895E1E0660F771FC6
:103C1000881FBB1F621773078407BA0720F0621B57
:103C2000730B840BBA0BEE1F88F7E09508950E9482
:103C30001E1E6894B1110C94F91E08950E94DE1E98
:103C400088F09F5798F0B92F9927B751B0F0E1F05D
:103C5000660F771F881F991F1AF0BA95C9F714C00D
:103C6000B13091F00E94F81EB1E008950C94F81E56
:103C7000672F782F8827B85F39F0B93FCCF3869546
:103C800077956795B395D9F73EF4909580957095A3
:103C900061957F4F8F4F9F4F0895E89409C097FB20
:103CA0003EF490958095709561957F4F8F4F9F4F13
:103CB0009923A9F0F92F96E9BB279395F695879557
:103CC00077956795B795F111F8CFFAF4BB0F11F41A
:103CD00060FF1BC06F5F7F4F8F4F9F4F16C08823C1
:103CE00011F096E911C0772321F09EE8872F762FF7
:103CF00005C0662371F096E8862F70E060E02AF038
:103D00009A95660F771F881FDAF7880F9695879523
:103D100097F90895990F0008550FAA0BE0E8FEEFF8
:103D200016161706E807F907C0F012161306E4077F
:103D3000F50798F0621B730B840B950B39F40A2678
:103D400061F0232B242B252B21F408950A2609F456
:103D5000A140A6958FEF811D811D089597F99F675A
:103D600080E870E060E008959FEF80EC0895002403
:103D70000A941616170618060906089500240A94D0
:103D800012161306140605060895092E0394000C56
:103D900011F4882352F0BB0F40F4BF2B11F460FFE5
:103DA00004C06F5F7F4F8F4F9F4F089557FD90580E
:103DB000440F551F59F05F3F71F04795880F97FBEF
:103DC000991F61F09F3F79F08795089512161306A9
:103DD0001406551FF2CF4695F1DF08C016161706D8
:103DE0001806991FF1CF869571056105089408950D
:103DF000E894BB2766277727CB0197F908950E949F
:103E00008A1E08F48FEF08950E94171F0C94C51E98
:103E10000E94B71E38F00E94BE1E20F0952311F0BC
:103E20000C94AE1E0C94B41E11240C94F91E0E9426
:103E3000D61E70F3959FC1F3950F50E0551F629FFA
:103E4000F001729FBB27F00DB11D639FAA27F00DF3
:103E5000B11DAA1F649F6627B00DA11D661F829F1A
:103E60002227B00DA11D621F739FB00DA11D621FFF
:103E7000839FA00D611D221F749F3327A00D611D1C
:103E8000231F849F600D211D822F762F6A2F1124FE
:103E90009F5750409AF0F1F088234AF0EE0FFF1F31
:103EA000BB1F661F771F881F91505040A9F79E3F88
:103EB000510580F00C94AE1E0C94F91E5F3FE4F3A4
:103EC000983ED4F3869577956795B795F795E795DE
:103ED0009F5FC1F7FE2B880F911D9695879597F9E7
:103EE0000895FA01EE0FFF1F309621053105A1F16B
:103EF0006115710561F48038BFE39B0749F168944F
:103F00009038810561F08038BFEF9B0741F099231D
:103F10004AF5FF3FE1053105210519F1E8940894C0
:103F2000E795D901AA2329F4AB2FBE2FF85FD0F370
:103F300010C0FF5F70F4A695E0F7F73950F019F064
:103F4000FF3A38F49F779F930DD00F9007FC90585D
:103F5000089546F00C94B41E60E070E080E89FE3A2
:103F600008954FE79F775F934F933F932F930E945E
:103F700071202F913F914F915F910E94041F0C94EB
:103F8000CE1F0E948A1E880B990B089529F416F003
:103F90000C94AE1E0C94F81E0C94B41E0E94DE1EEF
:103FA000A8F39638A0F707F80F92E8942BE33AEAC3
:103FB00048EB5FE70E941A1F0F920F920F924DB7C6
:103FC0005EB70F920E94B920E4EEF0E00E9400205C
:103FD0004F915F91EF91FF91E595EE1FFF1F49F023
:103FE000FE57E0684427EE0F441FFA95E1F741952C
:103FF000550B0E9433200F9007FE0C942720089544
:10400000DF93CF931F930F93FF92EF92DF927B0189
:104010008C01689406C0DA2EEF010E94171FFE0182
:10402000E894A5912591359145915591A6F3EF011D
:104030000E944B1DFE019701A801DA9469F7DF90F9
:10404000EF90FF900F911F91CF91DF9108959B0109
:10405000AC0160E070E080E89FE30C94A51D0C9437
:10406000AE1E0C94ED200E94DE1ED8F39923C9F3F6
:10407000940F511DA3F39150504094F059F08823B0
:1040800032F0660F771F881F91505040C1F79E3F56
:1040900051052CF7880F911D9695879597F90895EE
:1040A0005F3FACF0983E9CF0BB278695779567956F
:1040B000B79508F4B1609395C1F7BB0F58F711F4A9
:1040C00060FFE8CF6F5F7F4F8F4F9F4FE3CF0C9420
:1040D000F91E16F00C94ED200C94B41E68940C9408
:1040E000AE1E0E94DE1EA8F39923C1F3AEF3DF9348
:1040F000CF931F930F93FF92C92FDD2788232AF0B8
:104100002197660F771F881FDAF720E030E040E83C
:104110005FEB9FE3883920F0803E38F021968F775F
:104120000E94341DECE0F1E004C00E94341DE9E37C
:10413000F1E00E9400208B01BE01EC01FB2E6F57C5
:1041400071097595771F880B990B0E944F1E28E106
:1041500032E741E35FE30E94171FAF2D9801AE01E4
:10416000FF900F911F91CF91DF910E944B1D0C94F6
:10417000C51EFA01DC01AA0FBB1F9B01AC01BF5792
:1041800028F4222733274427507820C0B75190F4D1
:10419000AB2F0024469537952795011CA395D2F3A4
:1041A000002071F0220F331F441FB395DAF30ED0B5
:1041B0000C94331D61307105A0E88A07B94630F4CC
:1041C0009B01AC016627772788279078309621F0ED
:1041D000208331834283538308959F3F31F0915070
:1041E00020F4879577956795B795880F911D9695DB
:1041F000879597F9089511E0CEEAD1E000E006C076
:10420000802FFE010E94171D2196011DCF3AD10774
:0A42100080E00807A9F7F894FFCF3B
:10421A0001010101010100010101000048420106FA
:10422A000003000101010000000041027706E201DB
:10423A008E021302F101050200000000BD06770696
:10424A005207BC0619073107A4066E616E00696E33
:10425A0066006F7666000D0A0073756D2069733A01
:10426A0020007A65726F4779726F566F6C74616756
:08427A00652069733A20000081
:00000001FF
