:100000000C94AF010C94E0010C94E0010C94E0011D
:100010000C94E0010C94E0010C94E0010C94E001DC
:100020000C94E0010C94DD0F0C94DD0F0C94DD0FAB
:100030000C94E0010C94E0010C94E0010C94E001BC
:100040000C94E0010C94E3100C94E0010C94E0019A
:100050000C94E0010C94E0010C94E0010C94330F3B
:100060000C94E0010C94A70F0C947D0F0C94E0010C
:100070000C94E0010C94E0010C94E0010C94E0017C
:100080000C94B5100C94E0010C94E0010C94E00188
:100090000C94E0010C94E0010C94E0010C94E0015C
:1000A0000C94E0010C94E0010C9487100C94E00196
:1000B0000C94E0010C94E0010C94E0010C945910B4
:1000C0000C94E0010C94E0010C94E0010C94E0012C
:1000D0000C94E0010C94E0010C94E0010C94E0011C
:1000E0000C94E00107634236B79BD8A71A396856CB
:1000F00018AEBAAB558C1D3CB7CC5763BD6DEDFD4A
:10010000753EF6177231BF000000803F0800000006
:10011000BE922449123EABAAAA2ABECDCCCC4C3EFC
:1001200000000080BEABAAAAAA3E00000000BF00EB
:100130000000803F0000000000084178D3BB4387E7
:10014000D1133D190E3CC3BD4282AD2B3E68EC82FB
:1001500076BED98FE1A93E4C80EFFFBE01C4FF7F80
:100160003F00000000000C942E1C0C9441020C94E3
:100170000D030C94DC190C94CF180C9447030C94C9
:1001800026030C944C030C94AD1B0C942C110C9472
:1001900019030C94E2010C9422030C9493190C940F
:1001A000BD060C9419070C94CD190C94FC180C94F2
:1001B00015030C942C030C9448030C94FD190C9417
:1001C00031070C9407030C947D190C9405020C94D0
:1001D00013020C943A030C94DD1C0C94BC060C9492
:1001E000A71A0C948E020C94F1010C9442030C9407
:1001F000DB1A0C94EC180C94A6190C941C030C94A8
:1002000052070C94331C0C94B41B0C9496190C9448
:10021000CB170C9417180C94B8180C94B7190C94AD
:10022000A4060C9411030C9430030C943E030C941C
:1002300077060C94EC190C94340300002100240080
:1002400027002A002D0030003300010100000401C6
:1002500007010A0100000A0B02090C0D0E08070332
:100260000401000000000000000000000000000089
:10027000000000000000000000000000000000007E
:10028000121110000000000000000000000000003B
:10029000000000000000000000000000200023001B
:1002A000260029002C002F0032000001000003016D
:1002B0000601090100002200250028002B002E0065
:1002C0003100340002010000050108010B010505A1
:1002D0000505070508080808020202020A0A0808BC
:1002E00004040404010101010101010103030303EA
:1002F00003030303040707070C0C0C0C0C0C0C0C79
:100300000202020206060606060606060B0B0B0B89
:100310000B0B0B0B010210202008081020401020AE
:1003200040800201020108040201010204081020B9
:1003300040808040201008040201800402018040B7
:100340002010080402010804020101020408102020
:10035000408001020408102040802C11DD1C112473
:100360001FBECFEFD1E2DEBFCDBF00E00CBF12E079
:10037000A0E0B2E0E2E6F2E400E00BBF02C00790CA
:100380000D92A836B107D9F725E0A8E6B2E001C082
:100390001D92AF37B207E1F711E0CEEAD1E000E0FD
:1003A00006C021970109802FFE010E943B1DCD3A16
:1003B000D10780E00807A9F70E94E8120C941F21DA
:1003C0000C940000FC01538D448D252F30E0842FC8
:1003D00090E0821B930B541710F0CF96089501976D
:1003E0000895FC01918D828D981761F0A28DAE0F5A
:1003F000BF2FB11D5D968C91928D9F5F9F73928FE1
:1004000090E008958FEF9FEF0895FC01918D828D0C
:10041000981731F0828DE80FF11D858D90E00895D9
:100420008FEF9FEF0895FC01918D228D892F90E031
:10043000805C9F4F821B91098F7399270895FC015F
:10044000A48DA80FB92FB11DA35ABF4F2C91848D35
:1004500090E001968F739927848FA689B7892C9392
:10046000A089B1898C91837080648C93938D848DE5
:10047000981306C00288F389E02D80818F7D8083E8
:100480000895EF92FF920F931F93CF93DF93EC01A8
:1004900081E0888F9B8D8C8D98131AC0E889F9892B
:1004A000808185FF15C09FB7F894EE89FF8960832E
:1004B000E889F98980818370806480839FBF81E0AF
:1004C00090E0DF91CF911F910F91FF90EF900895F1
:1004D000F62E0B8D10E00F5F1F4F0F731127E02ECC
:1004E0008C8D8E110CC00FB607FCFACFE889F98904
:1004F000808185FFF5CFCE010E941F02F1CFEB8DE9
:10050000EC0FFD2FF11DE35AFF4FF0829FB7F894D7
:100510000B8FEA89FB8980818062CFCFCF93DF93F5
:10052000EC01888D8823B9F0AA89BB89E889F9890B
:100530008C9185FD03C0808186FD0DC00FB607FC40
:10054000F7CF8C9185FFF2CF808185FFEDCFCE0173
:100550000E941F02E9CFDF91CF9108958FED93E0C4
:100560000E94130221E0892B09F420E0822F0895D4
:1005700080E090E0892B29F00E94AE0281110E9458
:10058000000080E090E0892B49F080E090E0892B2A
:1005900029F00E94000081110E94000080E090E09C
:1005A000892B49F080E090E0892B29F00E9400001F
:1005B00081110E94000080E090E0892B49F080E0EA
:1005C00090E0892B29F00E94000081110C9400001A
:1005D00008958150823108F05AC0E82FF0E0882752
:1005E000EB50FD4F8F4F0C943B1D15031903070370
:1005F0000D03110347031C03220326032C033003BE
:1006000034033A033E034703420348034C038091FB
:1006100080008F77809380000895809180008F7D87
:10062000F9CF80918000877FF5CF84B58F7784BD27
:10063000089584B58F7DFBCF8091B0008F77809334
:10064000B00008958091B0008F7DF9CF8091900027
:100650008F77809390000895809190008F7DF9CFDF
:1006600080919000877FF5CF8091A0008F77809355
:10067000A00008958091A0008F7DF9CF8091A00007
:10068000877FF5CF809120018F7780932001089597
:10069000809120018F7DF9CF80912001877FF5CF58
:1006A000CF93DF93282F30E0F901EC5AFD4F84916E
:1006B000F901EC5EFC4FD491F901E253FD4FC49176
:1006C000CC23A1F081110E94E902EC2FF0E0EE0FA3
:1006D000FF1FE656FD4FA591B491EC91ED2381E00B
:1006E00090E009F480E0DF91CF91089580E090E000
:1006F000FACF1F93CF93DF93282F30E0F901EC5A04
:10070000FD4F8491F901EC5EFC4FD491F901E25365
:10071000FD4FC491CC23A9F0162F81110E94E9024C
:10072000EC2FF0E0EE0FFF1FEC54FD4FA591B491BC
:100730008FB7F894EC91111108C0D095DE23DC93AB
:100740008FBFDF91CF911F910895DE2BF8CFCF930C
:10075000DF9390E0FC01EC5EFC4F249182539D4FAF
:10076000FC0184918823D1F090E0880F991FFC014F
:10077000E65CFD4FA591B491FC01EC54FD4FC59191
:10078000D49161110EC09FB7F8948C91E22FE0953F
:100790008E238C932881E223E8839FBFDF91CF9142
:1007A00008958FB7F894EC91E22BEC938FBFF6CFBE
:1007B000863308F0865320917B00982F9870277F0E
:1007C000922B90937B008770806480937C00809153
:1007D0007A00806480937A0080917A0086FDFCCF55
:1007E000809178009091790008953FB7F8948091B6
:1007F000AF039091B003A091B103B091B20326B5BD
:10080000A89B05C02F3F19F00196A11DB11D3FBF48
:10081000BA2FA92F982F8827BC01CD01620F711D17
:10082000811D911D42E0660F771F881F991F4A9511
:10083000D1F708958F929F92AF92BF92CF92DF929D
:10084000EF92FF924B015C010E94F5036B017C016A
:100850000E94F5036C197D098E099F09683E73405B
:1008600081059105A8F321E0821A9108A108B10839
:1008700088EEC80E83E0D81EE11CF11C811491049F
:10088000A104B10429F7FF90EF90DF90CF90BF90C3
:10089000AF909F908F9008952FB7F8946091AB031D
:1008A0007091AC038091AD039091AE032FBF08957A
:1008B0002F923F924F925F926F927F928F929F9270
:1008C000AF92BF92CF92DF92EF92FF920F931F935E
:1008D000CF93DF93CDB7DEB72E970FB6F894DEBF78
:1008E0000FBECDBF3090CA0431101BC0312C832DF8
:1008F0002E960FB6F894DEBF0FBECDBFDF91CF911D
:100900001F910F91FF90EF90DF90CF90BF90AF902D
:100910009F908F907F906F905F904F903F902F901F
:1009200008950E944C0469877A878B879C87809101
:10093000AA049091AB04A091AC04B091AD04498598
:100940005A856B857C85481B590B6A0B7B0B809104
:10095000BE049091BF04A091C004B091C104481797
:1009600059076A077B0710F2E091A404F091A504EF
:1009700080819181A281B3818D839E83AF83B8876B
:10098000E091A804F091A9049C01AD0160817181FE
:10099000828193810E94571D4B015C012091B2041A
:1009A0003091B3044091B4045091B5046D817E81BF
:1009B0008F8198850E94571D6B017C0120919804BE
:1009C0003091990440919A0450919B04C501B4015F
:1009D0000E94281F2091AE043091AF044091B004D2
:1009E0005091B1040E94581D2B013C014092AE046D
:1009F0005092AF046092B0047092B1042090CB0486
:100A0000211031C08091940490919504A091960496
:100A1000B091970489839A83AB83BC839C01AD0119
:100A2000C701B6010E94281F9B01AC01C301B2019E
:100A30000E94571D6093AE047093AF048093B0047E
:100A40009093B10469817A818B819C819058A70130
:100A500096010E94281F6093B6047093B704809398
:100A6000B8049093B9044090AE045090AF046090E5
:100A7000B0047090B1041091C6049091C7049E8791
:100A8000A091C804AD870091C904212F392F4A2FA6
:100A9000502FC301B2010E94231F18160CF09BC0F7
:100AA000812F9E85AD85B02F8093AE049093AF04C7
:100AB000A093B004B093B104222009F4A5C0209102
:100AC0009404309195044091960450919704C50187
:100AD000B4010E94281F4B015C018092B6049092E1
:100AE000B704A092B804B092B90440909C0450900E
:100AF0009D0460909E0470909F04A3019201C70121
:100B0000B6010E94281F9B01AC016091AE04709158
:100B1000AF048091B0049091B1040E94571DA501CB
:100B200094010E94581D4B015C01C301B201905811
:100B3000A70196010E94281F6093BA047093BB041A
:100B40008093BC049093BD049401A501612F7E8520
:100B50008D85902F0E94C41D87FD18C01091C2047E
:100B60009091C3049E87A091C404AD870091C504F1
:100B7000212F392F4A2F502FB401C5010E94C41DC7
:100B800087FD04C0182D9E86AD860B2DE091A6042E
:100B9000F091A704812F9E85AD85B02F808391832E
:100BA000A283B3838D819E81AF81B8858093B20487
:100BB0009093B304A093B404B093B50489859A8547
:100BC000AB85BC858093AA049093AB04A093AC043E
:100BD000B093AD048CCE8091C2049091C304A091D7
:100BE000C404B091C50489839A83AB83BC839C0100
:100BF000AD01C301B2010E94C41D87FF5DCF898191
:100C00009A81AB81BC8150CF812C912C54016DCF46
:100C10004F925F926F927F928F929F92AF92BF920C
:100C2000CF92DF92EF92FF92CF93DF93EC010E947D
:100C30004C046B017C018091DB039091DC03A0915B
:100C4000DD03B091DE030A96A11DB11D8C159D0533
:100C5000AE05BF05ECF588810E94D803BC01990F51
:100C6000880B990B0E94731E4B015C0120E030E061
:100C700040E05FE36091D7037091D8038091D9037E
:100C80009091DA030E94281F2B013C0120E030E004
:100C900040E05FE3C501B4010E94281F9B01AC0145
:100CA000C301B2010E94581D6093D7037093D8030B
:100CB0008093D9039093DA038A829B82AC82BD82AF
:100CC000C092DB03D092DC03E092DD03F092DE03FE
:100CD000DF91CF91FF90EF90DF90CF90BF90AF90DA
:100CE0009F908F907F906F905F904F900895AF92FC
:100CF000BF92CF92DF92EF92FF920F931F93CF9309
:100D0000DF936C017B018B01040F151FEB015E016A
:100D1000AE18BF08C017D10759F06991D601ED91FF
:100D2000FC910190F081E02DC6011995892B79F78E
:100D3000C501DF91CF911F910F91FF90EF90DF9050
:100D4000CF90BF90AF9008952091BB023091BC022C
:100D50002817390771F49091B9028091BA02981757
:100D600041F0E091B902F0E0E259FD4F808190E05E
:100D700008958FEF9FEF08950895EF92FF920F93DC
:100D80001F93CF93DF93DC015C96ED90FC905D9711
:100D9000E114F10479F481E090E013969C938E9332
:100DA000129790E080E0DF91CF911F910F91FF901B
:100DB000EF9008955196ED91FC91529750968C9139
:100DC0005097982F90950FB75E962C915E97122FA3
:100DD000127021FD6095F8942081112319F1282BC0
:100DE0002083E7012197F1F728E0462F50E030817A
:100DF00060FF1AC0382B3083E7012197F1F7BA0161
:100E000075956795215089F7112381F08081892399
:100E100080830FBF5C968D919C910197F1F781E0E3
:100E200090E0C1CF2923DCCF3923E5CF9081892BF6
:100E3000EFCF2091BB023091BC022817390771F423
:100E40008091BA022091B90290E0805C9F4F821B92
:100E5000910960E470E00E94271D089590E080E011
:100E600008952091BB023091BC0228173907B9F4CC
:100E70009091B9028091BA02981789F0E091B90275
:100E8000F0E0E259FD4F80812091B90230E02F5F00
:100E90003F4F2F7333272093B90290E008958FEFCF
:100EA0009FEF089590E080E00895DC01EC91E0333D
:100EB00090F511968C91119728E830E0281B3109A4
:100EC00087FD3395220F331F220F331F62177307DD
:100ED00084F012968C9128E532E0281B310987FDB9
:100EE0003395220F331F220F331F621773070CF441
:100EF0009B0122503109220F331F4FB7F8948E2FD8
:100F000090E0FC01EE0FFF1FE80FF91FEE5EFC4FB3
:100F1000328321834FBF0895CF92DF92EF92FF92E9
:100F20006B017C0180911402882361F00E944C04C3
:100F30006093CB037093CC038093CD039093CE0347
:100F40001092140264EA76E085E894E00E94550766
:100F500064E175E082E894E00E94550764E175E081
:100F60008FE794E00E94550764EA76E08CE794E00E
:100F70000E9455078091CB039091CC03A091CD03A3
:100F8000B091CE03C80ED91EEA1EFB1E0E944C046F
:100F9000C616D706E806F90650F481E080931402DD
:100FA00089E090E0FF90EF90DF90CF90089588E087
:100FB00090E0F8CF1F93CF93DF93EC01162F888139
:100FC000803308F04EC061E0812F0E94A703888122
:100FD000282F30E0F901EE0FFF1FE20FF31FEE5E46
:100FE000FC4F1F736081607C612B608319821A82C1
:100FF0002CE0622F0E941B1D829FB001112430E063
:1010000020E0AB01420F531FFA01EE0FFF1FE40F68
:10101000F51FEE5EFC4F908196FD16C02F5F3F4F8F
:101020002C30310571F7813009F51092800082E093
:10103000809381001092850010928400B19A809173
:101040006F00826080936F00E8818E2F90E0FC013A
:10105000EE0FFF1FE80FF91FEE5EFC4F80818064EA
:1010600080838881DF91CF911F910895823061F450
:10107000109290008093910010929500109294002D
:1010800088BB80937100E0CF833069F41092A00098
:1010900082E08093A1001092A5001092A40089BB69
:1010A00080937200D1CF8111CFCF1092200182E0C6
:1010B0008093210110922501109224018ABB809314
:1010C0007300C2CFAF92BF92CF92DF92EF92FF92A6
:1010D0000F931F93CF93DF936B017A01EC01C759F4
:1010E000DD4F28813CE0389F8001399F100D11248D
:1010F000A0906D02B12C27FF1FC0FB01118210824E
:1011000088818F5F888388819801280F311D87FD32
:101110003A95F6012A153B051CF488818C30C4F100
:1011200080819181049680349C4908F473C0F60153
:1011300080819181049670C088819801280F311DAB
:1011400087FD3A952A153B05DCF68881A801480FF2
:10115000511D87FD5A95FA01EE0FFF1FE40FF51F91
:10116000EE5EFC4F808186FFCBCF8881F801E80FCF
:10117000F11D87FDFA95CF01EE0FFF1FE80FF91F54
:10118000EE5EFC4F808160E08F730E947903B8CFE0
:10119000808191812881A801420F511D27FD5A9518
:1011A0009A01FA01EE0FFF1FE20FF31FEE5EFC4FF4
:1011B00021813281820F931FF7019183808388817F
:1011C0009801280F311D87FD3A95F901EE0FFF1F99
:1011D000E20FF31FEE5EFC4F808186FF22C0888104
:1011E000080F111D87FD1A95F801EE0FFF1FE00F84
:1011F000F11FEE5EFC4F808161E08F73DF91CF9134
:101200001F910F91FF90EF90DF90CF90BF90AF9024
:101210000C94790380E49CE9F701918380838FEF3C
:101220008883DF91CF911F910F91FF90EF90DF9016
:10123000CF90BF90AF9008950F931F93CF93DF93FC
:101240008C01C4E1D5E0C81BD90BBE0185E894E050
:101250000E945507BE0182E894E00E945507C4EA47
:10126000D6E0C01BD10BBE018FE794E00E9455076A
:10127000BE018CE794E0DF91CF911F910F910C9408
:1012800055070F931F93CF93DF938C01C4EAD6E0E9
:10129000C81BD90BBE0185E894E00E945507BE012A
:1012A00082E894E00E945507C4E1D5E0C01BD10B51
:1012B000BE018FE794E00E945507BE018CE794E0E1
:1012C000DF91CF911F910F910C945507CF92DF9230
:1012D000EF92FF9261E080E30E94790383E290E065
:1012E0000197F1F760E080E30E9479030E94F50323
:1012F0006B017C0181E30E945003892BA1F40E94C1
:10130000F5036C197D098E099F0969387E458105B1
:10131000910580F360E070E080E89FEBFF90EF9034
:10132000DF90CF9008950E94F5036B017C0181E36B
:101330000E945003019761F40E94F5036C197D0926
:101340008E099F0969387E458105910580F3E2CFBA
:101350000E94F5036C197D098E099F090E94711E78
:1013600020E030E048E652E40E94C91DD7CF4F92FA
:101370005F926F927F928F929F92AF92BF92CF9225
:10138000DF92EF92FF920F931F93CF93DF9300D0E2
:1013900000D000D01F92CDB7DEB79A8789872A0187
:1013A0003B0109831A832B833C83DC015B96BC924F
:1013B000AE925A97FC01ED5BFF4F81E0AA94AB28F7
:1013C00009F080E08083E985FA854082518262825B
:1013D000738289819A81AB81BC8184839583A68342
:1013E000B783C086D186E286F38666A977A980ADE9
:1013F00091AD0E94711E20E030E04AE754E40E9463
:10140000C91D6D837E838F839887E985FA8544861D
:101410005586668677869B01AC0169817A818B81CE
:101420009C810E94281F4B015C01A985BA855096BA
:101430008D929D92AD92BC9253972D813E814F81AA
:101440005885C701B6010E94C91D6B017C01E98561
:10145000FA85C48AD58AE68AF78A808D918D0197AC
:1014600059F5A301920160E070E0CB010E94571D85
:10147000A985BA851C966D937D938D939C931F9738
:10148000A501940160E070E0CB010E94571DE98541
:10149000FA85608B718B828B938BA701960160E03C
:1014A00070E0CB010E94571DA985BA8554966D93B3
:1014B0007D938D939C9357972A960FB6F894DEBF31
:1014C0000FBECDBFDF91CF911F910F91FF90EF9095
:1014D000DF90CF90BF90AF909F908F907F906F9054
:1014E0005F904F9008950F931F93CF93DF93EC017C
:1014F0008B01FC01EE5BFF4F8081882361F1888DB9
:10150000998D8617970739F12C853D854E855F8526
:1015100060E070E0CB010E94571D6C877D878E874D
:101520009F87288939894A895B8960E070E0CB010F
:101530000E94571D688B798B8A8B9B8B2C893D89E8
:101540004E895F8960E070E0CB010E94571D6C8B73
:101550007D8B8E8B9F8B198F088FDF91CF911F9181
:101560000F9108952F923F924F925F926F927F92C8
:101570008F929F92AF92BF92CF92DF92EF92FF92A3
:101580000F931F93CF93DF931C016A017B014801E6
:101590005901A9019801CB01B6010E94231F87FFC1
:1015A0003BC0F101C2AED3AEE4AEF5AE8101025C48
:1015B0001F4FF80180829182A282B382349680818B
:1015C000882351F1F101C68DD78D488059806A80FA
:1015D0007B80A3019201C501B4010E94C41D87FF55
:1015E0002EC088829982AA82BB82F10186A097A030
:1015F000A0A4B1A4F801C080D180E280F380A7014B
:101600009601C501B4010E94231FF101181624F5AB
:10161000C6A2D7A2E0A6F1A6DF91CF911F910F91AC
:10162000FF90EF90DF90CF90BF90AF909F908F9002
:101630007F906F905F904F903F902F900895A301FF
:101640009201C701B6010E94231F181674F6C882C2
:10165000D982EA82FB82C9CFC2ACD3ACE4ACF5AC90
:10166000A7019601C501B4010E94C41D87FFD4CF14
:10167000F101CECF4F925F926F927F928F929F92A5
:10168000AF92BF92CF92DF92EF92FF920F931F9390
:10169000CF93DF9300D01F92CDB7DEB72B013C0173
:1016A000809115028823D1F11092CF031092D003BC
:1016B0001092D1031092D203A090A204B090A30480
:1016C0008AE0C82E87EDD82E83E2E82E8CE3F82E30
:1016D0009701860149E25CE56FE87DE388E894E0E4
:1016E0000E94B7094092D4045092D5046092D60467
:1016F0007092D70400E010E020E83FE340E050E0C3
:1017000060E87FEB88E894E00E94B20A61E070E054
:1017100088E894E00E94730A109215028090CF032B
:101720009090D003A090D103B090D2038091D303C6
:101730009091D403A091D503B091D60389839A8365
:10174000AB83BC838092CC049092CD04A092CE0453
:10175000B092CF040E945804C090D004D090D1041D
:10176000E090D204F090D304C092D303D092D4037B
:10177000E092D503F092D603A701960169817A81A0
:101780008B819C810E94C41D882331F120E030E0D0
:1017900048E453E4C701B6010E94281F9B01AC0135
:1017A00060E070E88BEB94E40E94571D0E943B1EA2
:1017B0006B0185E894E00E945507B60182E894E049
:1017C0000E945507B6018FE794E00E945507B601C5
:1017D0008CE794E00E945507A3019201C501B40172
:1017E0000E94571D6B017C0120E030E0A9010E949E
:1017F000231F181624F520E030E040E050E4C70134
:10180000B6010E94C41D87FF24C081E080931502A9
:1018100085E090E00F900F900F900F90DF91CF91A7
:101820001F910F91FF90EF90DF90CF90BF90AF90FE
:101830009F908F907F906F905F904F90089520E0E1
:1018400030E040E050ECC701B6010E94231F18169B
:10185000E4F28AE090E0DECFFB0101900020E9F79E
:101860003197AF01461B570BDC01ED91FC910280D3
:10187000F381E02D19948F929F92AF92BF92EF92D5
:10188000FF920F931F93CF93DF93CDB7DEB7A1974E
:101890000FB6F894DEBF0FBECDBF7C01FA01CB01BD
:1018A00019A2223008F42AE08E010F5D1F4F822E0C
:1018B000912CB12CA12CBF01A50194010E94F91C0F
:1018C000F901CA016A300CF5605DD8016E938D0193
:1018D000232B242B252B79F790E080E0109721F023
:1018E000BD01C7010E942C0CA1960FB6F894DEBF73
:1018F0000FBECDBFDF91CF911F910F91FF90EF9061
:10190000BF90AF909F908F900895695CDECF4F920B
:101910005F926F927F928F929F92AF92BF92CF927F
:10192000DF92EF92FF920F931F93CF936B017C0195
:10193000742EAC019B010E94E51F6AE372E08111E5
:1019400026C046015701E894B7F82FEF3FEF4FE765
:101950005FE7C501B4010E94E51F81110CC02FEFA4
:101960003FEF4FE75FE7C501B4010E94C41D6EE37E
:1019700072E0181664F02FEF3FEF4FE75FE4C70106
:10198000B6010E94231F1816ACF462E472E080E6F0
:1019900095E0CF911F910F91FF90EF90DF90CF9046
:1019A000BF90AF909F908F907F906F905F904F907F
:1019B0000C942C0C2FEF3FEF4FE75FECC701B60103
:1019C0000E94C41D87FDE1CF20E030E0A901C701DE
:1019D000B6010E94C41D10E000E087FF0AC06DE25E
:1019E00080E695E00E94BD068C01F7FAF094F7F8C6
:1019F000F094C0E060E070E080E09FE37C1641F08E
:101A000020E030E040E251E40E94C91DCF5FF6CFF4
:101A1000A70196010E94581D2B013C010E94421E05
:101A20004B015C012AE0BC01A40180E695E00E9424
:101A30003B0C7C01E00EF11ECC23D1F1C501B401B9
:101A40000E94711E9B01AC01C301B2010E94571D8F
:101A50004B015C016EE280E695E00E94BD06E80E57
:101A6000F91EC15028F120E030E040E251E4C50108
:101A7000B4010E94281F2B013C010E94421E4B0111
:101A8000B12CA12C2AE0B501A40180E695E00E94CA
:101A90003B0CE80EF91EC501B4010E94711E9B01AA
:101AA000AC01C301B2010E94571D4B015C01D9CFAB
:101AB000C701CF911F910F91FF90EF90DF90CF90D2
:101AC000BF90AF909F908F907F906F905F904F905E
:101AD0000895CF92DF92EF92FF92CF93DF936C0144
:101AE000990FEE08FF08F7FE23C06DE28FED93E03B
:101AF0000E944102EC0144275527BA014C195D09A7
:101B00006E097F092AE08FED93E00E943B0CC80F1D
:101B1000D91F66E472E08FED93E00E942C0C8C0FCD
:101B20009D1FDF91CF91FF90EF90DF90CF900895B0
:101B30002AE0B701A6018FED93E00E943B0CEC0177
:101B4000E8CFCF92DF92EF92FF92CF93DF93EC0139
:101B50002A853B854C855D856A817B818C819D8151
:101B60000E94951F2E813F81488559850E94281F1C
:101B70006B017C0120E030E040EA52E40E94231F28
:101B8000181634F4C12CD12C80EAE82E82E4F82E09
:101B9000C701B601DF91CF91FF90EF90DF90CF901A
:101BA0000895CF93DF93EC0188810E94D803BC0194
:101BB000990F880B990B0E94731E6A837B838C8319
:101BC0009D83CE01DF91CF910C94A10DCF92DF9236
:101BD000EF92FF928091C30381110DC00E944C04CB
:101BE0006093BF037093C0038093C1039093C203BB
:101BF00081E08093C30364E175E085E894E00E948E
:101C0000550764EA76E082E894E00E94550764EAAA
:101C100076E08FE794E00E94550764E175E08CE779
:101C200094E00E945507C090BF03D090C003E0909D
:101C3000C103F090C20384E6C80ED11CE11CF11C64
:101C40000E944C04C616D706E806F90618F083E091
:101C500090E02BC00E944C046093BF037093C003BC
:101C60008093C1039093C20384EF94E00E94D10D4E
:101C700020E030E040E051E40E94C41D87FF1AC01C
:101C80008091BD039091BE0301969093BE03809313
:101C9000BD038091BD039091BE030697C4F21092DC
:101CA000BE031092BD0384E090E0FF90EF90DF90C0
:101CB000CF9008951092BE031092BD03C8CF4F92EB
:101CC0005F926F927F92AF92BF92CF92DF92EF922C
:101CD000FF920F931F93CF93DF932B013C01EA01F7
:101CE00068017901809113028823A1F120E030E09E
:101CF000A901C701B8010E94C41D87FD0FC0A090B3
:101D0000A204B090A30400E010E0980140E050E08D
:101D100060EA71E488E894E00E94B7094092D40434
:101D20005092D5046092D6047092D70400E010E07F
:101D300028EC32E440E050E068EC72EC88E894E093
:101D40000E94B20A61E070E088E894E00E94730AA1
:101D500010921302CE010E94D10D4090B903509011
:101D6000BA036090BB037090BC036093CC04709383
:101D7000CD048093CE049093CF040E945804C09069
:101D8000D004D090D104E090D204F090D304C0925B
:101D9000B903D092BA03E092BB03F092BC03A7014F
:101DA0009601C301B2010E94C41D882339F0C70106
:101DB000B6010E943B1ECB010E941C09C090B503D6
:101DC000D090B603E090B703F090B80384E6C80E55
:101DD000D11CE11CF11C0E944C04C616D706E80673
:101DE000F90618F081E090E02AC00E944C0460934C
:101DF000B5037093B6038093B7039093B80388ED4F
:101E000094E00E94D10D20E030E040E051E40E94D7
:101E1000C41D87FF23C08091B3039091B403019642
:101E20009093B4038093B3030597E4F281E0809329
:101E300013021092B4031092B30385E090E0DF9197
:101E4000CF911F910F91FF90EF90DF90CF90BF90B7
:101E5000AF907F906F905F904F9008951092B40371
:101E60001092B303BFCF1F920F920FB60F9211249F
:101E70002F933F938F939F93AF93BF938091AB0327
:101E80009091AC03A091AD03B091AE033091AA0341
:101E900023E0230F2D3758F50196A11DB11D209386
:101EA000AA038093AB039093AC03A093AD03B093CC
:101EB000AE038091AF039091B003A091B103B091B4
:101EC000B2030196A11DB11D8093AF039093B0039F
:101ED000A093B103B093B203BF91AF919F918F9143
:101EE0003F912F910F900FBE0F901F90189526E8ED
:101EF000230F0296A11DB11DD2CF1F920F920FB6D4
:101F00000F9211240BB60F922F933F934F935F9331
:101F10006F937F938F939F93AF93BF93EF93FF93B1
:101F20008FED93E00E941F02FF91EF91BF91AF915F
:101F30009F918F917F916F915F914F913F912F91E1
:101F40000F900BBE0F900FBE0F901F9018951F9211
:101F50000F920FB60F9211240BB60F922F938F93FF
:101F60009F93EF93FF93E091EF03F091F003808153
:101F7000E091F503F091F60382FD1DC09081809100
:101F8000F8038F5F8F732091F903821741F0E0917E
:101F9000F803F0E0E152FC4F958F8093F803FF9136
:101FA000EF919F918F912F910F900BBE0F900FBECD
:101FB0000F901F9018958081F2CF1F920F920FB64D
:101FC0000F9211240BB60F922F933F934F935F9371
:101FD0006F937F938F939F93AF93BF93EF93FF93F1
:101FE000E091BB02F091BC02309749F0A685B7851D
:101FF0008585968D91FF16C09C918923B1F4FF9140
:10200000EF91BF91AF919F918F917F916F915F9170
:102010004F913F912F910F900BBE0F900FBE0F90DD
:102020001F9018959C91892351F7A389B4899C919D
:102030008589809589238C93868997890197F1F703
:10204000608D718DA685B785558538E020E0CB0180
:102050000197F1F7822F90E095958795282F4C9165
:10206000452309F02068315091F7868D81FD209538
:102070008091BA0290E001968F7399273091B9024E
:10208000381799F0A091BA02B0E0A259BD4F2C9335
:102090008093BA02828D938D0197F1F7A389B48959
:1020A0008C919589892B8C93AACF868D8160868FA0
:1020B000F1CF1F920F920FB60F9211240BB60F9211
:1020C0002F933F934F935F936F937F938F939F9340
:1020D000AF93BF93EF93FF9348E251E064E271E066
:1020E00090E080E00E946208FF91EF91BF91AF9174
:1020F0009F918F917F916F915F914F913F912F9120
:102100000F900BBE0F900FBE0F901F9018951F924F
:102110000F920FB60F9211240BB60F922F933F938D
:102120004F935F936F937F938F939F93AF93BF93DF
:10213000EF93FF9348EA50E064EA70E083E090E0B8
:102140000E946208FF91EF91BF91AF919F918F9193
:102150007F916F915F914F913F912F910F900BBEA7
:102160000F900FBE0F901F9018951F920F920FB6F1
:102170000F9211240BB60F922F933F934F935F93BF
:102180006F937F938F939F93AF93BF93EF93FF933F
:1021900048E950E064E970E082E090E00E94620863
:1021A000FF91EF91BF91AF919F918F917F916F912F
:1021B0005F914F913F912F910F900BBE0F900FBEEB
:1021C0000F901F9018951F920F920FB60F92112427
:1021D0000BB60F922F933F934F935F936F937F9321
:1021E0008F939F93AF93BF93EF93FF9348E850E093
:1021F00064E870E081E090E00E946208FF91EF9156
:10220000BF91AF919F918F917F916F915F914F910E
:102210003F912F910F900BBE0F900FBE0F901F900C
:102220001895FC0190916D02903398F481E0890F2C
:1022300080936D029083892F90E0FC01EE0FFF1FC9
:10224000E80FF91FEE5EFC4F88EB9BE092838183E1
:1022500008958FEF808308954F925F926F927F92DF
:10226000AF92BF92CF92DF92EF92FF920F931F93A4
:102270001092E2031092E10388EE93E0A0E0B0E058
:102280008093E3039093E403A093E503B093E60304
:102290008AE192E09093E0038093DF0385EC90E085
:1022A0009093EC038093EB0384EC90E09093EE0327
:1022B0008093ED0380EC90E09093F0038093EF0324
:1022C00081EC90E09093F2038093F10382EC90E034
:1022D0009093F4038093F30386EC90E09093F603DD
:1022E0008093F5031092F8031092F9031092FA0309
:1022F0001092FB0385E894E00E94111182E894E0BB
:102300000E9411118FE794E00E9411118CE794E074
:102310000E941111109203051092020510920405FB
:102320001092050510920605109207051092F5040B
:102330001092F4041092F6041092F7041092F8042C
:102340001092F9041092E7041092E6041092E80447
:102350001092E9041092EA041092EB041092D9044E
:102360001092D8041092DA041092DB041092DC046C
:102370001092DD0480ED94E09093A7048093A6046E
:102380008CEC94E09093A5048093A40484ED94E0F5
:102390009093A9048093A8041092CA041092C204D6
:1023A0001092C3041092C4041092C50480E090E01F
:1023B000AFE7B3E48093C6049093C704A093C80426
:1023C000B093C90494E6492E512C612C712C409293
:1023D000BE045092BF046092C0047092C10470E0C9
:1023E00060E088E894E00E94730AAA24A394B12CC8
:1023F000C12CD12C76019701860140E050E060E8C5
:102400007FE388E894E00E94B7090E944C040091A1
:10241000BE041091BF042091C0043091C104601B20
:10242000710B820B930B6093AA047093AB0480939F
:10243000AC049093AD0488E595E090932F058093CC
:102440002E0584E595E090932D0580932C058CE571
:1024500095E0909331058093300510925205C0921B
:102460004A05D0924B05E0924C05F0924D0580E074
:1024700090E0AFE7B3E480934E0590934F05A093AF
:102480005005B09351054092460550924705609221
:1024900048057092490561E070E080E195E00E9496
:1024A000730A97018601B701A60180E195E00E94B9
:1024B000B7090E944C044090460550904705609033
:1024C0004805709049056419750986099709609354
:1024D000320570933305809334059093350510923F
:1024E00063051092620588EE93E0A0E0B0E080936F
:1024F000640590936505A0936605B09367058CE22B
:1025000092E0909361058093600510927705109298
:102510007605109279051092780510927B0510923D
:102520007A0510927D0510927C0560917E056E7F84
:102530006D7F60937E056695617081E068278BE012
:102540000E94790361E08BE00E94A703EFE1F3E0D2
:10255000E491E0937005E9EDF2E0E491F0E0EE0F34
:10256000FF1FEC54FD4F85919491909372058093D9
:10257000710560E08AE00E94A70380917E0581FDDD
:1025800004C061E08AE00E9479038AE080936C05D0
:10259000EEE1F3E0E491E0936D05E8EDF2E0E49123
:1025A000F0E0EE0FFF1FE656FD4F8591949190935A
:1025B0006F0580936E051F910F91FF90EF90DF9054
:1025C000CF90BF90AF907F906F905F904F900895A5
:1025D000CF93DF9300D01F921F92CDB7DEB77894D0
:1025E00084B5826084BD84B5816084BD85B5826018
:1025F00085BD85B5816085BD80916E0081608093C9
:102600006E00109281008091810082608093810031
:102610008091810081608093810080918000816041
:10262000809380008091B10084608093B10080919C
:10263000B00081608093B0008091910082608093AF
:102640009100809191008160809391008091900031
:102650008160809390008091A10082608093A100AE
:102660008091A10081608093A1008091A000816091
:102670008093A0008091210182608093210180914C
:1026800021018160809321018091200181608093EC
:10269000200180917A00846080937A0080917A0092
:1026A000826080937A0080917A00816080937A00C2
:1026B00080917A00806880937A001092C10080E057
:1026C00090E0A8E4B2E48093CC049093CD04A0936E
:1026D000CE04B093CF041092D0041092D104109283
:1026E000D2041092D3048093D4049093D504A09381
:1026F000D604B093D7048091CA04811149C0E091F7
:10270000A604F091A704C080D180E280F380C0923B
:10271000AE04D092AF04E092B004F092B104E09124
:10272000A404F091A50480819181A281B38180935A
:10273000B2049093B304A093B404B093B504809012
:10274000C6049090C704A090C804B090C904A50125
:102750009401C701B6010E94231F18164CF4809201
:10276000AE049092AF04A092B004B092B10410C035
:102770008090C2049090C304A090C404B090C5049B
:10278000A5019401C701B6010E94C41D87FDE7CFD2
:1027900081E08093CA0400E010E028EC32E440E0DD
:1027A00050E068EC72EC88E894E00E94B20A70E0B5
:1027B00060E088E894E00E94730A61E08DE00E9486
:1027C000A70361E080E30E94A70360E080E30E942A
:1027D00079038BE390E090930305809302058AE9E7
:1027E00099E8A6EEB4E48093080590930905A093B8
:1027F0000A05B0930B0581EE9AE7A4E7BFEB80933F
:102800000C0590930D05A0930E05B0930F0560E0A5
:102810008BE30E94A7038AE390E09093F5048093F2
:10282000F40480E090E9AFE1B6E48093FA04909379
:10283000FB04A093FC04B093FD0482E193E8A0E9BB
:10284000BFEB8093FE049093FF04A0930005B09328
:10285000010560E08AE30E94A7038DE390E0909376
:10286000E7048093E60480EC92E9A6E5B8E480935F
:10287000EC049093ED04A093EE04B093EF0481E890
:1028800095E9A3EDBFEB8093F0049093F104A0933E
:10289000F204B093F30460E08DE30E94A7038CE39D
:1028A00090E09093D9048093D80480E09FE7A5ED51
:1028B000B7E48093DE049093DF04A093E004B09328
:1028C000E1048BE39FEDAFEDBFEB8093E2049093C7
:1028D000E304A093E404B093E50460E08CE30E9479
:1028E000A7030AE010E01A82198289E30E94D80344
:1028F0007C010E94690D29813A812E0D3F1D3A838A
:10290000298365E070E080E090E00E941A040150A5
:10291000110959F769E472E08FED93E00E942C0CE5
:1029200089819A810E94690D89819A816AE070E0AB
:102930000E94271D7093AF026093AE0262E572E0C1
:102940008FED93E00E942C0C8091AE029091AF022B
:102950000E94690D68EE73E080E090E00E941A0426
:102960000E944C04AB01BC018091B0029091B10275
:10297000A091B202B091B3020696A11DB11D8417B9
:102980009507A607B7070CF04CC089E30E94D8034F
:102990002091AE023091AF02BC01621B730BCB01E0
:1029A0000196039710F470E060E0072E000C880B8E
:1029B000990B0E94731E26EA3BE944EC5BE30E94FC
:1029C000C91D28E638EE4FE95BE30E94281F20E08E
:1029D00030E040EC50E40E94281F20E030E04AE75D
:1029E00054E40E94C91D9B01AC016091CF0370911A
:1029F000D0038091D1039091D2030E94581D60931F
:102A0000CF037093D0038093D1039093D2030E949D
:102A10004C046093B0027093B1028093B202909321
:102A2000B302809011029090120234E08316910458
:102A300079F145E08416910409F418C753E085162E
:102A4000910409F0F1C268EE73E080E090E00E942A
:102A50001A046EE270E085E894E00E94DA076FE203
:102A600070E082E894E00E94DA0762E370E08FE7AA
:102A700094E00E94DA0763E370E08CE794E00E9440
:102A8000DA0784E090E09093120280931102CCC2A6
:102A90000E944C040091B5021091B6022091B70239
:102AA0003091B8020617170728073907E0F480911C
:102AB000B4028F5F8093B402853008F436C20E945E
:102AC0004C0464547D4F8F4F9F4F6093B5027093B9
:102AD000B6028093B7029093B80260E08DE00E9446
:102AE00079031092B40280910F0290911002069720
:102AF00009F455C310927B0510927A05109279055E
:102B00001092780510927705109276058FE190E08B
:102B100090937D0580937C0580916C0596EF980FCE
:102B2000943048F02EEC280F243028F022EC280FA7
:102B3000283008F062C021E030E030937705209320
:102B400076052DE130E030937905209378052DE06E
:102B500030E030937B0520937A05943050F02EECD2
:102B6000280F243030F022EC280FF0E0E0E028308D
:102B700010F4E8E6F0E03081943028F022EC280FE1
:102B8000283008F4EBC121E0232B943048F09EEC70
:102B9000980F943028F08E53F0E0E0E0883010F485
:102BA000E8E6F0E0208380916C0596EF980F943072
:102BB00008F4D6C12EEC280F243008F4D1C122EC41
:102BC000280F283008F0CFC12DE630E0309374058F
:102BD00020937305943008F0C9C18650990B91E099
:102BE00001C0990F8A95EAF7892F80937505809126
:102BF0007C0590917D050197F1F780917A05909180
:102C00007B05892B49F1E091BB02F091BC0295E074
:102C1000E036F90709F1309739F0A389B4898C912E
:102C20009589909589238C9380917E058E7F8093E2
:102C30007E051092BA021092B90280E695E0909358
:102C4000BC028093BB02E0917305F0917405908102
:102C500080917505892B808384EF94E00E9408069B
:102C600086EE94E00E9408060E944C0469837A83F1
:102C70008B839C8380910102882361F00E94660906
:102C80006093D9027093DA028093DB029093DC02A6
:102C90001092010280910102811120C08091D50221
:102CA0009091D602A091D702B091D8028093D10220
:102CB0009093D202A093D302B093D4028091CD021C
:102CC0009091CE02A091CF02B091D0028093C90220
:102CD0009093CA02A093CB02B093CC028091C5021C
:102CE0009091C602A091C702B091C8028C509E4F2D
:102CF000AF4FBF4F29813A814B815C818217930787
:102D0000A407B5070CF0F4C0C090D902D090DA0245
:102D1000E090DB02F090DC020E9466099B01AC01AE
:102D2000C701B6010E94571D20E030E040E751E4A2
:102D30000E94581D2B013C014092D5025092D602B0
:102D40006092D7027092D802C090C102D090C202A5
:102D5000E090C302F090C40284EF94E00E94A10DC1
:102D60009B01AC01C701B6010E94571D6093CD02C3
:102D70007093CE028093CF029093D00220E030E097
:102D80004CE852EC0E94C41D87FF3EC03091000207
:102D90003D8386EE94E00E94A10D4D81442351F0C5
:102DA0006093BD027093BE028093BF029093C002F5
:102DB00010920002C090BD02D090BE02E090BF020F
:102DC000F090C00286EE94E00E94A10D9B01AC0140
:102DD000C701B6010E94571D9B01AC0160E070E085
:102DE00086E992EC0E94571D6093CD027093CE024B
:102DF0008093CF029093D0021092C1021092C2022F
:102E00001092C3021092C4022091D1023091D202DA
:102E10004091D3025091D402C301B2010E94571DC8
:102E20006B017C0120E030E0A9010E94231F1816ED
:102E300024F0F7FAF094F7F8F09420E030E040EF57
:102E400051E4C701B6010E94C41D87FF45C020910F
:102E5000C9023091CA024091CB025091CC026091DC
:102E6000CD027091CE028091CF029091D0020E944B
:102E7000571D6B017C0120E030E0A9010E94231F57
:102E8000181624F0F7FAF094F7F8F09420E030E008
:102E900040EF51E4C701B6010E94C41D87FF1CC06A
:102EA00042E0C301B2010E94870C65E672E080E651
:102EB00095E00E942C0C6091CD027091CE02809121
:102EC000CF029091D00242E00E94870C66E472E04B
:102ED00080E695E00E942C0C89819A81AB81BC81AF
:102EE0008093C5029093C602A093C702B093C80214
:102EF000A0910F02B0911002BA83A983AC30B10542
:102F000008F0ACC4FD018827E757F84E8F4F0C94AA
:102F10003B1D1718B818CB172E1C2E1C331CCF18AE
:102F2000FD19A71ADB1AAD1BB41B0E944C046C5987
:102F30007F4F8F4F9F4F6093B5027093B60280937F
:102F4000B7029093B8028DE00E94500361E0892B94
:102F500009F060E08DE00E947903C5CD24E014CE35
:102F60002BE630E033CE30E020E030CE823359F033
:102F7000833359F0843359F092EC980F983048F429
:102F80008E53990B2CCE88E030CE84E02ECE82E09A
:102F90002CCE81E02ACE80910202882361F00E942B
:102FA0004C046093DD027093DE028093DF02909305
:102FB000E0021092020264E175E085E894E00E946C
:102FC000550764EA76E082E894E00E94550764EAD7
:102FD00076E08FE794E00E94550764E175E08CE7A6
:102FE00094E00E945507C090DD02D090DE02E09090
:102FF000DF02F090E002B2EDCB0ED11CE11CF11C1F
:103000000E944C04C616D706E806F90648F481E08B
:103010008093020281E090E09093100280930F026F
:1030200090921202809211020E94B80299CC809173
:103030000E02882331F086EE94E00E94D10D1092AA
:103040000E02809103028823A1F1A090A204B09007
:10305000A304C12CD12CE12CE0E4FE2E00E010E012
:10306000980140E050E060EA71E488E894E00E9452
:10307000B70980E090E0A0E0B1E48093D40490939D
:10308000D504A093D604B093D70400E010E028EC58
:1030900032E440E050E068EC72EC88E894E00E9492
:1030A000B20A61E070E088E894E00E94730A10922E
:1030B000030282E095E00E94D10D4090E30250901F
:1030C000E4026090E5027090E6026093CC04709395
:1030D000CD048093CE049093CF040E945804C090F6
:1030E000D004D090D104E090D204F090D304C092E8
:1030F000E302D092E402E092E502F092E602A70138
:103100009601C301B2010E94C41D882319F1C701B1
:10311000B6010E943B1ECB010E9441090E94660934
:1031200020E030E040E251E40E94C41D87FF1BC054
:103130008091E1029091E20201969093E2028093E5
:10314000E10204973CF081E08093030228E030E044
:103150003A83298349815A815093100240930F0288
:10316000109211035DCF1092E2021092E102F2CFB1
:1031700080910E02882331F086EE94E00E94D10DFA
:1031800010920E0200E010E020EC30E446EE54E035
:1031900060E070E080E091E40E945F0E3DCF80919E
:1031A0000602811110920602E0910402F0910502DC
:1031B000EA30F10508F01EC18827EE51F74E8F4F17
:1031C0000C943B1DEC18FC187D1993199619A6193F
:1031D000B719CD19DC19EC1964EB70E080E090E0D0
:1031E0000E948C07089709F401C185E090E0909354
:1031F000050280930402FEC084EF94E00E94D10D8A
:103200008B018D83998386EE94E00E94D10D1B0182
:103210005C0188ED94E00E94D10D2B013C010E94DD
:1032200066096B017C019101A501B8018D8199812D
:103230000E94231F18160CF443C01092E70210924C
:10324000E8021092E9021092EA0298014D81598138
:10325000C301B2010E94C41D87FF42C080E090E01C
:10326000A4EBB2EC8093E7029093E802A093E9020A
:10327000B093EA02A7019601C301B2010E94231F85
:103280001816DCF480E090E0A4EBB2E48093E7024F
:103290009093E802A093E902B093EA0220E030E0C4
:1032A000A9016091E7027091E8028091E902909192
:1032B000EA020E94C41D8823E9F082E090E097CFE3
:1032C00020E030E044E353E42093E7023093E80247
:1032D0004093E9025093EA028101AD82B982B5CFF1
:1032E00098014D815981C701B6010E94C41D87FD17
:1032F000C9CFD4CF83E090E07ACF6091E70270919C
:10330000E8028091E9029091EA020E943A0BA3E060
:10331000B0E00A9709F04BC022E030E0309305029C
:103320002093040267C00E94E60D61CF0E946609E7
:1033300020E030E048EC52E40E94231F18161CF4F1
:1033400090E080E054CF86E090E051CF00E010E0C4
:10335000980144EF54E060E070E080E291E40E9464
:103360005F0E019709F441CF90E080E055CE64EF05
:1033700071E080E090E00E948C07089739F047E008
:1033800050E0509305024093040234C086E090E080
:1033900090930502809304023FCE60E070E084EBDE
:1033A00092E40E943A0B0A9751F3A8E0B0E0B09380
:1033B0000502A09304021EC00E94660920E030E0CE
:1033C00040EF52E40E94231F18161CF489E090E09D
:1033D0000ECF8AE090E00BCF0E94E60D29E030E0AE
:1033E0003093050220930402039721F01092050206
:1033F0001092040286E090E00FCE809107028823AD
:10340000A9F11092CF031092D0031092D103109221
:10341000D203A090A204B090A304C12CD12C7601B9
:103420009701860140E050E060EA71E488E894E0AA
:103430000E94B709C092D404D092D504E092D60479
:10344000F092D70400E010E028EC32E440E050E0D5
:1034500068EC72EC88E894E00E94B20A61E070E0E7
:1034600088E894E00E94730A109207024090ED02EF
:103470005090EE026090EF027090F0028091CF03C6
:103480009091D003A091D103B091D2038093CC044A
:103490009093CD04A093CE04B093CF040E9458041F
:1034A000C090D004D090D104E090D204F090D30426
:1034B000C092ED02D092EE02E092EF02F092F002A2
:1034C000A7019601C301B2010E94C41D882319F10E
:1034D000C701B6010E943B1ECB010E9441090E9418
:1034E000660920E030E040E551E40E94C41D87FFFA
:1034F00029C08091EB029091EC0201969093EC022E
:103500008093EB0204973CF081E08093070248E04F
:1035100050E05A83498389819A8190931002809365
:103520000F0286EE94E00E94080686EE94E00E9468
:10353000A10D60930A0270930B0280930C0290938A
:103540000D020ECE1092EC021092EB02E4CF81E05D
:1035500080930E026AE872E080E090E00E948C079F
:103560009093100280930F02089751F080911103FD
:10357000882331F0A7E0B0E0B0931002A0930F02CF
:1035800020E030E040E252E460910A0270910B02C8
:1035900080910C0290910D020E94C41D87FF40CDC6
:1035A000809111032BE030E081113ACD309310026D
:1035B00020930F0235CD8091FB0281110DC00E9436
:1035C0004C046093F7027093F8028093F902909391
:1035D000FA0281E08093FB02809108028823A9F11E
:1035E0001092CF031092D0031092D1031092D20305
:1035F000A090A204B090A304C12CD12C7601970115
:10360000860140E050E060EA71E488E894E00E94BE
:10361000B709C092D404D092D504E092D604F092B7
:10362000D70400E010E028EC32E440E050E068EC21
:1036300072EC88E894E00E94B20A61E070E088E8E9
:1036400094E00E94730A109208024090F302509096
:10365000F4026090F5027090F6028091CF03909191
:10366000D003A091D103B091D2038093CC04909366
:10367000CD04A093CE04B093CF040E945804C09010
:10368000D004D090D104E090D204F090D304C09242
:10369000F302D092F402E092F502F092F602A70152
:1036A0009601C301B2010E94C41D882339F0C701ED
:1036B000B6010E943B1ECB010E941C09C090F7027C
:1036C000D090F802E090F902F090FA0234E6C30ECE
:1036D000D11CE11CF11C0E944C04C616D706E8065A
:1036E000F90660F50E944C046093F7027093F802AB
:1036F0008093F9029093FA0288ED94E00E94D10D34
:1037000020E030E040E251E40E94C41D87FF20C069
:103710008091F1029091F20201969093F2028093CF
:10372000F10204975CF081E0809308021092F202AB
:103730001092F10248E050E05A83498389819A81CE
:103740009093100280930F0281E08093110368CC64
:103750001092F2021092F102F1CF60E070E084E387
:1037600093E40E943A0B58CC8091090381110DC05B
:103770000E944C0460930503709306038093070333
:103780009093080381E080930903809109028111DD
:103790001092090264EA76E085E894E00E945507F9
:1037A00064E175E082E894E00E94550764E175E009
:1037B0008FE794E00E94550764EA76E08CE794E096
:1037C0000E945507C0900503D0900603E0900703C0
:1037D000F090080394E6C90ED11CE11CF11C0E9474
:1037E0004C04C616D706E806F90680F50E944C047C
:1037F0006093050370930603809307039093080377
:1038000086EE94E00E94D10D20E030E040E051E4EB
:103810000E94C41D87FF1DC0809103039091040383
:103820000196909304038093030380910303909186
:10383000040306975CF081E0809309021092040370
:1038400010920303A2E0B0E0BA83A98329813A81F0
:10385000ADCE1092040310920303F8CF1092100221
:1038600010920F02DDCB89809A80DACB6CED75E087
:1038700085E894E00E9455076CED75E082E894E0DD
:103880000E9455076CED75E08FE794E00E945507A4
:103890006CED75E08CE794E00E945507209185045B
:1038A00030E0C901880F991F820F931FFC01EE5E63
:1038B000FC4F80818F7B80832091820430E0C9019E
:1038C000880F991F820F931FFC01EE5EFC4F8081D1
:1038D0008F7B808320917F0430E0C901880F991F7E
:1038E000820F931FFC01EE5EFC4F80818F7B8083F3
:1038F00020917C0430E0C901880F991F820F931F2B
:10390000FC01EE5EFC4F80818F7B808360E08EE265
:103910000E94A70360E08FE20E94A70360E082E3B9
:103920000E94A70360E083E30E94A7030E944C0467
:103930000091A2031091A3032091A4033091A50349
:10394000601B710B820B930B613D774081059105E4
:10395000A0F00E944C046093A2037093A303809391
:10396000A4039093A5038DE00E94500361E0892B8E
:1039700009F060E08DE00E9479030E944C04009100
:10398000A6031091A7032091A8033091A903601BFF
:10399000710B820B930B653F71408105910550F0CF
:1039A0000E944C046093A6037093A7038093A8031E
:1039B0009093A90385E090E066C88CE292E0909332
:1039C0006105809360058091BB029091BC02805696
:1039D000954071F4E0917305F091740590818091A8
:1039E00075058095892380831092BC021092BB02DA
:1039F0000895A1E21A2EAA1BBB1BFD010DC0AA1F30
:103A0000BB1FEE1FFF1FA217B307E407F50720F047
:103A1000A21BB30BE40BF50B661F771F881F991FC2
:103A20001A9469F760957095809590959B01AC010B
:103A3000BD01CF010895991B79E004C0991F961725
:103A400008F0961B881F7A95C9F78095089597FB13
:103A5000072E16F4009407D077FD09D00E94431D6D
:103A600007FC05D03EF4909581959F4F0895709581
:103A700061957F4F0895EE0FFF1F881F8BBF079042
:103A8000F691E02D1994AA1BBB1B51E107C0AA1F98
:103A9000BB1FA617B70710F0A61BB70B881F991FEF
:103AA0005A95A9F780959095BC01CD01089550587D
:103AB000BB27AA270E946F1D0C94E91E0E94DB1EE3
:103AC00038F00E94E21E20F039F49F3F19F426F4EA
:103AD0000C94D81E0EF4E095E7FB0C94D21EE92F4F
:103AE0000E94FA1E58F3BA176207730784079507F6
:103AF00020F079F4A6F50C941C1F0EF4E0950B2E23
:103B0000BA2FA02D0B01B90190010C01CA01A0012F
:103B10001124FF27591B99F0593F50F4503E68F18A
:103B20001A16F040A22F232F342F4427585FF3CFCB
:103B3000469537952795A795F0405395C9F77EF49C
:103B40001F16BA0B620B730B840BBAF09150A1F0E5
:103B5000FF0FBB1F661F771F881FC2F70EC0BA0F6B
:103B6000621F731F841F48F4879577956795B795F3
:103B7000F7959E3F08F0B0CF9395880F08F09927EE
:103B8000EE0F9795879508950E94AE1E08F481E088
:103B900008950E94DD1D0C94E91E0E94E21E58F05B
:103BA0000E94DB1E40F029F45F3F29F00C94D21EE6
:103BB00051110C941D1F0C94D81E0E94FA1E68F31C
:103BC0009923B1F3552391F3951B550BBB27AA27D6
:103BD00062177307840738F09F5F5F4F220F331F10
:103BE000441FAA1FA9F335D00E2E3AF0E0E832D0D8
:103BF00091505040E695001CCAF72BD0FE2F29D0DB
:103C0000660F771F881FBB1F261737074807AB07AC
:103C1000B0E809F0BB0B802DBF01FF2793585F4F21
:103C20003AF09E3F510578F00C94D21E0C941D1F63
:103C30005F3FE4F3983ED4F3869577956795B79503
:103C4000F7959F5FC9F7880F911D9695879597F90E
:103C50000895E1E0660F771F881FBB1F6217730787
:103C60008407BA0720F0621B730B840BBA0BEE1F9C
:103C700088F7E09508950E94421E6894B1110C9453
:103C80001D1F08950E94021F88F09F5798F0B92FBA
:103C90009927B751B0F0E1F0660F771F881F991F81
:103CA0001AF0BA95C9F714C0B13091F00E941C1FE8
:103CB000B1E008950C941C1F672F782F8827B85FF8
:103CC00039F0B93FCCF3869577956795B395D9F7D9
:103CD0003EF490958095709561957F4F8F4F9F4FE3
:103CE0000895E89409C097FB3EF4909580957095EF
:103CF00061957F4F8F4F9F4F9923A9F0F92F96E938
:103D0000BB279395F695879577956795B795F111AC
:103D1000F8CFFAF4BB0F11F460FF1BC06F5F7F4F49
:103D20008F4F9F4F16C0882311F096E911C077235B
:103D300021F09EE8872F762F05C0662371F096E864
:103D4000862F70E060E02AF09A95660F771F881F33
:103D5000DAF7880F9695879597F90895990F0008D7
:103D6000550FAA0BE0E8FEEF16161706E807F9074D
:103D7000C0F012161306E407F50798F0621B730BE8
:103D8000840B950B39F40A2661F0232B242B252B69
:103D900021F408950A2609F4A140A6958FEF811D0C
:103DA000811D089597F99F6780E870E060E00895AD
:103DB0009FEF80EC089500240A9416161706180643
:103DC0000906089500240A9412161306140605061F
:103DD0000895092E0394000C11F4882352F0BB0FB0
:103DE00040F4BF2B11F460FF04C06F5F7F4F8F4F13
:103DF0009F4F089557FD9058440F551F59F05F3F4E
:103E000071F04795880F97FB991F61F09F3F79F0FC
:103E100087950895121613061406551FF2CF46957E
:103E2000F1DF08C0161617061806991FF1CF869500
:103E30007105610508940895E894BB2766277727E4
:103E4000CB0197F908950E94AE1E08F48FEF0895F4
:103E50000E943B1F0C94E91E0E94DB1E38F00E945A
:103E6000E21E20F0952311F00C94D21E0C94D81E63
:103E700011240C941D1F0E94FA1E70F3959FC1F32C
:103E8000950F50E0551F629FF001729FBB27F00D08
:103E9000B11D639FAA27F00DB11DAA1F649F66275D
:103EA000B00DA11D661F829F2227B00DA11D621FAC
:103EB000739FB00DA11D621F839FA00D611D221F66
:103EC000749F3327A00D611D231F849F600D211D4A
:103ED000822F762F6A2F11249F5750409AF0F1F0CD
:103EE00088234AF0EE0FFF1FBB1F661F771F881F36
:103EF00091505040A9F79E3F510580F00C94D21E7E
:103F00000C941D1F5F3FE4F3983ED4F3869577959C
:103F10006795B795F795E7959F5FC1F7FE2B880FDB
:103F2000911D9695879597F90895FA01EE0FFF1F59
:103F3000309621053105A1F16115710561F48038D4
:103F4000BFE39B0749F168949038810561F08038A0
:103F5000BFEF9B0741F099234AF5FF3FE10531058B
:103F6000210519F1E8940894E795D901AA2329F4C9
:103F7000AB2FBE2FF85FD0F310C0FF5F70F4A69593
:103F8000E0F7F73950F019F0FF3A38F49F779F9334
:103F90000DD00F9007FC9058089546F00C94D81E51
:103FA00060E070E080E89FE308954FE79F775F93BC
:103FB0004F933F932F930E9495202F913F914F91C4
:103FC0005F910E94281F0C94F21F0E94AE1E880B66
:103FD000990B089529F416F00C94D21E0C941C1F12
:103FE0000C94D81E0E94021FA8F39638A0F707F879
:103FF0000F92E8942BE33AEA48EB5FE70E943E1FFA
:104000000F920F920F924DB75EB70F920E94DD2074
:10401000E4EEF0E00E9424204F915F91EF91FF9138
:10402000E595EE1FFF1F49F0FE57E0684427EE0FAD
:10403000441FFA95E1F74195550B0E9457200F90C8
:1040400007FE0C944B200895DF93CF931F930F939B
:10405000FF92EF92DF927B018C01689406C0DA2E0A
:10406000EF010E943B1FFE01E894A5912591359137
:1040700045915591A6F3EF010E946F1DFE01970136
:10408000A801DA9469F7DF90EF90FF900F911F91EC
:10409000CF91DF9108959B01AC0160E070E080E872
:1040A0009FE30C94C91D0C94D21E0C9411210E9404
:1040B000021FD8F39923C9F3940F511DA3F3915014
:1040C000504094F059F0882332F0660F771F881F14
:1040D00091505040C1F79E3F51052CF7880F911D1C
:1040E0009695879597F908955F3FACF0983E9CF0C0
:1040F000BB27869577956795B79508F4B16093953A
:10410000C1F7BB0F58F711F460FFE8CF6F5F7F4F27
:104110008F4F9F4FE3CF0C941D1F16F00C9411216D
:104120000C94D81E68940C94D21E0E94021FA8F30F
:104130009923C1F3AEF3DF93CF931F930F93FF92B5
:10414000C92FDD2788232AF02197660F771F881F44
:10415000DAF720E030E040E85FEB9FE3883920F0B9
:10416000803E38F021968F770E94581DECE0F1E0F8
:1041700004C00E94581DE9E3F1E00E9424208B0155
:10418000BE01EC01FB2E6F5771097595771F880BE7
:10419000990B0E94731E28E132E741E35FE30E941E
:1041A0003B1FAF2D9801AE01FF900F911F91CF9152
:1041B000DF910E946F1D0C94E91EFA01DC01AA0F29
:1041C000BB1F9B01AC01BF5728F42227332744278C
:1041D000507820C0B75190F4AB2F00244695379506
:1041E0002795011CA395D2F3002071F0220F331FF5
:1041F000441FB395DAF30ED00C94571D613071054E
:10420000A0E88A07B94630F49B01AC0166277727FE
:1042100088279078309621F020833183428353831E
:1042200008959F3F31F0915020F4879577956795D9
:10423000B795880F911D9695879597F9089511E088
:10424000CEEAD1E000E006C0802FFE010E943B1DB7
:104250002196011DCF3AD10780E00807A9F7F8940D
:02426000FFCF8E
:1042620001010101010001010101000048420106B2
:104272000003000101010000000041027706E20193
:104282008E021302F101050200000000BD0677064E
:104292005207BC0619073107A4066E616E00696EEB
:1042A20066006F7666000D0A0073756D2069733AB9
:1042B20020007A65726F4779726F566F6C7461670E
:0842C200652069733A20000039
:00000001FF
