:100000000C9485010C94B6010C94B6010C94B601C5
:100010000C94B6010C94B6010C94B6010C94B60184
:100020000C94B6010C947A0E0C947A0E0C947A0E01
:100030000C94B6010C94B6010C94B6010C94B60164
:100040000C94B6010C94800F0C94B6010C94B6017C
:100050000C94B6010C94B6010C94B6010C94D00D1E
:100060000C94B6010C94440E0C941A0E0C94B60128
:100070000C94B6010C94B6010C94B6010C94B60124
:100080000C94520F0C94B6010C94B6010C94B6016A
:100090000C94B6010C94B6010C94B6010C94B60104
:1000A0000C94B6010C94B6010C94240F0C94B60178
:1000B0000C94B6010C94B6010C94B6010C94F60E97
:1000C0000C94B6010C94B6010C94B6010C94B601D4
:1000D0000C94B6010C94B6010C94B6010C94B601C4
:1000E0000C94B60107634236B79BD8A71A396856F5
:1000F00018AEBAAB558C1D3CB7CC5763BD6DEDFD4A
:10010000753EF6177231BF000000803F0800000006
:10011000BE922449123EABAAAA2ABECDCCCC4C3EFC
:1001200000000080BEABAAAAAA3E00000000BF00EB
:100130000000803F0000000000084178D3BB4387E7
:10014000D1133D190E3CC3BD4282AD2B3E68EC82FB
:1001500076BED98FE1A93E4C80EFFFBE01C4FF7F80
:100160003F00000000000C941A040C94F3020C945D
:100170003F170C94FF030C94FB050C94D0020C94D5
:100180000A040C94DF020C9422040C9457060C947D
:100190003A040C94FA050C946F060C9436040C94F3
:1001A0001E040C9407040C9430040C9490060C94D8
:1001B000E2050C9403040C9401030C942C040C949D
:1001C00028040C94FB030C94F5030C94B5050C94D3
:1001D00014040C94C90F0C9410040C9435040C9462
:1001E0002F030C947C0300002100240027002A0028
:1001F0002D003000330001010000040107010A0155
:1002000000000A0B02090C0D0E0807030401000090
:1002100000000000000000000000000000000000DE
:10022000000000000000000000000000121110009B
:1002300000000000000000000000000000000000BE
:10024000000000000000000020002300260029001C
:100250002C002F00320000010000030106010901FB
:1002600000002200250028002B002E003100340061
:1002700002010000050108010B0105050505070540
:1002800008080808020202020A0A08080404040412
:10029000010101010101010103030303030303033E
:1002A000040707070C0C0C0C0C0C0C0C02020202CD
:1002B00006060606060606060B0B0B0B0B0B0B0BB6
:1002C0000102102020080810204010204080020168
:1002D000020108040201010204081020408080404D
:1002E000201008040201800402018040201008044C
:1002F00002010804020101020408102040800102EA
:10030000040810204080C90F3F1711241FBECFEFF3
:10031000D1E2DEBFCDBF00E00CBF12E0A0E0B2E052
:10032000E6E2F7E300E00BBF02C007900D92AA36A9
:10033000B107D9F725E0AAE6B2E001C01D92AA32C2
:10034000B207E1F711E0C4E8D1E000E006C0219770
:100350000109802FFE010E949D17C338D10780E05C
:100360000807A9F70E9483110C94811B0C940000CC
:100370008F929F92AF92BF92CF92DF92EF92FF92B5
:10038000CF93DF93EC01EE8DFF8DC080D180E280B2
:10039000F380CEA2DFA2E8A6F9A6EC8DFD8D8081C8
:1003A0009181A281B3818AA79BA7ACA7BDA7FE01BB
:1003B000FE9680809180A280B380A5019401C70140
:1003C000B6010E94851918162CF48EA29FA2A8A629
:1003D000B9A60CC08AAC9BACACACBDACA501940179
:1003E000C701B6010E94261887FDEFCFDF91CF919C
:1003F000FF90EF90DF90CF90BF90AF909F908F9045
:1004000008951092420410924104109240041092F8
:100410003F0410923E0410923D048FE190E09093CF
:100420004404809343048091330496EF980F9430F2
:1004300048F02EEC280F243028F022EC280F28302A
:1004400008F061C021E030E030933E0420933D0489
:100450002DE130E03093400420933F042DE030E064
:100460003093420420934104943050F02EEC280F36
:10047000243030F022EC280FF0E0E0E0283010F4D7
:10048000E8E6F0E02081943028F032EC380F383084
:1004900008F469C031E0232B943048F09EEC980FAB
:1004A000943028F08E53F0E0E0E0883010F4E8E675
:1004B000F0E020832091330436EF320F343008F41B
:1004C00054C08EEC820F843008F44FC082EC820F4F
:1004D000883008F44DC090E080E090933B04809316
:1004E0003A04343008F047C02650330B81E001C095
:1004F000880F2A95EAF780933C04809143049091F9
:1005000044040197F1F78091410490914204892BB2
:1005100049F1E0918803F091890384E0E732F8071C
:1005200009F1309739F0A389B4899C918589809528
:1005300089238C93809145048E7F8093450410928B
:1005400087031092860387E294E090938903809357
:100550008803E0913A04F0913B04808190913C043F
:10056000892B8083089534E096CF8BE690E0B5CF59
:100570008DE690E0B2CF88E0223309F4BCCF84E06E
:10058000233309F4B8CF82E0243309F4B4CF82ECEA
:10059000820F883018F42E53330BA8CF81E0ABCFF5
:1005A000FC01538D448D252F30E0842F90E0821B79
:1005B000930B541710F0CF96089501970895FC01FE
:1005C000918D828D981761F0A28DAE0FBF2FB11D56
:1005D0005D968C91928D9F5F9F73928F90E00895AE
:1005E0008FEF9FEF0895FC01918D828D981731F068
:1005F000828DE80FF11D858D90E008958FEF9FEFBC
:100600000895FC01918D228D892F90E0805C9F4F91
:10061000821B91098F7399270895FC01A48DA80F5F
:10062000B92FB11DA35ABF4F2C91848D90E0019634
:100630008F739927848FA689B7892C93A089B18954
:100640008C91837080648C93938D848D981306C0F5
:100650000288F389E02D80818F7D80830895EF9259
:10066000FF920F931F93CF93DF93EC0181E0888F6C
:100670009B8D8C8D98131AC0E889F989808185FF3C
:1006800015C09FB7F894EE89FF896083E889F989DE
:1006900080818370806480839FBF81E090E0DF91E0
:1006A000CF911F910F91FF90EF900895F62E0B8D33
:1006B00010E00F5F1F4F0F731127E02E8C8D8E11EE
:1006C0000CC00FB607FCFACFE889F989808185FF55
:1006D000F5CFCE010E940D03F1CFEB8DEC0FFD2F76
:1006E000F11DE35AFF4FF0829FB7F8940B8FEA8910
:1006F000FB8980818062CFCFCF93DF93EC01888D1F
:100700008823B9F0AA89BB89E889F9898C9185FD8C
:1007100003C0808186FD0DC00FB607FCF7CF8C911A
:1007200085FFF2CF808185FFEDCFCE010E940D03C2
:10073000E9CFDF91CF9108958AE893E00E94010309
:1007400021E0892B09F420E0822F089580E090E0D9
:10075000892B29F00E949C0381110E94000080E0F7
:1007600090E0892B49F080E090E0892B29F00E94ED
:10077000000081110E94000080E090E0892B49F088
:1007800080E090E0892B29F00E94000081110E94F6
:10079000000080E090E0892B49F080E090E0892B18
:1007A00029F00E94000081110C94000008958150EE
:1007B000823108F05AC0E82FF0E08827ED51FC4F55
:1007C0008F4F0C949D1703040704F503FB03FF03ED
:1007D00035040A04100414041A041E042204280414
:1007E0002C043504300436043A04809180008F775D
:1007F000809380000895809180008F7DF9CF809153
:100800008000877FF5CF84B58F7784BD089584B548
:100810008F7DFBCF8091B0008F778093B0000895DB
:100820008091B0008F7DF9CF809190008F77809379
:1008300090000895809190008F7DF9CF8091900075
:10084000877FF5CF8091A0008F778093A0000895D7
:100850008091A0008F7DF9CF8091A000877FF5CF98
:10086000809120018F77809320010895809120014D
:100870008F7DF9CF80912001877FF5CFCF93DF93D4
:10088000282F30E0F901E050FE4F8491F901E05447
:10089000FD4FD491F901E658FD4FC491CC23A1F04E
:1008A00081110E94D703EC2FF0E0EE0FFF1FEA5BEF
:1008B000FD4FA591B491EC91ED2381E090E009F416
:1008C00080E0DF91CF91089580E090E0FACF1F9310
:1008D000CF93DF93282F30E0F901E050FE4F849151
:1008E000F901E054FD4FD491F901E658FD4FC49150
:1008F000CC23A9F0162F81110E94D703EC2FF0E032
:10090000EE0FFF1FE05AFD4FA591B4918FB7F894F9
:10091000EC91111108C0D095DE23DC938FBFDF91DD
:10092000CF911F910895DE2BF8CFCF93DF9390E006
:10093000FC01E054FD4F249186589D4FFC018491A9
:100940008823D1F090E0880F991FFC01EA51FE4FF7
:10095000A591B491FC01E05AFD4FC591D49161116C
:100960000EC09FB7F8948C91E22FE0958E238C9364
:100970002881E223E8839FBFDF91CF9108958FB74D
:10098000F894EC91E22BEC938FBFF6CF863308F00E
:10099000865320917B00982F9870277F922B9093FD
:1009A0007B008770806480937C0080917A008064F3
:1009B00080937A0080917A0086FDFCCF8091780048
:1009C0009091790008953FB7F89480917A039091BF
:1009D0007B03A0917C03B0917D0326B5A89B05C045
:1009E0002F3F19F00196A11DB11D3FBFBA2FA92FAE
:1009F000982F8827BC01CD01620F711D811D911DAB
:100A000042E0660F771F881F991F4A95D1F7089516
:100A10008F929F92AF92BF92CF92DF92EF92FF920E
:100A20004B015C010E94E3046B017C010E94E30422
:100A30006C197D098E099F09683E734081059105F7
:100A4000A8F321E0821A9108A108B10888EEC80E27
:100A500083E0D81EE11CF11C81149104A104B104AF
:100A600029F7FF90EF90DF90CF90BF90AF909F90CD
:100A70008F9008952FB7F894609176037091770363
:100A800080917803909179032FBF08954F925F92E0
:100A90006F927F928F929F92AF92BF92CF92DF928E
:100AA000EF92FF92CF93DF93EC010E943A056B0126
:100AB0007C018091820390918303A0918403B09183
:100AC00085030A96A11DB11D8C159D05AE05BF05B8
:100AD000ECF588810E94C604BC01990F880B990B24
:100AE0000E94D5184B015C0120E030E040E05FE35C
:100AF00060917E0370917F038091800390918103C8
:100B00000E948A192B013C0120E030E040E05FE3C5
:100B1000C501B4010E948A199B01AC01C301B20155
:100B20000E94BA1760937E0370937F0380938003C3
:100B3000909381038A829B82AC82BD82C0928203A1
:100B4000D0928303E0928403F0928503DF91CF91EA
:100B5000FF90EF90DF90CF90BF90AF909F908F90DD
:100B60007F906F905F904F900895AF92BF92CF9219
:100B7000DF92EF92FF920F931F93CF93DF936C015D
:100B80007B018B01040F151FEB015E01AE18BF083E
:100B9000C017D10759F06991D601ED91FC910190F0
:100BA000F081E02DC6011995892B79F7C501DF91F8
:100BB000CF911F910F91FF90EF90DF90CF90BF905A
:100BC000AF90089520918803309189032817390741
:100BD00071F49091860380918703981741F0E0911A
:100BE0008603F0E0ED58FD4F808190E008958FEF8F
:100BF0009FEF08950895EF92FF920F931F93CF9365
:100C0000DF93DC015C96ED90FC905D97E114F104BC
:100C100079F481E090E013969C938E93129790E084
:100C200080E0DF91CF911F910F91FF90EF90089599
:100C30005196ED91FC91529750968C915097982F28
:100C400090950FB75E962C915E97122F127021FD32
:100C50006095F8942081112319F1282B2083E70156
:100C60002197F1F728E0462F50E0308160FF1AC04D
:100C7000382B3083E7012197F1F7BA017595679515
:100C8000215089F7112381F08081892380830FBF50
:100C90005C968D919C910197F1F781E090E0C1CF36
:100CA0002923DCCF3923E5CF9081892BEFCF209109
:100CB0008803309189032817390771F480918703DD
:100CC0002091860390E0805C9F4F821B910960E435
:100CD00070E00E948917089590E080E008952091C7
:100CE00088033091890328173907B9F49091860356
:100CF00080918703981789F0E0918603F0E0ED5822
:100D0000FD4F80812091860330E02F5F3F4F2F738E
:100D100033272093860390E008958FEF9FEF089587
:100D200090E080E00895DC01EC91E03390F51196BD
:100D30008C91119728E830E0281B310987FD339505
:100D4000220F331F220F331F6217730784F012968E
:100D50008C9128E532E0281B310987FD3395220F5D
:100D6000331F220F331F621773070CF49B012250AD
:100D70003109220F331F4FB7F8948E2F90E0FC01FA
:100D8000EE0FFF1FE80FF91FE552FD4F328321835D
:100D90004FBF08951F93CF93DF93EC01162F8881E7
:100DA000803308F04EC061E0812F0E949504888155
:100DB000282F30E0F901EE0FFF1FE20FF31FE5527D
:100DC000FD4F1F736081607C612B608319821A82E2
:100DD0002CE0622F0E947D17829FB001112430E029
:100DE00020E0AB01420F531FFA01EE0FFF1FE40F8B
:100DF000F51FE552FD4F908196FD16C02F5F3F4FC6
:100E00002C30310571F7813009F51092800082E0B5
:100E1000809381001092850010928400B19A809195
:100E20006F00826080936F00E8818E2F90E0FC015C
:100E3000EE0FFF1FE80FF91FE552FD4F8081806420
:100E400080838881DF91CF911F910895823061F472
:100E5000109290008093910010929500109294004F
:100E600088BB80937100E0CF833069F41092A000BA
:100E700082E08093A1001092A5001092A40089BB8B
:100E800080937200D1CF8111CFCF1092200182E0E8
:100E90008093210110922501109224018ABB809336
:100EA0007300C2CFAF92BF92CF92DF92EF92FF92C8
:100EB0000F931F93CF93DF936B017A01EC01C2591B
:100EC000DD4F28813CE0389F8001399F100D1124AF
:100ED000A0907202B12C27FF1FC0FB01118210826B
:100EE00088818F5F888388819801280F311D87FD55
:100EF0003A95F6012A153B051CF488818C30C4F123
:100F000080819181049680349C4908F473C0F60175
:100F100080819181049670C088819801280F311DCD
:100F200087FD3A952A153B05DCF68881A801480F14
:100F3000511D87FD5A95FA01EE0FFF1FE40FF51FB3
:100F4000E552FD4F808186FFCBCF8881F801E80F05
:100F5000F11D87FDFA95CF01EE0FFF1FE80FF91F76
:100F6000E552FD4F808160E08F730E946704B8CF27
:100F7000808191812881A801420F511D27FD5A953A
:100F80009A01FA01EE0FFF1FE20FF31FE552FD4F2A
:100F900021813281820F931FF701918380838881A1
:100FA0009801280F311D87FD3A95F901EE0FFF1FBB
:100FB000E20FF31FE552FD4F808186FF22C088813A
:100FC000080F111D87FD1A95F801EE0FFF1FE00FA6
:100FD000F11FE552FD4F808161E08F73DF91CF916A
:100FE0001F910F91FF90EF90DF90CF90BF90AF9047
:100FF0000C94670480E49CE9F701918380838FEF70
:101000008883DF91CF911F910F91FF90EF90DF9038
:10101000CF90BF90AF9008954F925F926F927F9262
:101020008F929F92AF92BF92CF92DF92EF92FF92F8
:101030000F931F93CF93DF9300D000D000D01F9267
:10104000CDB7DEB79A8789872A013B0109831A83C6
:101050002B833C83DC015B96BC92AE925A97FC01D9
:10106000ED5BFF4F81E0AA94AB2809F080E080831C
:10107000E985FA85408251826282738289819A81F0
:10108000AB81BC8184839583A683B783C086D186D8
:10109000E286F38666A977A980AD91AD0E94D31848
:1010A00020E030E04AE754E40E942B186D837E83F1
:1010B0008F839887E985FA85448655866686778684
:1010C0009B01AC0169817A818B819C810E948A1984
:1010D0004B015C01A985BA8550968D929D92AD9287
:1010E000BC9253972D813E814F815885C701B6012F
:1010F0000E942B186B017C01E985FA85C48AD58A88
:10110000E68AF78A808D918D019759F5A3019201A6
:1011100060E070E0CB010E94B917A985BA851C96E2
:101120006D937D938D939C931F97A501940160E02F
:1011300070E0CB010E94B917E985FA85608B718B4D
:10114000828B938BA701960160E070E0CB010E9437
:10115000B917A985BA8554966D937D938D939C9309
:1011600057972A960FB6F894DEBF0FBECDBFDF911A
:10117000CF911F910F91FF90EF90DF90CF90BF9094
:10118000AF909F908F907F906F905F904F90089559
:101190000F931F93CF93DF93EC018B01FC01EE5B68
:1011A000FF4F8081882361F1888D998D861797077D
:1011B00039F12C853D854E855F8560E070E0CB017F
:1011C0000E94B9176C877D878E879F872889398908
:1011D0004A895B8960E070E0CB010E94B917688B97
:1011E000798B8A8B9B8B2C893D894E895F8960E046
:1011F00070E0CB010E94B9176C8B7D8B8E8B9F8B1F
:10120000198F088FDF91CF911F910F9108952F9221
:101210003F924F925F926F927F928F929F92AF9286
:10122000BF92CF92DF92EF92FF920F931F93CF93D3
:10123000DF931C016A017B0148015901A901980152
:10124000CB01B6010E94851987FF3BC0F101C2AEF8
:10125000D3AEE4AEF5AE8101025C1F4FF80180828F
:101260009182A282B38234968081882351F1F10168
:10127000C68DD78D488059806A807B80A3019201FA
:10128000C501B4010E94261887FF2EC0888299826A
:10129000AA82BB82F10186A097A0A0A4B1A4F80104
:1012A000C080D180E280F380A7019601C501B4011E
:1012B0000E948519F101181624F5C6A2D7A2E0A64E
:1012C000F1A6DF91CF911F910F91FF90EF90DF90EA
:1012D000CF90BF90AF909F908F907F906F905F90D6
:1012E0004F903F902F900895A3019201C701B6013E
:1012F0000E948519181674F6C882D982EA82FB8288
:10130000C9CFC2ACD3ACE4ACF5ACA7019601C50122
:10131000B4010E94261887FFD4CFF101CECF2F92BF
:101320003F924F925F926F927F928F929F92AF9275
:10133000BF92CF92DF92EF92FF920F931F93CF93C2
:10134000DF93CDB7DEB760970FB6F894DEBF0FBE60
:10135000CDBFFC01EE5BFF4F2081298721111BC00F
:101360001986898560960FB6F894DEBF0FBECDBF93
:10137000DF91CF911F910F91FF90EF90DF90CF9071
:10138000BF90AF909F908F907F906F905F904F90A5
:101390003F902F900895988B8F870E943A056A8717
:1013A0007B878C879D87EF85F88982A193A1A4A173
:1013B000B5A14A855B856C857D85481B590B6A0BF9
:1013C0007B0B86A997A9A0ADB1AD481759076A074D
:1013D0007B0730F2048CF58DE02D80819181A28114
:1013E000B3818D839E83AF83B887AF85B88990968C
:1013F000ED91FC912D813E814F81588560817181F5
:10140000828193810E94B9176B017C01EF85F88975
:1014100022A533A544A555A56D817E818F81988530
:101420000E94B91769837A838B839C83AF85B889BF
:1014300050962D913D914D915C915397C701B60106
:101440000E948A19EF85F88926A137A140A551A5E8
:101450000E94BA174B015C01AF85B88996968D92B0
:101460009D92AD92BC929997FD01ED5BFF4FB081CB
:10147000BE87B1112BC0EF85F889448455846684FA
:101480007784A301920169817A818B819C810E947A
:101490008A199B01AC01C501B4010E94B917AF853F
:1014A000B88996966D937D938D939C939997C3017C
:1014B000B201905829813A814B815C810E948A193E
:1014C000EF85F88966A777A780AB91ABAF85B88920
:1014D00096964D905D906D907C909997FD01FE964B
:1014E0001081018132802380212F302F432D522DF6
:1014F000C301B2010E94851918160CF091C0812F0A
:10150000902FA32DB22DEF85F88986A397A3A0A7CE
:10151000B1A7FE85FF2309F49AC0AF85B8891C9650
:101520002D913D914D915C911F97C701B6010E948D
:101530008A196B017C01EF85F889C6A6D7A6E0AAB7
:10154000F1AAAF85B88954968D909D90AD90BC90CE
:101550005797A501940169817A818B819C810E94B2
:101560008A199B01AC01EF85F88966A177A180A556
:1015700091A50E94B917A70196010E94BA176B01A5
:101580007C01C501B401905829813A814B815C816D
:101590000E948A19AF85B889D2966D937D938D93F9
:1015A0009C93D5979601A701612F702F832D922DC3
:1015B0000E94261887FD14C0EF85F88912AD03AD8F
:1015C00034AC25AC212F302F432D522DB601C7014D
:1015D0000E94261887FD04C01C2D0D2D3E2C2F2C9B
:1015E000AF85B8895E96ED91FC91812F902FA32D48
:1015F000B22D80839183A283B3838D819E81AF813D
:10160000B885EF85F88982A793A7A4A7B5A78A858F
:101610009B85AC85BD8582A393A3A4A3B5A3A1CECE
:10162000AF85B889DA968D909D90AD90BC90DD978E
:10163000A5019401C301B2010E94261887FF69CF5A
:10164000EF85F88986A297A2A0A6B1A662CFC12C89
:10165000D12C760176CFFB0101900020E9F731977C
:10166000AF01461B570BDC01ED91FC910280F38129
:10167000E02D19948F929F92AF92BF92EF92FF92BA
:101680000F931F93CF93DF93CDB7DEB7A1970FB61C
:10169000F894DEBF0FBECDBF7C01FA01CB0119A2C9
:1016A000223008F42AE08E010F5D1F4F822E912C0C
:1016B000B12CA12CBF01A50194010E945B17F90177
:1016C000CA016A300CF5605DD8016E938D01232B41
:1016D000242B252B79F790E080E0109721F0BD01B5
:1016E000C7010E942B0BA1960FB6F894DEBF0FBE68
:1016F000CDBFDF91CF911F910F91FF90EF90BF90E1
:10170000AF909F908F900895695CDECFCF92DF926B
:10171000EF92FF92CF93DF936C01990FEE08FF08D1
:10172000F7FE23C06DE28AE893E00E942F03EC01EC
:1017300044275527BA014C195D096E097F092AE033
:101740008AE893E00E943A0BC80FD91F6FE272E05B
:101750008AE893E00E942B0B8C0F9D1FDF91CF91A5
:10176000FF90EF90DF90CF9008952AE0B701A60197
:101770008AE893E00E943A0BEC01E8CF4F925F9227
:101780006F927F928F929F92AF92BF92CF92DF9291
:10179000EF92FF926B017C01AC019B010E94471A02
:1017A00062E372E081111AC046015701E894B7F86C
:1017B0002FEF3FEF4FE75FE7C501B4010E94471AE3
:1017C000811126C02FEF3FEF4FE75FE7C501B4015E
:1017D0000E9426181816E4F466E372E087E294E0AB
:1017E0000E942B0B7C016FE272E087E294E00E9482
:1017F0002B0B8E0D9F1DFF90EF90DF90CF90BF9031
:10180000AF909F908F907F906F905F904F900895D2
:101810002FEF3FEF4FE75FE4C701B6010E94851944
:1018200018161CF46AE372E0D9CF2FEF3FEF4FE7B1
:101830005FECC701B6010E94261887FDF3CF20E0B8
:1018400030E0A901C701B6010E942618B12CA12CD5
:1018500087FF0AC06DE287E294E00E94FB055C010D
:10186000F7FAF094F7F8F0942AE037ED43EA5BE3F7
:10187000C701B6010E94BA172B013C010E94A418AF
:101880006B017C010E94D3189B01AC01C301B20122
:101890000E94B9172B013C012AE0B701A60187E29B
:1018A00094E00E943A0B7C01EA0CFB1C6EE287E29A
:1018B00094E00E94FB05E80EF91E20E030E040E2D3
:1018C00051E4C301B2010E948A192B013C010E941C
:1018D000A4184B01B12CA12C2AE0B501A40187E288
:1018E00094E00E943A0BE80EF91EC501B4010E9473
:1018F000D3189B01AC01C301B2010E94B91720E0CB
:1019000030E040E251E40E948A190E94A418AB0121
:1019100070E060E02AE087E294E00E943A0BE80E73
:10192000F91E61CF4F925F926F927F928F929F923A
:10193000AF92BF92CF92DF92EF92FF920F931F93DD
:10194000CF93DF9300D000D0CDB7DEB72B013C01A1
:101950005E834D83809100028823E1F11092D002D2
:101960001092D1021092D2021092D302DA015A964A
:10197000AD90BC905B978AE0C82E87EDD82E83E2AD
:10198000E82E8CE3F82E9701860149E25CE56FE8CA
:101990007DE3CD010E940C08ED81FE81E45BFF4FE9
:1019A000408251826282738200E010E020E83FE3CF
:1019B00040E050E060E87FEB8D819E810E94070946
:1019C00061E070E08D819E810E94C8080E94010242
:1019D00010920002C090D002D090D102E090D202CA
:1019E000F090D30280916A0290916B02A0916C02F8
:1019F000B0916D0289839A83AB83BC83ED81FE81B4
:101A0000EC5BFF4FC082D182E282F3828D819E81A6
:101A10000E948F09AD81BE81A85BBF4F8D909D90C4
:101A2000AD90BC9080926A0290926B02A0926C0280
:101A3000B0926D02A501940169817A818B819C81AC
:101A40000E942618882371F120E030E046E153E43B
:101A5000C501B4010E948A199B01AC0160E070E8E5
:101A60008BEB94E40E94B9170E949D184B018FE400
:101A700094E00E949306B4018CE494E00E949306E3
:101A8000B40189E494E00E949306B40186E494E0F2
:101A90000E949306A7019601C301B2010E94B917E3
:101AA0000E94BE0BA3019201C701B6010E94B917A3
:101AB0006B017C0120E030E0A9010E948519181615
:101AC00094F520E030E040E050E4C701B6010E9408
:101AD000261887FF32C081E0809300026EE372E037
:101AE00087E294E00E942B0B6FE272E087E294E0C1
:101AF0000E942B0B82E090E026960FB6F894DEBF92
:101B00000FBECDBFDF91CF911F910F91FF90EF904E
:101B1000DF90CF90BF90AF909F908F907F906F900D
:101B20005F904F90089520E030E040E050ECC70116
:101B3000B6010E948519181674F287E090E0DCCF98
:101B4000CF92DF92EF92FF92CF93DF93EC012A8541
:101B50003B854C855D856A817B818C819D810E945E
:101B6000F7192E813F81488559850E948A196B019A
:101B70007C0120E030E040EA52E40E94851918160A
:101B800034F4C12CD12C80EAE82E82E4F82EC7016F
:101B9000B601DF91CF91FF90EF90DF90CF90089545
:101BA0001F920F920FB60F9211242F933F938F9392
:101BB0009F93AF93BF938091760390917703A09109
:101BC0007803B09179033091750323E0230F2D370B
:101BD00058F50196A11DB11D2093750380937603DE
:101BE00090937703A0937803B093790380917A035D
:101BF00090917B03A0917C03B0917D030196A11D80
:101C0000B11D80937A0390937B03A0937C03B093E0
:101C10007D03BF91AF919F918F913F912F910F9035
:101C20000FBE0F901F90189526E8230F0296A11D56
:101C3000B11DD2CF1F920F920FB60F9211240BB687
:101C40000F922F933F934F935F936F937F938F9355
:101C50009F93AF93BF93EF93FF938AE893E00E9423
:101C60000D03FF91EF91BF91AF919F918F917F9164
:101C70006F915F914F913F912F910F900BBE0F90FD
:101C80000FBE0F901F9018951F920F920FB60F92D4
:101C900011240BB60F922F938F939F93EF93FF9383
:101CA000E0919A03F0919B038081E091A003F09171
:101CB000A10382FD1DC090818091A3038F5F8F736C
:101CC0002091A403821741F0E091A303F0E0E657CE
:101CD000FC4F958F8093A303FF91EF919F918F917C
:101CE0002F910F900BBE0F900FBE0F901F90189565
:101CF0008081F2CF1F920F920FB60F9211240BB674
:101D00000F922F933F934F935F936F937F938F9394
:101D10009F93AF93BF93EF93FF93E0918803F0916C
:101D20008903309749F0A685B7858585968D91FF03
:101D300016C09C918923B1F4FF91EF91BF91AF91AF
:101D40009F918F917F916F915F914F913F912F91D3
:101D50000F900BBE0F900FBE0F901F9018959C9187
:101D6000892351F7A389B4899C918589809589231A
:101D70008C93868997890197F1F7608D718DA6857F
:101D8000B785558538E020E0CB010197F1F7822F28
:101D900090E095958795282F4C91452309F0206870
:101DA000315091F7868D81FD20958091870390E0D9
:101DB00001968F73992730918603381799F0A09177
:101DC0008703B0E0AD58BD4F2C9380938703828D7D
:101DD000938D0197F1F7A389B4898C919589892B0B
:101DE0008C93AACF868D8160868FF1CF1F920F9240
:101DF0000FB60F9211240BB60F922F933F934F9370
:101E00005F936F937F938F939F93AF93BF93EF9362
:101E1000FF9348E251E064E271E090E080E00E94CC
:101E20005207FF91EF91BF91AF919F918F917F9159
:101E30006F915F914F913F912F910F900BBE0F903B
:101E40000FBE0F901F9018951F920F920FB60F9212
:101E500011240BB60F922F933F934F935F936F9381
:101E60007F938F939F93AF93BF93EF93FF9348EA32
:101E700050E064EA70E083E090E00E945207FF9136
:101E8000EF91BF91AF919F918F917F916F915F91F2
:101E90004F913F912F910F900BBE0F900FBE0F905F
:101EA0001F9018951F920F920FB60F9211240BB628
:101EB0000F922F933F934F935F936F937F938F93E3
:101EC0009F93AF93BF93EF93FF9348E950E064E98A
:101ED00070E082E090E00E945207FF91EF91BF9185
:101EE000AF919F918F917F916F915F914F913F91B2
:101EF0002F910F900BBE0F900FBE0F901F90189553
:101F00001F920F920FB60F9211240BB60F922F93C0
:101F10003F934F935F936F937F938F939F93AF9371
:101F2000BF93EF93FF9348E850E064E870E081E0EE
:101F300090E00E945207FF91EF91BF91AF919F9166
:101F40008F917F916F915F914F913F912F910F9062
:101F50000BBE0F900FBE0F901F901895FC01909133
:101F60007202903398F481E0890F8093720290831B
:101F7000892F90E0FC01EE0FFF1FE80FF91FE552DB
:101F8000FD4F88EB9BE09283818308958FEF8083E0
:101F900008954F925F926F927F92AF92BF92CF92CD
:101FA000DF92EF92FF920F931F9310928D03109286
:101FB0008C0338EE432E33E0532E612C712C40926B
:101FC0008E0350928F0360929003709291038FE082
:101FD00092E090938B0380938A0385EC90E090933A
:101FE00097038093960384EC90E0909399038093F9
:101FF000980380EC90E090939B0380939A0381EC8C
:1020000090E090939D0380939C0382EC90E09093EA
:102010009F0380939E0386EC90E09093A1038093AE
:10202000A0031092A3031092A4031092A503109290
:10203000A6038FE494E00E94AE0F8CE494E00E942B
:10204000AE0F89E494E00E94AE0F86E494E00E9413
:10205000AE0F10922A041092290440922B04509241
:102060002C0460922D0470922E0481E292E09093F1
:1020700028048093270410923E0410923D0410928D
:10208000400410923F0410924204109241041092B6
:10209000440410924304609145046E7F6D7F609309
:1020A00045046695617081E068278BE00E946704B3
:1020B00061E08BE00E949504EBECF2E0E491E093A8
:1020C0003704E5E8F2E0E491F0E0EE0FFF1FE05A9C
:1020D000FD4F85919491909339048093380460E08A
:1020E0008AE00E9495048091450481FD04C061E06E
:1020F0008AE00E9467048AE080933304EAECF2E00D
:10210000E491E0933404E4E8F2E0E491F0E0EE0FCF
:10211000FF1FEA5BFD4F8591949190933604809365
:1021200035041092CD041092CC041092CE0410927B
:10213000CF041092D0041092D1041092BF041092D8
:10214000BE041092C0041092C1041092C2041092F6
:10215000C3041092B1041092B0041092B204109211
:10216000B3041092B4041092B5041092A304109218
:10217000A2041092A4041092A5041092A604109236
:10218000A7048AE994E0909371048093700486E92F
:1021900094E090936F0480936E048EE994E09093A2
:1021A0007304809372041092940410928C04109221
:1021B0008D0410928E0410928F0480E090E0AFE7BF
:1021C000B3E48093900490939104A0939204B0930D
:1021D000930494E6492E512C612C712C4092880472
:1021E0005092890460928A0470928B0470E060E0DF
:1021F00082E594E00E94C808AA24A394B12CC12CC3
:10220000D12C76019701860140E050E060E87FE341
:1022100082E594E00E940C080E943A05009188042F
:102220001091890420918A0430918B04601B710BFA
:10223000820B930B609374047093750480937604FF
:102240009093770482E295E09093F9048093F804E8
:102250008EE195E09093F7048093F60486E295E092
:102260009093FB048093FA0410921C05C09214050D
:10227000D0921505E0921605F092170580E090E0E7
:10228000AFE7B3E48093180590931905A0931A055E
:10229000B0931B05409210055092110560921205F3
:1022A0007092130561E070E08AED94E00E94C80826
:1022B00097018601B701A6018AED94E00E940C08FF
:1022C0000E943A054090100550901105609012054B
:1022D0007090130564197509860997096093FC04C9
:1022E0007093FD048093FE049093FF041F910F915F
:1022F000FF90EF90DF90CF90BF90AF907F906F9066
:102300005F904F900895789484B5826084BD84B5C1
:10231000816084BD85B5826085BD85B5816085BDE0
:1023200080916E00816080936E0010928100809198
:102330008100826080938100809181008160809320
:102340008100809180008160809380008091B10045
:1023500084608093B1008091B00081608093B00070
:1023600080919100826080939100809191008160C2
:102370008093910080919000816080939000809183
:10238000A10082608093A1008091A1008160809370
:10239000A1008091A00081608093A0008091210124
:1023A00082608093210180912101816080932101CD
:1023B0008091200181608093200180917A00846067
:1023C00080937A0080917A00826080937A00809175
:1023D0007A00816080937A0080917A00806880938F
:1023E0007A001092C10080E090E0A8E4B2E480930B
:1023F000960490939704A0939804B0939904109234
:102400009A0410929B0410929C0410929D04809355
:102410009E0490939F04A093A004B093A104809184
:102420009404811104C082E594E00E94B80181E027
:102430008093940400E010E028EC32E440E050E0A7
:1024400068EC72EC82E594E00E94070970E060E0BD
:1024500082E594E00E94C80861E08DE00E94950446
:1024600061E080E30E94950460E080E30E946704DD
:102470008BE390E09093CD048093CC048AE999E8B3
:10248000A6EEB4E48093D2049093D304A093D40432
:10249000B093D50481EE9AE7A4E7BFEB8093D6040E
:1024A0009093D704A093D804B093D90460E08BE351
:1024B0000E9495048AE390E09093BF048093BE0449
:1024C00080E090E9AFE1B6E48093C4049093C50442
:1024D000A093C604B093C70482E193E8A0E9BFEBE0
:1024E0008093C8049093C904A093CA04B093CB040A
:1024F00060E08AE30E9495048DE390E09093B1043C
:102500008093B00480EC92E9A6E5B8E48093B60429
:102510009093B704A093B804B093B90481E895E907
:10252000A3EDBFEB8093BA049093BB04A093BC04CB
:10253000B093BD0460E08DE30E9495048CE390E0CD
:102540009093A3048093A20480E09FE7A5EDB7E4F5
:102550008093A8049093A904A093AA04B093AB0419
:102560008BE39FEDAFEDBFEB8093AC049093AD0494
:10257000A093AE04B093AF0460E08CE30E94950496
:102580000AE010E0D0E0C0E089E30E94C6047C01CC
:102590000E94860BCE0DDF1D65E070E080E090E0CC
:1025A0000E9408050150110979F762E472E08AE897
:1025B00093E00E942B0BCE010E94860BCE016AE0B5
:1025C00070E00E9489177093B4026093B3026BE4C9
:1025D00072E08AE893E00E942B0B8091B302909105
:1025E000B4020E94860B68EE73E080E090E00E94E7
:1025F0000805F6E46F2EF5E07F2E0E943A05AB0148
:10260000BC018091B5029091B602A091B702B09141
:10261000B8020696A11DB11D84179507A607B70736
:102620000CF04DC089E30E94C6042091B3023091A2
:10263000B402821B930B9C012F5F3F4F2330310567
:1026400010F490E080E0BC01990F880B990B0E9478
:10265000D51826EA3BE944EC5BE30E942B1828E6F8
:1026600038EE4FE95BE30E948A1920E030E040EC4D
:1026700050E40E948A1920E030E04AE754E40E94C6
:102680002B189B01AC016091D0027091D102809116
:10269000D2029091D3020E94BA176093D002709335
:1026A000D1028093D2029093D3020E943A056093A4
:1026B000B5027093B6028093B7029093B8028090EF
:1026C00073039090740321E08216910471F140F03D
:1026D00092E08916910409F42BC30E94A6038DCFC2
:1026E00068EE73E080E090E00E9408056EE270E022
:1026F0008FE494E00E94CA066FE270E08CE494E0FC
:102700000E94CA0662E370E089E494E00E94CA066F
:1027100063E370E086E494E00E94CA0681E090E002
:102720009093740380937303D8CF0E943A0500916D
:10273000BA021091BB022091BC023091BD02061773
:10274000170728073907D8F48091B9028F5F809363
:10275000B902853040F10E943A0564547D4F8F4F95
:102760009F4F6093BA027093BB028093BC02909318
:10277000BD0260E08DE00E9467041092B902C09132
:102780000902D0910A02C430D10509F4B7C020F57E
:10279000C230D10509F4C8C2239779F1909274032D
:1027A000809273039ACF0E943A056C597F4F8F4FE6
:1027B0009F4F6093BA027093BB028093BC029093C8
:1027C000BD028DE00E943E0461E0892B09F060E0CB
:1027D0008DE00E946704D3CFC630D10509F4D9C17A
:1027E00008F486C12797D1F642E554E060E070E036
:1027F00084E393E40E94920C6BC0809105028823CD
:1028000029F110921E0510921F05109220051092BA
:102810002105109222051092230510922405109292
:102820002505109226051092270510922805109272
:10283000290580911C05811104C08AED94E00E9455
:10284000B80181E080931C05109205028EEB94E0A4
:102850000E9446054AED54E060E070E084EB93E4AA
:102860000E94920C079791F58EEB94E00E94A00DC8
:102870006B017C0120910102309102024091030220
:10288000509104020E94261887FF27C0C0920102BF
:10289000D0920202E0920302F09204028091D002F0
:1028A0009091D102A091D202B091D3028093C20242
:1028B0009093C302A093C402B093C5028093BE025A
:1028C0009093BF02A093C002B093C10283E090E056
:1028D00090930A028093090261CF8091BE02909189
:1028E000BF02A091C002B091C1028093C202909336
:1028F000C302A093C402B093C502E8CF8091060240
:102900008823B9F11092D0021092D1021092D20213
:102910001092D302A0906C04B0906D04C12CD12C05
:1029200076019701860140E050E060EA71E482E5BB
:1029300094E00E940C08C0929E04D0929F04E09202
:10294000A004F092A10400E010E028EC32E440E0A2
:1029500050E068EC72EC82E594E00E94070961E0C7
:1029600070E082E594E00E94C8080E940102109283
:1029700006022090C8023090C9024090CA025090CE
:10298000CB028091D0029091D102A091D202B0915D
:10299000D3028093960490939704A0939804B093E5
:1029A000990482E594E00E948F09C0909A04D09027
:1029B0009B04E0909C04F0909D04C092C802D092C9
:1029C000C902E092CA02F092CB02A7019601C201AD
:1029D000B1010E942618882309F44DC0C701B60131
:1029E0000E949D181B01E2E7EE2EE6E0FE2EE61A9D
:1029F000F70AB7018FE494E00E949306B7018CE4D4
:102A000094E00E9493067301E218F308B70189E489
:102A100094E00E949306B70186E494E00E94930636
:102A200061E080E30E94670483E290E00197F1F7A0
:102A300060E080E30E9467040E94E3046B017C0174
:102A400081E30E943E04892BE9F40E94E3046C199F
:102A50007D098E099F0969387E458105910580F3BE
:102A60008091C6029091C70201969093C70280930D
:102A7000C6020497BCF5D0930A02C09309021092D3
:102A8000DA028CCE0E94E3046B017C0181E30E9498
:102A90003E04019761F40E94E3046C197D098E09DC
:102AA0009F0969387E458105910580F3D9CF0E9441
:102AB000E3046C197D098E099F090E94D31820E058
:102AC00030E048E652E40E942B1820E030E040E27B
:102AD00051E40E94261887FDC3CF1092C7021092BE
:102AE000C602C9CF81E080930602C5E0D0E0C3CF23
:102AF00080910702882361F00E943A056093CC021E
:102B00007093CD028093CE029093CF021092070271
:102B100062E776E08FE494E00E94930666E475E055
:102B20008CE494E00E94930666E475E089E494E006
:102B30000E94930662E776E086E494E00E949306A2
:102B4000C090CC02D090CD02E090CE02F090CF02A7
:102B500088EEC80E83E0D81EE11CF11C0E943A05E5
:102B6000C616D706E806F90618F085E090E0B0CE64
:102B700081E08093070286E090E090930A028093C0
:102B800009028091DA02882309F408CE84E090E0FB
:102B90009FCE809108028823B9F11092D002109242
:102BA000D1021092D2021092D302A0906C04B09085
:102BB0006D04C12CD12C76019701860140E050E0D4
:102BC00060EA71E482E594E00E940C08C0929E04E1
:102BD000D0929F04E092A004F092A10400E010E0E3
:102BE00028EC32E440E050E068EC72EC82E594E0DE
:102BF0000E94070961E070E082E594E00E94C80845
:102C00000E94010210920802C090D002D090D1021E
:102C1000E090D202F090D30282EA94E00E9446054E
:102C20002090D6023090D7024090D8025090D9021E
:102C3000C0929604D0929704E0929804F09299047E
:102C400082E594E00E948F09C0909A04D0909B0482
:102C5000E0909C04F0909D04C092D602D092D702DE
:102C6000E092D802F092D902A7019601C201B10107
:102C70000E942618882309F44AC0C701B6010E94A1
:102C80009D181B017301E61AF70AB7018FE494E05F
:102C90000E949306B7018CE494E00E94930672E7C9
:102CA000E72E76E0F72EE218F308B70189E494E006
:102CB0000E949306B70186E494E00E94930660E6C2
:102CC00072E087E294E00E942B0B82EA94E00E947B
:102CD000A00D0E94BE0B82EA94E00E94A00D20E0AD
:102CE00030E040E251E40E94261887FF18C080912E
:102CF000D4029091D50201969093D5028093D4028C
:102D000004972CF081E080930802C5E0D0E0D093D6
:102D10000A02C093090281E08093DA023FCD10924B
:102D2000D5021092D402F3CF62E0862E912C36CDDC
:102D30006CED75E08FE494E00E9493066CED75E015
:102D40008CE494E00E9493066CED75E089E494E0D5
:102D50000E9493066CED75E086E494E00E94930671
:102D6000E0914F048E2F90E0FC01EE0FFF1FE80F63
:102D7000F91FE552FD4F80818F7B8083E0914C04E9
:102D80008E2F90E0FC01EE0FFF1FE80FF91FE552B8
:102D9000FD4F80818F7B8083E09149048E2F90E0EE
:102DA000FC01EE0FFF1FE80FF91FE552FD4F808178
:102DB0008F7B8083E09146048E2F90E0FC01EE0F24
:102DC000FF1FE80FF91FE552FD4F80818F7B808345
:102DD00060E08EE20E94950460E08FE20E9495041C
:102DE00060E082E30E94950460E083E30E94950422
:102DF0000E943A0500916B0310916C0320916D03C2
:102E000030916E03601B710B820B930B613D774019
:102E100081059105A0F00E943A0560936B037093C1
:102E20006C0380936D0390936E038DE00E943E04CB
:102E300061E0892B09F060E08DE00E9467040E9448
:102E40003A0500916F031091700320917103309146
:102E50007203601B710B820B930B653F7140810500
:102E6000910550F00E943A0560936F0370937003D0
:102E7000809371039093720382E090E051CC81E2E1
:102E800092E0909328048093270480918803909186
:102E900089038752944071F4E0913A04F0913B0425
:102EA000908180913C0480958923808310928903CE
:102EB000109288030895A1E21A2EAA1BBB1BFD01E4
:102EC0000DC0AA1FBB1FEE1FFF1FA217B307E40709
:102ED000F50720F0A21BB30BE40BF50B661F771F61
:102EE000881F991F1A9469F7609570958095909541
:102EF0009B01AC01BD01CF010895991B79E004C08D
:102F0000991F961708F0961B881F7A95C9F7809528
:102F1000089597FB072E16F4009407D077FD09D08B
:102F20000E94A51707FC05D03EF4909581959F4F10
:102F30000895709561957F4F0895EE0FFF1F881FCC
:102F40008BBF0790F691E02D1994AA1BBB1B51E192
:102F500007C0AA1FBB1FA617B70710F0A61BB70B09
:102F6000881F991F5A95A9F780959095BC01CD01AE
:102F700008955058BB27AA270E94D1170C944B19CB
:102F80000E943D1938F00E94441920F039F49F3F07
:102F900019F426F40C943A190EF4E095E7FB0C941E
:102FA0003419E92F0E945C1958F3BA1762077307A6
:102FB0008407950720F079F4A6F50C947E190EF499
:102FC000E0950B2EBA2FA02D0B01B90190010C0139
:102FD000CA01A0011124FF27591B99F0593F50F451
:102FE000503E68F11A16F040A22F232F342F4427A9
:102FF000585FF3CF469537952795A795F0405395A1
:10300000C9F77EF41F16BA0B620B730B840BBAF070
:103010009150A1F0FF0FBB1F661F771F881FC2F7DB
:103020000EC0BA0F621F731F841F48F487957795EF
:103030006795B795F7959E3F08F0B0CF9395880FA9
:1030400008F09927EE0F9795879508950E9410191B
:1030500008F481E008950E943F180C944B190E94D7
:10306000441958F00E943D1940F029F45F3F29F0BF
:103070000C94341951110C947F190C943A190E9434
:103080005C1968F39923B1F3552391F3951B550B04
:10309000BB27AA2762177307840738F09F5F5F4F2B
:1030A000220F331F441FAA1FA9F335D00E2E3AF06A
:1030B000E0E832D091505040E695001CCAF72BD082
:1030C000FE2F29D0660F771F881FBB1F26173707D3
:1030D0004807AB07B0E809F0BB0B802DBF01FF2705
:1030E00093585F4F3AF09E3F510578F00C94341995
:1030F0000C947F195F3FE4F3983ED4F3869577955F
:103100006795B795F7959F5FC9F7880F911D9695BD
:10311000879597F90895E1E0660F771F881FBB1F19
:10312000621773078407BA0720F0621B730B840BC6
:10313000BA0BEE1F88F7E09508950E94A4186894D2
:10314000B1110C947F1908950E94641988F09F575B
:1031500098F0B92F9927B751B0F0E1F0660F771FBB
:10316000881F991F1AF0BA95C9F714C0B13091F0B1
:103170000E947E19B1E008950C947E19672F782F74
:103180008827B85F39F0B93FCCF386957795679576
:10319000B395D9F73EF490958095709561957F4FE2
:1031A0008F4F9F4F0895E89409C097FB3EF4909588
:1031B0008095709561957F4F8F4F9F4F9923A9F010
:1031C000F92F96E9BB279395F6958795779567959F
:1031D000B795F111F8CFFAF4BB0F11F460FF1BC0E3
:1031E0006F5F7F4F8F4F9F4F16C0882311F096E976
:1031F00011C0772321F09EE8872F762F05C0662324
:1032000071F096E8862F70E060E02AF09A95660FDC
:10321000771F881FDAF7880F9695879597F9089595
:10322000990F0008550FAA0BE0E8FEEF16161706D7
:10323000E807F907C0F012161306E407F50798F03F
:10324000621B730B840B950B39F40A2661F0232B58
:10325000242B252B21F408950A2609F4A140A695D4
:103260008FEF811D811D089597F99F6780E870E0B9
:1032700060E008959FEF80EC089500240A941616EC
:10328000170618060906089500240A941216130654
:10329000140605060895092E0394000C11F48823E2
:1032A00052F0BB0F40F4BF2B11F460FF04C06F5FFE
:1032B0007F4F8F4F9F4F089557FD9058440F551FD4
:1032C00059F05F3F71F04795880F97FB991F61F0A8
:1032D0009F3F79F087950895121613061406551F1F
:1032E000F2CF4695F1DF08C0161617061806991F8B
:1032F000F1CF86957105610508940895E894BB2780
:1033000066277727CB0197F908950E94101908F4D2
:103310008FEF08950E949D190C944B190E943D193E
:1033200038F00E94441920F0952311F00C943419C0
:103330000C943A1911240C947F190E945C1970F3B3
:10334000959FC1F3950F50E0551F629FF001729F4A
:10335000BB27F00DB11D639FAA27F00DB11DAA1F59
:10336000649F6627B00DA11D661F829F2227B00DA6
:10337000A11D621F739FB00DA11D621F839FA00D31
:10338000611D221F749F3327A00D611D231F849F81
:10339000600D211D822F762F6A2F11249F575040D8
:1033A0009AF0F1F088234AF0EE0FFF1FBB1F661F53
:1033B000771F881F91505040A9F79E3F510580F01C
:1033C0000C9434190C947F195F3FE4F3983ED4F3C6
:1033D000869577956795B795F795E7959F5FC1F7C0
:1033E000FE2B880F911D9695879597F90895FA0100
:1033F000EE0FFF1F309621053105A1F16115710512
:1034000061F48038BFE39B0749F1689490388105E7
:1034100061F08038BFEF9B0741F099234AF5FF3FE9
:10342000E1053105210519F1E8940894E795D901E2
:10343000AA2329F4AB2FBE2FF85FD0F310C0FF5F93
:1034400070F4A695E0F7F73950F019F0FF3A38F428
:103450009F779F930DD00F9007FC9058089546F0EA
:103460000C943A1960E070E080E89FE308954FE71C
:103470009F775F934F933F932F930E94F71A2F915B
:103480003F914F915F910E948A190C94541A0E94A7
:103490001019880B990B089529F416F00C9434191F
:1034A0000C947E190C943A190E946419A8F396386A
:1034B000A0F707F80F92E8942BE33AEA48EB5FE7AE
:1034C0000E94A0190F920F920F924DB75EB70F9204
:1034D0000E943F1BE4EEF0E00E94861A4F915F913C
:1034E000EF91FF91E595EE1FFF1F49F0FE57E06851
:1034F0004427EE0F441FFA95E1F74195550B0E94C2
:10350000B91A0F9007FE0C94AD1A0895DF93CF936C
:103510001F930F93FF92EF92DF927B018C016894CF
:1035200006C0DA2EEF010E949D19FE01E894A591D4
:103530002591359145915591A6F3EF010E94D11740
:10354000FE019701A801DA9469F7DF90EF90FF90F0
:103550000F911F91CF91DF9108959B01AC0160E025
:1035600070E080E89FE30C942B180C9434190C94B1
:10357000731B0E946419D8F39923C9F3940F511D4A
:10358000A3F39150504094F059F0882332F0660F25
:10359000771F881F91505040C1F79E3F51052CF76F
:1035A000880F911D9695879597F908955F3FACF028
:1035B000983E9CF0BB27869577956795B79508F45C
:1035C000B1609395C1F7BB0F58F711F460FFE8CFD6
:1035D0006F5F7F4F8F4F9F4FE3CF0C947F1916F093
:1035E0000C94731B0C943A1968940C9434190E942F
:1035F0006419A8F39923C1F3AEF3DF93CF931F931C
:103600000F93FF92C92FDD2788232AF02197660F99
:10361000771F881FDAF720E030E040E85FEB9FE398
:10362000883920F0803E38F021968F770E94BA17B3
:10363000ECE0F1E004C00E94BA17E9E3F1E00E9477
:10364000861A8B01BE01EC01FB2E6F57710975952F
:10365000771F880B990B0E94D51828E132E741E3C8
:103660005FE30E949D19AF2D9801AE01FF900F916D
:103670001F91CF91DF910E94D1170C944B19FA0141
:10368000DC01AA0FBB1F9B01AC01BF5728F4222706
:1036900033274427507820C0B75190F4AB2F002433
:1036A000469537952795011CA395D2F3002071F01C
:1036B000220F331F441FB395DAF30ED00C94B917C1
:1036C00061307105A0E88A07B94630F49B01AC016E
:1036D0006627772788279078309621F020833183DA
:1036E0004283538308959F3F31F0915020F4879592
:1036F00077956795B795880F911D9695879597F95A
:10370000089511E0C4E8D1E000E006C0802FFE017A
:103710000E949D172196011DC538D10780E008073A
:06372000A9F7F894FFCFA9
:103726000100007A44010101010400000000002F9D
:1037360003B505D0027C030103DF02F3020000009B
:1037460000FB05B5059006FA0557066F06E2050D5E
:103756000A006E616E00696E66006F766600656EC1
:10376600640073756D2069733A20007A65726F473D
:1037760079726F566F6C746167652069733A2000C1
:0A3786006F75747075743A2000002E
:00000001FF
