:100000000C94AB010C94DC010C94DC010C94DC012D
:100010000C94DC010C94DC010C94DC010C94DC01EC
:100020000C94DC010C94BF0F0C94BF0F0C94BF0F09
:100030000C94DC010C94DC010C94DC010C94DC01CC
:100040000C94DC010C94C5100C94DC010C94DC01C4
:100050000C94DC010C94DC010C94DC010C94150F65
:100060000C94DC010C94890F0C945F0F0C94DC0150
:100070000C94DC010C94DC010C94DC010C94DC018C
:100080000C9497100C94DC010C94DC010C94DC01B2
:100090000C94DC010C94DC010C94DC010C94DC016C
:1000A0000C94DC010C94DC010C9469100C94DC01C0
:1000B0000C94DC010C94DC010C94DC010C943B10DE
:1000C0000C94DC010C94DC010C94DC010C94DC013C
:1000D0000C94DC010C94DC010C94DC010C94DC012C
:1000E0000C94DC0107634236B79BD8A71A396856CF
:1000F00018AEBAAB558C1D3CB7CC5763BD6DEDFD4A
:10010000753EF6177231BF000000803F0800000006
:10011000BE922449123EABAAAA2ABECDCCCC4C3EFC
:1001200000000080BEABAAAAAA3E00000000BF00EB
:100130000000803F0000000000084178D3BB4387E7
:10014000D1133D190E3CC3BD4282AD2B3E68EC82FB
:1001500076BED98FE1A93E4C80EFFFBE01C4FF7F80
:100160003F00000000000C94C3170C9421160C945F
:10017000ED030C9409040C94F7030C94FC070C9405
:100180000D040C940E180C94D2030C9459030C9487
:10019000BC020C942B180C94E4070C940F170C94CD
:1001A000C1160C9487070C947A190C94E4030C94F0
:1001B00017040C94E0170C9407180C94DB180C949B
:1001C00005040C9412040C94BF180C9492170C9410
:1001D0002B1A0C9413040C94F1030C94CD160C946C
:1001E000A7170C941A180C94EB170C94D8030C94C2
:1001F00088070C941D080C94F7170C94DC030C94DE
:10020000FB030C94E0030C946F070C940E110C94F8
:10021000AD020C94FF030C94E7030C940C030C94B4
:1002200042070C94AA170C94D0020C94DE020C9492
:10023000811900002100240027002A002D00300031
:10024000330001010000040107010A0100000A0B4C
:1002500002090C0D0E080703040100000000000055
:10026000000000000000000000000000000000008E
:10027000000000000000000012111000000000004B
:10028000000000000000000000000000000000006E
:100290000000000020002300260029002C002F0071
:1002A00032000001000003010601090100002200E4
:1002B000250028002B002E00310034000201000030
:1002C000050108010B0105050505070508080808D3
:1002D000020202020A0A08080404040401010101DE
:1002E00001010101030303030303030304070707D9
:1002F0000C0C0C0C0C0C0C0C02020202060606067E
:10030000060606060B0B0B0B0B0B0B0B010210204A
:10031000200808102040102040800201020108043B
:1003200002010102040810204080804020100804CF
:100330000201800402018040201008040201080428
:10034000020101020408102040800102040810206C
:1003500040800E112B1A11241FBECFEFD1E2DEBF59
:10036000CDBF00E00CBF12E0A0E0B2E0E4EFFCE3A0
:1003700000E00BBF02C007900D92A037B107D9F77C
:1003800025E0A0E7B2E001C01D92A335B207E1F776
:1003900011E0CAEAD1E000E006C021970109802FF0
:1003A000FE010E94891AC93AD10780E00807A9F71F
:1003B0000E94C8120C94681E0C94000010926B04EA
:1003C00010926A04109269041092680410926704F3
:1003D000109266048FE190E090936D0480936C041A
:1003E00080915C0496EF980F943048F02EEC280F23
:1003F000243028F022EC280F283008F061C021E0DA
:1004000030E030936704209366042DE130E03093B0
:100410006904209368042DE030E030936B0420934E
:100420006A04943050F02EEC280F243030F022EC87
:10043000280FF0E0E0E0283010F4E8E6F0E020815A
:10044000943028F032EC380F383008F469C031E0CD
:10045000232B943048F09EEC980F943028F08E5364
:10046000F0E0E0E0883010F4E8E6F0E0208320914E
:100470005C0436EF320F343008F454C08EEC820F37
:10048000843008F44FC082EC820F883008F44DC0ED
:1004900090E080E09093640480936304343008F02B
:1004A00047C02650330B81E001C0880F2A95EAF738
:1004B0008093650480916C0490916D040197F1F72D
:1004C00080916A0490916B04892B49F1E0919D031E
:1004D000F0919E0384E0E035F80709F1309739F098
:1004E000A389B4899C918589809589238C93809177
:1004F0006E048E7F80936E0410929C0310929B0377
:1005000080E594E090939E0380939D03E0916304C3
:10051000F0916404808190916504892B8083089513
:1005200034E096CF8BE690E0B5CF8DE690E0B2CF89
:1005300088E0223309F4BCCF84E0233309F4B8CF38
:1005400082E0243309F4B4CF82EC820F883018F4AF
:100550002E53330BA8CF81E0ABCFFC01538D448DDC
:10056000252F30E0842F90E0821B930B541710F05E
:10057000CF96089501970895FC01918D828D98176B
:1005800061F0A28DAE0FBF2FB11D5D968C91928D43
:100590009F5F9F73928F90E008958FEF9FEF089574
:1005A000FC01918D828D981731F0828DE80FF11D3D
:1005B000858D90E008958FEF9FEF0895FC01918D58
:1005C000228D892F90E0805C9F4F821B91098F7351
:1005D00099270895FC01A48DA80FB92FB11DA35A26
:1005E000BF4F2C91848D90E001968F739927848F53
:1005F000A689B7892C93A089B1898C918370806476
:100600008C93938D848D981306C00288F389E02D16
:1006100080818F7D80830895EF92FF920F931F93C7
:10062000CF93DF93EC0181E0888F9B8D8C8D9813A5
:100630001AC0E889F989808185FF15C09FB7F894B1
:10064000EE89FF896083E889F989808183708064FD
:1006500080839FBF81E090E0DF91CF911F910F9148
:10066000FF90EF900895F62E0B8D10E00F5F1F4F57
:100670000F731127E02E8C8D8E110CC00FB607FC66
:10068000FACFE889F989808185FFF5CFCE010E94F4
:10069000EA02F1CFEB8DEC0FFD2FF11DE35AFF4F76
:1006A000F0829FB7F8940B8FEA89FB898081806282
:1006B000CFCFCF93DF93EC01888D8823B9F0AA893F
:1006C000BB89E889F9898C9185FD03C0808186FD0D
:1006D0000DC00FB607FCF7CF8C9185FFF2CF80815C
:1006E00085FFEDCFCE010E94EA02E9CFDF91CF91E5
:1006F000089583EB93E00E94DE0221E0892B09F448
:1007000020E0822F089580E090E0892B29F00E945C
:10071000790381110E94000080E090E0892B49F06C
:1007200080E090E0892B29F00E94000081110E9456
:10073000000080E090E0892B49F080E090E0892B78
:1007400029F00E94000081110E94000080E090E0EA
:10075000892B49F080E090E0892B29F00E9400006D
:1007600081110C94000008958150823108F05AC024
:10077000E82FF0E08827E054FC4F8F4F0C94891A43
:10078000E003E403D203D803DC031204E703ED0320
:10079000F103F703FB03FF030504090412040D042E
:1007A00013041704809180008F7780938000089550
:1007B000809180008F7DF9CF80918000877FF5CF79
:1007C00084B58F7784BD089584B58F7DFBCF8091EC
:1007D000B0008F778093B00008958091B0008F7D36
:1007E000F9CF809190008F77809390000895809149
:1007F00090008F7DF9CF80919000877FF5CF809119
:10080000A0008F778093A00008958091A0008F7D35
:10081000F9CF8091A000877FF5CF809120018F775D
:10082000809320010895809120018F7DF9CF8091E0
:100830002001877FF5CFCF93DF93282F30E0F90198
:10084000E45BFD4F8491F901E45FFC4FD491F90121
:10085000EA53FD4FC491CC23A1F081110E94B4034F
:10086000EC2FF0E0EE0FFF1FEE56FD4FA591B49177
:10087000EC91ED2381E090E009F480E0DF91CF91ED
:10088000089580E090E0FACF1F93CF93DF93282F55
:1008900030E0F901E45BFD4F8491F901E45FFC4F26
:1008A000D491F901EA53FD4FC491CC23A9F0162F3E
:1008B00081110E94B403EC2FF0E0EE0FFF1FE4550E
:1008C000FD4FA591B4918FB7F894EC91111108C028
:1008D000D095DE23DC938FBFDF91CF911F910895D8
:1008E000DE2BF8CFCF93DF9390E0FC01E45FFC4F69
:1008F00024918A539D4FFC0184918823D1F090E08C
:10090000880F991FFC01EE5CFD4FA591B491FC018D
:10091000E455FD4FC591D49161110EC09FB7F89475
:100920008C91E22FE0958E238C932881E223E8833B
:100930009FBFDF91CF9108958FB7F894EC91E22B90
:10094000EC938FBFF6CF863308F0865320917B005F
:10095000982F9870277F922B90937B0087708064EC
:1009600080937C0080917A00806480937A008091EB
:100970007A0086FDFCCF80917800909179000895EF
:100980003FB7F8948091860390918703A0918803E4
:10099000B091890326B5A89B05C02F3F19F0019699
:1009A000A11DB11D3FBFBA2FA92F982F8827BC01C9
:1009B000CD01620F711D811D911D42E0660F771FF1
:1009C000881F991F4A95D1F708958F929F92AF92F1
:1009D000BF92CF92DF92EF92FF924B015C010E9497
:1009E000C0046B017C010E94C0046C197D098E0952
:1009F0009F09683E734081059105A8F321E0821AA2
:100A00009108A108B10888EEC80E83E0D81EE11C49
:100A1000F11C81149104A104B10429F7FF90EF9017
:100A2000DF90CF90BF90AF909F908F9008952FB799
:100A3000F894609182037091830380918403909174
:100A400085032FBF08952F923F924F925F926F922E
:100A50007F928F929F92AF92BF92CF92DF92EF924E
:100A6000FF920F931F93CF93DF93CDB7DEB72E97EF
:100A70000FB6F894DEBF0FBECDBF3090BD0431106D
:100A80001BC0312C832D2E960FB6F894DEBF0FBEFF
:100A9000CDBFDF91CF911F910F91FF90EF90DF902D
:100AA000CF90BF90AF909F908F907F906F905F900E
:100AB0004F903F902F9008950E94170569877A877D
:100AC0008B879C8780919D0490919E04A0919F04A8
:100AD000B091A00449855A856B857C85481B590BCC
:100AE0006A0B7B0B8091B1049091B204A091B30486
:100AF000B091B404481759076A077B0710F2E091D8
:100B00009704F091980480819181A281B3818D83B3
:100B10009E83AF83B887E0919B04F0919C049C0175
:100B2000AD0160817181828193810E94A51A4B0180
:100B30005C012091A5043091A6044091A704509136
:100B4000A8046D817E818F8198850E94A51A6B0112
:100B50007C0120918B0430918C0440918D04509144
:100B60008E04C501B4010E94761C2091A10430912D
:100B7000A2044091A3045091A4040E94A61A2B0140
:100B80003C014092A1045092A2046092A30470928E
:100B9000A4042090BE04211031C08091870490915C
:100BA0008804A0918904B0918A0489839A83AB83D5
:100BB000BC839C01AD01C701B6010E94761C9B015C
:100BC000AC01C301B2010E94A51A6093A104709305
:100BD000A2048093A3049093A40469817A818B81F9
:100BE0009C819058A70196010E94761C6093A904ED
:100BF0007093AA048093AB049093AC044090A1043A
:100C00005090A2046090A3047090A4041091B904C1
:100C10009091BA049E87A091BB04AD870091BC045B
:100C2000212F392F4A2F502FC301B2010E94711C6E
:100C300018160CF09BC0812F9E85AD85B02F809338
:100C4000A1049093A204A093A304B093A40422202F
:100C500009F4A5C02091870430918804409189044B
:100C600050918A04C501B4010E94761C4B015C01BD
:100C70008092A9049092AA04A092AB04B092AC0412
:100C800040908F0450909004609091047090920472
:100C9000A3019201C701B6010E94761C9B01AC0121
:100CA0006091A1047091A2048091A3049091A40486
:100CB0000E94A51AA50194010E94A61A4B015C018D
:100CC000C301B2019058A70196010E94761C60935F
:100CD000AD047093AE048093AF049093B00494017C
:100CE000A501612F7E858D85902F0E94121B87FDA7
:100CF00018C01091B5049091B6049E87A091B704D6
:100D0000AD870091B804212F392F4A2F502FB401FD
:100D1000C5010E94121B87FD04C0182D9E86AD865A
:100D20000B2DE0919904F0919A04812F9E85AD8559
:100D3000B02F80839183A283B3838D819E81AF8105
:100D4000B8858093A5049093A604A093A704B093BC
:100D5000A80489859A85AB85BC8580939D04909372
:100D60009E04A0939F04B093A0048CCE8091B50400
:100D70009091B604A091B704B091B80489839A8386
:100D8000AB83BC839C01AD01C301B2010E94121B65
:100D900087FF5DCF89819A81AB81BC8150CF812C47
:100DA000912C54016DCF4F925F926F927F928F92F0
:100DB0009F92AF92BF92CF92DF92EF92FF92CF932A
:100DC000DF93EC010E9417056B017C018091AF035A
:100DD0009091B003A091B103B091B2030A96A11D06
:100DE000B11D8C159D05AE05BF05ECF588810E94EF
:100DF000A304BC01990F880B990B0E94C11B4B01E6
:100E00005C0120E030E040E05FE36091AB03709173
:100E1000AC038091AD039091AE030E94761C2B0130
:100E20003C0120E030E040E05FE3C501B4010E94F6
:100E3000761C9B01AC01C301B2010E94A61A60930B
:100E4000AB037093AC038093AD039093AE038A829F
:100E50009B82AC82BD82C092AF03D092B003E0927D
:100E6000B103F092B203DF91CF91FF90EF90DF904A
:100E7000CF90BF90AF909F908F907F906F905F903A
:100E80004F900895AF92BF92CF92DF92EF92FF9270
:100E90000F931F93CF93DF936C017B018B01040FA2
:100EA000151FEB015E01AE18BF08C017D10759F03E
:100EB0006991D601ED91FC910190F081E02DC60180
:100EC0001995892B79F7C501DF91CF911F910F916A
:100ED000FF90EF90DF90CF90BF90AF90089520915A
:100EE0009D0330919E032817390771F490919B035D
:100EF00080919C03981741F0E0919B03F0E0EB5840
:100F0000FD4F808190E008958FEF9FEF0895089541
:100F1000EF92FF920F931F93CF93DF93DC015C96C8
:100F2000ED90FC905D97E114F10479F481E090E09C
:100F300013969C938E93129790E080E0DF91CF916F
:100F40001F910F91FF90EF9008955196ED91FC91B4
:100F5000529750968C915097982F90950FB75E9618
:100F60002C915E97122F127021FD6095F8942081CC
:100F7000112319F1282B2083E7012197F1F728E0AD
:100F8000462F50E0308160FF1AC0382B3083E701D4
:100F90002197F1F7BA0175956795215089F71123CB
:100FA00081F08081892380830FBF5C968D919C9115
:100FB0000197F1F781E090E0C1CF2923DCCF3923FD
:100FC000E5CF9081892BEFCF20919D0330919E0337
:100FD0002817390771F480919C0320919B0390E0BE
:100FE000805C9F4F821B910960E470E00E94751A3B
:100FF000089590E080E0089520919D0330919E0334
:1010000028173907B9F490919B0380919C03981796
:1010100089F0E0919B03F0E0EB58FD4F8081209137
:101020009B0330E02F5F3F4F2F73332720939B03A9
:1010300090E008958FEF9FEF089590E080E008958D
:10104000DC01EC91E03390F511968C91119728E832
:1010500030E0281B310987FD3395220F331F220F03
:10106000331F6217730784F012968C9128E532E0E3
:10107000281B310987FD3395220F331F220F331FA1
:10108000621773070CF49B0122503109220F331FA2
:101090004FB7F8948E2F90E0FC01EE0FFF1FE80F82
:1010A000F91FE751FD4F328321834FBF08951F93EE
:1010B000CF93DF93EC01162F8881803308F04EC068
:1010C00061E0812F0E9472048881282F30E0F901AD
:1010D000EE0FFF1FE20FF31FE751FD4F1F736081FB
:1010E000607C612B608319821A822CE0622F0E943F
:1010F000691A829FB001112430E020E0AB01420F59
:10110000531FFA01EE0FFF1FE40FF51FE751FD4FCC
:10111000908196FD16C02F5F3F4F2C30310571F73F
:10112000813009F51092800082E080938100109256
:10113000850010928400B19A80916F008260809344
:101140006F00E8818E2F90E0FC01EE0FFF1FE80F8B
:10115000F91FE751FD4F8081806480838881DF9192
:10116000CF911F910895823061F410929000809386
:101170009100109295001092940088BB80937100AA
:10118000E0CF833069F41092A00082E08093A10048
:101190001092A5001092A40089BB80937200D1CF59
:1011A0008111CFCF1092200182E080932101109213
:1011B0002501109224018ABB80937300C2CFAF92A5
:1011C000BF92CF92DF92EF92FF920F931F93CF9334
:1011D000DF936B017A01EC01C059DD4F28813CE0BF
:1011E000389F8001399F100D1124A0907402B12CFA
:1011F00027FF1FC0FB011182108288818F5F8883C7
:1012000088819801280F311D87FD3A95F6012A152E
:101210003B051CF488818C30C4F180819181049657
:1012200080349C4908F473C0F60180819181049652
:1012300070C088819801280F311D87FD3A952A15C5
:101240003B05DCF68881A801480F511D87FD5A95A2
:10125000FA01EE0FFF1FE40FF51FE751FD4F8081EC
:1012600086FFCBCF8881F801E80FF11D87FDFA9545
:10127000CF01EE0FFF1FE80FF91FE751FD4F8081EF
:1012800060E08F730E944404B8CF808191812881EF
:10129000A801420F511D27FD5A959A01FA01EE0F40
:1012A000FF1FE20FF31FE751FD4F21813281820FB3
:1012B000931FF7019183808388819801280F311D46
:1012C00087FD3A95F901EE0FFF1FE20FF31FE7517B
:1012D000FD4F808186FF22C08881080F111D87FD88
:1012E0001A95F801EE0FFF1FE00FF11FE751FD4FB8
:1012F000808161E08F73DF91CF911F910F91FF90FB
:10130000EF90DF90CF90BF90AF900C94440480E4B6
:101310009CE9F701918380838FEF8883DF91CF91E0
:101320001F910F91FF90EF90DF90CF90BF90AF9003
:1013300008950F931F93CF93DF938C01C4E1D5E001
:10134000C81BD90BBE0188E794E00E942008BE01AB
:1013500085E794E00E942008C4EAD6E0C01BD10BC8
:10136000BE0182E794E00E942008BE018FE694E06F
:10137000DF91CF911F910F910C9420080F931F9331
:10138000CF93DF938C01C4EAD6E0C81BD90BBE0112
:1013900088E794E00E942008BE0185E794E00E945F
:1013A0002008C4E1D5E0C01BD10BBE0182E794E068
:1013B0000E942008BE018FE694E0DF91CF911F913B
:1013C0000F910C942008CF92DF92EF92FF9261E090
:1013D00080E30E94440483E290E00197F1F760E02B
:1013E00080E30E9444040E94C0046B017C0181E3FD
:1013F0000E941B04892BA1F40E94C0046C197D0972
:101400008E099F0969387E458105910580F360E06A
:1014100070E080E89FEBFF90EF90DF90CF90089511
:101420000E94C0046B017C0181E30E941B040197B0
:1014300061F40E94C0046C197D098E099F09693806
:101440007E458105910580F3E2CF0E94C0046C19AE
:101450007D098E099F090E94BF1B20E030E048E60D
:1014600052E40E94171BD7CF4F925F926F927F92E8
:101470008F929F92AF92BF92CF92DF92EF92FF92A4
:101480000F931F93CF93DF9300D000D000D01F9213
:10149000CDB7DEB79A8789872A013B0109831A8372
:1014A0002B833C83DC015B96BC92AE925A97FC0185
:1014B000ED5BFF4F81E0AA94AB2809F080E08083C8
:1014C000E985FA85408251826282738289819A819C
:1014D000AB81BC8184839583A683B783C086D18684
:1014E000E286F38666A977A980AD91AD0E94BF1B05
:1014F00020E030E04AE754E40E94171B6D837E83AE
:101500008F839887E985FA8544865586668677862F
:101510009B01AC0169817A818B819C810E94761C40
:101520004B015C01A985BA8550968D929D92AD9232
:10153000BC9253972D813E814F815885C701B601DA
:101540000E94171B6B017C01E985FA85C48AD58A44
:10155000E68AF78A808D918D019759F5A301920152
:1015600060E070E0CB010E94A51AA985BA851C969F
:101570006D937D938D939C931F97A501940160E0DB
:1015800070E0CB010E94A51AE985FA85608B718B0A
:10159000828B938BA701960160E070E0CB010E94E3
:1015A000A51AA985BA8554966D937D938D939C93C6
:1015B00057972A960FB6F894DEBF0FBECDBFDF91C6
:1015C000CF911F910F91FF90EF90DF90CF90BF9040
:1015D000AF909F908F907F906F905F904F90089505
:1015E0000F931F93CF93DF93EC018B01FC01EE5B14
:1015F000FF4F8081882361F1888D998D8617970729
:1016000039F12C853D854E855F8560E070E0CB012A
:101610000E94A51A6C877D878E879F8728893989C4
:101620004A895B8960E070E0CB010E94A51A688B53
:10163000798B8A8B9B8B2C893D894E895F8960E0F1
:1016400070E0CB010E94A51A6C8B7D8B8E8B9F8BDB
:10165000198F088FDF91CF911F910F9108952F92CD
:101660003F924F925F926F927F928F929F92AF9232
:10167000BF92CF92DF92EF92FF920F931F93CF937F
:10168000DF931C016A017B0148015901A9019801FE
:10169000CB01B6010E94711C87FF3BC0F101C2AEB5
:1016A000D3AEE4AEF5AE8101025C1F4FF80180823B
:1016B0009182A282B38234968081882351F1F10114
:1016C000C68DD78D488059806A807B80A3019201A6
:1016D000C501B4010E94121B87FF2EC08882998227
:1016E000AA82BB82F10186A097A0A0A4B1A4F801B0
:1016F000C080D180E280F380A7019601C501B401CA
:101700000E94711CF101181624F5C6A2D7A2E0A60A
:10171000F1A6DF91CF911F910F91FF90EF90DF9095
:10172000CF90BF90AF909F908F907F906F905F9081
:101730004F903F902F900895A3019201C701B601E9
:101740000E94711C181674F6C882D982EA82FB8244
:10175000C9CFC2ACD3ACE4ACF5ACA7019601C501CE
:10176000B4010E94121B87FFD4CFF101CECF4F925C
:101770005F926F927F928F929F92AF92BF92CF9221
:10178000DF92EF92FF920F931F93CF93DF9300D0DE
:101790001F92CDB7DEB72B013C0180910D0288234B
:1017A000D1F11092A3031092A4031092A5031092FA
:1017B000A603A0909504B09096048AE0C82E87ED09
:1017C000D82E83E2E82E8CE3F82E9701860149E2B9
:1017D0005CE56FE87DE38BE794E00E94340A409279
:1017E000C7045092C8046092C9047092CA0400E011
:1017F00010E020E83FE340E050E060E87FEB8BE75B
:1018000094E00E942F0B61E070E08BE794E00E946F
:10181000F00A10920D028090A3039090A403A09070
:10182000A503B090A6038091A7039091A803A0916F
:10183000A903B091AA0389839A83AB83BC83809266
:10184000BF049092C004A092C104B092C2040E944E
:101850002305C090C304D090C404E090C504F09068
:10186000C604C092A703D092A803E092A903F09205
:10187000AA03A701960169817A818B819C810E94CC
:10188000121B882331F120E030E048E453E4C70123
:10189000B6010E94761C9B01AC0160E070E88BEB06
:1018A00094E40E94A51A0E94891B6B0188E794E0CA
:1018B0000E942008B60185E794E00E942008B60146
:1018C00082E794E00E942008B6018FE694E00E942F
:1018D0002008A3019201C501B4010E94A51A6B0161
:1018E0007C0120E030E0A9010E94711C181624F54B
:1018F00020E030E040E050E4C701B6010E94121B36
:1019000087FF24C081E080930D0284E090E00F9077
:101910000F900F900F90DF91CF911F910F91FF903B
:10192000EF90DF90CF90BF90AF909F908F907F907F
:101930006F905F904F90089520E030E040E050ECD1
:10194000C701B6010E94711C1816E4F289E090E00C
:10195000DECFFB0101900020E9F73197AF01461B74
:10196000570BDC01ED91FC910280F381E02D19947D
:101970008F929F92AF92BF92CF92DF92EF92FF929F
:101980000F931F93CF93DF93CDB7DEB7A1970FB619
:10199000F894DEBF0FBECDBF6C01990FEE08FF08B3
:1019A000F7FE4BC06DE283EB93E00E940C038C01C9
:1019B00022273327A9012C193D094E095F0919A2D5
:1019C000CE0181967C019AE0892E912CA12CB12C1C
:1019D000CA01B901A50194010E94471A605DF7018F
:1019E00062937F01211531054105510589F790E08A
:1019F00080E0309729F0BF0183EB93E00E94A90CAF
:101A0000080F191F62E372E083EB93E00E94A90CB8
:101A1000800F911FA1960FB6F894DEBF0FBECDBF09
:101A2000DF91CF911F910F91FF90EF90DF90CF90BA
:101A3000BF90AF909F908F900895A701960119A233
:101A40008E010F5D1F4F8AE0C82ED12CE12CF12CA6
:101A5000CA01B901A70196010E94471A605DF80109
:101A600062938F01211531054105510589F73097A2
:101A700039F0BF0183EB93E00E94A90C8C01C2CF27
:101A800010E000E0BFCFCF92DF92EF92FF926B01A8
:101A90007C0165E372E080E594E00E94A90C62E3BA
:101AA00072E080E594E00E94A90C80910C028823EA
:101AB00061F00E94170560939F037093A0038093C9
:101AC000A1039093A20310920C0264EA76E088E7E7
:101AD00094E00E94200864E175E085E794E00E94AC
:101AE000200864E175E082E794E00E94200864EA3F
:101AF00076E08FE694E00E94200880919F03909109
:101B0000A003A091A103B091A203C80ED91EEA1EA2
:101B1000FB1E0E941705C616D706E806F90650F404
:101B200081E080930C0288E090E0FF90EF90DF90DE
:101B3000CF90089587E090E0F8CFCF92DF92EF92B8
:101B4000FF92CF93DF93EC012A853B854C855D8521
:101B50006A817B818C819D810E94E31C2E813F8163
:101B6000488559850E94761C6B017C0120E030E09D
:101B700040EA52E40E94711C181634F4C12CD12C96
:101B800080EAE82E82E4F82EC701B601DF91CF91FA
:101B9000FF90EF90DF90CF9008954F925F926F92F9
:101BA0007F92AF92BF92CF92DF92EF92FF920F930C
:101BB0001F93CF93DF9300D000D0CDB7DEB76983FA
:101BC0007A838B839C835E834D83280139018091C6
:101BD0000B02882309F441C020E030E0A901C301D1
:101BE000B8010E94121B87FD16C020E030E0A90159
:101BF000C701B6010E94121B87FD0DC0A09095047D
:101C0000B090960400E010E09801B301A2018BE7C8
:101C100094E00E94340A89819A81AB81BC818093CF
:101C2000C7049093C804A093C904B093CA0400E009
:101C300010E028EC32E440E050E068EC72EC8BE716
:101C400094E00E942F0B70E060E08BE794E00E942C
:101C5000F00A0E94DE0110920B028D819E810E948B
:101C6000D3068D819E810E949D0D409097035090D8
:101C700098036090990370909A036093BF047093E7
:101C8000C0048093C1049093C2040E9423058091F4
:101C9000C3049091C404A091C504B091C60480937C
:101CA000970390939803A0939903B0939A036CE3DE
:101CB00072E080E594E00E94A90C62E372E080E5A6
:101CC00094E00E94A90CC0909703D0909803E090F4
:101CD0009903F0909A03A7019601C301B2010E94F3
:101CE000121B882339F0C701B6010E94891BCB0162
:101CF0000E94990981E090E026960FB6F894DEBF25
:101D00000FBECDBFDF91CF911F910F91FF90EF904C
:101D1000DF90CF90BF90AF907F906F905F904F908B
:101D20000895CF93DF93EC0188810E94A304BC0146
:101D3000990F880B990B0E94C11B6A837B838C834C
:101D40009D83CE01DF91CF910C949D0DCF92DF92B8
:101D5000EF92FF9280918F0381110DC00E941705B1
:101D600060938B0370938C0380938D0390938E0309
:101D700081E080938F0364E175E088E794E00E943E
:101D8000200864EA76E085E794E00E94200864EA8F
:101D900076E082E794E00E94200864E175E08FE637
:101DA00094E00E94200887EE94E00E94910E20E0CB
:101DB00030E040E051E40E94121B87FF11C0809187
:101DC0008A0381110DC00E94170560938B037093E5
:101DD0008C0380938D0390938E0381E080938A031C
:101DE000C0908B03D0908C03E0908D03F0908E0315
:101DF00088EEC80E83E0D81EE11CF11C0E94170576
:101E0000C616D706E806F90668F480918A03882387
:101E100049F010928A0383E090E0FF90EF90DF900A
:101E2000CF90089582E090E0F8CF1F920F920FB606
:101E30000F9211242F933F938F939F93AF93BF9350
:101E40008091820390918303A0918403B0918503D4
:101E50003091810323E0230F2D3758F50196A11D02
:101E6000B11D209381038093820390938303A093F9
:101E70008403B09385038091860390918703A0919A
:101E80008803B09189030196A11DB11D809386033B
:101E900090938703A0938803B0938903BF91AF9178
:101EA0009F918F913F912F910F900FBE0F901F9098
:101EB000189526E8230F0296A11DB11DD2CF1F92BF
:101EC0000F920FB60F9211240BB60F922F933F93E0
:101ED0004F935F936F937F938F939F93AF93BF9332
:101EE000EF93FF9383EB93E00E94EA02FF91EF915F
:101EF000BF91AF919F918F917F916F915F914F9122
:101F00003F912F910F900BBE0F900FBE0F901F901F
:101F100018951F920F920FB60F9211240BB60F92C5
:101F20002F938F939F93EF93FF93E091C303F091CF
:101F3000C4038081E091C903F091CA0382FD1DC0F2
:101F400090818091CC038F5F8F732091CD03821796
:101F500041F0E091CC03F0E0ED54FC4F958F80937D
:101F6000CC03FF91EF919F918F912F910F900BBE1A
:101F70000F900FBE0F901F9018958081F2CF1F9287
:101F80000F920FB60F9211240BB60F922F933F931F
:101F90004F935F936F937F938F939F93AF93BF9371
:101FA000EF93FF93E0919D03F0919E03309749F0EA
:101FB000A685B7858585968D91FF16C09C9189234E
:101FC000B1F4FF91EF91BF91AF919F918F917F916C
:101FD0006F915F914F913F912F910F900BBE0F909A
:101FE0000FBE0F901F9018959C91892351F7A389DC
:101FF000B4899C918589809589238C93868997895A
:102000000197F1F7608D718DA685B785558538E00C
:1020100020E0CB010197F1F7822F90E0959587950D
:10202000282F4C91452309F02068315091F7868D77
:1020300081FD209580919C0390E001968F739927F4
:1020400030919B03381799F0A0919C03B0E0AB58F6
:10205000BD4F2C9380939C03828D938D0197F1F754
:10206000A389B4898C919589892B8C93AACF868D6D
:102070008160868FF1CF1F920F920FB60F921124BD
:102080000BB60F922F933F934F935F936F937F9372
:102090008F939F93AF93BF93EF93FF9348E251E0E9
:1020A00064E271E090E080E00E94DF08FF91EF9130
:1020B000BF91AF919F918F917F916F915F914F9160
:1020C0003F912F910F900BBE0F900FBE0F901F905E
:1020D00018951F920F920FB60F9211240BB60F9204
:1020E0002F933F934F935F936F937F938F939F9320
:1020F000AF93BF93EF93FF9348EA50E064EA70E038
:1021000083E090E00E94DF08FF91EF91BF91AF91D3
:102110009F918F917F916F915F914F913F912F91FF
:102120000F900BBE0F900FBE0F901F9018951F922F
:102130000F920FB60F9211240BB60F922F933F936D
:102140004F935F936F937F938F939F93AF93BF93BF
:10215000EF93FF9348E950E064E970E082E090E09B
:102160000E94DF08FF91EF91BF91AF919F918F91F6
:102170007F916F915F914F913F912F910F900BBE87
:102180000F900FBE0F901F9018951F920F920FB6D1
:102190000F9211240BB60F922F933F934F935F939F
:1021A0006F937F938F939F93AF93BF93EF93FF931F
:1021B00048E850E064E870E081E090E00E94DF08C9
:1021C000FF91EF91BF91AF919F918F917F916F910F
:1021D0005F914F913F912F910F900BBE0F900FBECB
:1021E0000F901F901895FC0190917402903398F411
:1021F00081E0890F809374029083892F90E0FC0125
:10220000EE0FFF1FE80FF91FE751FD4F88EB9BE032
:102210009283818308958FEF808308954F925F9218
:102220006F927F92AF92BF92CF92DF92EF92FF9226
:102230000F931F931092B6031092B50338EE432EFE
:1022400033E0532E612C712C4092B7035092B803A7
:102250006092B9037092BA0382E192E09093B40362
:102260008093B30385EC90E09093C0038093BF0309
:1022700084EC90E09093C2038093C10380EC90E0E3
:102280009093C4038093C30381EC90E09093C603C2
:102290008093C50382EC90E09093C8038093C703BA
:1022A00086EC90E09093CA038093C9031092CC030C
:1022B0001092CD031092CE031092CF0388E794E0E2
:1022C0000E94F31085E794E00E94F31082E794E007
:1022D0000E94F3108FE694E00E94F31010925304D2
:1022E0001092520440925404509255046092560445
:1022F0007092570484E292E09093510480935004CA
:102300001092670410926604109269041092680497
:1023100010926B0410926A0410926D0410926C0477
:1023200060916E046E7F6D7F60936E046695617040
:1023300081E068278BE00E94440461E08BE00E940A
:102340007204E7E1F3E0E491E0936004E1EDF2E090
:10235000E491F0E0EE0FFF1FE455FD4F859194915D
:10236000909362048093610460E08AE00E947204AA
:1023700080916E0481FD04C061E08AE00E94440403
:102380008AE080935C04E6E1F3E0E491E0935D048D
:10239000E0EDF2E0E491F0E0EE0FFF1FEE56FD4FAE
:1023A0008591949190935F0480935E041092F6045B
:1023B0001092F5041092F7041092F8041092F904A8
:1023C0001092FA041092E8041092E7041092E904C3
:1023D0001092EA041092EB041092EC041092DA04CA
:1023E0001092D9041092DB041092DC041092DD04E8
:1023F0001092DE041092CC041092CB041092CD0403
:102400001092CE041092CF041092D00483EC94E08A
:1024100090939A04809399048FEB94E0909398049E
:102420008093970487EC94E090939C0480939B04A2
:102430001092BD041092B5041092B6041092B70425
:102440001092B80480E090E0AFE7B3E48093B90461
:102450009093BA04A093BB04B093BC0494E6492EB5
:10246000512C612C712C4092B1045092B2046092B4
:10247000B3047092B40470E060E08BE794E00E94D3
:10248000F00AAA24A394B12CC12CD12C7601970177
:10249000860140E050E060E87FE38BE794E00E9433
:1024A000340A0E9417050091B1041091B2042091E2
:1024B000B3043091B404601B710B820B930B6093D7
:1024C0009D0470939E0480939F049093A0048BE4DA
:1024D00095E0909322058093210587E495E0909301
:1024E000200580931F058FE495E090932405809349
:1024F000230510924505C0923D05D0923E05E0921D
:102500003F05F092400580E090E0AFE7B3E48093B0
:10251000410590934205A0934305B0934405409232
:10252000390550923A0560923B0570923C0561E096
:1025300070E083E095E00E94F00A97018601B70100
:10254000A60183E095E00E94340A0E94170540909E
:10255000390550903A0560903B0570903C05641930
:102560007509860997096093250570932605809360
:102570002705909328051F910F91FF90EF90DF9012
:10258000CF90BF90AF907F906F905F904F900895E5
:10259000CF93DF9300D01F92CDB7DEB7789484B588
:1025A000826084BD84B5816084BD85B5826085BD4F
:1025B00085B5816085BD80916E00816080936E00DD
:1025C00010928100809181008260809381008091CF
:1025D0008100816080938100809180008160809380
:1025E00080008091B10084608093B1008091B00040
:1025F00081608093B000809191008260809391000F
:102600008091910081608093910080919000816021
:10261000809390008091A10082608093A1008091BE
:10262000A10081608093A1008091A00081608093CF
:10263000A00080912101826080932101809121017D
:10264000816080932101809120018160809320012D
:1026500080917A00846080937A0080917A00826011
:1026600080937A0080917A00816080937A008091D3
:102670007A00806880937A001092C10080E090E038
:10268000A8E4B2E48093BF049093C004A093C10473
:10269000B093C2041092C3041092C4041092C504F3
:1026A0001092C6048093C7049093C804A093C904F1
:1026B000B093CA048091BD04811149C0E09199048E
:1026C000F0919A04C080D180E280F380C092A1048E
:1026D000D092A204E092A304F092A404E0919704A3
:1026E000F091980480819181A281B3818093A504A7
:1026F0009093A604A093A704B093A8048090B90473
:102700009090BA04A090BB04B090BC04A5019401C1
:10271000C701B6010E94711C18164CF48092A104E6
:102720009092A204A092A304B092A40410C080903E
:10273000B5049090B604A090B704B090B804A50179
:102740009401C701B6010E94121B87FDE7CF81E00B
:102750008093BD0400E010E028EC32E440E050E05B
:1027600068EC72EC8BE794E00E942F0B70E060E065
:102770008BE794E00E94F00A61E08DE00E94720411
:1027800061E080E30E94720460E080E30E94440400
:102790008BE390E09093F6048093F5048AE999E83E
:1027A000A6EEB4E48093FB049093FC04A093FD0494
:1027B000B093FE0481EE9AE7A4E7BFEB8093FF0499
:1027C00090930005A0930105B093020560E08BE3B0
:1027D0000E9472048AE390E09093E8048093E704F7
:1027E00080E090E9AFE1B6E48093ED049093EE04CD
:1027F000A093EF04B093F00482E193E8A0E9BFEB6B
:102800008093F1049093F204A093F304B093F40442
:1028100060E08AE30E9472048DE390E09093DA0412
:102820008093D90480EC92E9A6E5B8E48093DF04B4
:102830009093E004A093E104B093E20481E895E969
:10284000A3EDBFEB8093E3049093E404A093E5042D
:10285000B093E60460E08DE30E9472048CE390E0A4
:102860009093CC048093CB0480E09FE7A5EDB7E480
:102870008093D1049093D204A093D304B093D40452
:102880008BE39FEDAFEDBFEB8093D5049093D6041F
:10289000A093D704B093D80460E08CE30E94720444
:1028A0000AE010E01C821B8289E30E94A3047C01E1
:1028B0000E94B80C8B819C818E0D9F1D9C838B8305
:1028C00065E070E080E090E00E94E50401501109AD
:1028D00059F764E472E083EB93E00E94A90C8B81CA
:1028E0009C810E94B80C8B819C816AE070E00E9400
:1028F000751A7093B6026093B5026DE472E083EBD3
:1029000093E00E94A90C8091B5029091B6020E94BA
:10291000B80C68EE73E080E090E00E94E5040E944D
:102920001705AB01BC018091B7029091B802A0914C
:10293000B902B091BA020696A11DB11D8417950780
:10294000A607B7070CF04CC089E30E94A3042091AE
:10295000B5023091B602BC01621B730BCB0101962C
:10296000039710F470E060E0072E000C880B990BC1
:102970000E94C11B26EA3BE944EC5BE30E94171B63
:1029800028E638EE4FE95BE30E94761C20E030E059
:1029900040EC50E40E94761C20E030E04AE754E42A
:1029A0000E94171B9B01AC016091A3037091A403CB
:1029B0008091A5039091A6030E94A61A6093A30399
:1029C0007093A4038093A5039093A6030E94170518
:1029D0006093B7027093B8028093B9029093BA02E1
:1029E0002090090230900A0293E02916310479F10F
:1029F000A4E02A16310409F487C4B2E02B1631048E
:102A000009F0C3C168EE73E080E090E00E94E50445
:102A10006EE270E088E794E00E9457086FE270E091
:102A200085E794E00E94570862E370E082E794E053
:102A30000E94570863E370E08FE694E00E94570815
:102A400083E090E090930A02809309029EC10E9465
:102A500017050091BC021091BD022091BE02309179
:102A6000BF020617170728073907E0F48091BB0259
:102A70008F5F8093BB02853008F4BDC00E941705AC
:102A800064547D4F8F4F9F4F6093BC027093BD0283
:102A90008093BE029093BF0260E08DE00E944404E8
:102AA0001092BB02A0910702B0910802BC83AB83D5
:102AB000159709F493C187EE94E00E94D30689ED3F
:102AC00094E00E94D3060E9417054B015C0180919F
:102AD0000102882361F00E94E3096093CC027093A5
:102AE000CD028093CE029093CF021092010280918A
:102AF000C8029091C902A091CA02B091CB028C5039
:102B00009E4FAF4FBF4F88159905AA05BB050CF026
:102B10005BC00E94E309C090C402D090C502E0905F
:102B2000C602F090C70287EE94E00E949D0D9B01C3
:102B3000AC01C701B6010E94A51A20E030E04CE8C4
:102B400052EC0E94121B87FF1AC08091000288235A
:102B500071F089ED94E00E949D0D6093C002709326
:102B6000C1028093C2029093C3021092000210929D
:102B7000C4021092C5021092C6021092C702C09001
:102B8000A303D090A403E090A503F090A60320E057
:102B900030E0A901C701B6010E94711C18160CF0A3
:102BA00043C020E030E04AE253E4C701B6010E948E
:102BB000711C18160CF442C08092C8029092C9028F
:102BC000A092CA02B092CB028B819C818A3091057F
:102BD00008F0D7C0FC018827EF50FA4E8F4F0C94B5
:102BE000891A2116CD16C116C1168119C1162B18C6
:102BF000BF18DB187A190E9417056C597F4F8F4F49
:102C00009F4F6093BC027093BD028093BE0290936D
:102C1000BF028DE00E941B0461E0892B09F060E097
:102C20008DE00E9444043ECF20E030E04AE253ECC5
:102C3000C701B6010E94121B87FFBECF0E94E309A5
:102C4000BBCF80910602882331F089ED94E00E9489
:102C5000910E10920602809102028823A9F1A090A1
:102C60009504B0909604C12CD12CF0E8EF2EFFE330
:102C7000FF2E00E010E0980140E050E060E771E4D2
:102C80008BE794E00E94340A80E090E0A0E2B1E497
:102C90008093C7049093C804A093C904B093CA0456
:102CA00000E010E028EC32E440E050E068EC72EC28
:102CB0008BE794E00E942F0B61E070E08BE794E0DB
:102CC0000E94F00A1092020285EF94E00E94D3065F
:102CD00085EF94E00E949D0D8090D2029090D302E7
:102CE000A090D402B090D5026093BF047093C0044A
:102CF0008093C1049093C2040E942305C090C30432
:102D0000D090C404E090C504F090C604C092D202F2
:102D1000D092D302E092D402F092D502A70196019C
:102D2000C501B4010E94121B882319F1C701B60125
:102D30000E94891BCB010E94BE090E94E30920E08A
:102D400030E040E251E40E94121B87FF21C08091D5
:102D5000D0029091D10201969093D1028093D0023B
:102D600004973CF091E090930202A7E0B0E0BC83AE
:102D7000AB838B819C819093080280930702109211
:102D8000E80230920A02209209020E948303C7CD12
:102D90001092D1021092D002ECCF809106028823CB
:102DA000C9F089ED94E00E94910E10920602C12CA8
:102DB000D12CE0E8EE2EEFE3FE2E00E010E020E75D
:102DC00031E449ED54E00E94CD0D909308028093C8
:102DD0000702D7CF60E070E0CB01E9CF809103021A
:102DE000882321F00E94DE0110920302E091DA02B2
:102DF000F091DB02EB30F10508F0A6C08827EC5F0C
:102E0000F84E8F4F0C94891A0F179217A717AA170D
:102E1000C317E017EB17F71707180E181A1887EEE5
:102E200094E00E94910E7B018C0189ED94E00E9458
:102E3000910E69837A836C018BEC94E00E94910E71
:102E40002B013C010E94E3094B015C0129813A817D
:102E5000A601B701C8010E94711C18160CF442C0EB
:102E60001092D6021092D7021092D8021092D90274
:102E70009701A801C301B2010E94121B87FF42C043
:102E800080E090E0A4EBB2EC8093D6029093D7025E
:102E9000A093D802B093D902A5019401C301B20155
:102EA0000E94711C1816DCF480E090E0A4EBB2E400
:102EB0008093D6029093D702A093D802B093D90200
:102EC00020E030E0A9016091D6027091D702809194
:102ED000D8029091D9020E94121B8823E1F081E070
:102EE00090E01BC080E090E0A4E3B3E48093D602BE
:102EF0009093D702A093D802B093D902E980FA80C8
:102F00008601B6CF9701A801C501B4010E94121B2A
:102F100087FDCACFD5CF82E090E09093DB0280930B
:102F2000DA0212C06091D6027091D7028091D80265
:102F30009091D9020E94B70BA2E0B0E0099779F214
:102F4000B093DB02A093DA028B819C813ECF0E947A
:102F5000A60EE3CF0E94E3096B017C018BEC94E0A9
:102F60000E94910E9B01AC01C701B6010E94A61AF6
:102F700020E030E048EC52E40E94711C1816ECF09E
:102F800085E090E0CACFC12CD12C760100E010E0A2
:102F900020E231E447EE54E0C901B8010E94CD0DB2
:102FA000089729F0A6E0B0E0BC83AB83CDCF62E602
:102FB00072E080E594E00E94A90C84E090E0ADCF3F
:102FC00064EF71E080E090E00E94430D0797C1F24A
:102FD000A6E0B0E0B5CF60E070E084EB92E40E9440
:102FE000B70BA7E0B0E0099709F0AACFF1CF0E9494
:102FF000E30920E030E040EA52E40E94121B87FD22
:1030000003C088E090E089CF89E090E086CF0E94FD
:10301000A60EA3E0B0E0029739F696CF60E070E02C
:1030200084EB92EC0E94B70B099709F48DCF8AE0EC
:1030300090E073CFC12CD12C760100E010E020E2AB
:1030400031E447EE54E0C901B8010E94CD0D089764
:1030500009F0A8CF79CF809104028823A9F11092BA
:10306000A3031092A4031092A5031092A603A090AC
:103070009504B0909604C12CD12C7601970186015D
:1030800040E050E060EA71E48BE794E00E94340A8B
:10309000C092C704D092C804E092C904F092CA0456
:1030A00000E010E028EC32E440E050E068EC72EC24
:1030B0008BE794E00E942F0B61E070E08BE794E0D7
:1030C0000E94F00A109204028090DE029090DF02CB
:1030D000A090E002B090E1028091A3039091A4033C
:1030E000A091A503B091A6038093BF049093C00460
:1030F000A093C104B093C2040E942305C090C304EE
:10310000D090C404E090C504F090C604C092DE02E2
:10311000D092DF02E092E002F092E102A701960174
:10312000C501B4010E94121B882309F40DCFC70109
:10313000B6010E94891BCB010E94BE090E94E309CF
:1031400020E030E040E251E40E94121B87FF12C0F1
:103150008091DC029091DD0201969093DD028093D4
:10316000DC0204970CF4F0CE91E090930402A7E007
:10317000B0E01ACF1092DD021092DC02E5CE91E0B1
:103180009093060268EE73E080E090E00E94430DA9
:103190009093080280930702079709F4F2CD80917B
:1031A000E802882309F4EDCDA6E0B0E0B093080270
:1031B000A0930702E6CD809105028823A9F1109221
:1031C000A3031092A4031092A5031092A603A0904B
:1031D0009504B0909604C12CD12C760197018601FC
:1031E00040E050E060EA71E48BE794E00E94340A2A
:1031F000C092C704D092C804E092C904F092CA04F5
:1032000000E010E028EC32E440E050E068EC72ECC2
:103210008BE794E00E942F0B61E070E08BE794E075
:103220000E94F00A109205028090E4029090E5025C
:10323000A090E602B090E7028091A3039091A403CE
:10324000A091A503B091A6038093BF049093C004FE
:10325000A093C104B093C2040E942305C090C3048C
:10326000D090C404E090C504F090C604C092E4027B
:10327000D092E502E092E602F092E702A701960101
:10328000C501B4010E94121B882329F1C701B601B0
:103290000E94891BCB010E9499098BEC94E00E944B
:1032A000910E20E030E040E251E40E94121B87FFC3
:1032B0001CC08091E2029091E30201969093E30298
:1032C0008093E20204973CF0B1E0B093050287E0FE
:1032D00090E09C838B83AB81BC81B0930802A09368
:1032E0000702B1E0B093E8024CCD1092E3021092D5
:1032F000E202F1CF60E070E084E393E40E94B70B58
:1033000064CD2B803C803DCD6CED75E088E794E08A
:103310000E9420086CED75E085E794E00E9420088B
:103320006CED75E082E794E00E9420086CED75E09A
:103330008FE694E00E9420082091780430E0C901D3
:10334000880F991F820F931FFC01E751FD4F808169
:103350008F7B80832091750430E0C901880F991F0D
:10336000820F931FFC01E751FD4F80818F7B80838B
:103370002091720430E0C901880F991F820F931FBA
:10338000FC01E751FD4F80818F7B808320916F048A
:1033900030E0C901880F991F820F931FFC01E7518C
:1033A000FD4F80818F7B808360E08EE20E947204FB
:1033B00060E08FE20E94720460E082E30E94720487
:1033C00060E083E30E9472040E9417050091790374
:1033D00010917A0320917B0330917C03601B710B69
:1033E000820B930B613D774081059105A0F00E940F
:1033F00017056093790370937A0380937B0390930E
:103400007C038DE00E941B0461E0892B09F060E0E1
:103410008DE00E9444040E94170500917D031091E5
:103420007E0320917F0330918003601B710B820B20
:10343000930B653F71408105910550F00E9417057F
:1034400060937D0370937E0380937F03909380034A
:1034500084E090E0F7CA84E292E090935104809374
:10346000500480919D0390919E038055944071F487
:10347000E0916304F09164049081809165048095EB
:103480008923808310929E0310929D030895A1E2E8
:103490001A2EAA1BBB1BFD010DC0AA1FBB1FEE1FCE
:1034A000FF1FA217B307E407F50720F0A21BB30B19
:1034B000E40BF50B661F771F881F991F1A9469F795
:1034C00060957095809590959B01AC01BD01CF01F1
:1034D0000895991B79E004C0991F961708F0961B70
:1034E000881F7A95C9F78095089597FB072E16F4E3
:1034F000009407D077FD09D00E94911A07FC05D0EF
:103500003EF4909581959F4F0895709561957F4FFA
:103510000895EE0FFF1F881F8BBF0790F691E02DD7
:103520001994AA1BBB1B51E107C0AA1FBB1FA617FA
:10353000B70710F0A61BB70B881F991F5A95A9F75C
:1035400080959095BC01CD0108955058BB27AA27BE
:103550000E94BD1A0C94371C0E94291C38F00E944E
:10356000301C20F039F49F3F19F426F40C94261CEB
:103570000EF4E095E7FB0C94201CE92F0E94481CF8
:1035800058F3BA17620773078407950720F079F498
:10359000A6F50C946A1C0EF4E0950B2EBA2FA02D04
:1035A0000B01B90190010C01CA01A0011124FF27F0
:1035B000591B99F0593F50F4503E68F11A16F040EB
:1035C000A22F232F342F4427585FF3CF46953795EA
:1035D0002795A795F0405395C9F77EF41F16BA0BAF
:1035E000620B730B840BBAF09150A1F0FF0FBB1F5D
:1035F000661F771F881FC2F70EC0BA0F621F731FA6
:10360000841F48F4879577956795B795F7959E3F02
:1036100008F0B0CF9395880F08F09927EE0F979593
:10362000879508950E94FC1B08F481E008950E948C
:103630002B1B0C94371C0E94301C58F00E94291C34
:1036400040F029F45F3F29F00C94201C51110C9498
:103650006B1C0C94261C0E94481C68F39923B1F340
:10366000552391F3951B550BBB27AA2762177307A8
:10367000840738F09F5F5F4F220F331F441FAA1F3C
:10368000A9F335D00E2E3AF0E0E832D091505040F8
:10369000E695001CCAF72BD0FE2F29D0660F771FA6
:1036A000881FBB1F261737074807AB07B0E809F08C
:1036B000BB0B802DBF01FF2793585F4F3AF09E3F11
:1036C000510578F00C94201C0C946B1C5F3FE4F3C4
:1036D000983ED4F3869577956795B795F7959F5F54
:1036E000C9F7880F911D9695879597F90895E1E0A0
:1036F000660F771F881FBB1F621773078407BA07FF
:1037000020F0621B730B840BBA0BEE1F88F7E09559
:1037100008950E94901B6894B1110C946B1C08953D
:103720000E94501C88F09F5798F0B92F9927B751E5
:10373000B0F0E1F0660F771F881F991F1AF0BA9555
:10374000C9F714C0B13091F00E946A1CB1E008952D
:103750000C946A1C672F782F8827B85F39F0B93F1F
:10376000CCF3869577956795B395D9F73EF4909508
:103770008095709561957F4F8F4F9F4F0895E89486
:1037800009C097FB3EF490958095709561957F4FA9
:103790008F4F9F4F9923A9F0F92F96E9BB27939557
:1037A000F695879577956795B795F111F8CFFAF467
:1037B000BB0F11F460FF1BC06F5F7F4F8F4F9F4F98
:1037C00016C0882311F096E911C0772321F09EE8F6
:1037D000872F762F05C0662371F096E8862F70E05C
:1037E00060E02AF09A95660F771F881FDAF7880F36
:1037F0009695879597F90895990F0008550FAA0B8C
:10380000E0E8FEEF16161706E807F907C0F01216F3
:103810001306E407F50798F0621B730B840B950BF6
:1038200039F40A2661F0232B242B252B21F408954B
:103830000A2609F4A140A6958FEF811D811D0895E8
:1038400097F99F6780E870E060E008959FEF80EC53
:10385000089500240A9416161706180609060895F6
:1038600000240A9412161306140605060895092E5C
:103870000394000C11F4882352F0BB0F40F4BF2BCB
:1038800011F460FF04C06F5F7F4F8F4F9F4F08950B
:1038900057FD9058440F551F59F05F3F71F0479501
:1038A000880F97FB991F61F09F3F79F087950895E6
:1038B000121613061406551FF2CF4695F1DF08C005
:1038C000161617061806991FF1CF86957105610522
:1038D00008940895E894BB2766277727CB0197F9CA
:1038E00008950E94FC1B08F48FEF08950E94891C24
:1038F0000C94371C0E94291C38F00E94301C20F0C8
:10390000952311F00C94201C0C94261C11240C946B
:103910006B1C0E94481C70F3959FC1F3950F50E0FB
:10392000551F629FF001729FBB27F00DB11D639F71
:10393000AA27F00DB11DAA1F649F6627B00DA11D17
:10394000661F829F2227B00DA11D621F739FB00DBD
:10395000A11D621F839FA00D611D221F749F33272D
:10396000A00D611D231F849F600D211D822F762FC6
:103970006A2F11249F5750409AF0F1F088234AF0A3
:10398000EE0FFF1FBB1F661F771F881F915050400F
:10399000A9F79E3F510580F00C94201C0C946B1CE1
:1039A0005F3FE4F3983ED4F3869577956795B79596
:1039B000F795E7959F5FC1F7FE2B880F911D9695B0
:1039C000879597F90895FA01EE0FFF1F30962105AC
:1039D0003105A1F16115710561F48038BFE39B07E2
:1039E00049F168949038810561F08038BFEF9B07FA
:1039F00041F099234AF5FF3FE1053105210519F111
:103A0000E8940894E795D901AA2329F4AB2FBE2F97
:103A1000F85FD0F310C0FF5F70F4A695E0F7F739B8
:103A200050F019F0FF3A38F49F779F930DD00F9024
:103A300007FC9058089546F00C94261C60E070E056
:103A400080E89FE308954FE79F775F934F933F93FD
:103A50002F930E94DE1D2F913F914F915F910E9405
:103A6000761C0C943B1D29F416F00C94201C0C942D
:103A70006A1C0C94261C0E94501CA8F39638A0F7D0
:103A800007F80F92E8942BE33AEA48EB5FE70E94CD
:103A90008C1C0F920F920F924DB75EB70F920E943F
:103AA000261EE4EEF0E00E946D1D4F915F91EF91B4
:103AB000FF91E595EE1FFF1F49F0FE57E068442790
:103AC000EE0F441FFA95E1F74195550B0E94A01D9A
:103AD0000F9007FE0C94941D0895DF93CF931F93CE
:103AE0000F93FF92EF92DF927B018C01689406C0E6
:103AF000DA2EEF010E94891CFE01E894A591259120
:103B0000359145915591A6F3EF010E94BD1AFE0132
:103B10009701A801DA9469F7DF90EF90FF900F9179
:103B20001F91CF91DF9108959B01AC0160E070E09F
:103B300080E89FE30C94171B0C94201C0C945A1ED5
:103B40000E94501CD8F39923C9F3940F511DA3F37D
:103B50009150504094F059F0882332F0660F771F4F
:103B6000881F91505040C1F79E3F51052CF7880F98
:103B7000911D9695879597F908955F3FACF0983E13
:103B80009CF0BB27869577956795B79508F4B1604B
:103B90009395C1F7BB0F58F711F460FFE8CF6F5F43
:103BA0007F4F8F4F9F4FE3CF0C946B1C16F00C94FC
:103BB0005A1E0C94261C68940C94201C0E94501CC5
:103BC000A8F39923C1F3AEF3DF93CF931F930F9321
:103BD000FF92C92FDD2788232AF02197660F771FD0
:103BE000881FDAF720E030E040E85FEB9FE3883998
:103BF00020F0803E38F021968F770E94A61AECE0E4
:103C0000F1E004C00E94A61AE9E3F1E00E946D1DF4
:103C10008B01BE01EC01FB2E6F5771097595771F63
:103C2000880B990B0E94C11B28E132E741E35FE357
:103C30000E94891CAF2D9801AE01FF900F911F913A
:103C4000CF91DF910E94BD1A0C94371CFA01DC0160
:103C5000AA0FBB1F9B01AC01BF5728F422273327B3
:103C60004427507820C0B75190F4AB2F00244695DC
:103C700037952795011CA395D2F3002071F0220FF0
:103C8000331F441FB395DAF30ED00C94A51A61309C
:103C90007105A0E88A07B94630F49B01AC0166279C
:103CA000772788279078309621F0208331834283CC
:103CB000538308959F3F31F0915020F48795779575
:103CC0006795B795880F911D9695879597F90895F3
:103CD00011E0CAEAD1E000E006C0802FFE010E9498
:103CE000891A2196011DCB3AD10780E00807A9F770
:043CF000F894FFCF76
:103CF40001010101010101010002000101010000B3
:103D040000000C034207AD025903DE02BC02D002DC
:103D140000000000880742071D088707E407FC0726
:103D24006F070D0A005354524146450072756E6E7A
:103D3400696E670073756D2069733A20007A657245
:103D44006F4779726F566F6C746167652069733A57
:103D54002000537461746520697320524556000035
:00000001FF
